{
    "abi": [
        {
            "inputs": [
                {
                    "internalType": "uint256",
                    "name": "minimum",
                    "type": "uint256"
                }
            ],
            "name": "createKickstarter",
            "outputs": [],
            "stateMutability": "nonpayable",
            "type": "function"
        },
        {
            "inputs": [],
            "name": "getDeployedAdresses",
            "outputs": [
                {
                    "internalType": "address[]",
                    "name": "",
                    "type": "address[]"
                }
            ],
            "stateMutability": "view",
            "type": "function"
        }
    ],
    "devdoc": {
        "kind": "dev",
        "methods": {},
        "version": 1
    },
    "evm": {
        "assembly": "    /* \"kickstarter.sol\":67:468  contract FactoryKickstarter {\r... */\n  mstore(0x40, 0x80)\n  callvalue\n  dup1\n  iszero\n  tag_1\n  jumpi\n  0x00\n  dup1\n  revert\ntag_1:\n  pop\n  dataSize(sub_0)\n  dup1\n  dataOffset(sub_0)\n  0x00\n  codecopy\n  0x00\n  return\nstop\n\nsub_0: assembly {\n        /* \"kickstarter.sol\":67:468  contract FactoryKickstarter {\r... */\n      mstore(0x40, 0x80)\n      callvalue\n      dup1\n      iszero\n      tag_1\n      jumpi\n      0x00\n      dup1\n      revert\n    tag_1:\n      pop\n      jumpi(tag_2, lt(calldatasize, 0x04))\n      shr(0xe0, calldataload(0x00))\n      dup1\n      0x7fa06240\n      eq\n      tag_3\n      jumpi\n      dup1\n      0x9cb48dec\n      eq\n      tag_4\n      jumpi\n    tag_2:\n      0x00\n      dup1\n      revert\n        /* \"kickstarter.sol\":280:465  function createKickstarter(uint minimum) public{\r... */\n    tag_3:\n      tag_5\n      0x04\n      dup1\n      calldatasize\n      sub\n      dup2\n      add\n      swap1\n      tag_6\n      swap2\n      swap1\n      tag_7\n      jump\t// in\n    tag_6:\n      tag_8\n      jump\t// in\n    tag_5:\n      stop\n        /* \"kickstarter.sol\":156:268  function getDeployedAdresses() public view returns(address[] memory) {\r... */\n    tag_4:\n      tag_9\n      tag_10\n      jump\t// in\n    tag_9:\n      mload(0x40)\n      tag_11\n      swap2\n      swap1\n      tag_12\n      jump\t// in\n    tag_11:\n      mload(0x40)\n      dup1\n      swap2\n      sub\n      swap1\n      return\n        /* \"kickstarter.sol\":280:465  function createKickstarter(uint minimum) public{\r... */\n    tag_8:\n        /* \"kickstarter.sol\":338:360  address newKickstarter */\n      0x00\n        /* \"kickstarter.sol\":387:394  minimum */\n      dup2\n        /* \"kickstarter.sol\":396:406  msg.sender */\n      caller\n        /* \"kickstarter.sol\":371:407  new Kickstarter(minimum, msg.sender) */\n      mload(0x40)\n      tag_14\n      swap1\n      tag_15\n      jump\t// in\n    tag_14:\n      tag_16\n      swap3\n      swap2\n      swap1\n      tag_17\n      jump\t// in\n    tag_16:\n      mload(0x40)\n      dup1\n      swap2\n      sub\n      swap1\n      0x00\n      create\n      dup1\n      iszero\n      dup1\n      iszero\n      tag_18\n      jumpi\n      returndatasize\n      0x00\n      dup1\n      returndatacopy\n      revert(0x00, returndatasize)\n    tag_18:\n      pop\n        /* \"kickstarter.sol\":338:408  address newKickstarter = address(new Kickstarter(minimum, msg.sender)) */\n      swap1\n      pop\n        /* \"kickstarter.sol\":419:436  deployedAddresses */\n      0x00\n        /* \"kickstarter.sol\":442:456  newKickstarter */\n      dup2\n        /* \"kickstarter.sol\":419:457  deployedAddresses.push(newKickstarter) */\n      swap1\n      dup1\n      0x01\n      dup2\n      sload\n      add\n      dup1\n      dup3\n      sstore\n      dup1\n      swap2\n      pop\n      pop\n      0x01\n      swap1\n      sub\n      swap1\n      0x00\n      mstore\n      keccak256(0x00, 0x20)\n      add\n      0x00\n      swap1\n      swap2\n      swap1\n      swap2\n      swap1\n      swap2\n      0x0100\n      exp\n      dup2\n      sload\n      dup2\n      0xffffffffffffffffffffffffffffffffffffffff\n      mul\n      not\n      and\n      swap1\n      dup4\n      0xffffffffffffffffffffffffffffffffffffffff\n      and\n      mul\n      or\n      swap1\n      sstore\n      pop\n        /* \"kickstarter.sol\":327:465  {\r... */\n      pop\n        /* \"kickstarter.sol\":280:465  function createKickstarter(uint minimum) public{\r... */\n      pop\n      jump\t// out\n        /* \"kickstarter.sol\":156:268  function getDeployedAdresses() public view returns(address[] memory) {\r... */\n    tag_10:\n        /* \"kickstarter.sol\":207:223  address[] memory */\n      0x60\n        /* \"kickstarter.sol\":243:260  deployedAddresses */\n      0x00\n        /* \"kickstarter.sol\":236:260  return deployedAddresses */\n      dup1\n      sload\n      dup1\n      0x20\n      mul\n      0x20\n      add\n      mload(0x40)\n      swap1\n      dup2\n      add\n      0x40\n      mstore\n      dup1\n      swap3\n      swap2\n      swap1\n      dup2\n      dup2\n      mstore\n      0x20\n      add\n      dup3\n      dup1\n      sload\n      dup1\n      iszero\n      tag_21\n      jumpi\n      0x20\n      mul\n      dup3\n      add\n      swap2\n      swap1\n      0x00\n      mstore\n      keccak256(0x00, 0x20)\n      swap1\n    tag_22:\n      dup2\n      0x00\n      swap1\n      sload\n      swap1\n      0x0100\n      exp\n      swap1\n      div\n      0xffffffffffffffffffffffffffffffffffffffff\n      and\n      0xffffffffffffffffffffffffffffffffffffffff\n      and\n      dup2\n      mstore\n      0x20\n      add\n      swap1\n      0x01\n      add\n      swap1\n      dup1\n      dup4\n      gt\n      tag_22\n      jumpi\n    tag_21:\n      pop\n      pop\n      pop\n      pop\n      pop\n      swap1\n      pop\n        /* \"kickstarter.sol\":156:268  function getDeployedAdresses() public view returns(address[] memory) {\r... */\n      swap1\n      jump\t// out\n    tag_15:\n      dataSize(sub_0)\n      dup1\n      dataOffset(sub_0)\n      dup4\n      codecopy\n      add\n      swap1\n      jump\t// out\n        /* \"#utility.yul\":7:146   */\n    tag_24:\n        /* \"#utility.yul\":53:58   */\n      0x00\n        /* \"#utility.yul\":91:97   */\n      dup2\n        /* \"#utility.yul\":78:98   */\n      calldataload\n        /* \"#utility.yul\":69:98   */\n      swap1\n      pop\n        /* \"#utility.yul\":107:140   */\n      tag_26\n        /* \"#utility.yul\":134:139   */\n      dup2\n        /* \"#utility.yul\":107:140   */\n      tag_27\n      jump\t// in\n    tag_26:\n        /* \"#utility.yul\":59:146   */\n      swap3\n      swap2\n      pop\n      pop\n      jump\t// out\n        /* \"#utility.yul\":152:481   */\n    tag_7:\n        /* \"#utility.yul\":211:217   */\n      0x00\n        /* \"#utility.yul\":260:262   */\n      0x20\n        /* \"#utility.yul\":248:257   */\n      dup3\n        /* \"#utility.yul\":239:246   */\n      dup5\n        /* \"#utility.yul\":235:258   */\n      sub\n        /* \"#utility.yul\":231:263   */\n      slt\n        /* \"#utility.yul\":228:230   */\n      iszero\n      tag_29\n      jumpi\n        /* \"#utility.yul\":266:345   */\n      tag_30\n      tag_31\n      jump\t// in\n    tag_30:\n        /* \"#utility.yul\":228:230   */\n    tag_29:\n        /* \"#utility.yul\":386:387   */\n      0x00\n        /* \"#utility.yul\":411:464   */\n      tag_32\n        /* \"#utility.yul\":456:463   */\n      dup5\n        /* \"#utility.yul\":447:453   */\n      dup3\n        /* \"#utility.yul\":436:445   */\n      dup6\n        /* \"#utility.yul\":432:454   */\n      add\n        /* \"#utility.yul\":411:464   */\n      tag_24\n      jump\t// in\n    tag_32:\n        /* \"#utility.yul\":401:464   */\n      swap2\n      pop\n        /* \"#utility.yul\":357:474   */\n      pop\n        /* \"#utility.yul\":218:481   */\n      swap3\n      swap2\n      pop\n      pop\n      jump\t// out\n        /* \"#utility.yul\":487:666   */\n    tag_33:\n        /* \"#utility.yul\":556:566   */\n      0x00\n        /* \"#utility.yul\":577:623   */\n      tag_35\n        /* \"#utility.yul\":619:622   */\n      dup4\n        /* \"#utility.yul\":611:617   */\n      dup4\n        /* \"#utility.yul\":577:623   */\n      tag_36\n      jump\t// in\n    tag_35:\n        /* \"#utility.yul\":655:659   */\n      0x20\n        /* \"#utility.yul\":650:653   */\n      dup4\n        /* \"#utility.yul\":646:660   */\n      add\n        /* \"#utility.yul\":632:660   */\n      swap1\n      pop\n        /* \"#utility.yul\":567:666   */\n      swap3\n      swap2\n      pop\n      pop\n      jump\t// out\n        /* \"#utility.yul\":672:780   */\n    tag_36:\n        /* \"#utility.yul\":749:773   */\n      tag_38\n        /* \"#utility.yul\":767:772   */\n      dup2\n        /* \"#utility.yul\":749:773   */\n      tag_39\n      jump\t// in\n    tag_38:\n        /* \"#utility.yul\":744:747   */\n      dup3\n        /* \"#utility.yul\":737:774   */\n      mstore\n        /* \"#utility.yul\":727:780   */\n      pop\n      pop\n      jump\t// out\n        /* \"#utility.yul\":786:904   */\n    tag_40:\n        /* \"#utility.yul\":873:897   */\n      tag_42\n        /* \"#utility.yul\":891:896   */\n      dup2\n        /* \"#utility.yul\":873:897   */\n      tag_39\n      jump\t// in\n    tag_42:\n        /* \"#utility.yul\":868:871   */\n      dup3\n        /* \"#utility.yul\":861:898   */\n      mstore\n        /* \"#utility.yul\":851:904   */\n      pop\n      pop\n      jump\t// out\n        /* \"#utility.yul\":940:1672   */\n    tag_43:\n        /* \"#utility.yul\":1059:1062   */\n      0x00\n        /* \"#utility.yul\":1088:1142   */\n      tag_45\n        /* \"#utility.yul\":1136:1141   */\n      dup3\n        /* \"#utility.yul\":1088:1142   */\n      tag_46\n      jump\t// in\n    tag_45:\n        /* \"#utility.yul\":1158:1244   */\n      tag_47\n        /* \"#utility.yul\":1237:1243   */\n      dup2\n        /* \"#utility.yul\":1232:1235   */\n      dup6\n        /* \"#utility.yul\":1158:1244   */\n      tag_48\n      jump\t// in\n    tag_47:\n        /* \"#utility.yul\":1151:1244   */\n      swap4\n      pop\n        /* \"#utility.yul\":1268:1324   */\n      tag_49\n        /* \"#utility.yul\":1318:1323   */\n      dup4\n        /* \"#utility.yul\":1268:1324   */\n      tag_50\n      jump\t// in\n    tag_49:\n        /* \"#utility.yul\":1347:1354   */\n      dup1\n        /* \"#utility.yul\":1378:1379   */\n      0x00\n        /* \"#utility.yul\":1363:1647   */\n    tag_51:\n        /* \"#utility.yul\":1388:1394   */\n      dup4\n        /* \"#utility.yul\":1385:1386   */\n      dup2\n        /* \"#utility.yul\":1382:1395   */\n      lt\n        /* \"#utility.yul\":1363:1647   */\n      iszero\n      tag_53\n      jumpi\n        /* \"#utility.yul\":1464:1470   */\n      dup2\n        /* \"#utility.yul\":1458:1471   */\n      mload\n        /* \"#utility.yul\":1491:1554   */\n      tag_54\n        /* \"#utility.yul\":1550:1553   */\n      dup9\n        /* \"#utility.yul\":1535:1548   */\n      dup3\n        /* \"#utility.yul\":1491:1554   */\n      tag_33\n      jump\t// in\n    tag_54:\n        /* \"#utility.yul\":1484:1554   */\n      swap8\n      pop\n        /* \"#utility.yul\":1577:1637   */\n      tag_55\n        /* \"#utility.yul\":1630:1636   */\n      dup4\n        /* \"#utility.yul\":1577:1637   */\n      tag_56\n      jump\t// in\n    tag_55:\n        /* \"#utility.yul\":1567:1637   */\n      swap3\n      pop\n        /* \"#utility.yul\":1423:1647   */\n      pop\n        /* \"#utility.yul\":1410:1411   */\n      0x01\n        /* \"#utility.yul\":1407:1408   */\n      dup2\n        /* \"#utility.yul\":1403:1412   */\n      add\n        /* \"#utility.yul\":1398:1412   */\n      swap1\n      pop\n        /* \"#utility.yul\":1363:1647   */\n      jump(tag_51)\n    tag_53:\n        /* \"#utility.yul\":1367:1381   */\n      pop\n        /* \"#utility.yul\":1663:1666   */\n      dup6\n        /* \"#utility.yul\":1656:1666   */\n      swap4\n      pop\n        /* \"#utility.yul\":1064:1672   */\n      pop\n      pop\n      pop\n      swap3\n      swap2\n      pop\n      pop\n      jump\t// out\n        /* \"#utility.yul\":1678:1796   */\n    tag_57:\n        /* \"#utility.yul\":1765:1789   */\n      tag_59\n        /* \"#utility.yul\":1783:1788   */\n      dup2\n        /* \"#utility.yul\":1765:1789   */\n      tag_60\n      jump\t// in\n    tag_59:\n        /* \"#utility.yul\":1760:1763   */\n      dup3\n        /* \"#utility.yul\":1753:1790   */\n      mstore\n        /* \"#utility.yul\":1743:1796   */\n      pop\n      pop\n      jump\t// out\n        /* \"#utility.yul\":1802:2175   */\n    tag_12:\n        /* \"#utility.yul\":1945:1949   */\n      0x00\n        /* \"#utility.yul\":1983:1985   */\n      0x20\n        /* \"#utility.yul\":1972:1981   */\n      dup3\n        /* \"#utility.yul\":1968:1986   */\n      add\n        /* \"#utility.yul\":1960:1986   */\n      swap1\n      pop\n        /* \"#utility.yul\":2032:2041   */\n      dup2\n        /* \"#utility.yul\":2026:2030   */\n      dup2\n        /* \"#utility.yul\":2022:2042   */\n      sub\n        /* \"#utility.yul\":2018:2019   */\n      0x00\n        /* \"#utility.yul\":2007:2016   */\n      dup4\n        /* \"#utility.yul\":2003:2020   */\n      add\n        /* \"#utility.yul\":1996:2043   */\n      mstore\n        /* \"#utility.yul\":2060:2168   */\n      tag_62\n        /* \"#utility.yul\":2163:2167   */\n      dup2\n        /* \"#utility.yul\":2154:2160   */\n      dup5\n        /* \"#utility.yul\":2060:2168   */\n      tag_43\n      jump\t// in\n    tag_62:\n        /* \"#utility.yul\":2052:2168   */\n      swap1\n      pop\n        /* \"#utility.yul\":1950:2175   */\n      swap3\n      swap2\n      pop\n      pop\n      jump\t// out\n        /* \"#utility.yul\":2181:2513   */\n    tag_17:\n        /* \"#utility.yul\":2302:2306   */\n      0x00\n        /* \"#utility.yul\":2340:2342   */\n      0x40\n        /* \"#utility.yul\":2329:2338   */\n      dup3\n        /* \"#utility.yul\":2325:2343   */\n      add\n        /* \"#utility.yul\":2317:2343   */\n      swap1\n      pop\n        /* \"#utility.yul\":2353:2424   */\n      tag_64\n        /* \"#utility.yul\":2421:2422   */\n      0x00\n        /* \"#utility.yul\":2410:2419   */\n      dup4\n        /* \"#utility.yul\":2406:2423   */\n      add\n        /* \"#utility.yul\":2397:2403   */\n      dup6\n        /* \"#utility.yul\":2353:2424   */\n      tag_57\n      jump\t// in\n    tag_64:\n        /* \"#utility.yul\":2434:2506   */\n      tag_65\n        /* \"#utility.yul\":2502:2504   */\n      0x20\n        /* \"#utility.yul\":2491:2500   */\n      dup4\n        /* \"#utility.yul\":2487:2505   */\n      add\n        /* \"#utility.yul\":2478:2484   */\n      dup5\n        /* \"#utility.yul\":2434:2506   */\n      tag_40\n      jump\t// in\n    tag_65:\n        /* \"#utility.yul\":2307:2513   */\n      swap4\n      swap3\n      pop\n      pop\n      pop\n      jump\t// out\n        /* \"#utility.yul\":2600:2732   */\n    tag_50:\n        /* \"#utility.yul\":2667:2671   */\n      0x00\n        /* \"#utility.yul\":2690:2693   */\n      dup2\n        /* \"#utility.yul\":2682:2693   */\n      swap1\n      pop\n        /* \"#utility.yul\":2720:2724   */\n      0x20\n        /* \"#utility.yul\":2715:2718   */\n      dup3\n        /* \"#utility.yul\":2711:2725   */\n      add\n        /* \"#utility.yul\":2703:2725   */\n      swap1\n      pop\n        /* \"#utility.yul\":2672:2732   */\n      swap2\n      swap1\n      pop\n      jump\t// out\n        /* \"#utility.yul\":2738:2852   */\n    tag_46:\n        /* \"#utility.yul\":2805:2811   */\n      0x00\n        /* \"#utility.yul\":2839:2844   */\n      dup2\n        /* \"#utility.yul\":2833:2845   */\n      mload\n        /* \"#utility.yul\":2823:2845   */\n      swap1\n      pop\n        /* \"#utility.yul\":2812:2852   */\n      swap2\n      swap1\n      pop\n      jump\t// out\n        /* \"#utility.yul\":2858:2971   */\n    tag_56:\n        /* \"#utility.yul\":2928:2932   */\n      0x00\n        /* \"#utility.yul\":2960:2964   */\n      0x20\n        /* \"#utility.yul\":2955:2958   */\n      dup3\n        /* \"#utility.yul\":2951:2965   */\n      add\n        /* \"#utility.yul\":2943:2965   */\n      swap1\n      pop\n        /* \"#utility.yul\":2933:2971   */\n      swap2\n      swap1\n      pop\n      jump\t// out\n        /* \"#utility.yul\":2977:3161   */\n    tag_48:\n        /* \"#utility.yul\":3076:3087   */\n      0x00\n        /* \"#utility.yul\":3110:3116   */\n      dup3\n        /* \"#utility.yul\":3105:3108   */\n      dup3\n        /* \"#utility.yul\":3098:3117   */\n      mstore\n        /* \"#utility.yul\":3150:3154   */\n      0x20\n        /* \"#utility.yul\":3145:3148   */\n      dup3\n        /* \"#utility.yul\":3141:3155   */\n      add\n        /* \"#utility.yul\":3126:3155   */\n      swap1\n      pop\n        /* \"#utility.yul\":3088:3161   */\n      swap3\n      swap2\n      pop\n      pop\n      jump\t// out\n        /* \"#utility.yul\":3167:3263   */\n    tag_39:\n        /* \"#utility.yul\":3204:3211   */\n      0x00\n        /* \"#utility.yul\":3233:3257   */\n      tag_73\n        /* \"#utility.yul\":3251:3256   */\n      dup3\n        /* \"#utility.yul\":3233:3257   */\n      tag_74\n      jump\t// in\n    tag_73:\n        /* \"#utility.yul\":3222:3257   */\n      swap1\n      pop\n        /* \"#utility.yul\":3212:3263   */\n      swap2\n      swap1\n      pop\n      jump\t// out\n        /* \"#utility.yul\":3269:3395   */\n    tag_74:\n        /* \"#utility.yul\":3306:3313   */\n      0x00\n        /* \"#utility.yul\":3346:3388   */\n      0xffffffffffffffffffffffffffffffffffffffff\n        /* \"#utility.yul\":3339:3344   */\n      dup3\n        /* \"#utility.yul\":3335:3389   */\n      and\n        /* \"#utility.yul\":3324:3389   */\n      swap1\n      pop\n        /* \"#utility.yul\":3314:3395   */\n      swap2\n      swap1\n      pop\n      jump\t// out\n        /* \"#utility.yul\":3401:3478   */\n    tag_60:\n        /* \"#utility.yul\":3438:3445   */\n      0x00\n        /* \"#utility.yul\":3467:3472   */\n      dup2\n        /* \"#utility.yul\":3456:3472   */\n      swap1\n      pop\n        /* \"#utility.yul\":3446:3478   */\n      swap2\n      swap1\n      pop\n      jump\t// out\n        /* \"#utility.yul\":3607:3724   */\n    tag_31:\n        /* \"#utility.yul\":3716:3717   */\n      0x00\n        /* \"#utility.yul\":3713:3714   */\n      dup1\n        /* \"#utility.yul\":3706:3718   */\n      revert\n        /* \"#utility.yul\":3730:3852   */\n    tag_27:\n        /* \"#utility.yul\":3803:3827   */\n      tag_81\n        /* \"#utility.yul\":3821:3826   */\n      dup2\n        /* \"#utility.yul\":3803:3827   */\n      tag_60\n      jump\t// in\n    tag_81:\n        /* \"#utility.yul\":3796:3801   */\n      dup2\n        /* \"#utility.yul\":3793:3828   */\n      eq\n        /* \"#utility.yul\":3783:3785   */\n      tag_82\n      jumpi\n        /* \"#utility.yul\":3842:3843   */\n      0x00\n        /* \"#utility.yul\":3839:3840   */\n      dup1\n        /* \"#utility.yul\":3832:3844   */\n      revert\n        /* \"#utility.yul\":3783:3785   */\n    tag_82:\n        /* \"#utility.yul\":3773:3852   */\n      pop\n      jump\t// out\n    stop\n\n    sub_0: assembly {\n            /* \"kickstarter.sol\":472:2377  contract Kickstarter {\r... */\n          mstore(0x40, 0x80)\n            /* \"kickstarter.sol\":1005:1125  constructor(uint minimum , address creator) {\r... */\n          callvalue\n          dup1\n          iszero\n          tag_1\n          jumpi\n          0x00\n          dup1\n          revert\n        tag_1:\n          pop\n          mload(0x40)\n          sub(codesize, bytecodeSize)\n          dup1\n          bytecodeSize\n          dup4\n          codecopy\n          dup2\n          dup2\n          add\n          0x40\n          mstore\n          dup2\n          add\n          swap1\n          tag_2\n          swap2\n          swap1\n          tag_3\n          jump\t// in\n        tag_2:\n            /* \"kickstarter.sol\":1070:1077  creator */\n          dup1\n            /* \"kickstarter.sol\":1060:1067  manager */\n          0x00\n          dup1\n            /* \"kickstarter.sol\":1060:1077  manager = creator */\n          0x0100\n          exp\n          dup2\n          sload\n          dup2\n          0xffffffffffffffffffffffffffffffffffffffff\n          mul\n          not\n          and\n          swap1\n          dup4\n          0xffffffffffffffffffffffffffffffffffffffff\n          and\n          mul\n          or\n          swap1\n          sstore\n          pop\n            /* \"kickstarter.sol\":1110:1117  minimum */\n          dup2\n            /* \"kickstarter.sol\":1088:1107  minimumContribution */\n          0x01\n            /* \"kickstarter.sol\":1088:1117  minimumContribution = minimum */\n          dup2\n          swap1\n          sstore\n          pop\n            /* \"kickstarter.sol\":1005:1125  constructor(uint minimum , address creator) {\r... */\n          pop\n          pop\n            /* \"kickstarter.sol\":472:2377  contract Kickstarter {\r... */\n          jump(tag_6)\n            /* \"#utility.yul\":7:150   */\n        tag_8:\n            /* \"#utility.yul\":64:69   */\n          0x00\n            /* \"#utility.yul\":95:101   */\n          dup2\n            /* \"#utility.yul\":89:102   */\n          mload\n            /* \"#utility.yul\":80:102   */\n          swap1\n          pop\n            /* \"#utility.yul\":111:144   */\n          tag_10\n            /* \"#utility.yul\":138:143   */\n          dup2\n            /* \"#utility.yul\":111:144   */\n          tag_11\n          jump\t// in\n        tag_10:\n            /* \"#utility.yul\":70:150   */\n          swap3\n          swap2\n          pop\n          pop\n          jump\t// out\n            /* \"#utility.yul\":156:299   */\n        tag_12:\n            /* \"#utility.yul\":213:218   */\n          0x00\n            /* \"#utility.yul\":244:250   */\n          dup2\n            /* \"#utility.yul\":238:251   */\n          mload\n            /* \"#utility.yul\":229:251   */\n          swap1\n          pop\n            /* \"#utility.yul\":260:293   */\n          tag_14\n            /* \"#utility.yul\":287:292   */\n          dup2\n            /* \"#utility.yul\":260:293   */\n          tag_15\n          jump\t// in\n        tag_14:\n            /* \"#utility.yul\":219:299   */\n          swap3\n          swap2\n          pop\n          pop\n          jump\t// out\n            /* \"#utility.yul\":305:812   */\n        tag_3:\n            /* \"#utility.yul\":384:390   */\n          0x00\n            /* \"#utility.yul\":392:398   */\n          dup1\n            /* \"#utility.yul\":441:443   */\n          0x40\n            /* \"#utility.yul\":429:438   */\n          dup4\n            /* \"#utility.yul\":420:427   */\n          dup6\n            /* \"#utility.yul\":416:439   */\n          sub\n            /* \"#utility.yul\":412:444   */\n          slt\n            /* \"#utility.yul\":409:411   */\n          iszero\n          tag_17\n          jumpi\n            /* \"#utility.yul\":447:526   */\n          tag_18\n          tag_19\n          jump\t// in\n        tag_18:\n            /* \"#utility.yul\":409:411   */\n        tag_17:\n            /* \"#utility.yul\":567:568   */\n          0x00\n            /* \"#utility.yul\":592:656   */\n          tag_20\n            /* \"#utility.yul\":648:655   */\n          dup6\n            /* \"#utility.yul\":639:645   */\n          dup3\n            /* \"#utility.yul\":628:637   */\n          dup7\n            /* \"#utility.yul\":624:646   */\n          add\n            /* \"#utility.yul\":592:656   */\n          tag_12\n          jump\t// in\n        tag_20:\n            /* \"#utility.yul\":582:656   */\n          swap3\n          pop\n            /* \"#utility.yul\":538:666   */\n          pop\n            /* \"#utility.yul\":705:707   */\n          0x20\n            /* \"#utility.yul\":731:795   */\n          tag_21\n            /* \"#utility.yul\":787:794   */\n          dup6\n            /* \"#utility.yul\":778:784   */\n          dup3\n            /* \"#utility.yul\":767:776   */\n          dup7\n            /* \"#utility.yul\":763:785   */\n          add\n            /* \"#utility.yul\":731:795   */\n          tag_8\n          jump\t// in\n        tag_21:\n            /* \"#utility.yul\":721:795   */\n          swap2\n          pop\n            /* \"#utility.yul\":676:805   */\n          pop\n            /* \"#utility.yul\":399:812   */\n          swap3\n          pop\n          swap3\n          swap1\n          pop\n          jump\t// out\n            /* \"#utility.yul\":899:995   */\n        tag_24:\n            /* \"#utility.yul\":936:943   */\n          0x00\n            /* \"#utility.yul\":965:989   */\n          tag_26\n            /* \"#utility.yul\":983:988   */\n          dup3\n            /* \"#utility.yul\":965:989   */\n          tag_27\n          jump\t// in\n        tag_26:\n            /* \"#utility.yul\":954:989   */\n          swap1\n          pop\n            /* \"#utility.yul\":944:995   */\n          swap2\n          swap1\n          pop\n          jump\t// out\n            /* \"#utility.yul\":1001:1127   */\n        tag_27:\n            /* \"#utility.yul\":1038:1045   */\n          0x00\n            /* \"#utility.yul\":1078:1120   */\n          0xffffffffffffffffffffffffffffffffffffffff\n            /* \"#utility.yul\":1071:1076   */\n          dup3\n            /* \"#utility.yul\":1067:1121   */\n          and\n            /* \"#utility.yul\":1056:1121   */\n          swap1\n          pop\n            /* \"#utility.yul\":1046:1127   */\n          swap2\n          swap1\n          pop\n          jump\t// out\n            /* \"#utility.yul\":1133:1210   */\n        tag_29:\n            /* \"#utility.yul\":1170:1177   */\n          0x00\n            /* \"#utility.yul\":1199:1204   */\n          dup2\n            /* \"#utility.yul\":1188:1204   */\n          swap1\n          pop\n            /* \"#utility.yul\":1178:1210   */\n          swap2\n          swap1\n          pop\n          jump\t// out\n            /* \"#utility.yul\":1339:1456   */\n        tag_19:\n            /* \"#utility.yul\":1448:1449   */\n          0x00\n            /* \"#utility.yul\":1445:1446   */\n          dup1\n            /* \"#utility.yul\":1438:1450   */\n          revert\n            /* \"#utility.yul\":1462:1584   */\n        tag_11:\n            /* \"#utility.yul\":1535:1559   */\n          tag_35\n            /* \"#utility.yul\":1553:1558   */\n          dup2\n            /* \"#utility.yul\":1535:1559   */\n          tag_24\n          jump\t// in\n        tag_35:\n            /* \"#utility.yul\":1528:1533   */\n          dup2\n            /* \"#utility.yul\":1525:1560   */\n          eq\n            /* \"#utility.yul\":1515:1517   */\n          tag_36\n          jumpi\n            /* \"#utility.yul\":1574:1575   */\n          0x00\n            /* \"#utility.yul\":1571:1572   */\n          dup1\n            /* \"#utility.yul\":1564:1576   */\n          revert\n            /* \"#utility.yul\":1515:1517   */\n        tag_36:\n            /* \"#utility.yul\":1505:1584   */\n          pop\n          jump\t// out\n            /* \"#utility.yul\":1590:1712   */\n        tag_15:\n            /* \"#utility.yul\":1663:1687   */\n          tag_38\n            /* \"#utility.yul\":1681:1686   */\n          dup2\n            /* \"#utility.yul\":1663:1687   */\n          tag_29\n          jump\t// in\n        tag_38:\n            /* \"#utility.yul\":1656:1661   */\n          dup2\n            /* \"#utility.yul\":1653:1688   */\n          eq\n            /* \"#utility.yul\":1643:1645   */\n          tag_39\n          jumpi\n            /* \"#utility.yul\":1702:1703   */\n          0x00\n            /* \"#utility.yul\":1699:1700   */\n          dup1\n            /* \"#utility.yul\":1692:1704   */\n          revert\n            /* \"#utility.yul\":1643:1645   */\n        tag_39:\n            /* \"#utility.yul\":1633:1712   */\n          pop\n          jump\t// out\n            /* \"kickstarter.sol\":472:2377  contract Kickstarter {\r... */\n        tag_6:\n          dataSize(sub_0)\n          dup1\n          dataOffset(sub_0)\n          0x00\n          codecopy\n          0x00\n          return\n        stop\n\n        sub_0: assembly {\n                /* \"kickstarter.sol\":472:2377  contract Kickstarter {\r... */\n              mstore(0x40, 0x80)\n              jumpi(tag_1, lt(calldatasize, 0x04))\n              shr(0xe0, calldataload(0x00))\n              dup1\n              0x81d12c58\n              gt\n              tag_12\n              jumpi\n              dup1\n              0x81d12c58\n              eq\n              tag_7\n              jumpi\n              dup1\n              0x8a9cfd55\n              eq\n              tag_8\n              jumpi\n              dup1\n              0x937e09b1\n              eq\n              tag_9\n              jumpi\n              dup1\n              0xd7bb99ba\n              eq\n              tag_10\n              jumpi\n              dup1\n              0xd7d1bbdb\n              eq\n              tag_11\n              jumpi\n              jump(tag_1)\n            tag_12:\n              dup1\n              0x03441006\n              eq\n              tag_2\n              jumpi\n              dup1\n              0x08caa910\n              eq\n              tag_3\n              jumpi\n              dup1\n              0x1f6d4942\n              eq\n              tag_4\n              jumpi\n              dup1\n              0x481c6a75\n              eq\n              tag_5\n              jumpi\n              dup1\n              0x7569b3d7\n              eq\n              tag_6\n              jumpi\n            tag_1:\n              0x00\n              dup1\n              revert\n                /* \"kickstarter.sol\":1941:2257  function finalizeRequest(uint index) public onlyManager {\r... */\n            tag_2:\n              callvalue\n              dup1\n              iszero\n              tag_13\n              jumpi\n              0x00\n              dup1\n              revert\n            tag_13:\n              pop\n              tag_14\n              0x04\n              dup1\n              calldatasize\n              sub\n              dup2\n              add\n              swap1\n              tag_15\n              swap2\n              swap1\n              tag_16\n              jump\t// in\n            tag_15:\n              tag_17\n              jump\t// in\n            tag_14:\n              stop\n                /* \"kickstarter.sol\":2269:2374  function getTotalContribution() public view returns(uint) {\r... */\n            tag_3:\n              callvalue\n              dup1\n              iszero\n              tag_18\n              jumpi\n              0x00\n              dup1\n              revert\n            tag_18:\n              pop\n              tag_19\n              tag_20\n              jump\t// in\n            tag_19:\n              mload(0x40)\n              tag_21\n              swap2\n              swap1\n              tag_22\n              jump\t// in\n            tag_21:\n              mload(0x40)\n              dup1\n              swap2\n              sub\n              swap1\n              return\n                /* \"kickstarter.sol\":785:829  mapping(address => bool) public contributors */\n            tag_4:\n              callvalue\n              dup1\n              iszero\n              tag_23\n              jumpi\n              0x00\n              dup1\n              revert\n            tag_23:\n              pop\n              tag_24\n              0x04\n              dup1\n              calldatasize\n              sub\n              dup2\n              add\n              swap1\n              tag_25\n              swap2\n              swap1\n              tag_26\n              jump\t// in\n            tag_25:\n              tag_27\n              jump\t// in\n            tag_24:\n              mload(0x40)\n              tag_28\n              swap2\n              swap1\n              tag_29\n              jump\t// in\n            tag_28:\n              mload(0x40)\n              dup1\n              swap2\n              sub\n              swap1\n              return\n                /* \"kickstarter.sol\":718:740  address public manager */\n            tag_5:\n              callvalue\n              dup1\n              iszero\n              tag_30\n              jumpi\n              0x00\n              dup1\n              revert\n            tag_30:\n              pop\n              tag_31\n              tag_32\n              jump\t// in\n            tag_31:\n              mload(0x40)\n              tag_33\n              swap2\n              swap1\n              tag_34\n              jump\t// in\n            tag_33:\n              mload(0x40)\n              dup1\n              swap2\n              sub\n              swap1\n              return\n                /* \"kickstarter.sol\":836:865  uint public contributorsCount */\n            tag_6:\n              callvalue\n              dup1\n              iszero\n              tag_35\n              jumpi\n              0x00\n              dup1\n              revert\n            tag_35:\n              pop\n              tag_36\n              tag_37\n              jump\t// in\n            tag_36:\n              mload(0x40)\n              tag_38\n              swap2\n              swap1\n              tag_22\n              jump\t// in\n            tag_38:\n              mload(0x40)\n              dup1\n              swap2\n              sub\n              swap1\n              return\n                /* \"kickstarter.sol\":872:898  Requests[] public requests */\n            tag_7:\n              callvalue\n              dup1\n              iszero\n              tag_39\n              jumpi\n              0x00\n              dup1\n              revert\n            tag_39:\n              pop\n              tag_40\n              0x04\n              dup1\n              calldatasize\n              sub\n              dup2\n              add\n              swap1\n              tag_41\n              swap2\n              swap1\n              tag_16\n              jump\t// in\n            tag_41:\n              tag_42\n              jump\t// in\n            tag_40:\n              mload(0x40)\n              tag_43\n              swap6\n              swap5\n              swap4\n              swap3\n              swap2\n              swap1\n              tag_44\n              jump\t// in\n            tag_43:\n              mload(0x40)\n              dup1\n              swap2\n              sub\n              swap1\n              return\n                /* \"kickstarter.sol\":1316:1638  function createRequest(string memory d, uint v, address r) public onlyManager {\r... */\n            tag_8:\n              callvalue\n              dup1\n              iszero\n              tag_45\n              jumpi\n              0x00\n              dup1\n              revert\n            tag_45:\n              pop\n              tag_46\n              0x04\n              dup1\n              calldatasize\n              sub\n              dup2\n              add\n              swap1\n              tag_47\n              swap2\n              swap1\n              tag_48\n              jump\t// in\n            tag_47:\n              tag_49\n              jump\t// in\n            tag_46:\n              stop\n                /* \"kickstarter.sol\":747:778  uint public minimumContribution */\n            tag_9:\n              callvalue\n              dup1\n              iszero\n              tag_50\n              jumpi\n              0x00\n              dup1\n              revert\n            tag_50:\n              pop\n              tag_51\n              tag_52\n              jump\t// in\n            tag_51:\n              mload(0x40)\n              tag_53\n              swap2\n              swap1\n              tag_22\n              jump\t// in\n            tag_53:\n              mload(0x40)\n              dup1\n              swap2\n              sub\n              swap1\n              return\n                /* \"kickstarter.sol\":1137:1304  function contribute() public payable{\r... */\n            tag_10:\n              tag_54\n              tag_55\n              jump\t// in\n            tag_54:\n              stop\n                /* \"kickstarter.sol\":1650:1929  function approveRequest(uint index) public {\r... */\n            tag_11:\n              callvalue\n              dup1\n              iszero\n              tag_56\n              jumpi\n              0x00\n              dup1\n              revert\n            tag_56:\n              pop\n              tag_57\n              0x04\n              dup1\n              calldatasize\n              sub\n              dup2\n              add\n              swap1\n              tag_58\n              swap2\n              swap1\n              tag_16\n              jump\t// in\n            tag_58:\n              tag_59\n              jump\t// in\n            tag_57:\n              stop\n                /* \"kickstarter.sol\":1941:2257  function finalizeRequest(uint index) public onlyManager {\r... */\n            tag_17:\n                /* \"kickstarter.sol\":965:972  manager */\n              0x00\n              dup1\n              sload\n              swap1\n              0x0100\n              exp\n              swap1\n              div\n              0xffffffffffffffffffffffffffffffffffffffff\n              and\n                /* \"kickstarter.sol\":951:972  msg.sender == manager */\n              0xffffffffffffffffffffffffffffffffffffffff\n              and\n                /* \"kickstarter.sol\":951:961  msg.sender */\n              caller\n                /* \"kickstarter.sol\":951:972  msg.sender == manager */\n              0xffffffffffffffffffffffffffffffffffffffff\n              and\n              eq\n                /* \"kickstarter.sol\":943:973  require(msg.sender == manager) */\n              tag_61\n              jumpi\n              0x00\n              dup1\n              revert\n            tag_61:\n                /* \"kickstarter.sol\":2008:2032  Requests storage request */\n              0x00\n                /* \"kickstarter.sol\":2035:2043  requests */\n              0x04\n                /* \"kickstarter.sol\":2044:2049  index */\n              dup3\n                /* \"kickstarter.sol\":2035:2050  requests[index] */\n              dup2\n              sload\n              dup2\n              lt\n              tag_63\n              jumpi\n              tag_64\n              tag_65\n              jump\t// in\n            tag_64:\n            tag_63:\n              swap1\n              0x00\n              mstore\n              keccak256(0x00, 0x20)\n              swap1\n              0x05\n              mul\n              add\n                /* \"kickstarter.sol\":2008:2050  Requests storage request = requests[index] */\n              swap1\n              pop\n                /* \"kickstarter.sol\":2070:2077  request */\n              dup1\n                /* \"kickstarter.sol\":2070:2086  request.complete */\n              0x02\n              add\n              0x14\n              swap1\n              sload\n              swap1\n              0x0100\n              exp\n              swap1\n              div\n              0xff\n              and\n                /* \"kickstarter.sol\":2069:2086  !request.complete */\n              iszero\n                /* \"kickstarter.sol\":2061:2087  require(!request.complete) */\n              tag_67\n              jumpi\n              0x00\n              dup1\n              revert\n            tag_67:\n                /* \"kickstarter.sol\":2117:2121  true */\n              0x01\n                /* \"kickstarter.sol\":2098:2105  request */\n              dup2\n                /* \"kickstarter.sol\":2098:2114  request.complete */\n              0x02\n              add\n              0x14\n                /* \"kickstarter.sol\":2098:2121  request.complete = true */\n              0x0100\n              exp\n              dup2\n              sload\n              dup2\n              0xff\n              mul\n              not\n              and\n              swap1\n              dup4\n              iszero\n              iszero\n              mul\n              or\n              swap1\n              sstore\n              pop\n                /* \"kickstarter.sol\":2185:2186  2 */\n              0x02\n                /* \"kickstarter.sol\":2165:2182  contributorsCount */\n              sload(0x03)\n                /* \"kickstarter.sol\":2165:2186  contributorsCount / 2 */\n              tag_68\n              swap2\n              swap1\n              tag_69\n              jump\t// in\n            tag_68:\n                /* \"kickstarter.sol\":2140:2147  request */\n              dup2\n                /* \"kickstarter.sol\":2140:2161  request.approvalCount */\n              0x04\n              add\n              sload\n                /* \"kickstarter.sol\":2140:2187  request.approvalCount > (contributorsCount / 2) */\n              gt\n                /* \"kickstarter.sol\":2132:2188  require(request.approvalCount > (contributorsCount / 2)) */\n              tag_70\n              jumpi\n              0x00\n              dup1\n              revert\n            tag_70:\n                /* \"kickstarter.sol\":2207:2214  request */\n              dup1\n                /* \"kickstarter.sol\":2207:2224  request.recepient */\n              0x02\n              add\n              0x00\n              swap1\n              sload\n              swap1\n              0x0100\n              exp\n              swap1\n              div\n              0xffffffffffffffffffffffffffffffffffffffff\n              and\n                /* \"kickstarter.sol\":2199:2234  payable(request.recepient).transfer */\n              0xffffffffffffffffffffffffffffffffffffffff\n              and\n                /* \"kickstarter.sol\":2199:2249  payable(request.recepient).transfer(request.value) */\n              0x08fc\n                /* \"kickstarter.sol\":2235:2242  request */\n              dup3\n                /* \"kickstarter.sol\":2235:2248  request.value */\n              0x01\n              add\n              sload\n                /* \"kickstarter.sol\":2199:2249  payable(request.recepient).transfer(request.value) */\n              swap1\n              dup2\n              iszero\n              mul\n              swap1\n              mload(0x40)\n              0x00\n              mload(0x40)\n              dup1\n              dup4\n              sub\n              dup2\n              dup6\n              dup9\n              dup9\n              call\n              swap4\n              pop\n              pop\n              pop\n              pop\n              iszero\n              dup1\n              iszero\n              tag_72\n              jumpi\n              returndatasize\n              0x00\n              dup1\n              returndatacopy\n              revert(0x00, returndatasize)\n            tag_72:\n              pop\n                /* \"kickstarter.sol\":1997:2257  {\r... */\n              pop\n                /* \"kickstarter.sol\":1941:2257  function finalizeRequest(uint index) public onlyManager {\r... */\n              pop\n              jump\t// out\n                /* \"kickstarter.sol\":2269:2374  function getTotalContribution() public view returns(uint) {\r... */\n            tag_20:\n                /* \"kickstarter.sol\":2321:2325  uint */\n              0x00\n                /* \"kickstarter.sol\":2345:2366  address(this).balance */\n              selfbalance\n                /* \"kickstarter.sol\":2338:2366  return address(this).balance */\n              swap1\n              pop\n                /* \"kickstarter.sol\":2269:2374  function getTotalContribution() public view returns(uint) {\r... */\n              swap1\n              jump\t// out\n                /* \"kickstarter.sol\":785:829  mapping(address => bool) public contributors */\n            tag_27:\n              mstore(0x20, 0x02)\n              dup1\n              0x00\n              mstore\n              keccak256(0x00, 0x40)\n              0x00\n              swap2\n              pop\n              sload\n              swap1\n              0x0100\n              exp\n              swap1\n              div\n              0xff\n              and\n              dup2\n              jump\t// out\n                /* \"kickstarter.sol\":718:740  address public manager */\n            tag_32:\n              0x00\n              dup1\n              sload\n              swap1\n              0x0100\n              exp\n              swap1\n              div\n              0xffffffffffffffffffffffffffffffffffffffff\n              and\n              dup2\n              jump\t// out\n                /* \"kickstarter.sol\":836:865  uint public contributorsCount */\n            tag_37:\n              sload(0x03)\n              dup2\n              jump\t// out\n                /* \"kickstarter.sol\":872:898  Requests[] public requests */\n            tag_42:\n              0x04\n              dup2\n              dup2\n              sload\n              dup2\n              lt\n              tag_74\n              jumpi\n              0x00\n              dup1\n              revert\n            tag_74:\n              swap1\n              0x00\n              mstore\n              keccak256(0x00, 0x20)\n              swap1\n              0x05\n              mul\n              add\n              0x00\n              swap2\n              pop\n              swap1\n              pop\n              dup1\n              0x00\n              add\n              dup1\n              sload\n              tag_76\n              swap1\n              tag_77\n              jump\t// in\n            tag_76:\n              dup1\n              0x1f\n              add\n              0x20\n              dup1\n              swap2\n              div\n              mul\n              0x20\n              add\n              mload(0x40)\n              swap1\n              dup2\n              add\n              0x40\n              mstore\n              dup1\n              swap3\n              swap2\n              swap1\n              dup2\n              dup2\n              mstore\n              0x20\n              add\n              dup3\n              dup1\n              sload\n              tag_78\n              swap1\n              tag_77\n              jump\t// in\n            tag_78:\n              dup1\n              iszero\n              tag_79\n              jumpi\n              dup1\n              0x1f\n              lt\n              tag_80\n              jumpi\n              0x0100\n              dup1\n              dup4\n              sload\n              div\n              mul\n              dup4\n              mstore\n              swap2\n              0x20\n              add\n              swap2\n              jump(tag_79)\n            tag_80:\n              dup3\n              add\n              swap2\n              swap1\n              0x00\n              mstore\n              keccak256(0x00, 0x20)\n              swap1\n            tag_81:\n              dup2\n              sload\n              dup2\n              mstore\n              swap1\n              0x01\n              add\n              swap1\n              0x20\n              add\n              dup1\n              dup4\n              gt\n              tag_81\n              jumpi\n              dup3\n              swap1\n              sub\n              0x1f\n              and\n              dup3\n              add\n              swap2\n            tag_79:\n              pop\n              pop\n              pop\n              pop\n              pop\n              swap1\n              dup1\n              0x01\n              add\n              sload\n              swap1\n              dup1\n              0x02\n              add\n              0x00\n              swap1\n              sload\n              swap1\n              0x0100\n              exp\n              swap1\n              div\n              0xffffffffffffffffffffffffffffffffffffffff\n              and\n              swap1\n              dup1\n              0x02\n              add\n              0x14\n              swap1\n              sload\n              swap1\n              0x0100\n              exp\n              swap1\n              div\n              0xff\n              and\n              swap1\n              dup1\n              0x04\n              add\n              sload\n              swap1\n              pop\n              dup6\n              jump\t// out\n                /* \"kickstarter.sol\":1316:1638  function createRequest(string memory d, uint v, address r) public onlyManager {\r... */\n            tag_49:\n                /* \"kickstarter.sol\":965:972  manager */\n              0x00\n              dup1\n              sload\n              swap1\n              0x0100\n              exp\n              swap1\n              div\n              0xffffffffffffffffffffffffffffffffffffffff\n              and\n                /* \"kickstarter.sol\":951:972  msg.sender == manager */\n              0xffffffffffffffffffffffffffffffffffffffff\n              and\n                /* \"kickstarter.sol\":951:961  msg.sender */\n              caller\n                /* \"kickstarter.sol\":951:972  msg.sender == manager */\n              0xffffffffffffffffffffffffffffffffffffffff\n              and\n              eq\n                /* \"kickstarter.sol\":943:973  require(msg.sender == manager) */\n              tag_83\n              jumpi\n              0x00\n              dup1\n              revert\n            tag_83:\n                /* \"kickstarter.sol\":1405:1432  Requests storage newRequest */\n              0x00\n                /* \"kickstarter.sol\":1435:1443  requests */\n              0x04\n                /* \"kickstarter.sol\":1435:1450  requests.push() */\n              0x01\n              dup2\n              0x01\n              dup2\n              sload\n              add\n              dup1\n              dup3\n              sstore\n              dup1\n              swap2\n              pop\n              pop\n              sub\n              swap1\n              0x00\n              mstore\n              keccak256(0x00, 0x20)\n              swap1\n              0x05\n              mul\n              add\n                /* \"kickstarter.sol\":1405:1450  Requests storage newRequest = requests.push() */\n              swap1\n              pop\n                /* \"kickstarter.sol\":1486:1487  d */\n              dup4\n                /* \"kickstarter.sol\":1461:1471  newRequest */\n              dup2\n                /* \"kickstarter.sol\":1461:1483  newRequest.description */\n              0x00\n              add\n                /* \"kickstarter.sol\":1461:1487  newRequest.description = d */\n              swap1\n              dup1\n              mload\n              swap1\n              0x20\n              add\n              swap1\n              tag_86\n              swap3\n              swap2\n              swap1\n              tag_87\n              jump\t// in\n            tag_86:\n              pop\n                /* \"kickstarter.sol\":1517:1518  v */\n              dup3\n                /* \"kickstarter.sol\":1498:1508  newRequest */\n              dup2\n                /* \"kickstarter.sol\":1498:1514  newRequest.value */\n              0x01\n              add\n                /* \"kickstarter.sol\":1498:1518  newRequest.value = v */\n              dup2\n              swap1\n              sstore\n              pop\n                /* \"kickstarter.sol\":1552:1553  r */\n              dup2\n                /* \"kickstarter.sol\":1529:1539  newRequest */\n              dup2\n                /* \"kickstarter.sol\":1529:1549  newRequest.recepient */\n              0x02\n              add\n              0x00\n                /* \"kickstarter.sol\":1529:1553  newRequest.recepient = r */\n              0x0100\n              exp\n              dup2\n              sload\n              dup2\n              0xffffffffffffffffffffffffffffffffffffffff\n              mul\n              not\n              and\n              swap1\n              dup4\n              0xffffffffffffffffffffffffffffffffffffffff\n              and\n              mul\n              or\n              swap1\n              sstore\n              pop\n                /* \"kickstarter.sol\":1586:1591  false */\n              0x00\n                /* \"kickstarter.sol\":1564:1574  newRequest */\n              dup2\n                /* \"kickstarter.sol\":1564:1583  newRequest.complete */\n              0x02\n              add\n              0x14\n                /* \"kickstarter.sol\":1564:1591  newRequest.complete = false */\n              0x0100\n              exp\n              dup2\n              sload\n              dup2\n              0xff\n              mul\n              not\n              and\n              swap1\n              dup4\n              iszero\n              iszero\n              mul\n              or\n              swap1\n              sstore\n              pop\n                /* \"kickstarter.sol\":1629:1630  0 */\n              0x00\n                /* \"kickstarter.sol\":1602:1612  newRequest */\n              dup2\n                /* \"kickstarter.sol\":1602:1626  newRequest.approvalCount */\n              0x04\n              add\n                /* \"kickstarter.sol\":1602:1630  newRequest.approvalCount = 0 */\n              dup2\n              swap1\n              sstore\n              pop\n                /* \"kickstarter.sol\":1394:1638  {\r... */\n              pop\n                /* \"kickstarter.sol\":1316:1638  function createRequest(string memory d, uint v, address r) public onlyManager {\r... */\n              pop\n              pop\n              pop\n              jump\t// out\n                /* \"kickstarter.sol\":747:778  uint public minimumContribution */\n            tag_52:\n              sload(0x01)\n              dup2\n              jump\t// out\n                /* \"kickstarter.sol\":1137:1304  function contribute() public payable{\r... */\n            tag_55:\n                /* \"kickstarter.sol\":1204:1223  minimumContribution */\n              sload(0x01)\n                /* \"kickstarter.sol\":1192:1201  msg.value */\n              callvalue\n                /* \"kickstarter.sol\":1192:1223  msg.value > minimumContribution */\n              gt\n                /* \"kickstarter.sol\":1184:1224  require(msg.value > minimumContribution) */\n              tag_89\n              jumpi\n              0x00\n              dup1\n              revert\n            tag_89:\n                /* \"kickstarter.sol\":1262:1266  true */\n              0x01\n                /* \"kickstarter.sol\":1235:1247  contributors */\n              0x02\n                /* \"kickstarter.sol\":1235:1259  contributors[msg.sender] */\n              0x00\n                /* \"kickstarter.sol\":1248:1258  msg.sender */\n              caller\n                /* \"kickstarter.sol\":1235:1259  contributors[msg.sender] */\n              0xffffffffffffffffffffffffffffffffffffffff\n              and\n              0xffffffffffffffffffffffffffffffffffffffff\n              and\n              dup2\n              mstore\n              0x20\n              add\n              swap1\n              dup2\n              mstore\n              0x20\n              add\n              0x00\n              keccak256\n              0x00\n                /* \"kickstarter.sol\":1235:1266  contributors[msg.sender] = true */\n              0x0100\n              exp\n              dup2\n              sload\n              dup2\n              0xff\n              mul\n              not\n              and\n              swap1\n              dup4\n              iszero\n              iszero\n              mul\n              or\n              swap1\n              sstore\n              pop\n                /* \"kickstarter.sol\":1277:1294  contributorsCount */\n              0x03\n              0x00\n                /* \"kickstarter.sol\":1277:1296  contributorsCount++ */\n              dup2\n              sload\n              dup1\n              swap3\n              swap2\n              swap1\n              tag_90\n              swap1\n              tag_91\n              jump\t// in\n            tag_90:\n              swap2\n              swap1\n              pop\n              sstore\n              pop\n                /* \"kickstarter.sol\":1137:1304  function contribute() public payable{\r... */\n              jump\t// out\n                /* \"kickstarter.sol\":1650:1929  function approveRequest(uint index) public {\r... */\n            tag_59:\n                /* \"kickstarter.sol\":1704:1728  Requests storage request */\n              0x00\n                /* \"kickstarter.sol\":1731:1739  requests */\n              0x04\n                /* \"kickstarter.sol\":1740:1745  index */\n              dup3\n                /* \"kickstarter.sol\":1731:1746  requests[index] */\n              dup2\n              sload\n              dup2\n              lt\n              tag_93\n              jumpi\n              tag_94\n              tag_65\n              jump\t// in\n            tag_94:\n            tag_93:\n              swap1\n              0x00\n              mstore\n              keccak256(0x00, 0x20)\n              swap1\n              0x05\n              mul\n              add\n                /* \"kickstarter.sol\":1704:1746  Requests storage request = requests[index] */\n              swap1\n              pop\n                /* \"kickstarter.sol\":1765:1777  contributors */\n              0x02\n                /* \"kickstarter.sol\":1765:1789  contributors[msg.sender] */\n              0x00\n                /* \"kickstarter.sol\":1778:1788  msg.sender */\n              caller\n                /* \"kickstarter.sol\":1765:1789  contributors[msg.sender] */\n              0xffffffffffffffffffffffffffffffffffffffff\n              and\n              0xffffffffffffffffffffffffffffffffffffffff\n              and\n              dup2\n              mstore\n              0x20\n              add\n              swap1\n              dup2\n              mstore\n              0x20\n              add\n              0x00\n              keccak256\n              0x00\n              swap1\n              sload\n              swap1\n              0x0100\n              exp\n              swap1\n              div\n              0xff\n              and\n                /* \"kickstarter.sol\":1757:1790  require(contributors[msg.sender]) */\n              tag_96\n              jumpi\n              0x00\n              dup1\n              revert\n            tag_96:\n                /* \"kickstarter.sol\":1810:1817  request */\n              dup1\n                /* \"kickstarter.sol\":1810:1827  request.approvals */\n              0x03\n              add\n                /* \"kickstarter.sol\":1810:1839  request.approvals[msg.sender] */\n              0x00\n                /* \"kickstarter.sol\":1828:1838  msg.sender */\n              caller\n                /* \"kickstarter.sol\":1810:1839  request.approvals[msg.sender] */\n              0xffffffffffffffffffffffffffffffffffffffff\n              and\n              0xffffffffffffffffffffffffffffffffffffffff\n              and\n              dup2\n              mstore\n              0x20\n              add\n              swap1\n              dup2\n              mstore\n              0x20\n              add\n              0x00\n              keccak256\n              0x00\n              swap1\n              sload\n              swap1\n              0x0100\n              exp\n              swap1\n              div\n              0xff\n              and\n                /* \"kickstarter.sol\":1809:1839  !request.approvals[msg.sender] */\n              iszero\n                /* \"kickstarter.sol\":1801:1840  require(!request.approvals[msg.sender]) */\n              tag_97\n              jumpi\n              0x00\n              dup1\n              revert\n            tag_97:\n                /* \"kickstarter.sol\":1883:1887  true */\n              0x01\n                /* \"kickstarter.sol\":1851:1858  request */\n              dup2\n                /* \"kickstarter.sol\":1851:1868  request.approvals */\n              0x03\n              add\n                /* \"kickstarter.sol\":1851:1880  request.approvals[msg.sender] */\n              0x00\n                /* \"kickstarter.sol\":1869:1879  msg.sender */\n              caller\n                /* \"kickstarter.sol\":1851:1880  request.approvals[msg.sender] */\n              0xffffffffffffffffffffffffffffffffffffffff\n              and\n              0xffffffffffffffffffffffffffffffffffffffff\n              and\n              dup2\n              mstore\n              0x20\n              add\n              swap1\n              dup2\n              mstore\n              0x20\n              add\n              0x00\n              keccak256\n              0x00\n                /* \"kickstarter.sol\":1851:1887  request.approvals[msg.sender] = true */\n              0x0100\n              exp\n              dup2\n              sload\n              dup2\n              0xff\n              mul\n              not\n              and\n              swap1\n              dup4\n              iszero\n              iszero\n              mul\n              or\n              swap1\n              sstore\n              pop\n                /* \"kickstarter.sol\":1898:1905  request */\n              dup1\n                /* \"kickstarter.sol\":1898:1919  request.approvalCount */\n              0x04\n              add\n              0x00\n                /* \"kickstarter.sol\":1898:1921  request.approvalCount++ */\n              dup2\n              sload\n              dup1\n              swap3\n              swap2\n              swap1\n              tag_98\n              swap1\n              tag_91\n              jump\t// in\n            tag_98:\n              swap2\n              swap1\n              pop\n              sstore\n              pop\n                /* \"kickstarter.sol\":1693:1929  {\r... */\n              pop\n                /* \"kickstarter.sol\":1650:1929  function approveRequest(uint index) public {\r... */\n              pop\n              jump\t// out\n            tag_87:\n              dup3\n              dup1\n              sload\n              tag_99\n              swap1\n              tag_77\n              jump\t// in\n            tag_99:\n              swap1\n              0x00\n              mstore\n              keccak256(0x00, 0x20)\n              swap1\n              0x1f\n              add\n              0x20\n              swap1\n              div\n              dup2\n              add\n              swap3\n              dup3\n              tag_101\n              jumpi\n              0x00\n              dup6\n              sstore\n              jump(tag_100)\n            tag_101:\n              dup3\n              0x1f\n              lt\n              tag_102\n              jumpi\n              dup1\n              mload\n              not(0xff)\n              and\n              dup4\n              dup1\n              add\n              or\n              dup6\n              sstore\n              jump(tag_100)\n            tag_102:\n              dup3\n              dup1\n              add\n              0x01\n              add\n              dup6\n              sstore\n              dup3\n              iszero\n              tag_100\n              jumpi\n              swap2\n              dup3\n              add\n            tag_103:\n              dup3\n              dup2\n              gt\n              iszero\n              tag_104\n              jumpi\n              dup3\n              mload\n              dup3\n              sstore\n              swap2\n              0x20\n              add\n              swap2\n              swap1\n              0x01\n              add\n              swap1\n              jump(tag_103)\n            tag_104:\n            tag_100:\n              pop\n              swap1\n              pop\n              tag_105\n              swap2\n              swap1\n              tag_106\n              jump\t// in\n            tag_105:\n              pop\n              swap1\n              jump\t// out\n            tag_106:\n            tag_107:\n              dup1\n              dup3\n              gt\n              iszero\n              tag_108\n              jumpi\n              0x00\n              dup2\n              0x00\n              swap1\n              sstore\n              pop\n              0x01\n              add\n              jump(tag_107)\n            tag_108:\n              pop\n              swap1\n              jump\t// out\n                /* \"#utility.yul\":7:419   */\n            tag_110:\n                /* \"#utility.yul\":85:90   */\n              0x00\n                /* \"#utility.yul\":110:176   */\n              tag_112\n                /* \"#utility.yul\":126:175   */\n              tag_113\n                /* \"#utility.yul\":168:174   */\n              dup5\n                /* \"#utility.yul\":126:175   */\n              tag_114\n              jump\t// in\n            tag_113:\n                /* \"#utility.yul\":110:176   */\n              tag_115\n              jump\t// in\n            tag_112:\n                /* \"#utility.yul\":101:176   */\n              swap1\n              pop\n                /* \"#utility.yul\":199:205   */\n              dup3\n                /* \"#utility.yul\":192:197   */\n              dup2\n                /* \"#utility.yul\":185:206   */\n              mstore\n                /* \"#utility.yul\":237:241   */\n              0x20\n                /* \"#utility.yul\":230:235   */\n              dup2\n                /* \"#utility.yul\":226:242   */\n              add\n                /* \"#utility.yul\":275:278   */\n              dup5\n                /* \"#utility.yul\":266:272   */\n              dup5\n                /* \"#utility.yul\":261:264   */\n              dup5\n                /* \"#utility.yul\":257:273   */\n              add\n                /* \"#utility.yul\":254:279   */\n              gt\n                /* \"#utility.yul\":251:253   */\n              iszero\n              tag_116\n              jumpi\n                /* \"#utility.yul\":282:361   */\n              tag_117\n              tag_118\n              jump\t// in\n            tag_117:\n                /* \"#utility.yul\":251:253   */\n            tag_116:\n                /* \"#utility.yul\":372:413   */\n              tag_119\n                /* \"#utility.yul\":406:412   */\n              dup5\n                /* \"#utility.yul\":401:404   */\n              dup3\n                /* \"#utility.yul\":396:399   */\n              dup6\n                /* \"#utility.yul\":372:413   */\n              tag_120\n              jump\t// in\n            tag_119:\n                /* \"#utility.yul\":91:419   */\n              pop\n              swap4\n              swap3\n              pop\n              pop\n              pop\n              jump\t// out\n                /* \"#utility.yul\":425:564   */\n            tag_121:\n                /* \"#utility.yul\":471:476   */\n              0x00\n                /* \"#utility.yul\":509:515   */\n              dup2\n                /* \"#utility.yul\":496:516   */\n              calldataload\n                /* \"#utility.yul\":487:516   */\n              swap1\n              pop\n                /* \"#utility.yul\":525:558   */\n              tag_123\n                /* \"#utility.yul\":552:557   */\n              dup2\n                /* \"#utility.yul\":525:558   */\n              tag_124\n              jump\t// in\n            tag_123:\n                /* \"#utility.yul\":477:564   */\n              swap3\n              swap2\n              pop\n              pop\n              jump\t// out\n                /* \"#utility.yul\":584:924   */\n            tag_125:\n                /* \"#utility.yul\":640:645   */\n              0x00\n                /* \"#utility.yul\":689:692   */\n              dup3\n                /* \"#utility.yul\":682:686   */\n              0x1f\n                /* \"#utility.yul\":674:680   */\n              dup4\n                /* \"#utility.yul\":670:687   */\n              add\n                /* \"#utility.yul\":666:693   */\n              slt\n                /* \"#utility.yul\":656:658   */\n              tag_127\n              jumpi\n                /* \"#utility.yul\":697:776   */\n              tag_128\n              tag_129\n              jump\t// in\n            tag_128:\n                /* \"#utility.yul\":656:658   */\n            tag_127:\n                /* \"#utility.yul\":814:820   */\n              dup2\n                /* \"#utility.yul\":801:821   */\n              calldataload\n                /* \"#utility.yul\":839:918   */\n              tag_130\n                /* \"#utility.yul\":914:917   */\n              dup5\n                /* \"#utility.yul\":906:912   */\n              dup3\n                /* \"#utility.yul\":899:903   */\n              0x20\n                /* \"#utility.yul\":891:897   */\n              dup7\n                /* \"#utility.yul\":887:904   */\n              add\n                /* \"#utility.yul\":839:918   */\n              tag_110\n              jump\t// in\n            tag_130:\n                /* \"#utility.yul\":830:918   */\n              swap2\n              pop\n                /* \"#utility.yul\":646:924   */\n              pop\n              swap3\n              swap2\n              pop\n              pop\n              jump\t// out\n                /* \"#utility.yul\":930:1069   */\n            tag_131:\n                /* \"#utility.yul\":976:981   */\n              0x00\n                /* \"#utility.yul\":1014:1020   */\n              dup2\n                /* \"#utility.yul\":1001:1021   */\n              calldataload\n                /* \"#utility.yul\":992:1021   */\n              swap1\n              pop\n                /* \"#utility.yul\":1030:1063   */\n              tag_133\n                /* \"#utility.yul\":1057:1062   */\n              dup2\n                /* \"#utility.yul\":1030:1063   */\n              tag_134\n              jump\t// in\n            tag_133:\n                /* \"#utility.yul\":982:1069   */\n              swap3\n              swap2\n              pop\n              pop\n              jump\t// out\n                /* \"#utility.yul\":1075:1404   */\n            tag_26:\n                /* \"#utility.yul\":1134:1140   */\n              0x00\n                /* \"#utility.yul\":1183:1185   */\n              0x20\n                /* \"#utility.yul\":1171:1180   */\n              dup3\n                /* \"#utility.yul\":1162:1169   */\n              dup5\n                /* \"#utility.yul\":1158:1181   */\n              sub\n                /* \"#utility.yul\":1154:1186   */\n              slt\n                /* \"#utility.yul\":1151:1153   */\n              iszero\n              tag_136\n              jumpi\n                /* \"#utility.yul\":1189:1268   */\n              tag_137\n              tag_138\n              jump\t// in\n            tag_137:\n                /* \"#utility.yul\":1151:1153   */\n            tag_136:\n                /* \"#utility.yul\":1309:1310   */\n              0x00\n                /* \"#utility.yul\":1334:1387   */\n              tag_139\n                /* \"#utility.yul\":1379:1386   */\n              dup5\n                /* \"#utility.yul\":1370:1376   */\n              dup3\n                /* \"#utility.yul\":1359:1368   */\n              dup6\n                /* \"#utility.yul\":1355:1377   */\n              add\n                /* \"#utility.yul\":1334:1387   */\n              tag_121\n              jump\t// in\n            tag_139:\n                /* \"#utility.yul\":1324:1387   */\n              swap2\n              pop\n                /* \"#utility.yul\":1280:1397   */\n              pop\n                /* \"#utility.yul\":1141:1404   */\n              swap3\n              swap2\n              pop\n              pop\n              jump\t// out\n                /* \"#utility.yul\":1410:2209   */\n            tag_48:\n                /* \"#utility.yul\":1497:1503   */\n              0x00\n                /* \"#utility.yul\":1505:1511   */\n              dup1\n                /* \"#utility.yul\":1513:1519   */\n              0x00\n                /* \"#utility.yul\":1562:1564   */\n              0x60\n                /* \"#utility.yul\":1550:1559   */\n              dup5\n                /* \"#utility.yul\":1541:1548   */\n              dup7\n                /* \"#utility.yul\":1537:1560   */\n              sub\n                /* \"#utility.yul\":1533:1565   */\n              slt\n                /* \"#utility.yul\":1530:1532   */\n              iszero\n              tag_141\n              jumpi\n                /* \"#utility.yul\":1568:1647   */\n              tag_142\n              tag_138\n              jump\t// in\n            tag_142:\n                /* \"#utility.yul\":1530:1532   */\n            tag_141:\n                /* \"#utility.yul\":1716:1717   */\n              0x00\n                /* \"#utility.yul\":1705:1714   */\n              dup5\n                /* \"#utility.yul\":1701:1718   */\n              add\n                /* \"#utility.yul\":1688:1719   */\n              calldataload\n                /* \"#utility.yul\":1746:1764   */\n              0xffffffffffffffff\n                /* \"#utility.yul\":1738:1744   */\n              dup2\n                /* \"#utility.yul\":1735:1765   */\n              gt\n                /* \"#utility.yul\":1732:1734   */\n              iszero\n              tag_143\n              jumpi\n                /* \"#utility.yul\":1768:1847   */\n              tag_144\n              tag_145\n              jump\t// in\n            tag_144:\n                /* \"#utility.yul\":1732:1734   */\n            tag_143:\n                /* \"#utility.yul\":1873:1936   */\n              tag_146\n                /* \"#utility.yul\":1928:1935   */\n              dup7\n                /* \"#utility.yul\":1919:1925   */\n              dup3\n                /* \"#utility.yul\":1908:1917   */\n              dup8\n                /* \"#utility.yul\":1904:1926   */\n              add\n                /* \"#utility.yul\":1873:1936   */\n              tag_125\n              jump\t// in\n            tag_146:\n                /* \"#utility.yul\":1863:1936   */\n              swap4\n              pop\n                /* \"#utility.yul\":1659:1946   */\n              pop\n                /* \"#utility.yul\":1985:1987   */\n              0x20\n                /* \"#utility.yul\":2011:2064   */\n              tag_147\n                /* \"#utility.yul\":2056:2063   */\n              dup7\n                /* \"#utility.yul\":2047:2053   */\n              dup3\n                /* \"#utility.yul\":2036:2045   */\n              dup8\n                /* \"#utility.yul\":2032:2054   */\n              add\n                /* \"#utility.yul\":2011:2064   */\n              tag_131\n              jump\t// in\n            tag_147:\n                /* \"#utility.yul\":2001:2064   */\n              swap3\n              pop\n                /* \"#utility.yul\":1956:2074   */\n              pop\n                /* \"#utility.yul\":2113:2115   */\n              0x40\n                /* \"#utility.yul\":2139:2192   */\n              tag_148\n                /* \"#utility.yul\":2184:2191   */\n              dup7\n                /* \"#utility.yul\":2175:2181   */\n              dup3\n                /* \"#utility.yul\":2164:2173   */\n              dup8\n                /* \"#utility.yul\":2160:2182   */\n              add\n                /* \"#utility.yul\":2139:2192   */\n              tag_121\n              jump\t// in\n            tag_148:\n                /* \"#utility.yul\":2129:2192   */\n              swap2\n              pop\n                /* \"#utility.yul\":2084:2202   */\n              pop\n                /* \"#utility.yul\":1520:2209   */\n              swap3\n              pop\n              swap3\n              pop\n              swap3\n              jump\t// out\n                /* \"#utility.yul\":2215:2544   */\n            tag_16:\n                /* \"#utility.yul\":2274:2280   */\n              0x00\n                /* \"#utility.yul\":2323:2325   */\n              0x20\n                /* \"#utility.yul\":2311:2320   */\n              dup3\n                /* \"#utility.yul\":2302:2309   */\n              dup5\n                /* \"#utility.yul\":2298:2321   */\n              sub\n                /* \"#utility.yul\":2294:2326   */\n              slt\n                /* \"#utility.yul\":2291:2293   */\n              iszero\n              tag_150\n              jumpi\n                /* \"#utility.yul\":2329:2408   */\n              tag_151\n              tag_138\n              jump\t// in\n            tag_151:\n                /* \"#utility.yul\":2291:2293   */\n            tag_150:\n                /* \"#utility.yul\":2449:2450   */\n              0x00\n                /* \"#utility.yul\":2474:2527   */\n              tag_152\n                /* \"#utility.yul\":2519:2526   */\n              dup5\n                /* \"#utility.yul\":2510:2516   */\n              dup3\n                /* \"#utility.yul\":2499:2508   */\n              dup6\n                /* \"#utility.yul\":2495:2517   */\n              add\n                /* \"#utility.yul\":2474:2527   */\n              tag_131\n              jump\t// in\n            tag_152:\n                /* \"#utility.yul\":2464:2527   */\n              swap2\n              pop\n                /* \"#utility.yul\":2420:2537   */\n              pop\n                /* \"#utility.yul\":2281:2544   */\n              swap3\n              swap2\n              pop\n              pop\n              jump\t// out\n                /* \"#utility.yul\":2550:2668   */\n            tag_153:\n                /* \"#utility.yul\":2637:2661   */\n              tag_155\n                /* \"#utility.yul\":2655:2660   */\n              dup2\n                /* \"#utility.yul\":2637:2661   */\n              tag_156\n              jump\t// in\n            tag_155:\n                /* \"#utility.yul\":2632:2635   */\n              dup3\n                /* \"#utility.yul\":2625:2662   */\n              mstore\n                /* \"#utility.yul\":2615:2668   */\n              pop\n              pop\n              jump\t// out\n                /* \"#utility.yul\":2674:2783   */\n            tag_157:\n                /* \"#utility.yul\":2755:2776   */\n              tag_159\n                /* \"#utility.yul\":2770:2775   */\n              dup2\n                /* \"#utility.yul\":2755:2776   */\n              tag_160\n              jump\t// in\n            tag_159:\n                /* \"#utility.yul\":2750:2753   */\n              dup3\n                /* \"#utility.yul\":2743:2777   */\n              mstore\n                /* \"#utility.yul\":2733:2783   */\n              pop\n              pop\n              jump\t// out\n                /* \"#utility.yul\":2789:3153   */\n            tag_161:\n                /* \"#utility.yul\":2877:2880   */\n              0x00\n                /* \"#utility.yul\":2905:2944   */\n              tag_163\n                /* \"#utility.yul\":2938:2943   */\n              dup3\n                /* \"#utility.yul\":2905:2944   */\n              tag_164\n              jump\t// in\n            tag_163:\n                /* \"#utility.yul\":2960:3031   */\n              tag_165\n                /* \"#utility.yul\":3024:3030   */\n              dup2\n                /* \"#utility.yul\":3019:3022   */\n              dup6\n                /* \"#utility.yul\":2960:3031   */\n              tag_166\n              jump\t// in\n            tag_165:\n                /* \"#utility.yul\":2953:3031   */\n              swap4\n              pop\n                /* \"#utility.yul\":3040:3092   */\n              tag_167\n                /* \"#utility.yul\":3085:3091   */\n              dup2\n                /* \"#utility.yul\":3080:3083   */\n              dup6\n                /* \"#utility.yul\":3073:3077   */\n              0x20\n                /* \"#utility.yul\":3066:3071   */\n              dup7\n                /* \"#utility.yul\":3062:3078   */\n              add\n                /* \"#utility.yul\":3040:3092   */\n              tag_168\n              jump\t// in\n            tag_167:\n                /* \"#utility.yul\":3117:3146   */\n              tag_169\n                /* \"#utility.yul\":3139:3145   */\n              dup2\n                /* \"#utility.yul\":3117:3146   */\n              tag_170\n              jump\t// in\n            tag_169:\n                /* \"#utility.yul\":3112:3115   */\n              dup5\n                /* \"#utility.yul\":3108:3147   */\n              add\n                /* \"#utility.yul\":3101:3147   */\n              swap2\n              pop\n                /* \"#utility.yul\":2881:3153   */\n              pop\n              swap3\n              swap2\n              pop\n              pop\n              jump\t// out\n                /* \"#utility.yul\":3159:3277   */\n            tag_171:\n                /* \"#utility.yul\":3246:3270   */\n              tag_173\n                /* \"#utility.yul\":3264:3269   */\n              dup2\n                /* \"#utility.yul\":3246:3270   */\n              tag_174\n              jump\t// in\n            tag_173:\n                /* \"#utility.yul\":3241:3244   */\n              dup3\n                /* \"#utility.yul\":3234:3271   */\n              mstore\n                /* \"#utility.yul\":3224:3277   */\n              pop\n              pop\n              jump\t// out\n                /* \"#utility.yul\":3283:3505   */\n            tag_34:\n                /* \"#utility.yul\":3376:3380   */\n              0x00\n                /* \"#utility.yul\":3414:3416   */\n              0x20\n                /* \"#utility.yul\":3403:3412   */\n              dup3\n                /* \"#utility.yul\":3399:3417   */\n              add\n                /* \"#utility.yul\":3391:3417   */\n              swap1\n              pop\n                /* \"#utility.yul\":3427:3498   */\n              tag_176\n                /* \"#utility.yul\":3495:3496   */\n              0x00\n                /* \"#utility.yul\":3484:3493   */\n              dup4\n                /* \"#utility.yul\":3480:3497   */\n              add\n                /* \"#utility.yul\":3471:3477   */\n              dup5\n                /* \"#utility.yul\":3427:3498   */\n              tag_153\n              jump\t// in\n            tag_176:\n                /* \"#utility.yul\":3381:3505   */\n              swap3\n              swap2\n              pop\n              pop\n              jump\t// out\n                /* \"#utility.yul\":3511:3721   */\n            tag_29:\n                /* \"#utility.yul\":3598:3602   */\n              0x00\n                /* \"#utility.yul\":3636:3638   */\n              0x20\n                /* \"#utility.yul\":3625:3634   */\n              dup3\n                /* \"#utility.yul\":3621:3639   */\n              add\n                /* \"#utility.yul\":3613:3639   */\n              swap1\n              pop\n                /* \"#utility.yul\":3649:3714   */\n              tag_178\n                /* \"#utility.yul\":3711:3712   */\n              0x00\n                /* \"#utility.yul\":3700:3709   */\n              dup4\n                /* \"#utility.yul\":3696:3713   */\n              add\n                /* \"#utility.yul\":3687:3693   */\n              dup5\n                /* \"#utility.yul\":3649:3714   */\n              tag_157\n              jump\t// in\n            tag_178:\n                /* \"#utility.yul\":3603:3721   */\n              swap3\n              swap2\n              pop\n              pop\n              jump\t// out\n                /* \"#utility.yul\":3727:4470   */\n            tag_44:\n                /* \"#utility.yul\":3946:3950   */\n              0x00\n                /* \"#utility.yul\":3984:3987   */\n              0xa0\n                /* \"#utility.yul\":3973:3982   */\n              dup3\n                /* \"#utility.yul\":3969:3988   */\n              add\n                /* \"#utility.yul\":3961:3988   */\n              swap1\n              pop\n                /* \"#utility.yul\":4034:4043   */\n              dup2\n                /* \"#utility.yul\":4028:4032   */\n              dup2\n                /* \"#utility.yul\":4024:4044   */\n              sub\n                /* \"#utility.yul\":4020:4021   */\n              0x00\n                /* \"#utility.yul\":4009:4018   */\n              dup4\n                /* \"#utility.yul\":4005:4022   */\n              add\n                /* \"#utility.yul\":3998:4045   */\n              mstore\n                /* \"#utility.yul\":4062:4140   */\n              tag_180\n                /* \"#utility.yul\":4135:4139   */\n              dup2\n                /* \"#utility.yul\":4126:4132   */\n              dup9\n                /* \"#utility.yul\":4062:4140   */\n              tag_161\n              jump\t// in\n            tag_180:\n                /* \"#utility.yul\":4054:4140   */\n              swap1\n              pop\n                /* \"#utility.yul\":4150:4222   */\n              tag_181\n                /* \"#utility.yul\":4218:4220   */\n              0x20\n                /* \"#utility.yul\":4207:4216   */\n              dup4\n                /* \"#utility.yul\":4203:4221   */\n              add\n                /* \"#utility.yul\":4194:4200   */\n              dup8\n                /* \"#utility.yul\":4150:4222   */\n              tag_171\n              jump\t// in\n            tag_181:\n                /* \"#utility.yul\":4232:4304   */\n              tag_182\n                /* \"#utility.yul\":4300:4302   */\n              0x40\n                /* \"#utility.yul\":4289:4298   */\n              dup4\n                /* \"#utility.yul\":4285:4303   */\n              add\n                /* \"#utility.yul\":4276:4282   */\n              dup7\n                /* \"#utility.yul\":4232:4304   */\n              tag_153\n              jump\t// in\n            tag_182:\n                /* \"#utility.yul\":4314:4380   */\n              tag_183\n                /* \"#utility.yul\":4376:4378   */\n              0x60\n                /* \"#utility.yul\":4365:4374   */\n              dup4\n                /* \"#utility.yul\":4361:4379   */\n              add\n                /* \"#utility.yul\":4352:4358   */\n              dup6\n                /* \"#utility.yul\":4314:4380   */\n              tag_157\n              jump\t// in\n            tag_183:\n                /* \"#utility.yul\":4390:4463   */\n              tag_184\n                /* \"#utility.yul\":4458:4461   */\n              0x80\n                /* \"#utility.yul\":4447:4456   */\n              dup4\n                /* \"#utility.yul\":4443:4462   */\n              add\n                /* \"#utility.yul\":4434:4440   */\n              dup5\n                /* \"#utility.yul\":4390:4463   */\n              tag_171\n              jump\t// in\n            tag_184:\n                /* \"#utility.yul\":3951:4470   */\n              swap7\n              swap6\n              pop\n              pop\n              pop\n              pop\n              pop\n              pop\n              jump\t// out\n                /* \"#utility.yul\":4476:4698   */\n            tag_22:\n                /* \"#utility.yul\":4569:4573   */\n              0x00\n                /* \"#utility.yul\":4607:4609   */\n              0x20\n                /* \"#utility.yul\":4596:4605   */\n              dup3\n                /* \"#utility.yul\":4592:4610   */\n              add\n                /* \"#utility.yul\":4584:4610   */\n              swap1\n              pop\n                /* \"#utility.yul\":4620:4691   */\n              tag_186\n                /* \"#utility.yul\":4688:4689   */\n              0x00\n                /* \"#utility.yul\":4677:4686   */\n              dup4\n                /* \"#utility.yul\":4673:4690   */\n              add\n                /* \"#utility.yul\":4664:4670   */\n              dup5\n                /* \"#utility.yul\":4620:4691   */\n              tag_171\n              jump\t// in\n            tag_186:\n                /* \"#utility.yul\":4574:4698   */\n              swap3\n              swap2\n              pop\n              pop\n              jump\t// out\n                /* \"#utility.yul\":4704:4833   */\n            tag_115:\n                /* \"#utility.yul\":4738:4744   */\n              0x00\n                /* \"#utility.yul\":4765:4785   */\n              tag_188\n              tag_189\n              jump\t// in\n            tag_188:\n                /* \"#utility.yul\":4755:4785   */\n              swap1\n              pop\n                /* \"#utility.yul\":4794:4827   */\n              tag_190\n                /* \"#utility.yul\":4822:4826   */\n              dup3\n                /* \"#utility.yul\":4814:4820   */\n              dup3\n                /* \"#utility.yul\":4794:4827   */\n              tag_191\n              jump\t// in\n            tag_190:\n                /* \"#utility.yul\":4745:4833   */\n              swap2\n              swap1\n              pop\n              jump\t// out\n                /* \"#utility.yul\":4839:4914   */\n            tag_189:\n                /* \"#utility.yul\":4872:4878   */\n              0x00\n                /* \"#utility.yul\":4905:4907   */\n              0x40\n                /* \"#utility.yul\":4899:4908   */\n              mload\n                /* \"#utility.yul\":4889:4908   */\n              swap1\n              pop\n                /* \"#utility.yul\":4879:4914   */\n              swap1\n              jump\t// out\n                /* \"#utility.yul\":4920:5228   */\n            tag_114:\n                /* \"#utility.yul\":4982:4986   */\n              0x00\n                /* \"#utility.yul\":5072:5090   */\n              0xffffffffffffffff\n                /* \"#utility.yul\":5064:5070   */\n              dup3\n                /* \"#utility.yul\":5061:5091   */\n              gt\n                /* \"#utility.yul\":5058:5060   */\n              iszero\n              tag_194\n              jumpi\n                /* \"#utility.yul\":5094:5112   */\n              tag_195\n              tag_196\n              jump\t// in\n            tag_195:\n                /* \"#utility.yul\":5058:5060   */\n            tag_194:\n                /* \"#utility.yul\":5132:5161   */\n              tag_197\n                /* \"#utility.yul\":5154:5160   */\n              dup3\n                /* \"#utility.yul\":5132:5161   */\n              tag_170\n              jump\t// in\n            tag_197:\n                /* \"#utility.yul\":5124:5161   */\n              swap1\n              pop\n                /* \"#utility.yul\":5216:5220   */\n              0x20\n                /* \"#utility.yul\":5210:5214   */\n              dup2\n                /* \"#utility.yul\":5206:5221   */\n              add\n                /* \"#utility.yul\":5198:5221   */\n              swap1\n              pop\n                /* \"#utility.yul\":4987:5228   */\n              swap2\n              swap1\n              pop\n              jump\t// out\n                /* \"#utility.yul\":5234:5333   */\n            tag_164:\n                /* \"#utility.yul\":5286:5292   */\n              0x00\n                /* \"#utility.yul\":5320:5325   */\n              dup2\n                /* \"#utility.yul\":5314:5326   */\n              mload\n                /* \"#utility.yul\":5304:5326   */\n              swap1\n              pop\n                /* \"#utility.yul\":5293:5333   */\n              swap2\n              swap1\n              pop\n              jump\t// out\n                /* \"#utility.yul\":5339:5508   */\n            tag_166:\n                /* \"#utility.yul\":5423:5434   */\n              0x00\n                /* \"#utility.yul\":5457:5463   */\n              dup3\n                /* \"#utility.yul\":5452:5455   */\n              dup3\n                /* \"#utility.yul\":5445:5464   */\n              mstore\n                /* \"#utility.yul\":5497:5501   */\n              0x20\n                /* \"#utility.yul\":5492:5495   */\n              dup3\n                /* \"#utility.yul\":5488:5502   */\n              add\n                /* \"#utility.yul\":5473:5502   */\n              swap1\n              pop\n                /* \"#utility.yul\":5435:5508   */\n              swap3\n              swap2\n              pop\n              pop\n              jump\t// out\n                /* \"#utility.yul\":5514:5699   */\n            tag_69:\n                /* \"#utility.yul\":5554:5555   */\n              0x00\n                /* \"#utility.yul\":5571:5591   */\n              tag_201\n                /* \"#utility.yul\":5589:5590   */\n              dup3\n                /* \"#utility.yul\":5571:5591   */\n              tag_174\n              jump\t// in\n            tag_201:\n                /* \"#utility.yul\":5566:5591   */\n              swap2\n              pop\n                /* \"#utility.yul\":5605:5625   */\n              tag_202\n                /* \"#utility.yul\":5623:5624   */\n              dup4\n                /* \"#utility.yul\":5605:5625   */\n              tag_174\n              jump\t// in\n            tag_202:\n                /* \"#utility.yul\":5600:5625   */\n              swap3\n              pop\n                /* \"#utility.yul\":5644:5645   */\n              dup3\n                /* \"#utility.yul\":5634:5636   */\n              tag_203\n              jumpi\n                /* \"#utility.yul\":5649:5667   */\n              tag_204\n              tag_205\n              jump\t// in\n            tag_204:\n                /* \"#utility.yul\":5634:5636   */\n            tag_203:\n                /* \"#utility.yul\":5691:5692   */\n              dup3\n                /* \"#utility.yul\":5688:5689   */\n              dup3\n                /* \"#utility.yul\":5684:5693   */\n              div\n                /* \"#utility.yul\":5679:5693   */\n              swap1\n              pop\n                /* \"#utility.yul\":5556:5699   */\n              swap3\n              swap2\n              pop\n              pop\n              jump\t// out\n                /* \"#utility.yul\":5705:5801   */\n            tag_156:\n                /* \"#utility.yul\":5742:5749   */\n              0x00\n                /* \"#utility.yul\":5771:5795   */\n              tag_207\n                /* \"#utility.yul\":5789:5794   */\n              dup3\n                /* \"#utility.yul\":5771:5795   */\n              tag_208\n              jump\t// in\n            tag_207:\n                /* \"#utility.yul\":5760:5795   */\n              swap1\n              pop\n                /* \"#utility.yul\":5750:5801   */\n              swap2\n              swap1\n              pop\n              jump\t// out\n                /* \"#utility.yul\":5807:5897   */\n            tag_160:\n                /* \"#utility.yul\":5841:5848   */\n              0x00\n                /* \"#utility.yul\":5884:5889   */\n              dup2\n                /* \"#utility.yul\":5877:5890   */\n              iszero\n                /* \"#utility.yul\":5870:5891   */\n              iszero\n                /* \"#utility.yul\":5859:5891   */\n              swap1\n              pop\n                /* \"#utility.yul\":5849:5897   */\n              swap2\n              swap1\n              pop\n              jump\t// out\n                /* \"#utility.yul\":5903:6029   */\n            tag_208:\n                /* \"#utility.yul\":5940:5947   */\n              0x00\n                /* \"#utility.yul\":5980:6022   */\n              0xffffffffffffffffffffffffffffffffffffffff\n                /* \"#utility.yul\":5973:5978   */\n              dup3\n                /* \"#utility.yul\":5969:6023   */\n              and\n                /* \"#utility.yul\":5958:6023   */\n              swap1\n              pop\n                /* \"#utility.yul\":5948:6029   */\n              swap2\n              swap1\n              pop\n              jump\t// out\n                /* \"#utility.yul\":6035:6112   */\n            tag_174:\n                /* \"#utility.yul\":6072:6079   */\n              0x00\n                /* \"#utility.yul\":6101:6106   */\n              dup2\n                /* \"#utility.yul\":6090:6106   */\n              swap1\n              pop\n                /* \"#utility.yul\":6080:6112   */\n              swap2\n              swap1\n              pop\n              jump\t// out\n                /* \"#utility.yul\":6118:6272   */\n            tag_120:\n                /* \"#utility.yul\":6202:6208   */\n              dup3\n                /* \"#utility.yul\":6197:6200   */\n              dup2\n                /* \"#utility.yul\":6192:6195   */\n              dup4\n                /* \"#utility.yul\":6179:6209   */\n              calldatacopy\n                /* \"#utility.yul\":6264:6265   */\n              0x00\n                /* \"#utility.yul\":6255:6261   */\n              dup4\n                /* \"#utility.yul\":6250:6253   */\n              dup4\n                /* \"#utility.yul\":6246:6262   */\n              add\n                /* \"#utility.yul\":6239:6266   */\n              mstore\n                /* \"#utility.yul\":6169:6272   */\n              pop\n              pop\n              pop\n              jump\t// out\n                /* \"#utility.yul\":6278:6585   */\n            tag_168:\n                /* \"#utility.yul\":6346:6347   */\n              0x00\n                /* \"#utility.yul\":6356:6469   */\n            tag_214:\n                /* \"#utility.yul\":6370:6376   */\n              dup4\n                /* \"#utility.yul\":6367:6368   */\n              dup2\n                /* \"#utility.yul\":6364:6377   */\n              lt\n                /* \"#utility.yul\":6356:6469   */\n              iszero\n              tag_216\n              jumpi\n                /* \"#utility.yul\":6455:6456   */\n              dup1\n                /* \"#utility.yul\":6450:6453   */\n              dup3\n                /* \"#utility.yul\":6446:6457   */\n              add\n                /* \"#utility.yul\":6440:6458   */\n              mload\n                /* \"#utility.yul\":6436:6437   */\n              dup2\n                /* \"#utility.yul\":6431:6434   */\n              dup5\n                /* \"#utility.yul\":6427:6438   */\n              add\n                /* \"#utility.yul\":6420:6459   */\n              mstore\n                /* \"#utility.yul\":6392:6394   */\n              0x20\n                /* \"#utility.yul\":6389:6390   */\n              dup2\n                /* \"#utility.yul\":6385:6395   */\n              add\n                /* \"#utility.yul\":6380:6395   */\n              swap1\n              pop\n                /* \"#utility.yul\":6356:6469   */\n              jump(tag_214)\n            tag_216:\n                /* \"#utility.yul\":6487:6493   */\n              dup4\n                /* \"#utility.yul\":6484:6485   */\n              dup2\n                /* \"#utility.yul\":6481:6494   */\n              gt\n                /* \"#utility.yul\":6478:6480   */\n              iszero\n              tag_217\n              jumpi\n                /* \"#utility.yul\":6567:6568   */\n              0x00\n                /* \"#utility.yul\":6558:6564   */\n              dup5\n                /* \"#utility.yul\":6553:6556   */\n              dup5\n                /* \"#utility.yul\":6549:6565   */\n              add\n                /* \"#utility.yul\":6542:6569   */\n              mstore\n                /* \"#utility.yul\":6478:6480   */\n            tag_217:\n                /* \"#utility.yul\":6327:6585   */\n              pop\n              pop\n              pop\n              pop\n              jump\t// out\n                /* \"#utility.yul\":6591:6911   */\n            tag_77:\n                /* \"#utility.yul\":6635:6641   */\n              0x00\n                /* \"#utility.yul\":6672:6673   */\n              0x02\n                /* \"#utility.yul\":6666:6670   */\n              dup3\n                /* \"#utility.yul\":6662:6674   */\n              div\n                /* \"#utility.yul\":6652:6674   */\n              swap1\n              pop\n                /* \"#utility.yul\":6719:6720   */\n              0x01\n                /* \"#utility.yul\":6713:6717   */\n              dup3\n                /* \"#utility.yul\":6709:6721   */\n              and\n                /* \"#utility.yul\":6740:6758   */\n              dup1\n                /* \"#utility.yul\":6730:6732   */\n              tag_219\n              jumpi\n                /* \"#utility.yul\":6796:6800   */\n              0x7f\n                /* \"#utility.yul\":6788:6794   */\n              dup3\n                /* \"#utility.yul\":6784:6801   */\n              and\n                /* \"#utility.yul\":6774:6801   */\n              swap2\n              pop\n                /* \"#utility.yul\":6730:6732   */\n            tag_219:\n                /* \"#utility.yul\":6858:6860   */\n              0x20\n                /* \"#utility.yul\":6850:6856   */\n              dup3\n                /* \"#utility.yul\":6847:6861   */\n              lt\n                /* \"#utility.yul\":6827:6845   */\n              dup2\n                /* \"#utility.yul\":6824:6862   */\n              eq\n                /* \"#utility.yul\":6821:6823   */\n              iszero\n              tag_220\n              jumpi\n                /* \"#utility.yul\":6877:6895   */\n              tag_221\n              tag_222\n              jump\t// in\n            tag_221:\n                /* \"#utility.yul\":6821:6823   */\n            tag_220:\n                /* \"#utility.yul\":6642:6911   */\n              pop\n              swap2\n              swap1\n              pop\n              jump\t// out\n                /* \"#utility.yul\":6917:7198   */\n            tag_191:\n                /* \"#utility.yul\":7000:7027   */\n              tag_224\n                /* \"#utility.yul\":7022:7026   */\n              dup3\n                /* \"#utility.yul\":7000:7027   */\n              tag_170\n              jump\t// in\n            tag_224:\n                /* \"#utility.yul\":6992:6998   */\n              dup2\n                /* \"#utility.yul\":6988:7028   */\n              add\n                /* \"#utility.yul\":7130:7136   */\n              dup2\n                /* \"#utility.yul\":7118:7128   */\n              dup2\n                /* \"#utility.yul\":7115:7137   */\n              lt\n                /* \"#utility.yul\":7094:7112   */\n              0xffffffffffffffff\n                /* \"#utility.yul\":7082:7092   */\n              dup3\n                /* \"#utility.yul\":7079:7113   */\n              gt\n                /* \"#utility.yul\":7076:7138   */\n              or\n                /* \"#utility.yul\":7073:7075   */\n              iszero\n              tag_225\n              jumpi\n                /* \"#utility.yul\":7141:7159   */\n              tag_226\n              tag_196\n              jump\t// in\n            tag_226:\n                /* \"#utility.yul\":7073:7075   */\n            tag_225:\n                /* \"#utility.yul\":7181:7191   */\n              dup1\n                /* \"#utility.yul\":7177:7179   */\n              0x40\n                /* \"#utility.yul\":7170:7192   */\n              mstore\n                /* \"#utility.yul\":6960:7198   */\n              pop\n              pop\n              pop\n              jump\t// out\n                /* \"#utility.yul\":7204:7437   */\n            tag_91:\n                /* \"#utility.yul\":7243:7246   */\n              0x00\n                /* \"#utility.yul\":7266:7290   */\n              tag_228\n                /* \"#utility.yul\":7284:7289   */\n              dup3\n                /* \"#utility.yul\":7266:7290   */\n              tag_174\n              jump\t// in\n            tag_228:\n                /* \"#utility.yul\":7257:7290   */\n              swap2\n              pop\n                /* \"#utility.yul\":7312:7378   */\n              0xffffffffffffffffffffffffffffffffffffffffffffffffffffffffffffffff\n                /* \"#utility.yul\":7305:7310   */\n              dup3\n                /* \"#utility.yul\":7302:7379   */\n              eq\n                /* \"#utility.yul\":7299:7301   */\n              iszero\n              tag_229\n              jumpi\n                /* \"#utility.yul\":7382:7400   */\n              tag_230\n              tag_231\n              jump\t// in\n            tag_230:\n                /* \"#utility.yul\":7299:7301   */\n            tag_229:\n                /* \"#utility.yul\":7429:7430   */\n              0x01\n                /* \"#utility.yul\":7422:7427   */\n              dup3\n                /* \"#utility.yul\":7418:7431   */\n              add\n                /* \"#utility.yul\":7411:7431   */\n              swap1\n              pop\n                /* \"#utility.yul\":7247:7437   */\n              swap2\n              swap1\n              pop\n              jump\t// out\n                /* \"#utility.yul\":7443:7623   */\n            tag_231:\n                /* \"#utility.yul\":7491:7568   */\n              0x4e487b7100000000000000000000000000000000000000000000000000000000\n                /* \"#utility.yul\":7488:7489   */\n              0x00\n                /* \"#utility.yul\":7481:7569   */\n              mstore\n                /* \"#utility.yul\":7588:7592   */\n              0x11\n                /* \"#utility.yul\":7585:7586   */\n              0x04\n                /* \"#utility.yul\":7578:7593   */\n              mstore\n                /* \"#utility.yul\":7612:7616   */\n              0x24\n                /* \"#utility.yul\":7609:7610   */\n              0x00\n                /* \"#utility.yul\":7602:7617   */\n              revert\n                /* \"#utility.yul\":7629:7809   */\n            tag_205:\n                /* \"#utility.yul\":7677:7754   */\n              0x4e487b7100000000000000000000000000000000000000000000000000000000\n                /* \"#utility.yul\":7674:7675   */\n              0x00\n                /* \"#utility.yul\":7667:7755   */\n              mstore\n                /* \"#utility.yul\":7774:7778   */\n              0x12\n                /* \"#utility.yul\":7771:7772   */\n              0x04\n                /* \"#utility.yul\":7764:7779   */\n              mstore\n                /* \"#utility.yul\":7798:7802   */\n              0x24\n                /* \"#utility.yul\":7795:7796   */\n              0x00\n                /* \"#utility.yul\":7788:7803   */\n              revert\n                /* \"#utility.yul\":7815:7995   */\n            tag_222:\n                /* \"#utility.yul\":7863:7940   */\n              0x4e487b7100000000000000000000000000000000000000000000000000000000\n                /* \"#utility.yul\":7860:7861   */\n              0x00\n                /* \"#utility.yul\":7853:7941   */\n              mstore\n                /* \"#utility.yul\":7960:7964   */\n              0x22\n                /* \"#utility.yul\":7957:7958   */\n              0x04\n                /* \"#utility.yul\":7950:7965   */\n              mstore\n                /* \"#utility.yul\":7984:7988   */\n              0x24\n                /* \"#utility.yul\":7981:7982   */\n              0x00\n                /* \"#utility.yul\":7974:7989   */\n              revert\n                /* \"#utility.yul\":8001:8181   */\n            tag_65:\n                /* \"#utility.yul\":8049:8126   */\n              0x4e487b7100000000000000000000000000000000000000000000000000000000\n                /* \"#utility.yul\":8046:8047   */\n              0x00\n                /* \"#utility.yul\":8039:8127   */\n              mstore\n                /* \"#utility.yul\":8146:8150   */\n              0x32\n                /* \"#utility.yul\":8143:8144   */\n              0x04\n                /* \"#utility.yul\":8136:8151   */\n              mstore\n                /* \"#utility.yul\":8170:8174   */\n              0x24\n                /* \"#utility.yul\":8167:8168   */\n              0x00\n                /* \"#utility.yul\":8160:8175   */\n              revert\n                /* \"#utility.yul\":8187:8367   */\n            tag_196:\n                /* \"#utility.yul\":8235:8312   */\n              0x4e487b7100000000000000000000000000000000000000000000000000000000\n                /* \"#utility.yul\":8232:8233   */\n              0x00\n                /* \"#utility.yul\":8225:8313   */\n              mstore\n                /* \"#utility.yul\":8332:8336   */\n              0x41\n                /* \"#utility.yul\":8329:8330   */\n              0x04\n                /* \"#utility.yul\":8322:8337   */\n              mstore\n                /* \"#utility.yul\":8356:8360   */\n              0x24\n                /* \"#utility.yul\":8353:8354   */\n              0x00\n                /* \"#utility.yul\":8346:8361   */\n              revert\n                /* \"#utility.yul\":8373:8490   */\n            tag_129:\n                /* \"#utility.yul\":8482:8483   */\n              0x00\n                /* \"#utility.yul\":8479:8480   */\n              dup1\n                /* \"#utility.yul\":8472:8484   */\n              revert\n                /* \"#utility.yul\":8496:8613   */\n            tag_118:\n                /* \"#utility.yul\":8605:8606   */\n              0x00\n                /* \"#utility.yul\":8602:8603   */\n              dup1\n                /* \"#utility.yul\":8595:8607   */\n              revert\n                /* \"#utility.yul\":8619:8736   */\n            tag_145:\n                /* \"#utility.yul\":8728:8729   */\n              0x00\n                /* \"#utility.yul\":8725:8726   */\n              dup1\n                /* \"#utility.yul\":8718:8730   */\n              revert\n                /* \"#utility.yul\":8742:8859   */\n            tag_138:\n                /* \"#utility.yul\":8851:8852   */\n              0x00\n                /* \"#utility.yul\":8848:8849   */\n              dup1\n                /* \"#utility.yul\":8841:8853   */\n              revert\n                /* \"#utility.yul\":8865:8967   */\n            tag_170:\n                /* \"#utility.yul\":8906:8912   */\n              0x00\n                /* \"#utility.yul\":8957:8959   */\n              0x1f\n                /* \"#utility.yul\":8953:8960   */\n              not\n                /* \"#utility.yul\":8948:8950   */\n              0x1f\n                /* \"#utility.yul\":8941:8946   */\n              dup4\n                /* \"#utility.yul\":8937:8951   */\n              add\n                /* \"#utility.yul\":8933:8961   */\n              and\n                /* \"#utility.yul\":8923:8961   */\n              swap1\n              pop\n                /* \"#utility.yul\":8913:8967   */\n              swap2\n              swap1\n              pop\n              jump\t// out\n                /* \"#utility.yul\":8973:9095   */\n            tag_124:\n                /* \"#utility.yul\":9046:9070   */\n              tag_243\n                /* \"#utility.yul\":9064:9069   */\n              dup2\n                /* \"#utility.yul\":9046:9070   */\n              tag_156\n              jump\t// in\n            tag_243:\n                /* \"#utility.yul\":9039:9044   */\n              dup2\n                /* \"#utility.yul\":9036:9071   */\n              eq\n                /* \"#utility.yul\":9026:9028   */\n              tag_244\n              jumpi\n                /* \"#utility.yul\":9085:9086   */\n              0x00\n                /* \"#utility.yul\":9082:9083   */\n              dup1\n                /* \"#utility.yul\":9075:9087   */\n              revert\n                /* \"#utility.yul\":9026:9028   */\n            tag_244:\n                /* \"#utility.yul\":9016:9095   */\n              pop\n              jump\t// out\n                /* \"#utility.yul\":9101:9223   */\n            tag_134:\n                /* \"#utility.yul\":9174:9198   */\n              tag_246\n                /* \"#utility.yul\":9192:9197   */\n              dup2\n                /* \"#utility.yul\":9174:9198   */\n              tag_174\n              jump\t// in\n            tag_246:\n                /* \"#utility.yul\":9167:9172   */\n              dup2\n                /* \"#utility.yul\":9164:9199   */\n              eq\n                /* \"#utility.yul\":9154:9156   */\n              tag_247\n              jumpi\n                /* \"#utility.yul\":9213:9214   */\n              0x00\n                /* \"#utility.yul\":9210:9211   */\n              dup1\n                /* \"#utility.yul\":9203:9215   */\n              revert\n                /* \"#utility.yul\":9154:9156   */\n            tag_247:\n                /* \"#utility.yul\":9144:9223   */\n              pop\n              jump\t// out\n\n            auxdata: 0xa2646970667358221220a3b8236c7f8df885d6b334418abed0747e34e476719f57b72b4d4981785bdd0e64736f6c63430008060033\n        }\n    }\n\n    auxdata: 0xa2646970667358221220ec66d6e2f2bba8b7c00257d1e44a2a758329f4a952b299c74f482768faea3e9464736f6c63430008060033\n}\n",
        "bytecode": {
            "linkReferences": {},
            "object": "608060405234801561001057600080fd5b50611349806100206000396000f3fe608060405234801561001057600080fd5b50600436106100365760003560e01c80637fa062401461003b5780639cb48dec14610057575b600080fd5b610055600480360381019061005091906101c6565b610075565b005b61005f610116565b60405161006c9190610296565b60405180910390f35b60008133604051610085906101a4565b6100909291906102b8565b604051809103906000f0801580156100ac573d6000803e3d6000fd5b5090506000819080600181540180825580915050600190039060005260206000200160009091909190916101000a81548173ffffffffffffffffffffffffffffffffffffffff021916908373ffffffffffffffffffffffffffffffffffffffff1602179055505050565b6060600080548060200260200160405190810160405280929190818152602001828054801561019a57602002820191906000526020600020905b8160009054906101000a900473ffffffffffffffffffffffffffffffffffffffff1673ffffffffffffffffffffffffffffffffffffffff1681526020019060010190808311610150575b5050505050905090565b610fa18061037383390190565b6000813590506101c08161035b565b92915050565b6000602082840312156101dc576101db610356565b5b60006101ea848285016101b1565b91505092915050565b60006101ff838361020b565b60208301905092915050565b6102148161031a565b82525050565b6102238161031a565b82525050565b6000610234826102f1565b61023e8185610309565b9350610249836102e1565b8060005b8381101561027a57815161026188826101f3565b975061026c836102fc565b92505060018101905061024d565b5085935050505092915050565b6102908161034c565b82525050565b600060208201905081810360008301526102b08184610229565b905092915050565b60006040820190506102cd6000830185610287565b6102da602083018461021a565b9392505050565b6000819050602082019050919050565b600081519050919050565b6000602082019050919050565b600082825260208201905092915050565b60006103258261032c565b9050919050565b600073ffffffffffffffffffffffffffffffffffffffff82169050919050565b6000819050919050565b600080fd5b6103648161034c565b811461036f57600080fd5b5056fe60806040523480156200001157600080fd5b5060405162000fa138038062000fa18339818101604052810190620000379190620000b4565b806000806101000a81548173ffffffffffffffffffffffffffffffffffffffff021916908373ffffffffffffffffffffffffffffffffffffffff16021790555081600181905550505062000172565b60008151905062000097816200013e565b92915050565b600081519050620000ae8162000158565b92915050565b60008060408385031215620000ce57620000cd62000139565b5b6000620000de858286016200009d565b9250506020620000f18582860162000086565b9150509250929050565b600062000108826200010f565b9050919050565b600073ffffffffffffffffffffffffffffffffffffffff82169050919050565b6000819050919050565b600080fd5b6200014981620000fb565b81146200015557600080fd5b50565b62000163816200012f565b81146200016f57600080fd5b50565b610e1f80620001826000396000f3fe6080604052600436106100915760003560e01c806381d12c581161005957806381d12c581461017d5780638a9cfd55146101be578063937e09b1146101e7578063d7bb99ba14610212578063d7d1bbdb1461021c57610091565b8063034410061461009657806308caa910146100bf5780631f6d4942146100ea578063481c6a75146101275780637569b3d714610152575b600080fd5b3480156100a257600080fd5b506100bd60048036038101906100b89190610994565b610245565b005b3480156100cb57600080fd5b506100d461038d565b6040516100e19190610ab7565b60405180910390f35b3480156100f657600080fd5b50610111600480360381019061010c91906108f8565b610395565b60405161011e9190610a42565b60405180910390f35b34801561013357600080fd5b5061013c6103b5565b6040516101499190610a27565b60405180910390f35b34801561015e57600080fd5b506101676103d9565b6040516101749190610ab7565b60405180910390f35b34801561018957600080fd5b506101a4600480360381019061019f9190610994565b6103df565b6040516101b5959493929190610a5d565b60405180910390f35b3480156101ca57600080fd5b506101e560048036038101906101e09190610925565b6104da565b005b3480156101f357600080fd5b506101fc6105e8565b6040516102099190610ab7565b60405180910390f35b61021a6105ee565b005b34801561022857600080fd5b50610243600480360381019061023e9190610994565b61066e565b005b60008054906101000a900473ffffffffffffffffffffffffffffffffffffffff1673ffffffffffffffffffffffffffffffffffffffff163373ffffffffffffffffffffffffffffffffffffffff161461029d57600080fd5b6000600482815481106102b3576102b2610d38565b5b906000526020600020906005020190508060020160149054906101000a900460ff16156102df57600080fd5b60018160020160146101000a81548160ff021916908315150217905550600260035461030b9190610b44565b81600401541161031a57600080fd5b8060020160009054906101000a900473ffffffffffffffffffffffffffffffffffffffff1673ffffffffffffffffffffffffffffffffffffffff166108fc82600101549081150290604051600060405180830381858888f19350505050158015610388573d6000803e3d6000fd5b505050565b600047905090565b60026020528060005260406000206000915054906101000a900460ff1681565b60008054906101000a900473ffffffffffffffffffffffffffffffffffffffff1681565b60035481565b600481815481106103ef57600080fd5b906000526020600020906005020160009150905080600001805461041290610bff565b80601f016020809104026020016040519081016040528092919081815260200182805461043e90610bff565b801561048b5780601f106104605761010080835404028352916020019161048b565b820191906000526020600020905b81548152906001019060200180831161046e57829003601f168201915b5050505050908060010154908060020160009054906101000a900473ffffffffffffffffffffffffffffffffffffffff16908060020160149054906101000a900460ff16908060040154905085565b60008054906101000a900473ffffffffffffffffffffffffffffffffffffffff1673ffffffffffffffffffffffffffffffffffffffff163373ffffffffffffffffffffffffffffffffffffffff161461053257600080fd5b6000600460018160018154018082558091505003906000526020600020906005020190508381600001908051906020019061056e9291906107bb565b50828160010181905550818160020160006101000a81548173ffffffffffffffffffffffffffffffffffffffff021916908373ffffffffffffffffffffffffffffffffffffffff16021790555060008160020160146101000a81548160ff0219169083151502179055506000816004018190555050505050565b60015481565b60015434116105fc57600080fd5b6001600260003373ffffffffffffffffffffffffffffffffffffffff1673ffffffffffffffffffffffffffffffffffffffff16815260200190815260200160002060006101000a81548160ff0219169083151502179055506003600081548092919061066790610c62565b9190505550565b60006004828154811061068457610683610d38565b5b90600052602060002090600502019050600260003373ffffffffffffffffffffffffffffffffffffffff1673ffffffffffffffffffffffffffffffffffffffff16815260200190815260200160002060009054906101000a900460ff166106ea57600080fd5b8060030160003373ffffffffffffffffffffffffffffffffffffffff1673ffffffffffffffffffffffffffffffffffffffff16815260200190815260200160002060009054906101000a900460ff161561074357600080fd5b60018160030160003373ffffffffffffffffffffffffffffffffffffffff1673ffffffffffffffffffffffffffffffffffffffff16815260200190815260200160002060006101000a81548160ff0219169083151502179055508060040160008154809291906107b290610c62565b91905055505050565b8280546107c790610bff565b90600052602060002090601f0160209004810192826107e95760008555610830565b82601f1061080257805160ff1916838001178555610830565b82800160010185558215610830579182015b8281111561082f578251825591602001919060010190610814565b5b50905061083d9190610841565b5090565b5b8082111561085a576000816000905550600101610842565b5090565b600061087161086c84610af7565b610ad2565b90508281526020810184848401111561088d5761088c610d9b565b5b610898848285610bbd565b509392505050565b6000813590506108af81610dbb565b92915050565b600082601f8301126108ca576108c9610d96565b5b81356108da84826020860161085e565b91505092915050565b6000813590506108f281610dd2565b92915050565b60006020828403121561090e5761090d610da5565b5b600061091c848285016108a0565b91505092915050565b60008060006060848603121561093e5761093d610da5565b5b600084013567ffffffffffffffff81111561095c5761095b610da0565b5b610968868287016108b5565b9350506020610979868287016108e3565b925050604061098a868287016108a0565b9150509250925092565b6000602082840312156109aa576109a9610da5565b5b60006109b8848285016108e3565b91505092915050565b6109ca81610b75565b82525050565b6109d981610b87565b82525050565b60006109ea82610b28565b6109f48185610b33565b9350610a04818560208601610bcc565b610a0d81610daa565b840191505092915050565b610a2181610bb3565b82525050565b6000602082019050610a3c60008301846109c1565b92915050565b6000602082019050610a5760008301846109d0565b92915050565b600060a0820190508181036000830152610a7781886109df565b9050610a866020830187610a18565b610a9360408301866109c1565b610aa060608301856109d0565b610aad6080830184610a18565b9695505050505050565b6000602082019050610acc6000830184610a18565b92915050565b6000610adc610aed565b9050610ae88282610c31565b919050565b6000604051905090565b600067ffffffffffffffff821115610b1257610b11610d67565b5b610b1b82610daa565b9050602081019050919050565b600081519050919050565b600082825260208201905092915050565b6000610b4f82610bb3565b9150610b5a83610bb3565b925082610b6a57610b69610cda565b5b828204905092915050565b6000610b8082610b93565b9050919050565b60008115159050919050565b600073ffffffffffffffffffffffffffffffffffffffff82169050919050565b6000819050919050565b82818337600083830152505050565b60005b83811015610bea578082015181840152602081019050610bcf565b83811115610bf9576000848401525b50505050565b60006002820490506001821680610c1757607f821691505b60208210811415610c2b57610c2a610d09565b5b50919050565b610c3a82610daa565b810181811067ffffffffffffffff82111715610c5957610c58610d67565b5b80604052505050565b6000610c6d82610bb3565b91507fffffffffffffffffffffffffffffffffffffffffffffffffffffffffffffffff821415610ca057610c9f610cab565b5b600182019050919050565b7f4e487b7100000000000000000000000000000000000000000000000000000000600052601160045260246000fd5b7f4e487b7100000000000000000000000000000000000000000000000000000000600052601260045260246000fd5b7f4e487b7100000000000000000000000000000000000000000000000000000000600052602260045260246000fd5b7f4e487b7100000000000000000000000000000000000000000000000000000000600052603260045260246000fd5b7f4e487b7100000000000000000000000000000000000000000000000000000000600052604160045260246000fd5b600080fd5b600080fd5b600080fd5b600080fd5b6000601f19601f8301169050919050565b610dc481610b75565b8114610dcf57600080fd5b50565b610ddb81610bb3565b8114610de657600080fd5b5056fea2646970667358221220a3b8236c7f8df885d6b334418abed0747e34e476719f57b72b4d4981785bdd0e64736f6c63430008060033a2646970667358221220ec66d6e2f2bba8b7c00257d1e44a2a758329f4a952b299c74f482768faea3e9464736f6c63430008060033",
            "opcodes": "PUSH1 0x80 PUSH1 0x40 MSTORE CALLVALUE DUP1 ISZERO PUSH2 0x10 JUMPI PUSH1 0x0 DUP1 REVERT JUMPDEST POP PUSH2 0x1349 DUP1 PUSH2 0x20 PUSH1 0x0 CODECOPY PUSH1 0x0 RETURN INVALID PUSH1 0x80 PUSH1 0x40 MSTORE CALLVALUE DUP1 ISZERO PUSH2 0x10 JUMPI PUSH1 0x0 DUP1 REVERT JUMPDEST POP PUSH1 0x4 CALLDATASIZE LT PUSH2 0x36 JUMPI PUSH1 0x0 CALLDATALOAD PUSH1 0xE0 SHR DUP1 PUSH4 0x7FA06240 EQ PUSH2 0x3B JUMPI DUP1 PUSH4 0x9CB48DEC EQ PUSH2 0x57 JUMPI JUMPDEST PUSH1 0x0 DUP1 REVERT JUMPDEST PUSH2 0x55 PUSH1 0x4 DUP1 CALLDATASIZE SUB DUP2 ADD SWAP1 PUSH2 0x50 SWAP2 SWAP1 PUSH2 0x1C6 JUMP JUMPDEST PUSH2 0x75 JUMP JUMPDEST STOP JUMPDEST PUSH2 0x5F PUSH2 0x116 JUMP JUMPDEST PUSH1 0x40 MLOAD PUSH2 0x6C SWAP2 SWAP1 PUSH2 0x296 JUMP JUMPDEST PUSH1 0x40 MLOAD DUP1 SWAP2 SUB SWAP1 RETURN JUMPDEST PUSH1 0x0 DUP2 CALLER PUSH1 0x40 MLOAD PUSH2 0x85 SWAP1 PUSH2 0x1A4 JUMP JUMPDEST PUSH2 0x90 SWAP3 SWAP2 SWAP1 PUSH2 0x2B8 JUMP JUMPDEST PUSH1 0x40 MLOAD DUP1 SWAP2 SUB SWAP1 PUSH1 0x0 CREATE DUP1 ISZERO DUP1 ISZERO PUSH2 0xAC JUMPI RETURNDATASIZE PUSH1 0x0 DUP1 RETURNDATACOPY RETURNDATASIZE PUSH1 0x0 REVERT JUMPDEST POP SWAP1 POP PUSH1 0x0 DUP2 SWAP1 DUP1 PUSH1 0x1 DUP2 SLOAD ADD DUP1 DUP3 SSTORE DUP1 SWAP2 POP POP PUSH1 0x1 SWAP1 SUB SWAP1 PUSH1 0x0 MSTORE PUSH1 0x20 PUSH1 0x0 KECCAK256 ADD PUSH1 0x0 SWAP1 SWAP2 SWAP1 SWAP2 SWAP1 SWAP2 PUSH2 0x100 EXP DUP2 SLOAD DUP2 PUSH20 0xFFFFFFFFFFFFFFFFFFFFFFFFFFFFFFFFFFFFFFFF MUL NOT AND SWAP1 DUP4 PUSH20 0xFFFFFFFFFFFFFFFFFFFFFFFFFFFFFFFFFFFFFFFF AND MUL OR SWAP1 SSTORE POP POP POP JUMP JUMPDEST PUSH1 0x60 PUSH1 0x0 DUP1 SLOAD DUP1 PUSH1 0x20 MUL PUSH1 0x20 ADD PUSH1 0x40 MLOAD SWAP1 DUP2 ADD PUSH1 0x40 MSTORE DUP1 SWAP3 SWAP2 SWAP1 DUP2 DUP2 MSTORE PUSH1 0x20 ADD DUP3 DUP1 SLOAD DUP1 ISZERO PUSH2 0x19A JUMPI PUSH1 0x20 MUL DUP3 ADD SWAP2 SWAP1 PUSH1 0x0 MSTORE PUSH1 0x20 PUSH1 0x0 KECCAK256 SWAP1 JUMPDEST DUP2 PUSH1 0x0 SWAP1 SLOAD SWAP1 PUSH2 0x100 EXP SWAP1 DIV PUSH20 0xFFFFFFFFFFFFFFFFFFFFFFFFFFFFFFFFFFFFFFFF AND PUSH20 0xFFFFFFFFFFFFFFFFFFFFFFFFFFFFFFFFFFFFFFFF AND DUP2 MSTORE PUSH1 0x20 ADD SWAP1 PUSH1 0x1 ADD SWAP1 DUP1 DUP4 GT PUSH2 0x150 JUMPI JUMPDEST POP POP POP POP POP SWAP1 POP SWAP1 JUMP JUMPDEST PUSH2 0xFA1 DUP1 PUSH2 0x373 DUP4 CODECOPY ADD SWAP1 JUMP JUMPDEST PUSH1 0x0 DUP2 CALLDATALOAD SWAP1 POP PUSH2 0x1C0 DUP2 PUSH2 0x35B JUMP JUMPDEST SWAP3 SWAP2 POP POP JUMP JUMPDEST PUSH1 0x0 PUSH1 0x20 DUP3 DUP5 SUB SLT ISZERO PUSH2 0x1DC JUMPI PUSH2 0x1DB PUSH2 0x356 JUMP JUMPDEST JUMPDEST PUSH1 0x0 PUSH2 0x1EA DUP5 DUP3 DUP6 ADD PUSH2 0x1B1 JUMP JUMPDEST SWAP2 POP POP SWAP3 SWAP2 POP POP JUMP JUMPDEST PUSH1 0x0 PUSH2 0x1FF DUP4 DUP4 PUSH2 0x20B JUMP JUMPDEST PUSH1 0x20 DUP4 ADD SWAP1 POP SWAP3 SWAP2 POP POP JUMP JUMPDEST PUSH2 0x214 DUP2 PUSH2 0x31A JUMP JUMPDEST DUP3 MSTORE POP POP JUMP JUMPDEST PUSH2 0x223 DUP2 PUSH2 0x31A JUMP JUMPDEST DUP3 MSTORE POP POP JUMP JUMPDEST PUSH1 0x0 PUSH2 0x234 DUP3 PUSH2 0x2F1 JUMP JUMPDEST PUSH2 0x23E DUP2 DUP6 PUSH2 0x309 JUMP JUMPDEST SWAP4 POP PUSH2 0x249 DUP4 PUSH2 0x2E1 JUMP JUMPDEST DUP1 PUSH1 0x0 JUMPDEST DUP4 DUP2 LT ISZERO PUSH2 0x27A JUMPI DUP2 MLOAD PUSH2 0x261 DUP9 DUP3 PUSH2 0x1F3 JUMP JUMPDEST SWAP8 POP PUSH2 0x26C DUP4 PUSH2 0x2FC JUMP JUMPDEST SWAP3 POP POP PUSH1 0x1 DUP2 ADD SWAP1 POP PUSH2 0x24D JUMP JUMPDEST POP DUP6 SWAP4 POP POP POP POP SWAP3 SWAP2 POP POP JUMP JUMPDEST PUSH2 0x290 DUP2 PUSH2 0x34C JUMP JUMPDEST DUP3 MSTORE POP POP JUMP JUMPDEST PUSH1 0x0 PUSH1 0x20 DUP3 ADD SWAP1 POP DUP2 DUP2 SUB PUSH1 0x0 DUP4 ADD MSTORE PUSH2 0x2B0 DUP2 DUP5 PUSH2 0x229 JUMP JUMPDEST SWAP1 POP SWAP3 SWAP2 POP POP JUMP JUMPDEST PUSH1 0x0 PUSH1 0x40 DUP3 ADD SWAP1 POP PUSH2 0x2CD PUSH1 0x0 DUP4 ADD DUP6 PUSH2 0x287 JUMP JUMPDEST PUSH2 0x2DA PUSH1 0x20 DUP4 ADD DUP5 PUSH2 0x21A JUMP JUMPDEST SWAP4 SWAP3 POP POP POP JUMP JUMPDEST PUSH1 0x0 DUP2 SWAP1 POP PUSH1 0x20 DUP3 ADD SWAP1 POP SWAP2 SWAP1 POP JUMP JUMPDEST PUSH1 0x0 DUP2 MLOAD SWAP1 POP SWAP2 SWAP1 POP JUMP JUMPDEST PUSH1 0x0 PUSH1 0x20 DUP3 ADD SWAP1 POP SWAP2 SWAP1 POP JUMP JUMPDEST PUSH1 0x0 DUP3 DUP3 MSTORE PUSH1 0x20 DUP3 ADD SWAP1 POP SWAP3 SWAP2 POP POP JUMP JUMPDEST PUSH1 0x0 PUSH2 0x325 DUP3 PUSH2 0x32C JUMP JUMPDEST SWAP1 POP SWAP2 SWAP1 POP JUMP JUMPDEST PUSH1 0x0 PUSH20 0xFFFFFFFFFFFFFFFFFFFFFFFFFFFFFFFFFFFFFFFF DUP3 AND SWAP1 POP SWAP2 SWAP1 POP JUMP JUMPDEST PUSH1 0x0 DUP2 SWAP1 POP SWAP2 SWAP1 POP JUMP JUMPDEST PUSH1 0x0 DUP1 REVERT JUMPDEST PUSH2 0x364 DUP2 PUSH2 0x34C JUMP JUMPDEST DUP2 EQ PUSH2 0x36F JUMPI PUSH1 0x0 DUP1 REVERT JUMPDEST POP JUMP INVALID PUSH1 0x80 PUSH1 0x40 MSTORE CALLVALUE DUP1 ISZERO PUSH3 0x11 JUMPI PUSH1 0x0 DUP1 REVERT JUMPDEST POP PUSH1 0x40 MLOAD PUSH3 0xFA1 CODESIZE SUB DUP1 PUSH3 0xFA1 DUP4 CODECOPY DUP2 DUP2 ADD PUSH1 0x40 MSTORE DUP2 ADD SWAP1 PUSH3 0x37 SWAP2 SWAP1 PUSH3 0xB4 JUMP JUMPDEST DUP1 PUSH1 0x0 DUP1 PUSH2 0x100 EXP DUP2 SLOAD DUP2 PUSH20 0xFFFFFFFFFFFFFFFFFFFFFFFFFFFFFFFFFFFFFFFF MUL NOT AND SWAP1 DUP4 PUSH20 0xFFFFFFFFFFFFFFFFFFFFFFFFFFFFFFFFFFFFFFFF AND MUL OR SWAP1 SSTORE POP DUP2 PUSH1 0x1 DUP2 SWAP1 SSTORE POP POP POP PUSH3 0x172 JUMP JUMPDEST PUSH1 0x0 DUP2 MLOAD SWAP1 POP PUSH3 0x97 DUP2 PUSH3 0x13E JUMP JUMPDEST SWAP3 SWAP2 POP POP JUMP JUMPDEST PUSH1 0x0 DUP2 MLOAD SWAP1 POP PUSH3 0xAE DUP2 PUSH3 0x158 JUMP JUMPDEST SWAP3 SWAP2 POP POP JUMP JUMPDEST PUSH1 0x0 DUP1 PUSH1 0x40 DUP4 DUP6 SUB SLT ISZERO PUSH3 0xCE JUMPI PUSH3 0xCD PUSH3 0x139 JUMP JUMPDEST JUMPDEST PUSH1 0x0 PUSH3 0xDE DUP6 DUP3 DUP7 ADD PUSH3 0x9D JUMP JUMPDEST SWAP3 POP POP PUSH1 0x20 PUSH3 0xF1 DUP6 DUP3 DUP7 ADD PUSH3 0x86 JUMP JUMPDEST SWAP2 POP POP SWAP3 POP SWAP3 SWAP1 POP JUMP JUMPDEST PUSH1 0x0 PUSH3 0x108 DUP3 PUSH3 0x10F JUMP JUMPDEST SWAP1 POP SWAP2 SWAP1 POP JUMP JUMPDEST PUSH1 0x0 PUSH20 0xFFFFFFFFFFFFFFFFFFFFFFFFFFFFFFFFFFFFFFFF DUP3 AND SWAP1 POP SWAP2 SWAP1 POP JUMP JUMPDEST PUSH1 0x0 DUP2 SWAP1 POP SWAP2 SWAP1 POP JUMP JUMPDEST PUSH1 0x0 DUP1 REVERT JUMPDEST PUSH3 0x149 DUP2 PUSH3 0xFB JUMP JUMPDEST DUP2 EQ PUSH3 0x155 JUMPI PUSH1 0x0 DUP1 REVERT JUMPDEST POP JUMP JUMPDEST PUSH3 0x163 DUP2 PUSH3 0x12F JUMP JUMPDEST DUP2 EQ PUSH3 0x16F JUMPI PUSH1 0x0 DUP1 REVERT JUMPDEST POP JUMP JUMPDEST PUSH2 0xE1F DUP1 PUSH3 0x182 PUSH1 0x0 CODECOPY PUSH1 0x0 RETURN INVALID PUSH1 0x80 PUSH1 0x40 MSTORE PUSH1 0x4 CALLDATASIZE LT PUSH2 0x91 JUMPI PUSH1 0x0 CALLDATALOAD PUSH1 0xE0 SHR DUP1 PUSH4 0x81D12C58 GT PUSH2 0x59 JUMPI DUP1 PUSH4 0x81D12C58 EQ PUSH2 0x17D JUMPI DUP1 PUSH4 0x8A9CFD55 EQ PUSH2 0x1BE JUMPI DUP1 PUSH4 0x937E09B1 EQ PUSH2 0x1E7 JUMPI DUP1 PUSH4 0xD7BB99BA EQ PUSH2 0x212 JUMPI DUP1 PUSH4 0xD7D1BBDB EQ PUSH2 0x21C JUMPI PUSH2 0x91 JUMP JUMPDEST DUP1 PUSH4 0x3441006 EQ PUSH2 0x96 JUMPI DUP1 PUSH4 0x8CAA910 EQ PUSH2 0xBF JUMPI DUP1 PUSH4 0x1F6D4942 EQ PUSH2 0xEA JUMPI DUP1 PUSH4 0x481C6A75 EQ PUSH2 0x127 JUMPI DUP1 PUSH4 0x7569B3D7 EQ PUSH2 0x152 JUMPI JUMPDEST PUSH1 0x0 DUP1 REVERT JUMPDEST CALLVALUE DUP1 ISZERO PUSH2 0xA2 JUMPI PUSH1 0x0 DUP1 REVERT JUMPDEST POP PUSH2 0xBD PUSH1 0x4 DUP1 CALLDATASIZE SUB DUP2 ADD SWAP1 PUSH2 0xB8 SWAP2 SWAP1 PUSH2 0x994 JUMP JUMPDEST PUSH2 0x245 JUMP JUMPDEST STOP JUMPDEST CALLVALUE DUP1 ISZERO PUSH2 0xCB JUMPI PUSH1 0x0 DUP1 REVERT JUMPDEST POP PUSH2 0xD4 PUSH2 0x38D JUMP JUMPDEST PUSH1 0x40 MLOAD PUSH2 0xE1 SWAP2 SWAP1 PUSH2 0xAB7 JUMP JUMPDEST PUSH1 0x40 MLOAD DUP1 SWAP2 SUB SWAP1 RETURN JUMPDEST CALLVALUE DUP1 ISZERO PUSH2 0xF6 JUMPI PUSH1 0x0 DUP1 REVERT JUMPDEST POP PUSH2 0x111 PUSH1 0x4 DUP1 CALLDATASIZE SUB DUP2 ADD SWAP1 PUSH2 0x10C SWAP2 SWAP1 PUSH2 0x8F8 JUMP JUMPDEST PUSH2 0x395 JUMP JUMPDEST PUSH1 0x40 MLOAD PUSH2 0x11E SWAP2 SWAP1 PUSH2 0xA42 JUMP JUMPDEST PUSH1 0x40 MLOAD DUP1 SWAP2 SUB SWAP1 RETURN JUMPDEST CALLVALUE DUP1 ISZERO PUSH2 0x133 JUMPI PUSH1 0x0 DUP1 REVERT JUMPDEST POP PUSH2 0x13C PUSH2 0x3B5 JUMP JUMPDEST PUSH1 0x40 MLOAD PUSH2 0x149 SWAP2 SWAP1 PUSH2 0xA27 JUMP JUMPDEST PUSH1 0x40 MLOAD DUP1 SWAP2 SUB SWAP1 RETURN JUMPDEST CALLVALUE DUP1 ISZERO PUSH2 0x15E JUMPI PUSH1 0x0 DUP1 REVERT JUMPDEST POP PUSH2 0x167 PUSH2 0x3D9 JUMP JUMPDEST PUSH1 0x40 MLOAD PUSH2 0x174 SWAP2 SWAP1 PUSH2 0xAB7 JUMP JUMPDEST PUSH1 0x40 MLOAD DUP1 SWAP2 SUB SWAP1 RETURN JUMPDEST CALLVALUE DUP1 ISZERO PUSH2 0x189 JUMPI PUSH1 0x0 DUP1 REVERT JUMPDEST POP PUSH2 0x1A4 PUSH1 0x4 DUP1 CALLDATASIZE SUB DUP2 ADD SWAP1 PUSH2 0x19F SWAP2 SWAP1 PUSH2 0x994 JUMP JUMPDEST PUSH2 0x3DF JUMP JUMPDEST PUSH1 0x40 MLOAD PUSH2 0x1B5 SWAP6 SWAP5 SWAP4 SWAP3 SWAP2 SWAP1 PUSH2 0xA5D JUMP JUMPDEST PUSH1 0x40 MLOAD DUP1 SWAP2 SUB SWAP1 RETURN JUMPDEST CALLVALUE DUP1 ISZERO PUSH2 0x1CA JUMPI PUSH1 0x0 DUP1 REVERT JUMPDEST POP PUSH2 0x1E5 PUSH1 0x4 DUP1 CALLDATASIZE SUB DUP2 ADD SWAP1 PUSH2 0x1E0 SWAP2 SWAP1 PUSH2 0x925 JUMP JUMPDEST PUSH2 0x4DA JUMP JUMPDEST STOP JUMPDEST CALLVALUE DUP1 ISZERO PUSH2 0x1F3 JUMPI PUSH1 0x0 DUP1 REVERT JUMPDEST POP PUSH2 0x1FC PUSH2 0x5E8 JUMP JUMPDEST PUSH1 0x40 MLOAD PUSH2 0x209 SWAP2 SWAP1 PUSH2 0xAB7 JUMP JUMPDEST PUSH1 0x40 MLOAD DUP1 SWAP2 SUB SWAP1 RETURN JUMPDEST PUSH2 0x21A PUSH2 0x5EE JUMP JUMPDEST STOP JUMPDEST CALLVALUE DUP1 ISZERO PUSH2 0x228 JUMPI PUSH1 0x0 DUP1 REVERT JUMPDEST POP PUSH2 0x243 PUSH1 0x4 DUP1 CALLDATASIZE SUB DUP2 ADD SWAP1 PUSH2 0x23E SWAP2 SWAP1 PUSH2 0x994 JUMP JUMPDEST PUSH2 0x66E JUMP JUMPDEST STOP JUMPDEST PUSH1 0x0 DUP1 SLOAD SWAP1 PUSH2 0x100 EXP SWAP1 DIV PUSH20 0xFFFFFFFFFFFFFFFFFFFFFFFFFFFFFFFFFFFFFFFF AND PUSH20 0xFFFFFFFFFFFFFFFFFFFFFFFFFFFFFFFFFFFFFFFF AND CALLER PUSH20 0xFFFFFFFFFFFFFFFFFFFFFFFFFFFFFFFFFFFFFFFF AND EQ PUSH2 0x29D JUMPI PUSH1 0x0 DUP1 REVERT JUMPDEST PUSH1 0x0 PUSH1 0x4 DUP3 DUP2 SLOAD DUP2 LT PUSH2 0x2B3 JUMPI PUSH2 0x2B2 PUSH2 0xD38 JUMP JUMPDEST JUMPDEST SWAP1 PUSH1 0x0 MSTORE PUSH1 0x20 PUSH1 0x0 KECCAK256 SWAP1 PUSH1 0x5 MUL ADD SWAP1 POP DUP1 PUSH1 0x2 ADD PUSH1 0x14 SWAP1 SLOAD SWAP1 PUSH2 0x100 EXP SWAP1 DIV PUSH1 0xFF AND ISZERO PUSH2 0x2DF JUMPI PUSH1 0x0 DUP1 REVERT JUMPDEST PUSH1 0x1 DUP2 PUSH1 0x2 ADD PUSH1 0x14 PUSH2 0x100 EXP DUP2 SLOAD DUP2 PUSH1 0xFF MUL NOT AND SWAP1 DUP4 ISZERO ISZERO MUL OR SWAP1 SSTORE POP PUSH1 0x2 PUSH1 0x3 SLOAD PUSH2 0x30B SWAP2 SWAP1 PUSH2 0xB44 JUMP JUMPDEST DUP2 PUSH1 0x4 ADD SLOAD GT PUSH2 0x31A JUMPI PUSH1 0x0 DUP1 REVERT JUMPDEST DUP1 PUSH1 0x2 ADD PUSH1 0x0 SWAP1 SLOAD SWAP1 PUSH2 0x100 EXP SWAP1 DIV PUSH20 0xFFFFFFFFFFFFFFFFFFFFFFFFFFFFFFFFFFFFFFFF AND PUSH20 0xFFFFFFFFFFFFFFFFFFFFFFFFFFFFFFFFFFFFFFFF AND PUSH2 0x8FC DUP3 PUSH1 0x1 ADD SLOAD SWAP1 DUP2 ISZERO MUL SWAP1 PUSH1 0x40 MLOAD PUSH1 0x0 PUSH1 0x40 MLOAD DUP1 DUP4 SUB DUP2 DUP6 DUP9 DUP9 CALL SWAP4 POP POP POP POP ISZERO DUP1 ISZERO PUSH2 0x388 JUMPI RETURNDATASIZE PUSH1 0x0 DUP1 RETURNDATACOPY RETURNDATASIZE PUSH1 0x0 REVERT JUMPDEST POP POP POP JUMP JUMPDEST PUSH1 0x0 SELFBALANCE SWAP1 POP SWAP1 JUMP JUMPDEST PUSH1 0x2 PUSH1 0x20 MSTORE DUP1 PUSH1 0x0 MSTORE PUSH1 0x40 PUSH1 0x0 KECCAK256 PUSH1 0x0 SWAP2 POP SLOAD SWAP1 PUSH2 0x100 EXP SWAP1 DIV PUSH1 0xFF AND DUP2 JUMP JUMPDEST PUSH1 0x0 DUP1 SLOAD SWAP1 PUSH2 0x100 EXP SWAP1 DIV PUSH20 0xFFFFFFFFFFFFFFFFFFFFFFFFFFFFFFFFFFFFFFFF AND DUP2 JUMP JUMPDEST PUSH1 0x3 SLOAD DUP2 JUMP JUMPDEST PUSH1 0x4 DUP2 DUP2 SLOAD DUP2 LT PUSH2 0x3EF JUMPI PUSH1 0x0 DUP1 REVERT JUMPDEST SWAP1 PUSH1 0x0 MSTORE PUSH1 0x20 PUSH1 0x0 KECCAK256 SWAP1 PUSH1 0x5 MUL ADD PUSH1 0x0 SWAP2 POP SWAP1 POP DUP1 PUSH1 0x0 ADD DUP1 SLOAD PUSH2 0x412 SWAP1 PUSH2 0xBFF JUMP JUMPDEST DUP1 PUSH1 0x1F ADD PUSH1 0x20 DUP1 SWAP2 DIV MUL PUSH1 0x20 ADD PUSH1 0x40 MLOAD SWAP1 DUP2 ADD PUSH1 0x40 MSTORE DUP1 SWAP3 SWAP2 SWAP1 DUP2 DUP2 MSTORE PUSH1 0x20 ADD DUP3 DUP1 SLOAD PUSH2 0x43E SWAP1 PUSH2 0xBFF JUMP JUMPDEST DUP1 ISZERO PUSH2 0x48B JUMPI DUP1 PUSH1 0x1F LT PUSH2 0x460 JUMPI PUSH2 0x100 DUP1 DUP4 SLOAD DIV MUL DUP4 MSTORE SWAP2 PUSH1 0x20 ADD SWAP2 PUSH2 0x48B JUMP JUMPDEST DUP3 ADD SWAP2 SWAP1 PUSH1 0x0 MSTORE PUSH1 0x20 PUSH1 0x0 KECCAK256 SWAP1 JUMPDEST DUP2 SLOAD DUP2 MSTORE SWAP1 PUSH1 0x1 ADD SWAP1 PUSH1 0x20 ADD DUP1 DUP4 GT PUSH2 0x46E JUMPI DUP3 SWAP1 SUB PUSH1 0x1F AND DUP3 ADD SWAP2 JUMPDEST POP POP POP POP POP SWAP1 DUP1 PUSH1 0x1 ADD SLOAD SWAP1 DUP1 PUSH1 0x2 ADD PUSH1 0x0 SWAP1 SLOAD SWAP1 PUSH2 0x100 EXP SWAP1 DIV PUSH20 0xFFFFFFFFFFFFFFFFFFFFFFFFFFFFFFFFFFFFFFFF AND SWAP1 DUP1 PUSH1 0x2 ADD PUSH1 0x14 SWAP1 SLOAD SWAP1 PUSH2 0x100 EXP SWAP1 DIV PUSH1 0xFF AND SWAP1 DUP1 PUSH1 0x4 ADD SLOAD SWAP1 POP DUP6 JUMP JUMPDEST PUSH1 0x0 DUP1 SLOAD SWAP1 PUSH2 0x100 EXP SWAP1 DIV PUSH20 0xFFFFFFFFFFFFFFFFFFFFFFFFFFFFFFFFFFFFFFFF AND PUSH20 0xFFFFFFFFFFFFFFFFFFFFFFFFFFFFFFFFFFFFFFFF AND CALLER PUSH20 0xFFFFFFFFFFFFFFFFFFFFFFFFFFFFFFFFFFFFFFFF AND EQ PUSH2 0x532 JUMPI PUSH1 0x0 DUP1 REVERT JUMPDEST PUSH1 0x0 PUSH1 0x4 PUSH1 0x1 DUP2 PUSH1 0x1 DUP2 SLOAD ADD DUP1 DUP3 SSTORE DUP1 SWAP2 POP POP SUB SWAP1 PUSH1 0x0 MSTORE PUSH1 0x20 PUSH1 0x0 KECCAK256 SWAP1 PUSH1 0x5 MUL ADD SWAP1 POP DUP4 DUP2 PUSH1 0x0 ADD SWAP1 DUP1 MLOAD SWAP1 PUSH1 0x20 ADD SWAP1 PUSH2 0x56E SWAP3 SWAP2 SWAP1 PUSH2 0x7BB JUMP JUMPDEST POP DUP3 DUP2 PUSH1 0x1 ADD DUP2 SWAP1 SSTORE POP DUP2 DUP2 PUSH1 0x2 ADD PUSH1 0x0 PUSH2 0x100 EXP DUP2 SLOAD DUP2 PUSH20 0xFFFFFFFFFFFFFFFFFFFFFFFFFFFFFFFFFFFFFFFF MUL NOT AND SWAP1 DUP4 PUSH20 0xFFFFFFFFFFFFFFFFFFFFFFFFFFFFFFFFFFFFFFFF AND MUL OR SWAP1 SSTORE POP PUSH1 0x0 DUP2 PUSH1 0x2 ADD PUSH1 0x14 PUSH2 0x100 EXP DUP2 SLOAD DUP2 PUSH1 0xFF MUL NOT AND SWAP1 DUP4 ISZERO ISZERO MUL OR SWAP1 SSTORE POP PUSH1 0x0 DUP2 PUSH1 0x4 ADD DUP2 SWAP1 SSTORE POP POP POP POP POP JUMP JUMPDEST PUSH1 0x1 SLOAD DUP2 JUMP JUMPDEST PUSH1 0x1 SLOAD CALLVALUE GT PUSH2 0x5FC JUMPI PUSH1 0x0 DUP1 REVERT JUMPDEST PUSH1 0x1 PUSH1 0x2 PUSH1 0x0 CALLER PUSH20 0xFFFFFFFFFFFFFFFFFFFFFFFFFFFFFFFFFFFFFFFF AND PUSH20 0xFFFFFFFFFFFFFFFFFFFFFFFFFFFFFFFFFFFFFFFF AND DUP2 MSTORE PUSH1 0x20 ADD SWAP1 DUP2 MSTORE PUSH1 0x20 ADD PUSH1 0x0 KECCAK256 PUSH1 0x0 PUSH2 0x100 EXP DUP2 SLOAD DUP2 PUSH1 0xFF MUL NOT AND SWAP1 DUP4 ISZERO ISZERO MUL OR SWAP1 SSTORE POP PUSH1 0x3 PUSH1 0x0 DUP2 SLOAD DUP1 SWAP3 SWAP2 SWAP1 PUSH2 0x667 SWAP1 PUSH2 0xC62 JUMP JUMPDEST SWAP2 SWAP1 POP SSTORE POP JUMP JUMPDEST PUSH1 0x0 PUSH1 0x4 DUP3 DUP2 SLOAD DUP2 LT PUSH2 0x684 JUMPI PUSH2 0x683 PUSH2 0xD38 JUMP JUMPDEST JUMPDEST SWAP1 PUSH1 0x0 MSTORE PUSH1 0x20 PUSH1 0x0 KECCAK256 SWAP1 PUSH1 0x5 MUL ADD SWAP1 POP PUSH1 0x2 PUSH1 0x0 CALLER PUSH20 0xFFFFFFFFFFFFFFFFFFFFFFFFFFFFFFFFFFFFFFFF AND PUSH20 0xFFFFFFFFFFFFFFFFFFFFFFFFFFFFFFFFFFFFFFFF AND DUP2 MSTORE PUSH1 0x20 ADD SWAP1 DUP2 MSTORE PUSH1 0x20 ADD PUSH1 0x0 KECCAK256 PUSH1 0x0 SWAP1 SLOAD SWAP1 PUSH2 0x100 EXP SWAP1 DIV PUSH1 0xFF AND PUSH2 0x6EA JUMPI PUSH1 0x0 DUP1 REVERT JUMPDEST DUP1 PUSH1 0x3 ADD PUSH1 0x0 CALLER PUSH20 0xFFFFFFFFFFFFFFFFFFFFFFFFFFFFFFFFFFFFFFFF AND PUSH20 0xFFFFFFFFFFFFFFFFFFFFFFFFFFFFFFFFFFFFFFFF AND DUP2 MSTORE PUSH1 0x20 ADD SWAP1 DUP2 MSTORE PUSH1 0x20 ADD PUSH1 0x0 KECCAK256 PUSH1 0x0 SWAP1 SLOAD SWAP1 PUSH2 0x100 EXP SWAP1 DIV PUSH1 0xFF AND ISZERO PUSH2 0x743 JUMPI PUSH1 0x0 DUP1 REVERT JUMPDEST PUSH1 0x1 DUP2 PUSH1 0x3 ADD PUSH1 0x0 CALLER PUSH20 0xFFFFFFFFFFFFFFFFFFFFFFFFFFFFFFFFFFFFFFFF AND PUSH20 0xFFFFFFFFFFFFFFFFFFFFFFFFFFFFFFFFFFFFFFFF AND DUP2 MSTORE PUSH1 0x20 ADD SWAP1 DUP2 MSTORE PUSH1 0x20 ADD PUSH1 0x0 KECCAK256 PUSH1 0x0 PUSH2 0x100 EXP DUP2 SLOAD DUP2 PUSH1 0xFF MUL NOT AND SWAP1 DUP4 ISZERO ISZERO MUL OR SWAP1 SSTORE POP DUP1 PUSH1 0x4 ADD PUSH1 0x0 DUP2 SLOAD DUP1 SWAP3 SWAP2 SWAP1 PUSH2 0x7B2 SWAP1 PUSH2 0xC62 JUMP JUMPDEST SWAP2 SWAP1 POP SSTORE POP POP POP JUMP JUMPDEST DUP3 DUP1 SLOAD PUSH2 0x7C7 SWAP1 PUSH2 0xBFF JUMP JUMPDEST SWAP1 PUSH1 0x0 MSTORE PUSH1 0x20 PUSH1 0x0 KECCAK256 SWAP1 PUSH1 0x1F ADD PUSH1 0x20 SWAP1 DIV DUP2 ADD SWAP3 DUP3 PUSH2 0x7E9 JUMPI PUSH1 0x0 DUP6 SSTORE PUSH2 0x830 JUMP JUMPDEST DUP3 PUSH1 0x1F LT PUSH2 0x802 JUMPI DUP1 MLOAD PUSH1 0xFF NOT AND DUP4 DUP1 ADD OR DUP6 SSTORE PUSH2 0x830 JUMP JUMPDEST DUP3 DUP1 ADD PUSH1 0x1 ADD DUP6 SSTORE DUP3 ISZERO PUSH2 0x830 JUMPI SWAP2 DUP3 ADD JUMPDEST DUP3 DUP2 GT ISZERO PUSH2 0x82F JUMPI DUP3 MLOAD DUP3 SSTORE SWAP2 PUSH1 0x20 ADD SWAP2 SWAP1 PUSH1 0x1 ADD SWAP1 PUSH2 0x814 JUMP JUMPDEST JUMPDEST POP SWAP1 POP PUSH2 0x83D SWAP2 SWAP1 PUSH2 0x841 JUMP JUMPDEST POP SWAP1 JUMP JUMPDEST JUMPDEST DUP1 DUP3 GT ISZERO PUSH2 0x85A JUMPI PUSH1 0x0 DUP2 PUSH1 0x0 SWAP1 SSTORE POP PUSH1 0x1 ADD PUSH2 0x842 JUMP JUMPDEST POP SWAP1 JUMP JUMPDEST PUSH1 0x0 PUSH2 0x871 PUSH2 0x86C DUP5 PUSH2 0xAF7 JUMP JUMPDEST PUSH2 0xAD2 JUMP JUMPDEST SWAP1 POP DUP3 DUP2 MSTORE PUSH1 0x20 DUP2 ADD DUP5 DUP5 DUP5 ADD GT ISZERO PUSH2 0x88D JUMPI PUSH2 0x88C PUSH2 0xD9B JUMP JUMPDEST JUMPDEST PUSH2 0x898 DUP5 DUP3 DUP6 PUSH2 0xBBD JUMP JUMPDEST POP SWAP4 SWAP3 POP POP POP JUMP JUMPDEST PUSH1 0x0 DUP2 CALLDATALOAD SWAP1 POP PUSH2 0x8AF DUP2 PUSH2 0xDBB JUMP JUMPDEST SWAP3 SWAP2 POP POP JUMP JUMPDEST PUSH1 0x0 DUP3 PUSH1 0x1F DUP4 ADD SLT PUSH2 0x8CA JUMPI PUSH2 0x8C9 PUSH2 0xD96 JUMP JUMPDEST JUMPDEST DUP2 CALLDATALOAD PUSH2 0x8DA DUP5 DUP3 PUSH1 0x20 DUP7 ADD PUSH2 0x85E JUMP JUMPDEST SWAP2 POP POP SWAP3 SWAP2 POP POP JUMP JUMPDEST PUSH1 0x0 DUP2 CALLDATALOAD SWAP1 POP PUSH2 0x8F2 DUP2 PUSH2 0xDD2 JUMP JUMPDEST SWAP3 SWAP2 POP POP JUMP JUMPDEST PUSH1 0x0 PUSH1 0x20 DUP3 DUP5 SUB SLT ISZERO PUSH2 0x90E JUMPI PUSH2 0x90D PUSH2 0xDA5 JUMP JUMPDEST JUMPDEST PUSH1 0x0 PUSH2 0x91C DUP5 DUP3 DUP6 ADD PUSH2 0x8A0 JUMP JUMPDEST SWAP2 POP POP SWAP3 SWAP2 POP POP JUMP JUMPDEST PUSH1 0x0 DUP1 PUSH1 0x0 PUSH1 0x60 DUP5 DUP7 SUB SLT ISZERO PUSH2 0x93E JUMPI PUSH2 0x93D PUSH2 0xDA5 JUMP JUMPDEST JUMPDEST PUSH1 0x0 DUP5 ADD CALLDATALOAD PUSH8 0xFFFFFFFFFFFFFFFF DUP2 GT ISZERO PUSH2 0x95C JUMPI PUSH2 0x95B PUSH2 0xDA0 JUMP JUMPDEST JUMPDEST PUSH2 0x968 DUP7 DUP3 DUP8 ADD PUSH2 0x8B5 JUMP JUMPDEST SWAP4 POP POP PUSH1 0x20 PUSH2 0x979 DUP7 DUP3 DUP8 ADD PUSH2 0x8E3 JUMP JUMPDEST SWAP3 POP POP PUSH1 0x40 PUSH2 0x98A DUP7 DUP3 DUP8 ADD PUSH2 0x8A0 JUMP JUMPDEST SWAP2 POP POP SWAP3 POP SWAP3 POP SWAP3 JUMP JUMPDEST PUSH1 0x0 PUSH1 0x20 DUP3 DUP5 SUB SLT ISZERO PUSH2 0x9AA JUMPI PUSH2 0x9A9 PUSH2 0xDA5 JUMP JUMPDEST JUMPDEST PUSH1 0x0 PUSH2 0x9B8 DUP5 DUP3 DUP6 ADD PUSH2 0x8E3 JUMP JUMPDEST SWAP2 POP POP SWAP3 SWAP2 POP POP JUMP JUMPDEST PUSH2 0x9CA DUP2 PUSH2 0xB75 JUMP JUMPDEST DUP3 MSTORE POP POP JUMP JUMPDEST PUSH2 0x9D9 DUP2 PUSH2 0xB87 JUMP JUMPDEST DUP3 MSTORE POP POP JUMP JUMPDEST PUSH1 0x0 PUSH2 0x9EA DUP3 PUSH2 0xB28 JUMP JUMPDEST PUSH2 0x9F4 DUP2 DUP6 PUSH2 0xB33 JUMP JUMPDEST SWAP4 POP PUSH2 0xA04 DUP2 DUP6 PUSH1 0x20 DUP7 ADD PUSH2 0xBCC JUMP JUMPDEST PUSH2 0xA0D DUP2 PUSH2 0xDAA JUMP JUMPDEST DUP5 ADD SWAP2 POP POP SWAP3 SWAP2 POP POP JUMP JUMPDEST PUSH2 0xA21 DUP2 PUSH2 0xBB3 JUMP JUMPDEST DUP3 MSTORE POP POP JUMP JUMPDEST PUSH1 0x0 PUSH1 0x20 DUP3 ADD SWAP1 POP PUSH2 0xA3C PUSH1 0x0 DUP4 ADD DUP5 PUSH2 0x9C1 JUMP JUMPDEST SWAP3 SWAP2 POP POP JUMP JUMPDEST PUSH1 0x0 PUSH1 0x20 DUP3 ADD SWAP1 POP PUSH2 0xA57 PUSH1 0x0 DUP4 ADD DUP5 PUSH2 0x9D0 JUMP JUMPDEST SWAP3 SWAP2 POP POP JUMP JUMPDEST PUSH1 0x0 PUSH1 0xA0 DUP3 ADD SWAP1 POP DUP2 DUP2 SUB PUSH1 0x0 DUP4 ADD MSTORE PUSH2 0xA77 DUP2 DUP9 PUSH2 0x9DF JUMP JUMPDEST SWAP1 POP PUSH2 0xA86 PUSH1 0x20 DUP4 ADD DUP8 PUSH2 0xA18 JUMP JUMPDEST PUSH2 0xA93 PUSH1 0x40 DUP4 ADD DUP7 PUSH2 0x9C1 JUMP JUMPDEST PUSH2 0xAA0 PUSH1 0x60 DUP4 ADD DUP6 PUSH2 0x9D0 JUMP JUMPDEST PUSH2 0xAAD PUSH1 0x80 DUP4 ADD DUP5 PUSH2 0xA18 JUMP JUMPDEST SWAP7 SWAP6 POP POP POP POP POP POP JUMP JUMPDEST PUSH1 0x0 PUSH1 0x20 DUP3 ADD SWAP1 POP PUSH2 0xACC PUSH1 0x0 DUP4 ADD DUP5 PUSH2 0xA18 JUMP JUMPDEST SWAP3 SWAP2 POP POP JUMP JUMPDEST PUSH1 0x0 PUSH2 0xADC PUSH2 0xAED JUMP JUMPDEST SWAP1 POP PUSH2 0xAE8 DUP3 DUP3 PUSH2 0xC31 JUMP JUMPDEST SWAP2 SWAP1 POP JUMP JUMPDEST PUSH1 0x0 PUSH1 0x40 MLOAD SWAP1 POP SWAP1 JUMP JUMPDEST PUSH1 0x0 PUSH8 0xFFFFFFFFFFFFFFFF DUP3 GT ISZERO PUSH2 0xB12 JUMPI PUSH2 0xB11 PUSH2 0xD67 JUMP JUMPDEST JUMPDEST PUSH2 0xB1B DUP3 PUSH2 0xDAA JUMP JUMPDEST SWAP1 POP PUSH1 0x20 DUP2 ADD SWAP1 POP SWAP2 SWAP1 POP JUMP JUMPDEST PUSH1 0x0 DUP2 MLOAD SWAP1 POP SWAP2 SWAP1 POP JUMP JUMPDEST PUSH1 0x0 DUP3 DUP3 MSTORE PUSH1 0x20 DUP3 ADD SWAP1 POP SWAP3 SWAP2 POP POP JUMP JUMPDEST PUSH1 0x0 PUSH2 0xB4F DUP3 PUSH2 0xBB3 JUMP JUMPDEST SWAP2 POP PUSH2 0xB5A DUP4 PUSH2 0xBB3 JUMP JUMPDEST SWAP3 POP DUP3 PUSH2 0xB6A JUMPI PUSH2 0xB69 PUSH2 0xCDA JUMP JUMPDEST JUMPDEST DUP3 DUP3 DIV SWAP1 POP SWAP3 SWAP2 POP POP JUMP JUMPDEST PUSH1 0x0 PUSH2 0xB80 DUP3 PUSH2 0xB93 JUMP JUMPDEST SWAP1 POP SWAP2 SWAP1 POP JUMP JUMPDEST PUSH1 0x0 DUP2 ISZERO ISZERO SWAP1 POP SWAP2 SWAP1 POP JUMP JUMPDEST PUSH1 0x0 PUSH20 0xFFFFFFFFFFFFFFFFFFFFFFFFFFFFFFFFFFFFFFFF DUP3 AND SWAP1 POP SWAP2 SWAP1 POP JUMP JUMPDEST PUSH1 0x0 DUP2 SWAP1 POP SWAP2 SWAP1 POP JUMP JUMPDEST DUP3 DUP2 DUP4 CALLDATACOPY PUSH1 0x0 DUP4 DUP4 ADD MSTORE POP POP POP JUMP JUMPDEST PUSH1 0x0 JUMPDEST DUP4 DUP2 LT ISZERO PUSH2 0xBEA JUMPI DUP1 DUP3 ADD MLOAD DUP2 DUP5 ADD MSTORE PUSH1 0x20 DUP2 ADD SWAP1 POP PUSH2 0xBCF JUMP JUMPDEST DUP4 DUP2 GT ISZERO PUSH2 0xBF9 JUMPI PUSH1 0x0 DUP5 DUP5 ADD MSTORE JUMPDEST POP POP POP POP JUMP JUMPDEST PUSH1 0x0 PUSH1 0x2 DUP3 DIV SWAP1 POP PUSH1 0x1 DUP3 AND DUP1 PUSH2 0xC17 JUMPI PUSH1 0x7F DUP3 AND SWAP2 POP JUMPDEST PUSH1 0x20 DUP3 LT DUP2 EQ ISZERO PUSH2 0xC2B JUMPI PUSH2 0xC2A PUSH2 0xD09 JUMP JUMPDEST JUMPDEST POP SWAP2 SWAP1 POP JUMP JUMPDEST PUSH2 0xC3A DUP3 PUSH2 0xDAA JUMP JUMPDEST DUP2 ADD DUP2 DUP2 LT PUSH8 0xFFFFFFFFFFFFFFFF DUP3 GT OR ISZERO PUSH2 0xC59 JUMPI PUSH2 0xC58 PUSH2 0xD67 JUMP JUMPDEST JUMPDEST DUP1 PUSH1 0x40 MSTORE POP POP POP JUMP JUMPDEST PUSH1 0x0 PUSH2 0xC6D DUP3 PUSH2 0xBB3 JUMP JUMPDEST SWAP2 POP PUSH32 0xFFFFFFFFFFFFFFFFFFFFFFFFFFFFFFFFFFFFFFFFFFFFFFFFFFFFFFFFFFFFFFFF DUP3 EQ ISZERO PUSH2 0xCA0 JUMPI PUSH2 0xC9F PUSH2 0xCAB JUMP JUMPDEST JUMPDEST PUSH1 0x1 DUP3 ADD SWAP1 POP SWAP2 SWAP1 POP JUMP JUMPDEST PUSH32 0x4E487B7100000000000000000000000000000000000000000000000000000000 PUSH1 0x0 MSTORE PUSH1 0x11 PUSH1 0x4 MSTORE PUSH1 0x24 PUSH1 0x0 REVERT JUMPDEST PUSH32 0x4E487B7100000000000000000000000000000000000000000000000000000000 PUSH1 0x0 MSTORE PUSH1 0x12 PUSH1 0x4 MSTORE PUSH1 0x24 PUSH1 0x0 REVERT JUMPDEST PUSH32 0x4E487B7100000000000000000000000000000000000000000000000000000000 PUSH1 0x0 MSTORE PUSH1 0x22 PUSH1 0x4 MSTORE PUSH1 0x24 PUSH1 0x0 REVERT JUMPDEST PUSH32 0x4E487B7100000000000000000000000000000000000000000000000000000000 PUSH1 0x0 MSTORE PUSH1 0x32 PUSH1 0x4 MSTORE PUSH1 0x24 PUSH1 0x0 REVERT JUMPDEST PUSH32 0x4E487B7100000000000000000000000000000000000000000000000000000000 PUSH1 0x0 MSTORE PUSH1 0x41 PUSH1 0x4 MSTORE PUSH1 0x24 PUSH1 0x0 REVERT JUMPDEST PUSH1 0x0 DUP1 REVERT JUMPDEST PUSH1 0x0 DUP1 REVERT JUMPDEST PUSH1 0x0 DUP1 REVERT JUMPDEST PUSH1 0x0 DUP1 REVERT JUMPDEST PUSH1 0x0 PUSH1 0x1F NOT PUSH1 0x1F DUP4 ADD AND SWAP1 POP SWAP2 SWAP1 POP JUMP JUMPDEST PUSH2 0xDC4 DUP2 PUSH2 0xB75 JUMP JUMPDEST DUP2 EQ PUSH2 0xDCF JUMPI PUSH1 0x0 DUP1 REVERT JUMPDEST POP JUMP JUMPDEST PUSH2 0xDDB DUP2 PUSH2 0xBB3 JUMP JUMPDEST DUP2 EQ PUSH2 0xDE6 JUMPI PUSH1 0x0 DUP1 REVERT JUMPDEST POP JUMP INVALID LOG2 PUSH5 0x6970667358 0x22 SLT KECCAK256 LOG3 0xB8 0x23 PUSH13 0x7F8DF885D6B334418ABED0747E CALLVALUE 0xE4 PUSH23 0x719F57B72B4D4981785BDD0E64736F6C63430008060033 LOG2 PUSH5 0x6970667358 0x22 SLT KECCAK256 0xEC PUSH7 0xD6E2F2BBA8B7C0 MUL JUMPI 0xD1 0xE4 0x4A 0x2A PUSH22 0x8329F4A952B299C74F482768FAEA3E9464736F6C6343 STOP ADDMOD MOD STOP CALLER "
        },
        "gasEstimates": {
            "creation": {
                "codeDepositCost": "987400",
                "executionCost": "1027",
                "totalCost": "988427"
            },
            "external": {
                "createKickstarter(uint256)": "infinite",
                "getDeployedAdresses()": "infinite"
            }
        },
        "methodIdentifiers": {
            "createKickstarter(uint256)": "7fa06240",
            "getDeployedAdresses()": "9cb48dec"
        }
    },
    "storageLayout": {
        "storage": [
            {
                "astId": 4,
                "contract": "kickstarter.sol:FactoryKickstarter",
                "label": "deployedAddresses",
                "offset": 0,
                "slot": "0",
                "type": "t_array(t_address)dyn_storage"
            }
        ],
        "types": {
            "t_address": {
                "encoding": "inplace",
                "label": "address",
                "numberOfBytes": "20"
            },
            "t_array(t_address)dyn_storage": {
                "base": "t_address",
                "encoding": "dynamic_array",
                "label": "address[]",
                "numberOfBytes": "32"
            }
        }
    },
    "userdoc": {
        "kind": "user",
        "methods": {},
        "version": 1
    }
}