{"abi":[{"inputs":[{"internalType":"uint256","name":"minimum","type":"uint256"}],"name":"createKickstarter","outputs":[],"stateMutability":"nonpayable","type":"function"},{"inputs":[],"name":"getDeployedAdresses","outputs":[{"internalType":"address[]","name":"","type":"address[]"}],"stateMutability":"view","type":"function"}],"devdoc":{"kind":"dev","methods":{},"version":1},"evm":{"assembly":"    /* \"kickstarter.sol\":67:468  contract FactoryKickstarter {\r... */\n  mstore(0x40, 0x80)\n  callvalue\n  dup1\n  iszero\n  tag_1\n  jumpi\n  0x00\n  dup1\n  revert\ntag_1:\n  pop\n  dataSize(sub_0)\n  dup1\n  dataOffset(sub_0)\n  0x00\n  codecopy\n  0x00\n  return\nstop\n\nsub_0: assembly {\n        /* \"kickstarter.sol\":67:468  contract FactoryKickstarter {\r... */\n      mstore(0x40, 0x80)\n      callvalue\n      dup1\n      iszero\n      tag_1\n      jumpi\n      0x00\n      dup1\n      revert\n    tag_1:\n      pop\n      jumpi(tag_2, lt(calldatasize, 0x04))\n      shr(0xe0, calldataload(0x00))\n      dup1\n      0x7fa06240\n      eq\n      tag_3\n      jumpi\n      dup1\n      0x9cb48dec\n      eq\n      tag_4\n      jumpi\n    tag_2:\n      0x00\n      dup1\n      revert\n        /* \"kickstarter.sol\":280:465  function createKickstarter(uint minimum) public{\r... */\n    tag_3:\n      tag_5\n      0x04\n      dup1\n      calldatasize\n      sub\n      dup2\n      add\n      swap1\n      tag_6\n      swap2\n      swap1\n      tag_7\n      jump\t// in\n    tag_6:\n      tag_8\n      jump\t// in\n    tag_5:\n      stop\n        /* \"kickstarter.sol\":156:268  function getDeployedAdresses() public view returns(address[] memory) {\r... */\n    tag_4:\n      tag_9\n      tag_10\n      jump\t// in\n    tag_9:\n      mload(0x40)\n      tag_11\n      swap2\n      swap1\n      tag_12\n      jump\t// in\n    tag_11:\n      mload(0x40)\n      dup1\n      swap2\n      sub\n      swap1\n      return\n        /* \"kickstarter.sol\":280:465  function createKickstarter(uint minimum) public{\r... */\n    tag_8:\n        /* \"kickstarter.sol\":338:360  address newKickstarter */\n      0x00\n        /* \"kickstarter.sol\":387:394  minimum */\n      dup2\n        /* \"kickstarter.sol\":396:406  msg.sender */\n      caller\n        /* \"kickstarter.sol\":371:407  new Kickstarter(minimum, msg.sender) */\n      mload(0x40)\n      tag_14\n      swap1\n      tag_15\n      jump\t// in\n    tag_14:\n      tag_16\n      swap3\n      swap2\n      swap1\n      tag_17\n      jump\t// in\n    tag_16:\n      mload(0x40)\n      dup1\n      swap2\n      sub\n      swap1\n      0x00\n      create\n      dup1\n      iszero\n      dup1\n      iszero\n      tag_18\n      jumpi\n      returndatasize\n      0x00\n      dup1\n      returndatacopy\n      revert(0x00, returndatasize)\n    tag_18:\n      pop\n        /* \"kickstarter.sol\":338:408  address newKickstarter = address(new Kickstarter(minimum, msg.sender)) */\n      swap1\n      pop\n        /* \"kickstarter.sol\":419:436  deployedAddresses */\n      0x00\n        /* \"kickstarter.sol\":442:456  newKickstarter */\n      dup2\n        /* \"kickstarter.sol\":419:457  deployedAddresses.push(newKickstarter) */\n      swap1\n      dup1\n      0x01\n      dup2\n      sload\n      add\n      dup1\n      dup3\n      sstore\n      dup1\n      swap2\n      pop\n      pop\n      0x01\n      swap1\n      sub\n      swap1\n      0x00\n      mstore\n      keccak256(0x00, 0x20)\n      add\n      0x00\n      swap1\n      swap2\n      swap1\n      swap2\n      swap1\n      swap2\n      0x0100\n      exp\n      dup2\n      sload\n      dup2\n      0xffffffffffffffffffffffffffffffffffffffff\n      mul\n      not\n      and\n      swap1\n      dup4\n      0xffffffffffffffffffffffffffffffffffffffff\n      and\n      mul\n      or\n      swap1\n      sstore\n      pop\n        /* \"kickstarter.sol\":327:465  {\r... */\n      pop\n        /* \"kickstarter.sol\":280:465  function createKickstarter(uint minimum) public{\r... */\n      pop\n      jump\t// out\n        /* \"kickstarter.sol\":156:268  function getDeployedAdresses() public view returns(address[] memory) {\r... */\n    tag_10:\n        /* \"kickstarter.sol\":207:223  address[] memory */\n      0x60\n        /* \"kickstarter.sol\":243:260  deployedAddresses */\n      0x00\n        /* \"kickstarter.sol\":236:260  return deployedAddresses */\n      dup1\n      sload\n      dup1\n      0x20\n      mul\n      0x20\n      add\n      mload(0x40)\n      swap1\n      dup2\n      add\n      0x40\n      mstore\n      dup1\n      swap3\n      swap2\n      swap1\n      dup2\n      dup2\n      mstore\n      0x20\n      add\n      dup3\n      dup1\n      sload\n      dup1\n      iszero\n      tag_21\n      jumpi\n      0x20\n      mul\n      dup3\n      add\n      swap2\n      swap1\n      0x00\n      mstore\n      keccak256(0x00, 0x20)\n      swap1\n    tag_22:\n      dup2\n      0x00\n      swap1\n      sload\n      swap1\n      0x0100\n      exp\n      swap1\n      div\n      0xffffffffffffffffffffffffffffffffffffffff\n      and\n      0xffffffffffffffffffffffffffffffffffffffff\n      and\n      dup2\n      mstore\n      0x20\n      add\n      swap1\n      0x01\n      add\n      swap1\n      dup1\n      dup4\n      gt\n      tag_22\n      jumpi\n    tag_21:\n      pop\n      pop\n      pop\n      pop\n      pop\n      swap1\n      pop\n        /* \"kickstarter.sol\":156:268  function getDeployedAdresses() public view returns(address[] memory) {\r... */\n      swap1\n      jump\t// out\n    tag_15:\n      dataSize(sub_0)\n      dup1\n      dataOffset(sub_0)\n      dup4\n      codecopy\n      add\n      swap1\n      jump\t// out\n        /* \"#utility.yul\":7:146   */\n    tag_24:\n        /* \"#utility.yul\":53:58   */\n      0x00\n        /* \"#utility.yul\":91:97   */\n      dup2\n        /* \"#utility.yul\":78:98   */\n      calldataload\n        /* \"#utility.yul\":69:98   */\n      swap1\n      pop\n        /* \"#utility.yul\":107:140   */\n      tag_26\n        /* \"#utility.yul\":134:139   */\n      dup2\n        /* \"#utility.yul\":107:140   */\n      tag_27\n      jump\t// in\n    tag_26:\n        /* \"#utility.yul\":59:146   */\n      swap3\n      swap2\n      pop\n      pop\n      jump\t// out\n        /* \"#utility.yul\":152:481   */\n    tag_7:\n        /* \"#utility.yul\":211:217   */\n      0x00\n        /* \"#utility.yul\":260:262   */\n      0x20\n        /* \"#utility.yul\":248:257   */\n      dup3\n        /* \"#utility.yul\":239:246   */\n      dup5\n        /* \"#utility.yul\":235:258   */\n      sub\n        /* \"#utility.yul\":231:263   */\n      slt\n        /* \"#utility.yul\":228:230   */\n      iszero\n      tag_29\n      jumpi\n        /* \"#utility.yul\":266:345   */\n      tag_30\n      tag_31\n      jump\t// in\n    tag_30:\n        /* \"#utility.yul\":228:230   */\n    tag_29:\n        /* \"#utility.yul\":386:387   */\n      0x00\n        /* \"#utility.yul\":411:464   */\n      tag_32\n        /* \"#utility.yul\":456:463   */\n      dup5\n        /* \"#utility.yul\":447:453   */\n      dup3\n        /* \"#utility.yul\":436:445   */\n      dup6\n        /* \"#utility.yul\":432:454   */\n      add\n        /* \"#utility.yul\":411:464   */\n      tag_24\n      jump\t// in\n    tag_32:\n        /* \"#utility.yul\":401:464   */\n      swap2\n      pop\n        /* \"#utility.yul\":357:474   */\n      pop\n        /* \"#utility.yul\":218:481   */\n      swap3\n      swap2\n      pop\n      pop\n      jump\t// out\n        /* \"#utility.yul\":487:666   */\n    tag_33:\n        /* \"#utility.yul\":556:566   */\n      0x00\n        /* \"#utility.yul\":577:623   */\n      tag_35\n        /* \"#utility.yul\":619:622   */\n      dup4\n        /* \"#utility.yul\":611:617   */\n      dup4\n        /* \"#utility.yul\":577:623   */\n      tag_36\n      jump\t// in\n    tag_35:\n        /* \"#utility.yul\":655:659   */\n      0x20\n        /* \"#utility.yul\":650:653   */\n      dup4\n        /* \"#utility.yul\":646:660   */\n      add\n        /* \"#utility.yul\":632:660   */\n      swap1\n      pop\n        /* \"#utility.yul\":567:666   */\n      swap3\n      swap2\n      pop\n      pop\n      jump\t// out\n        /* \"#utility.yul\":672:780   */\n    tag_36:\n        /* \"#utility.yul\":749:773   */\n      tag_38\n        /* \"#utility.yul\":767:772   */\n      dup2\n        /* \"#utility.yul\":749:773   */\n      tag_39\n      jump\t// in\n    tag_38:\n        /* \"#utility.yul\":744:747   */\n      dup3\n        /* \"#utility.yul\":737:774   */\n      mstore\n        /* \"#utility.yul\":727:780   */\n      pop\n      pop\n      jump\t// out\n        /* \"#utility.yul\":786:904   */\n    tag_40:\n        /* \"#utility.yul\":873:897   */\n      tag_42\n        /* \"#utility.yul\":891:896   */\n      dup2\n        /* \"#utility.yul\":873:897   */\n      tag_39\n      jump\t// in\n    tag_42:\n        /* \"#utility.yul\":868:871   */\n      dup3\n        /* \"#utility.yul\":861:898   */\n      mstore\n        /* \"#utility.yul\":851:904   */\n      pop\n      pop\n      jump\t// out\n        /* \"#utility.yul\":940:1672   */\n    tag_43:\n        /* \"#utility.yul\":1059:1062   */\n      0x00\n        /* \"#utility.yul\":1088:1142   */\n      tag_45\n        /* \"#utility.yul\":1136:1141   */\n      dup3\n        /* \"#utility.yul\":1088:1142   */\n      tag_46\n      jump\t// in\n    tag_45:\n        /* \"#utility.yul\":1158:1244   */\n      tag_47\n        /* \"#utility.yul\":1237:1243   */\n      dup2\n        /* \"#utility.yul\":1232:1235   */\n      dup6\n        /* \"#utility.yul\":1158:1244   */\n      tag_48\n      jump\t// in\n    tag_47:\n        /* \"#utility.yul\":1151:1244   */\n      swap4\n      pop\n        /* \"#utility.yul\":1268:1324   */\n      tag_49\n        /* \"#utility.yul\":1318:1323   */\n      dup4\n        /* \"#utility.yul\":1268:1324   */\n      tag_50\n      jump\t// in\n    tag_49:\n        /* \"#utility.yul\":1347:1354   */\n      dup1\n        /* \"#utility.yul\":1378:1379   */\n      0x00\n        /* \"#utility.yul\":1363:1647   */\n    tag_51:\n        /* \"#utility.yul\":1388:1394   */\n      dup4\n        /* \"#utility.yul\":1385:1386   */\n      dup2\n        /* \"#utility.yul\":1382:1395   */\n      lt\n        /* \"#utility.yul\":1363:1647   */\n      iszero\n      tag_53\n      jumpi\n        /* \"#utility.yul\":1464:1470   */\n      dup2\n        /* \"#utility.yul\":1458:1471   */\n      mload\n        /* \"#utility.yul\":1491:1554   */\n      tag_54\n        /* \"#utility.yul\":1550:1553   */\n      dup9\n        /* \"#utility.yul\":1535:1548   */\n      dup3\n        /* \"#utility.yul\":1491:1554   */\n      tag_33\n      jump\t// in\n    tag_54:\n        /* \"#utility.yul\":1484:1554   */\n      swap8\n      pop\n        /* \"#utility.yul\":1577:1637   */\n      tag_55\n        /* \"#utility.yul\":1630:1636   */\n      dup4\n        /* \"#utility.yul\":1577:1637   */\n      tag_56\n      jump\t// in\n    tag_55:\n        /* \"#utility.yul\":1567:1637   */\n      swap3\n      pop\n        /* \"#utility.yul\":1423:1647   */\n      pop\n        /* \"#utility.yul\":1410:1411   */\n      0x01\n        /* \"#utility.yul\":1407:1408   */\n      dup2\n        /* \"#utility.yul\":1403:1412   */\n      add\n        /* \"#utility.yul\":1398:1412   */\n      swap1\n      pop\n        /* \"#utility.yul\":1363:1647   */\n      jump(tag_51)\n    tag_53:\n        /* \"#utility.yul\":1367:1381   */\n      pop\n        /* \"#utility.yul\":1663:1666   */\n      dup6\n        /* \"#utility.yul\":1656:1666   */\n      swap4\n      pop\n        /* \"#utility.yul\":1064:1672   */\n      pop\n      pop\n      pop\n      swap3\n      swap2\n      pop\n      pop\n      jump\t// out\n        /* \"#utility.yul\":1678:1796   */\n    tag_57:\n        /* \"#utility.yul\":1765:1789   */\n      tag_59\n        /* \"#utility.yul\":1783:1788   */\n      dup2\n        /* \"#utility.yul\":1765:1789   */\n      tag_60\n      jump\t// in\n    tag_59:\n        /* \"#utility.yul\":1760:1763   */\n      dup3\n        /* \"#utility.yul\":1753:1790   */\n      mstore\n        /* \"#utility.yul\":1743:1796   */\n      pop\n      pop\n      jump\t// out\n        /* \"#utility.yul\":1802:2175   */\n    tag_12:\n        /* \"#utility.yul\":1945:1949   */\n      0x00\n        /* \"#utility.yul\":1983:1985   */\n      0x20\n        /* \"#utility.yul\":1972:1981   */\n      dup3\n        /* \"#utility.yul\":1968:1986   */\n      add\n        /* \"#utility.yul\":1960:1986   */\n      swap1\n      pop\n        /* \"#utility.yul\":2032:2041   */\n      dup2\n        /* \"#utility.yul\":2026:2030   */\n      dup2\n        /* \"#utility.yul\":2022:2042   */\n      sub\n        /* \"#utility.yul\":2018:2019   */\n      0x00\n        /* \"#utility.yul\":2007:2016   */\n      dup4\n        /* \"#utility.yul\":2003:2020   */\n      add\n        /* \"#utility.yul\":1996:2043   */\n      mstore\n        /* \"#utility.yul\":2060:2168   */\n      tag_62\n        /* \"#utility.yul\":2163:2167   */\n      dup2\n        /* \"#utility.yul\":2154:2160   */\n      dup5\n        /* \"#utility.yul\":2060:2168   */\n      tag_43\n      jump\t// in\n    tag_62:\n        /* \"#utility.yul\":2052:2168   */\n      swap1\n      pop\n        /* \"#utility.yul\":1950:2175   */\n      swap3\n      swap2\n      pop\n      pop\n      jump\t// out\n        /* \"#utility.yul\":2181:2513   */\n    tag_17:\n        /* \"#utility.yul\":2302:2306   */\n      0x00\n        /* \"#utility.yul\":2340:2342   */\n      0x40\n        /* \"#utility.yul\":2329:2338   */\n      dup3\n        /* \"#utility.yul\":2325:2343   */\n      add\n        /* \"#utility.yul\":2317:2343   */\n      swap1\n      pop\n        /* \"#utility.yul\":2353:2424   */\n      tag_64\n        /* \"#utility.yul\":2421:2422   */\n      0x00\n        /* \"#utility.yul\":2410:2419   */\n      dup4\n        /* \"#utility.yul\":2406:2423   */\n      add\n        /* \"#utility.yul\":2397:2403   */\n      dup6\n        /* \"#utility.yul\":2353:2424   */\n      tag_57\n      jump\t// in\n    tag_64:\n        /* \"#utility.yul\":2434:2506   */\n      tag_65\n        /* \"#utility.yul\":2502:2504   */\n      0x20\n        /* \"#utility.yul\":2491:2500   */\n      dup4\n        /* \"#utility.yul\":2487:2505   */\n      add\n        /* \"#utility.yul\":2478:2484   */\n      dup5\n        /* \"#utility.yul\":2434:2506   */\n      tag_40\n      jump\t// in\n    tag_65:\n        /* \"#utility.yul\":2307:2513   */\n      swap4\n      swap3\n      pop\n      pop\n      pop\n      jump\t// out\n        /* \"#utility.yul\":2600:2732   */\n    tag_50:\n        /* \"#utility.yul\":2667:2671   */\n      0x00\n        /* \"#utility.yul\":2690:2693   */\n      dup2\n        /* \"#utility.yul\":2682:2693   */\n      swap1\n      pop\n        /* \"#utility.yul\":2720:2724   */\n      0x20\n        /* \"#utility.yul\":2715:2718   */\n      dup3\n        /* \"#utility.yul\":2711:2725   */\n      add\n        /* \"#utility.yul\":2703:2725   */\n      swap1\n      pop\n        /* \"#utility.yul\":2672:2732   */\n      swap2\n      swap1\n      pop\n      jump\t// out\n        /* \"#utility.yul\":2738:2852   */\n    tag_46:\n        /* \"#utility.yul\":2805:2811   */\n      0x00\n        /* \"#utility.yul\":2839:2844   */\n      dup2\n        /* \"#utility.yul\":2833:2845   */\n      mload\n        /* \"#utility.yul\":2823:2845   */\n      swap1\n      pop\n        /* \"#utility.yul\":2812:2852   */\n      swap2\n      swap1\n      pop\n      jump\t// out\n        /* \"#utility.yul\":2858:2971   */\n    tag_56:\n        /* \"#utility.yul\":2928:2932   */\n      0x00\n        /* \"#utility.yul\":2960:2964   */\n      0x20\n        /* \"#utility.yul\":2955:2958   */\n      dup3\n        /* \"#utility.yul\":2951:2965   */\n      add\n        /* \"#utility.yul\":2943:2965   */\n      swap1\n      pop\n        /* \"#utility.yul\":2933:2971   */\n      swap2\n      swap1\n      pop\n      jump\t// out\n        /* \"#utility.yul\":2977:3161   */\n    tag_48:\n        /* \"#utility.yul\":3076:3087   */\n      0x00\n        /* \"#utility.yul\":3110:3116   */\n      dup3\n        /* \"#utility.yul\":3105:3108   */\n      dup3\n        /* \"#utility.yul\":3098:3117   */\n      mstore\n        /* \"#utility.yul\":3150:3154   */\n      0x20\n        /* \"#utility.yul\":3145:3148   */\n      dup3\n        /* \"#utility.yul\":3141:3155   */\n      add\n        /* \"#utility.yul\":3126:3155   */\n      swap1\n      pop\n        /* \"#utility.yul\":3088:3161   */\n      swap3\n      swap2\n      pop\n      pop\n      jump\t// out\n        /* \"#utility.yul\":3167:3263   */\n    tag_39:\n        /* \"#utility.yul\":3204:3211   */\n      0x00\n        /* \"#utility.yul\":3233:3257   */\n      tag_73\n        /* \"#utility.yul\":3251:3256   */\n      dup3\n        /* \"#utility.yul\":3233:3257   */\n      tag_74\n      jump\t// in\n    tag_73:\n        /* \"#utility.yul\":3222:3257   */\n      swap1\n      pop\n        /* \"#utility.yul\":3212:3263   */\n      swap2\n      swap1\n      pop\n      jump\t// out\n        /* \"#utility.yul\":3269:3395   */\n    tag_74:\n        /* \"#utility.yul\":3306:3313   */\n      0x00\n        /* \"#utility.yul\":3346:3388   */\n      0xffffffffffffffffffffffffffffffffffffffff\n        /* \"#utility.yul\":3339:3344   */\n      dup3\n        /* \"#utility.yul\":3335:3389   */\n      and\n        /* \"#utility.yul\":3324:3389   */\n      swap1\n      pop\n        /* \"#utility.yul\":3314:3395   */\n      swap2\n      swap1\n      pop\n      jump\t// out\n        /* \"#utility.yul\":3401:3478   */\n    tag_60:\n        /* \"#utility.yul\":3438:3445   */\n      0x00\n        /* \"#utility.yul\":3467:3472   */\n      dup2\n        /* \"#utility.yul\":3456:3472   */\n      swap1\n      pop\n        /* \"#utility.yul\":3446:3478   */\n      swap2\n      swap1\n      pop\n      jump\t// out\n        /* \"#utility.yul\":3607:3724   */\n    tag_31:\n        /* \"#utility.yul\":3716:3717   */\n      0x00\n        /* \"#utility.yul\":3713:3714   */\n      dup1\n        /* \"#utility.yul\":3706:3718   */\n      revert\n        /* \"#utility.yul\":3730:3852   */\n    tag_27:\n        /* \"#utility.yul\":3803:3827   */\n      tag_81\n        /* \"#utility.yul\":3821:3826   */\n      dup2\n        /* \"#utility.yul\":3803:3827   */\n      tag_60\n      jump\t// in\n    tag_81:\n        /* \"#utility.yul\":3796:3801   */\n      dup2\n        /* \"#utility.yul\":3793:3828   */\n      eq\n        /* \"#utility.yul\":3783:3785   */\n      tag_82\n      jumpi\n        /* \"#utility.yul\":3842:3843   */\n      0x00\n        /* \"#utility.yul\":3839:3840   */\n      dup1\n        /* \"#utility.yul\":3832:3844   */\n      revert\n        /* \"#utility.yul\":3783:3785   */\n    tag_82:\n        /* \"#utility.yul\":3773:3852   */\n      pop\n      jump\t// out\n    stop\n\n    sub_0: assembly {\n            /* \"kickstarter.sol\":472:2653  contract Kickstarter {\r... */\n          mstore(0x40, 0x80)\n            /* \"kickstarter.sol\":1005:1125  constructor(uint minimum , address creator) {\r... */\n          callvalue\n          dup1\n          iszero\n          tag_1\n          jumpi\n          0x00\n          dup1\n          revert\n        tag_1:\n          pop\n          mload(0x40)\n          sub(codesize, bytecodeSize)\n          dup1\n          bytecodeSize\n          dup4\n          codecopy\n          dup2\n          dup2\n          add\n          0x40\n          mstore\n          dup2\n          add\n          swap1\n          tag_2\n          swap2\n          swap1\n          tag_3\n          jump\t// in\n        tag_2:\n            /* \"kickstarter.sol\":1070:1077  creator */\n          dup1\n            /* \"kickstarter.sol\":1060:1067  manager */\n          0x00\n          dup1\n            /* \"kickstarter.sol\":1060:1077  manager = creator */\n          0x0100\n          exp\n          dup2\n          sload\n          dup2\n          0xffffffffffffffffffffffffffffffffffffffff\n          mul\n          not\n          and\n          swap1\n          dup4\n          0xffffffffffffffffffffffffffffffffffffffff\n          and\n          mul\n          or\n          swap1\n          sstore\n          pop\n            /* \"kickstarter.sol\":1110:1117  minimum */\n          dup2\n            /* \"kickstarter.sol\":1088:1107  minimumContribution */\n          0x01\n            /* \"kickstarter.sol\":1088:1117  minimumContribution = minimum */\n          dup2\n          swap1\n          sstore\n          pop\n            /* \"kickstarter.sol\":1005:1125  constructor(uint minimum , address creator) {\r... */\n          pop\n          pop\n            /* \"kickstarter.sol\":472:2653  contract Kickstarter {\r... */\n          jump(tag_6)\n            /* \"#utility.yul\":7:150   */\n        tag_8:\n            /* \"#utility.yul\":64:69   */\n          0x00\n            /* \"#utility.yul\":95:101   */\n          dup2\n            /* \"#utility.yul\":89:102   */\n          mload\n            /* \"#utility.yul\":80:102   */\n          swap1\n          pop\n            /* \"#utility.yul\":111:144   */\n          tag_10\n            /* \"#utility.yul\":138:143   */\n          dup2\n            /* \"#utility.yul\":111:144   */\n          tag_11\n          jump\t// in\n        tag_10:\n            /* \"#utility.yul\":70:150   */\n          swap3\n          swap2\n          pop\n          pop\n          jump\t// out\n            /* \"#utility.yul\":156:299   */\n        tag_12:\n            /* \"#utility.yul\":213:218   */\n          0x00\n            /* \"#utility.yul\":244:250   */\n          dup2\n            /* \"#utility.yul\":238:251   */\n          mload\n            /* \"#utility.yul\":229:251   */\n          swap1\n          pop\n            /* \"#utility.yul\":260:293   */\n          tag_14\n            /* \"#utility.yul\":287:292   */\n          dup2\n            /* \"#utility.yul\":260:293   */\n          tag_15\n          jump\t// in\n        tag_14:\n            /* \"#utility.yul\":219:299   */\n          swap3\n          swap2\n          pop\n          pop\n          jump\t// out\n            /* \"#utility.yul\":305:812   */\n        tag_3:\n            /* \"#utility.yul\":384:390   */\n          0x00\n            /* \"#utility.yul\":392:398   */\n          dup1\n            /* \"#utility.yul\":441:443   */\n          0x40\n            /* \"#utility.yul\":429:438   */\n          dup4\n            /* \"#utility.yul\":420:427   */\n          dup6\n            /* \"#utility.yul\":416:439   */\n          sub\n            /* \"#utility.yul\":412:444   */\n          slt\n            /* \"#utility.yul\":409:411   */\n          iszero\n          tag_17\n          jumpi\n            /* \"#utility.yul\":447:526   */\n          tag_18\n          tag_19\n          jump\t// in\n        tag_18:\n            /* \"#utility.yul\":409:411   */\n        tag_17:\n            /* \"#utility.yul\":567:568   */\n          0x00\n            /* \"#utility.yul\":592:656   */\n          tag_20\n            /* \"#utility.yul\":648:655   */\n          dup6\n            /* \"#utility.yul\":639:645   */\n          dup3\n            /* \"#utility.yul\":628:637   */\n          dup7\n            /* \"#utility.yul\":624:646   */\n          add\n            /* \"#utility.yul\":592:656   */\n          tag_12\n          jump\t// in\n        tag_20:\n            /* \"#utility.yul\":582:656   */\n          swap3\n          pop\n            /* \"#utility.yul\":538:666   */\n          pop\n            /* \"#utility.yul\":705:707   */\n          0x20\n            /* \"#utility.yul\":731:795   */\n          tag_21\n            /* \"#utility.yul\":787:794   */\n          dup6\n            /* \"#utility.yul\":778:784   */\n          dup3\n            /* \"#utility.yul\":767:776   */\n          dup7\n            /* \"#utility.yul\":763:785   */\n          add\n            /* \"#utility.yul\":731:795   */\n          tag_8\n          jump\t// in\n        tag_21:\n            /* \"#utility.yul\":721:795   */\n          swap2\n          pop\n            /* \"#utility.yul\":676:805   */\n          pop\n            /* \"#utility.yul\":399:812   */\n          swap3\n          pop\n          swap3\n          swap1\n          pop\n          jump\t// out\n            /* \"#utility.yul\":899:995   */\n        tag_24:\n            /* \"#utility.yul\":936:943   */\n          0x00\n            /* \"#utility.yul\":965:989   */\n          tag_26\n            /* \"#utility.yul\":983:988   */\n          dup3\n            /* \"#utility.yul\":965:989   */\n          tag_27\n          jump\t// in\n        tag_26:\n            /* \"#utility.yul\":954:989   */\n          swap1\n          pop\n            /* \"#utility.yul\":944:995   */\n          swap2\n          swap1\n          pop\n          jump\t// out\n            /* \"#utility.yul\":1001:1127   */\n        tag_27:\n            /* \"#utility.yul\":1038:1045   */\n          0x00\n            /* \"#utility.yul\":1078:1120   */\n          0xffffffffffffffffffffffffffffffffffffffff\n            /* \"#utility.yul\":1071:1076   */\n          dup3\n            /* \"#utility.yul\":1067:1121   */\n          and\n            /* \"#utility.yul\":1056:1121   */\n          swap1\n          pop\n            /* \"#utility.yul\":1046:1127   */\n          swap2\n          swap1\n          pop\n          jump\t// out\n            /* \"#utility.yul\":1133:1210   */\n        tag_29:\n            /* \"#utility.yul\":1170:1177   */\n          0x00\n            /* \"#utility.yul\":1199:1204   */\n          dup2\n            /* \"#utility.yul\":1188:1204   */\n          swap1\n          pop\n            /* \"#utility.yul\":1178:1210   */\n          swap2\n          swap1\n          pop\n          jump\t// out\n            /* \"#utility.yul\":1339:1456   */\n        tag_19:\n            /* \"#utility.yul\":1448:1449   */\n          0x00\n            /* \"#utility.yul\":1445:1446   */\n          dup1\n            /* \"#utility.yul\":1438:1450   */\n          revert\n            /* \"#utility.yul\":1462:1584   */\n        tag_11:\n            /* \"#utility.yul\":1535:1559   */\n          tag_35\n            /* \"#utility.yul\":1553:1558   */\n          dup2\n            /* \"#utility.yul\":1535:1559   */\n          tag_24\n          jump\t// in\n        tag_35:\n            /* \"#utility.yul\":1528:1533   */\n          dup2\n            /* \"#utility.yul\":1525:1560   */\n          eq\n            /* \"#utility.yul\":1515:1517   */\n          tag_36\n          jumpi\n            /* \"#utility.yul\":1574:1575   */\n          0x00\n            /* \"#utility.yul\":1571:1572   */\n          dup1\n            /* \"#utility.yul\":1564:1576   */\n          revert\n            /* \"#utility.yul\":1515:1517   */\n        tag_36:\n            /* \"#utility.yul\":1505:1584   */\n          pop\n          jump\t// out\n            /* \"#utility.yul\":1590:1712   */\n        tag_15:\n            /* \"#utility.yul\":1663:1687   */\n          tag_38\n            /* \"#utility.yul\":1681:1686   */\n          dup2\n            /* \"#utility.yul\":1663:1687   */\n          tag_29\n          jump\t// in\n        tag_38:\n            /* \"#utility.yul\":1656:1661   */\n          dup2\n            /* \"#utility.yul\":1653:1688   */\n          eq\n            /* \"#utility.yul\":1643:1645   */\n          tag_39\n          jumpi\n            /* \"#utility.yul\":1702:1703   */\n          0x00\n            /* \"#utility.yul\":1699:1700   */\n          dup1\n            /* \"#utility.yul\":1692:1704   */\n          revert\n            /* \"#utility.yul\":1643:1645   */\n        tag_39:\n            /* \"#utility.yul\":1633:1712   */\n          pop\n          jump\t// out\n            /* \"kickstarter.sol\":472:2653  contract Kickstarter {\r... */\n        tag_6:\n          dataSize(sub_0)\n          dup1\n          dataOffset(sub_0)\n          0x00\n          codecopy\n          0x00\n          return\n        stop\n\n        sub_0: assembly {\n                /* \"kickstarter.sol\":472:2653  contract Kickstarter {\r... */\n              mstore(0x40, 0x80)\n              jumpi(tag_1, lt(calldatasize, 0x04))\n              shr(0xe0, calldataload(0x00))\n              dup1\n              0x7569b3d7\n              gt\n              tag_13\n              jumpi\n              dup1\n              0x7569b3d7\n              eq\n              tag_7\n              jumpi\n              dup1\n              0x81d12c58\n              eq\n              tag_8\n              jumpi\n              dup1\n              0x8a9cfd55\n              eq\n              tag_9\n              jumpi\n              dup1\n              0x937e09b1\n              eq\n              tag_10\n              jumpi\n              dup1\n              0xd7bb99ba\n              eq\n              tag_11\n              jumpi\n              dup1\n              0xd7d1bbdb\n              eq\n              tag_12\n              jumpi\n              jump(tag_1)\n            tag_13:\n              dup1\n              0x03441006\n              eq\n              tag_2\n              jumpi\n              dup1\n              0x1f6d4942\n              eq\n              tag_3\n              jumpi\n              dup1\n              0x3410452a\n              eq\n              tag_4\n              jumpi\n              dup1\n              0x4051ddac\n              eq\n              tag_5\n              jumpi\n              dup1\n              0x481c6a75\n              eq\n              tag_6\n              jumpi\n            tag_1:\n              0x00\n              dup1\n              revert\n                /* \"kickstarter.sol\":1941:2257  function finalizeRequest(uint index) public onlyManager {\r... */\n            tag_2:\n              callvalue\n              dup1\n              iszero\n              tag_14\n              jumpi\n              0x00\n              dup1\n              revert\n            tag_14:\n              pop\n              tag_15\n              0x04\n              dup1\n              calldatasize\n              sub\n              dup2\n              add\n              swap1\n              tag_16\n              swap2\n              swap1\n              tag_17\n              jump\t// in\n            tag_16:\n              tag_18\n              jump\t// in\n            tag_15:\n              stop\n                /* \"kickstarter.sol\":785:829  mapping(address => bool) public contributors */\n            tag_3:\n              callvalue\n              dup1\n              iszero\n              tag_19\n              jumpi\n              0x00\n              dup1\n              revert\n            tag_19:\n              pop\n              tag_20\n              0x04\n              dup1\n              calldatasize\n              sub\n              dup2\n              add\n              swap1\n              tag_21\n              swap2\n              swap1\n              tag_22\n              jump\t// in\n            tag_21:\n              tag_23\n              jump\t// in\n            tag_20:\n              mload(0x40)\n              tag_24\n              swap2\n              swap1\n              tag_25\n              jump\t// in\n            tag_24:\n              mload(0x40)\n              dup1\n              swap2\n              sub\n              swap1\n              return\n                /* \"kickstarter.sol\":2552:2648  function getRequestsCount() public view returns (uint) {\r... */\n            tag_4:\n              callvalue\n              dup1\n              iszero\n              tag_26\n              jumpi\n              0x00\n              dup1\n              revert\n            tag_26:\n              pop\n              tag_27\n              tag_28\n              jump\t// in\n            tag_27:\n              mload(0x40)\n              tag_29\n              swap2\n              swap1\n              tag_30\n              jump\t// in\n            tag_29:\n              mload(0x40)\n              dup1\n              swap2\n              sub\n              swap1\n              return\n                /* \"kickstarter.sol\":2269:2540  function getSummary() public view returns (uint, uint, uint, uint, address) {\r... */\n            tag_5:\n              callvalue\n              dup1\n              iszero\n              tag_31\n              jumpi\n              0x00\n              dup1\n              revert\n            tag_31:\n              pop\n              tag_32\n              tag_33\n              jump\t// in\n            tag_32:\n              mload(0x40)\n              tag_34\n              swap6\n              swap5\n              swap4\n              swap3\n              swap2\n              swap1\n              tag_35\n              jump\t// in\n            tag_34:\n              mload(0x40)\n              dup1\n              swap2\n              sub\n              swap1\n              return\n                /* \"kickstarter.sol\":718:740  address public manager */\n            tag_6:\n              callvalue\n              dup1\n              iszero\n              tag_36\n              jumpi\n              0x00\n              dup1\n              revert\n            tag_36:\n              pop\n              tag_37\n              tag_38\n              jump\t// in\n            tag_37:\n              mload(0x40)\n              tag_39\n              swap2\n              swap1\n              tag_40\n              jump\t// in\n            tag_39:\n              mload(0x40)\n              dup1\n              swap2\n              sub\n              swap1\n              return\n                /* \"kickstarter.sol\":836:865  uint public contributorsCount */\n            tag_7:\n              callvalue\n              dup1\n              iszero\n              tag_41\n              jumpi\n              0x00\n              dup1\n              revert\n            tag_41:\n              pop\n              tag_42\n              tag_43\n              jump\t// in\n            tag_42:\n              mload(0x40)\n              tag_44\n              swap2\n              swap1\n              tag_30\n              jump\t// in\n            tag_44:\n              mload(0x40)\n              dup1\n              swap2\n              sub\n              swap1\n              return\n                /* \"kickstarter.sol\":872:898  Requests[] public requests */\n            tag_8:\n              callvalue\n              dup1\n              iszero\n              tag_45\n              jumpi\n              0x00\n              dup1\n              revert\n            tag_45:\n              pop\n              tag_46\n              0x04\n              dup1\n              calldatasize\n              sub\n              dup2\n              add\n              swap1\n              tag_47\n              swap2\n              swap1\n              tag_17\n              jump\t// in\n            tag_47:\n              tag_48\n              jump\t// in\n            tag_46:\n              mload(0x40)\n              tag_49\n              swap6\n              swap5\n              swap4\n              swap3\n              swap2\n              swap1\n              tag_50\n              jump\t// in\n            tag_49:\n              mload(0x40)\n              dup1\n              swap2\n              sub\n              swap1\n              return\n                /* \"kickstarter.sol\":1316:1638  function createRequest(string memory d, uint v, address r) public onlyManager {\r... */\n            tag_9:\n              callvalue\n              dup1\n              iszero\n              tag_51\n              jumpi\n              0x00\n              dup1\n              revert\n            tag_51:\n              pop\n              tag_52\n              0x04\n              dup1\n              calldatasize\n              sub\n              dup2\n              add\n              swap1\n              tag_53\n              swap2\n              swap1\n              tag_54\n              jump\t// in\n            tag_53:\n              tag_55\n              jump\t// in\n            tag_52:\n              stop\n                /* \"kickstarter.sol\":747:778  uint public minimumContribution */\n            tag_10:\n              callvalue\n              dup1\n              iszero\n              tag_56\n              jumpi\n              0x00\n              dup1\n              revert\n            tag_56:\n              pop\n              tag_57\n              tag_58\n              jump\t// in\n            tag_57:\n              mload(0x40)\n              tag_59\n              swap2\n              swap1\n              tag_30\n              jump\t// in\n            tag_59:\n              mload(0x40)\n              dup1\n              swap2\n              sub\n              swap1\n              return\n                /* \"kickstarter.sol\":1137:1304  function contribute() public payable{\r... */\n            tag_11:\n              tag_60\n              tag_61\n              jump\t// in\n            tag_60:\n              stop\n                /* \"kickstarter.sol\":1650:1929  function approveRequest(uint index) public {\r... */\n            tag_12:\n              callvalue\n              dup1\n              iszero\n              tag_62\n              jumpi\n              0x00\n              dup1\n              revert\n            tag_62:\n              pop\n              tag_63\n              0x04\n              dup1\n              calldatasize\n              sub\n              dup2\n              add\n              swap1\n              tag_64\n              swap2\n              swap1\n              tag_17\n              jump\t// in\n            tag_64:\n              tag_65\n              jump\t// in\n            tag_63:\n              stop\n                /* \"kickstarter.sol\":1941:2257  function finalizeRequest(uint index) public onlyManager {\r... */\n            tag_18:\n                /* \"kickstarter.sol\":965:972  manager */\n              0x00\n              dup1\n              sload\n              swap1\n              0x0100\n              exp\n              swap1\n              div\n              0xffffffffffffffffffffffffffffffffffffffff\n              and\n                /* \"kickstarter.sol\":951:972  msg.sender == manager */\n              0xffffffffffffffffffffffffffffffffffffffff\n              and\n                /* \"kickstarter.sol\":951:961  msg.sender */\n              caller\n                /* \"kickstarter.sol\":951:972  msg.sender == manager */\n              0xffffffffffffffffffffffffffffffffffffffff\n              and\n              eq\n                /* \"kickstarter.sol\":943:973  require(msg.sender == manager) */\n              tag_67\n              jumpi\n              0x00\n              dup1\n              revert\n            tag_67:\n                /* \"kickstarter.sol\":2008:2032  Requests storage request */\n              0x00\n                /* \"kickstarter.sol\":2035:2043  requests */\n              0x04\n                /* \"kickstarter.sol\":2044:2049  index */\n              dup3\n                /* \"kickstarter.sol\":2035:2050  requests[index] */\n              dup2\n              sload\n              dup2\n              lt\n              tag_69\n              jumpi\n              tag_70\n              tag_71\n              jump\t// in\n            tag_70:\n            tag_69:\n              swap1\n              0x00\n              mstore\n              keccak256(0x00, 0x20)\n              swap1\n              0x05\n              mul\n              add\n                /* \"kickstarter.sol\":2008:2050  Requests storage request = requests[index] */\n              swap1\n              pop\n                /* \"kickstarter.sol\":2070:2077  request */\n              dup1\n                /* \"kickstarter.sol\":2070:2086  request.complete */\n              0x02\n              add\n              0x14\n              swap1\n              sload\n              swap1\n              0x0100\n              exp\n              swap1\n              div\n              0xff\n              and\n                /* \"kickstarter.sol\":2069:2086  !request.complete */\n              iszero\n                /* \"kickstarter.sol\":2061:2087  require(!request.complete) */\n              tag_73\n              jumpi\n              0x00\n              dup1\n              revert\n            tag_73:\n                /* \"kickstarter.sol\":2151:2152  2 */\n              0x02\n                /* \"kickstarter.sol\":2131:2148  contributorsCount */\n              sload(0x03)\n                /* \"kickstarter.sol\":2131:2152  contributorsCount / 2 */\n              tag_74\n              swap2\n              swap1\n              tag_75\n              jump\t// in\n            tag_74:\n                /* \"kickstarter.sol\":2106:2113  request */\n              dup2\n                /* \"kickstarter.sol\":2106:2127  request.approvalCount */\n              0x04\n              add\n              sload\n                /* \"kickstarter.sol\":2106:2153  request.approvalCount > (contributorsCount / 2) */\n              gt\n                /* \"kickstarter.sol\":2098:2154  require(request.approvalCount > (contributorsCount / 2)) */\n              tag_76\n              jumpi\n              0x00\n              dup1\n              revert\n            tag_76:\n                /* \"kickstarter.sol\":2173:2180  request */\n              dup1\n                /* \"kickstarter.sol\":2173:2190  request.recipient */\n              0x02\n              add\n              0x00\n              swap1\n              sload\n              swap1\n              0x0100\n              exp\n              swap1\n              div\n              0xffffffffffffffffffffffffffffffffffffffff\n              and\n                /* \"kickstarter.sol\":2165:2200  payable(request.recipient).transfer */\n              0xffffffffffffffffffffffffffffffffffffffff\n              and\n                /* \"kickstarter.sol\":2165:2215  payable(request.recipient).transfer(request.value) */\n              0x08fc\n                /* \"kickstarter.sol\":2201:2208  request */\n              dup3\n                /* \"kickstarter.sol\":2201:2214  request.value */\n              0x01\n              add\n              sload\n                /* \"kickstarter.sol\":2165:2215  payable(request.recipient).transfer(request.value) */\n              swap1\n              dup2\n              iszero\n              mul\n              swap1\n              mload(0x40)\n              0x00\n              mload(0x40)\n              dup1\n              dup4\n              sub\n              dup2\n              dup6\n              dup9\n              dup9\n              call\n              swap4\n              pop\n              pop\n              pop\n              pop\n              iszero\n              dup1\n              iszero\n              tag_78\n              jumpi\n              returndatasize\n              0x00\n              dup1\n              returndatacopy\n              revert(0x00, returndatasize)\n            tag_78:\n              pop\n                /* \"kickstarter.sol\":2245:2249  true */\n              0x01\n                /* \"kickstarter.sol\":2226:2233  request */\n              dup2\n                /* \"kickstarter.sol\":2226:2242  request.complete */\n              0x02\n              add\n              0x14\n                /* \"kickstarter.sol\":2226:2249  request.complete = true */\n              0x0100\n              exp\n              dup2\n              sload\n              dup2\n              0xff\n              mul\n              not\n              and\n              swap1\n              dup4\n              iszero\n              iszero\n              mul\n              or\n              swap1\n              sstore\n              pop\n                /* \"kickstarter.sol\":1997:2257  {\r... */\n              pop\n                /* \"kickstarter.sol\":1941:2257  function finalizeRequest(uint index) public onlyManager {\r... */\n              pop\n              jump\t// out\n                /* \"kickstarter.sol\":785:829  mapping(address => bool) public contributors */\n            tag_23:\n              mstore(0x20, 0x02)\n              dup1\n              0x00\n              mstore\n              keccak256(0x00, 0x40)\n              0x00\n              swap2\n              pop\n              sload\n              swap1\n              0x0100\n              exp\n              swap1\n              div\n              0xff\n              and\n              dup2\n              jump\t// out\n                /* \"kickstarter.sol\":2552:2648  function getRequestsCount() public view returns (uint) {\r... */\n            tag_28:\n                /* \"kickstarter.sol\":2601:2605  uint */\n              0x00\n                /* \"kickstarter.sol\":2625:2633  requests */\n              0x04\n                /* \"kickstarter.sol\":2625:2640  requests.length */\n              dup1\n              sload\n              swap1\n              pop\n                /* \"kickstarter.sol\":2618:2640  return requests.length */\n              swap1\n              pop\n                /* \"kickstarter.sol\":2552:2648  function getRequestsCount() public view returns (uint) {\r... */\n              swap1\n              jump\t// out\n                /* \"kickstarter.sol\":2269:2540  function getSummary() public view returns (uint, uint, uint, uint, address) {\r... */\n            tag_33:\n                /* \"kickstarter.sol\":2312:2316  uint */\n              0x00\n                /* \"kickstarter.sol\":2318:2322  uint */\n              dup1\n                /* \"kickstarter.sol\":2324:2328  uint */\n              0x00\n                /* \"kickstarter.sol\":2330:2334  uint */\n              dup1\n                /* \"kickstarter.sol\":2336:2343  address */\n              0x00\n                /* \"kickstarter.sol\":2378:2397  minimumContribution */\n              sload(0x01)\n                /* \"kickstarter.sol\":2412:2433  address(this).balance */\n              selfbalance\n                /* \"kickstarter.sol\":2448:2456  requests */\n              0x04\n                /* \"kickstarter.sol\":2448:2463  requests.length */\n              dup1\n              sload\n              swap1\n              pop\n                /* \"kickstarter.sol\":2478:2495  contributorsCount */\n              sload(0x03)\n                /* \"kickstarter.sol\":2510:2517  manager */\n              0x00\n              dup1\n              sload\n              swap1\n              0x0100\n              exp\n              swap1\n              div\n              0xffffffffffffffffffffffffffffffffffffffff\n              and\n                /* \"kickstarter.sol\":2356:2532  return (\r... */\n              swap5\n              pop\n              swap5\n              pop\n              swap5\n              pop\n              swap5\n              pop\n              swap5\n              pop\n                /* \"kickstarter.sol\":2269:2540  function getSummary() public view returns (uint, uint, uint, uint, address) {\r... */\n              swap1\n              swap2\n              swap3\n              swap4\n              swap5\n              jump\t// out\n                /* \"kickstarter.sol\":718:740  address public manager */\n            tag_38:\n              0x00\n              dup1\n              sload\n              swap1\n              0x0100\n              exp\n              swap1\n              div\n              0xffffffffffffffffffffffffffffffffffffffff\n              and\n              dup2\n              jump\t// out\n                /* \"kickstarter.sol\":836:865  uint public contributorsCount */\n            tag_43:\n              sload(0x03)\n              dup2\n              jump\t// out\n                /* \"kickstarter.sol\":872:898  Requests[] public requests */\n            tag_48:\n              0x04\n              dup2\n              dup2\n              sload\n              dup2\n              lt\n              tag_81\n              jumpi\n              0x00\n              dup1\n              revert\n            tag_81:\n              swap1\n              0x00\n              mstore\n              keccak256(0x00, 0x20)\n              swap1\n              0x05\n              mul\n              add\n              0x00\n              swap2\n              pop\n              swap1\n              pop\n              dup1\n              0x00\n              add\n              dup1\n              sload\n              tag_83\n              swap1\n              tag_84\n              jump\t// in\n            tag_83:\n              dup1\n              0x1f\n              add\n              0x20\n              dup1\n              swap2\n              div\n              mul\n              0x20\n              add\n              mload(0x40)\n              swap1\n              dup2\n              add\n              0x40\n              mstore\n              dup1\n              swap3\n              swap2\n              swap1\n              dup2\n              dup2\n              mstore\n              0x20\n              add\n              dup3\n              dup1\n              sload\n              tag_85\n              swap1\n              tag_84\n              jump\t// in\n            tag_85:\n              dup1\n              iszero\n              tag_86\n              jumpi\n              dup1\n              0x1f\n              lt\n              tag_87\n              jumpi\n              0x0100\n              dup1\n              dup4\n              sload\n              div\n              mul\n              dup4\n              mstore\n              swap2\n              0x20\n              add\n              swap2\n              jump(tag_86)\n            tag_87:\n              dup3\n              add\n              swap2\n              swap1\n              0x00\n              mstore\n              keccak256(0x00, 0x20)\n              swap1\n            tag_88:\n              dup2\n              sload\n              dup2\n              mstore\n              swap1\n              0x01\n              add\n              swap1\n              0x20\n              add\n              dup1\n              dup4\n              gt\n              tag_88\n              jumpi\n              dup3\n              swap1\n              sub\n              0x1f\n              and\n              dup3\n              add\n              swap2\n            tag_86:\n              pop\n              pop\n              pop\n              pop\n              pop\n              swap1\n              dup1\n              0x01\n              add\n              sload\n              swap1\n              dup1\n              0x02\n              add\n              0x00\n              swap1\n              sload\n              swap1\n              0x0100\n              exp\n              swap1\n              div\n              0xffffffffffffffffffffffffffffffffffffffff\n              and\n              swap1\n              dup1\n              0x02\n              add\n              0x14\n              swap1\n              sload\n              swap1\n              0x0100\n              exp\n              swap1\n              div\n              0xff\n              and\n              swap1\n              dup1\n              0x04\n              add\n              sload\n              swap1\n              pop\n              dup6\n              jump\t// out\n                /* \"kickstarter.sol\":1316:1638  function createRequest(string memory d, uint v, address r) public onlyManager {\r... */\n            tag_55:\n                /* \"kickstarter.sol\":965:972  manager */\n              0x00\n              dup1\n              sload\n              swap1\n              0x0100\n              exp\n              swap1\n              div\n              0xffffffffffffffffffffffffffffffffffffffff\n              and\n                /* \"kickstarter.sol\":951:972  msg.sender == manager */\n              0xffffffffffffffffffffffffffffffffffffffff\n              and\n                /* \"kickstarter.sol\":951:961  msg.sender */\n              caller\n                /* \"kickstarter.sol\":951:972  msg.sender == manager */\n              0xffffffffffffffffffffffffffffffffffffffff\n              and\n              eq\n                /* \"kickstarter.sol\":943:973  require(msg.sender == manager) */\n              tag_90\n              jumpi\n              0x00\n              dup1\n              revert\n            tag_90:\n                /* \"kickstarter.sol\":1405:1432  Requests storage newRequest */\n              0x00\n                /* \"kickstarter.sol\":1435:1443  requests */\n              0x04\n                /* \"kickstarter.sol\":1435:1450  requests.push() */\n              0x01\n              dup2\n              0x01\n              dup2\n              sload\n              add\n              dup1\n              dup3\n              sstore\n              dup1\n              swap2\n              pop\n              pop\n              sub\n              swap1\n              0x00\n              mstore\n              keccak256(0x00, 0x20)\n              swap1\n              0x05\n              mul\n              add\n                /* \"kickstarter.sol\":1405:1450  Requests storage newRequest = requests.push() */\n              swap1\n              pop\n                /* \"kickstarter.sol\":1486:1487  d */\n              dup4\n                /* \"kickstarter.sol\":1461:1471  newRequest */\n              dup2\n                /* \"kickstarter.sol\":1461:1483  newRequest.description */\n              0x00\n              add\n                /* \"kickstarter.sol\":1461:1487  newRequest.description = d */\n              swap1\n              dup1\n              mload\n              swap1\n              0x20\n              add\n              swap1\n              tag_93\n              swap3\n              swap2\n              swap1\n              tag_94\n              jump\t// in\n            tag_93:\n              pop\n                /* \"kickstarter.sol\":1517:1518  v */\n              dup3\n                /* \"kickstarter.sol\":1498:1508  newRequest */\n              dup2\n                /* \"kickstarter.sol\":1498:1514  newRequest.value */\n              0x01\n              add\n                /* \"kickstarter.sol\":1498:1518  newRequest.value = v */\n              dup2\n              swap1\n              sstore\n              pop\n                /* \"kickstarter.sol\":1552:1553  r */\n              dup2\n                /* \"kickstarter.sol\":1529:1539  newRequest */\n              dup2\n                /* \"kickstarter.sol\":1529:1549  newRequest.recipient */\n              0x02\n              add\n              0x00\n                /* \"kickstarter.sol\":1529:1553  newRequest.recipient = r */\n              0x0100\n              exp\n              dup2\n              sload\n              dup2\n              0xffffffffffffffffffffffffffffffffffffffff\n              mul\n              not\n              and\n              swap1\n              dup4\n              0xffffffffffffffffffffffffffffffffffffffff\n              and\n              mul\n              or\n              swap1\n              sstore\n              pop\n                /* \"kickstarter.sol\":1586:1591  false */\n              0x00\n                /* \"kickstarter.sol\":1564:1574  newRequest */\n              dup2\n                /* \"kickstarter.sol\":1564:1583  newRequest.complete */\n              0x02\n              add\n              0x14\n                /* \"kickstarter.sol\":1564:1591  newRequest.complete = false */\n              0x0100\n              exp\n              dup2\n              sload\n              dup2\n              0xff\n              mul\n              not\n              and\n              swap1\n              dup4\n              iszero\n              iszero\n              mul\n              or\n              swap1\n              sstore\n              pop\n                /* \"kickstarter.sol\":1629:1630  0 */\n              0x00\n                /* \"kickstarter.sol\":1602:1612  newRequest */\n              dup2\n                /* \"kickstarter.sol\":1602:1626  newRequest.approvalCount */\n              0x04\n              add\n                /* \"kickstarter.sol\":1602:1630  newRequest.approvalCount = 0 */\n              dup2\n              swap1\n              sstore\n              pop\n                /* \"kickstarter.sol\":1394:1638  {\r... */\n              pop\n                /* \"kickstarter.sol\":1316:1638  function createRequest(string memory d, uint v, address r) public onlyManager {\r... */\n              pop\n              pop\n              pop\n              jump\t// out\n                /* \"kickstarter.sol\":747:778  uint public minimumContribution */\n            tag_58:\n              sload(0x01)\n              dup2\n              jump\t// out\n                /* \"kickstarter.sol\":1137:1304  function contribute() public payable{\r... */\n            tag_61:\n                /* \"kickstarter.sol\":1204:1223  minimumContribution */\n              sload(0x01)\n                /* \"kickstarter.sol\":1192:1201  msg.value */\n              callvalue\n                /* \"kickstarter.sol\":1192:1223  msg.value > minimumContribution */\n              gt\n                /* \"kickstarter.sol\":1184:1224  require(msg.value > minimumContribution) */\n              tag_96\n              jumpi\n              0x00\n              dup1\n              revert\n            tag_96:\n                /* \"kickstarter.sol\":1262:1266  true */\n              0x01\n                /* \"kickstarter.sol\":1235:1247  contributors */\n              0x02\n                /* \"kickstarter.sol\":1235:1259  contributors[msg.sender] */\n              0x00\n                /* \"kickstarter.sol\":1248:1258  msg.sender */\n              caller\n                /* \"kickstarter.sol\":1235:1259  contributors[msg.sender] */\n              0xffffffffffffffffffffffffffffffffffffffff\n              and\n              0xffffffffffffffffffffffffffffffffffffffff\n              and\n              dup2\n              mstore\n              0x20\n              add\n              swap1\n              dup2\n              mstore\n              0x20\n              add\n              0x00\n              keccak256\n              0x00\n                /* \"kickstarter.sol\":1235:1266  contributors[msg.sender] = true */\n              0x0100\n              exp\n              dup2\n              sload\n              dup2\n              0xff\n              mul\n              not\n              and\n              swap1\n              dup4\n              iszero\n              iszero\n              mul\n              or\n              swap1\n              sstore\n              pop\n                /* \"kickstarter.sol\":1277:1294  contributorsCount */\n              0x03\n              0x00\n                /* \"kickstarter.sol\":1277:1296  contributorsCount++ */\n              dup2\n              sload\n              dup1\n              swap3\n              swap2\n              swap1\n              tag_97\n              swap1\n              tag_98\n              jump\t// in\n            tag_97:\n              swap2\n              swap1\n              pop\n              sstore\n              pop\n                /* \"kickstarter.sol\":1137:1304  function contribute() public payable{\r... */\n              jump\t// out\n                /* \"kickstarter.sol\":1650:1929  function approveRequest(uint index) public {\r... */\n            tag_65:\n                /* \"kickstarter.sol\":1704:1728  Requests storage request */\n              0x00\n                /* \"kickstarter.sol\":1731:1739  requests */\n              0x04\n                /* \"kickstarter.sol\":1740:1745  index */\n              dup3\n                /* \"kickstarter.sol\":1731:1746  requests[index] */\n              dup2\n              sload\n              dup2\n              lt\n              tag_100\n              jumpi\n              tag_101\n              tag_71\n              jump\t// in\n            tag_101:\n            tag_100:\n              swap1\n              0x00\n              mstore\n              keccak256(0x00, 0x20)\n              swap1\n              0x05\n              mul\n              add\n                /* \"kickstarter.sol\":1704:1746  Requests storage request = requests[index] */\n              swap1\n              pop\n                /* \"kickstarter.sol\":1765:1777  contributors */\n              0x02\n                /* \"kickstarter.sol\":1765:1789  contributors[msg.sender] */\n              0x00\n                /* \"kickstarter.sol\":1778:1788  msg.sender */\n              caller\n                /* \"kickstarter.sol\":1765:1789  contributors[msg.sender] */\n              0xffffffffffffffffffffffffffffffffffffffff\n              and\n              0xffffffffffffffffffffffffffffffffffffffff\n              and\n              dup2\n              mstore\n              0x20\n              add\n              swap1\n              dup2\n              mstore\n              0x20\n              add\n              0x00\n              keccak256\n              0x00\n              swap1\n              sload\n              swap1\n              0x0100\n              exp\n              swap1\n              div\n              0xff\n              and\n                /* \"kickstarter.sol\":1757:1790  require(contributors[msg.sender]) */\n              tag_103\n              jumpi\n              0x00\n              dup1\n              revert\n            tag_103:\n                /* \"kickstarter.sol\":1810:1817  request */\n              dup1\n                /* \"kickstarter.sol\":1810:1827  request.approvers */\n              0x03\n              add\n                /* \"kickstarter.sol\":1810:1839  request.approvers[msg.sender] */\n              0x00\n                /* \"kickstarter.sol\":1828:1838  msg.sender */\n              caller\n                /* \"kickstarter.sol\":1810:1839  request.approvers[msg.sender] */\n              0xffffffffffffffffffffffffffffffffffffffff\n              and\n              0xffffffffffffffffffffffffffffffffffffffff\n              and\n              dup2\n              mstore\n              0x20\n              add\n              swap1\n              dup2\n              mstore\n              0x20\n              add\n              0x00\n              keccak256\n              0x00\n              swap1\n              sload\n              swap1\n              0x0100\n              exp\n              swap1\n              div\n              0xff\n              and\n                /* \"kickstarter.sol\":1809:1839  !request.approvers[msg.sender] */\n              iszero\n                /* \"kickstarter.sol\":1801:1840  require(!request.approvers[msg.sender]) */\n              tag_104\n              jumpi\n              0x00\n              dup1\n              revert\n            tag_104:\n                /* \"kickstarter.sol\":1883:1887  true */\n              0x01\n                /* \"kickstarter.sol\":1851:1858  request */\n              dup2\n                /* \"kickstarter.sol\":1851:1868  request.approvers */\n              0x03\n              add\n                /* \"kickstarter.sol\":1851:1880  request.approvers[msg.sender] */\n              0x00\n                /* \"kickstarter.sol\":1869:1879  msg.sender */\n              caller\n                /* \"kickstarter.sol\":1851:1880  request.approvers[msg.sender] */\n              0xffffffffffffffffffffffffffffffffffffffff\n              and\n              0xffffffffffffffffffffffffffffffffffffffff\n              and\n              dup2\n              mstore\n              0x20\n              add\n              swap1\n              dup2\n              mstore\n              0x20\n              add\n              0x00\n              keccak256\n              0x00\n                /* \"kickstarter.sol\":1851:1887  request.approvers[msg.sender] = true */\n              0x0100\n              exp\n              dup2\n              sload\n              dup2\n              0xff\n              mul\n              not\n              and\n              swap1\n              dup4\n              iszero\n              iszero\n              mul\n              or\n              swap1\n              sstore\n              pop\n                /* \"kickstarter.sol\":1898:1905  request */\n              dup1\n                /* \"kickstarter.sol\":1898:1919  request.approvalCount */\n              0x04\n              add\n              0x00\n                /* \"kickstarter.sol\":1898:1921  request.approvalCount++ */\n              dup2\n              sload\n              dup1\n              swap3\n              swap2\n              swap1\n              tag_105\n              swap1\n              tag_98\n              jump\t// in\n            tag_105:\n              swap2\n              swap1\n              pop\n              sstore\n              pop\n                /* \"kickstarter.sol\":1693:1929  {\r... */\n              pop\n                /* \"kickstarter.sol\":1650:1929  function approveRequest(uint index) public {\r... */\n              pop\n              jump\t// out\n            tag_94:\n              dup3\n              dup1\n              sload\n              tag_106\n              swap1\n              tag_84\n              jump\t// in\n            tag_106:\n              swap1\n              0x00\n              mstore\n              keccak256(0x00, 0x20)\n              swap1\n              0x1f\n              add\n              0x20\n              swap1\n              div\n              dup2\n              add\n              swap3\n              dup3\n              tag_108\n              jumpi\n              0x00\n              dup6\n              sstore\n              jump(tag_107)\n            tag_108:\n              dup3\n              0x1f\n              lt\n              tag_109\n              jumpi\n              dup1\n              mload\n              not(0xff)\n              and\n              dup4\n              dup1\n              add\n              or\n              dup6\n              sstore\n              jump(tag_107)\n            tag_109:\n              dup3\n              dup1\n              add\n              0x01\n              add\n              dup6\n              sstore\n              dup3\n              iszero\n              tag_107\n              jumpi\n              swap2\n              dup3\n              add\n            tag_110:\n              dup3\n              dup2\n              gt\n              iszero\n              tag_111\n              jumpi\n              dup3\n              mload\n              dup3\n              sstore\n              swap2\n              0x20\n              add\n              swap2\n              swap1\n              0x01\n              add\n              swap1\n              jump(tag_110)\n            tag_111:\n            tag_107:\n              pop\n              swap1\n              pop\n              tag_112\n              swap2\n              swap1\n              tag_113\n              jump\t// in\n            tag_112:\n              pop\n              swap1\n              jump\t// out\n            tag_113:\n            tag_114:\n              dup1\n              dup3\n              gt\n              iszero\n              tag_115\n              jumpi\n              0x00\n              dup2\n              0x00\n              swap1\n              sstore\n              pop\n              0x01\n              add\n              jump(tag_114)\n            tag_115:\n              pop\n              swap1\n              jump\t// out\n                /* \"#utility.yul\":7:419   */\n            tag_117:\n                /* \"#utility.yul\":85:90   */\n              0x00\n                /* \"#utility.yul\":110:176   */\n              tag_119\n                /* \"#utility.yul\":126:175   */\n              tag_120\n                /* \"#utility.yul\":168:174   */\n              dup5\n                /* \"#utility.yul\":126:175   */\n              tag_121\n              jump\t// in\n            tag_120:\n                /* \"#utility.yul\":110:176   */\n              tag_122\n              jump\t// in\n            tag_119:\n                /* \"#utility.yul\":101:176   */\n              swap1\n              pop\n                /* \"#utility.yul\":199:205   */\n              dup3\n                /* \"#utility.yul\":192:197   */\n              dup2\n                /* \"#utility.yul\":185:206   */\n              mstore\n                /* \"#utility.yul\":237:241   */\n              0x20\n                /* \"#utility.yul\":230:235   */\n              dup2\n                /* \"#utility.yul\":226:242   */\n              add\n                /* \"#utility.yul\":275:278   */\n              dup5\n                /* \"#utility.yul\":266:272   */\n              dup5\n                /* \"#utility.yul\":261:264   */\n              dup5\n                /* \"#utility.yul\":257:273   */\n              add\n                /* \"#utility.yul\":254:279   */\n              gt\n                /* \"#utility.yul\":251:253   */\n              iszero\n              tag_123\n              jumpi\n                /* \"#utility.yul\":282:361   */\n              tag_124\n              tag_125\n              jump\t// in\n            tag_124:\n                /* \"#utility.yul\":251:253   */\n            tag_123:\n                /* \"#utility.yul\":372:413   */\n              tag_126\n                /* \"#utility.yul\":406:412   */\n              dup5\n                /* \"#utility.yul\":401:404   */\n              dup3\n                /* \"#utility.yul\":396:399   */\n              dup6\n                /* \"#utility.yul\":372:413   */\n              tag_127\n              jump\t// in\n            tag_126:\n                /* \"#utility.yul\":91:419   */\n              pop\n              swap4\n              swap3\n              pop\n              pop\n              pop\n              jump\t// out\n                /* \"#utility.yul\":425:564   */\n            tag_128:\n                /* \"#utility.yul\":471:476   */\n              0x00\n                /* \"#utility.yul\":509:515   */\n              dup2\n                /* \"#utility.yul\":496:516   */\n              calldataload\n                /* \"#utility.yul\":487:516   */\n              swap1\n              pop\n                /* \"#utility.yul\":525:558   */\n              tag_130\n                /* \"#utility.yul\":552:557   */\n              dup2\n                /* \"#utility.yul\":525:558   */\n              tag_131\n              jump\t// in\n            tag_130:\n                /* \"#utility.yul\":477:564   */\n              swap3\n              swap2\n              pop\n              pop\n              jump\t// out\n                /* \"#utility.yul\":584:924   */\n            tag_132:\n                /* \"#utility.yul\":640:645   */\n              0x00\n                /* \"#utility.yul\":689:692   */\n              dup3\n                /* \"#utility.yul\":682:686   */\n              0x1f\n                /* \"#utility.yul\":674:680   */\n              dup4\n                /* \"#utility.yul\":670:687   */\n              add\n                /* \"#utility.yul\":666:693   */\n              slt\n                /* \"#utility.yul\":656:658   */\n              tag_134\n              jumpi\n                /* \"#utility.yul\":697:776   */\n              tag_135\n              tag_136\n              jump\t// in\n            tag_135:\n                /* \"#utility.yul\":656:658   */\n            tag_134:\n                /* \"#utility.yul\":814:820   */\n              dup2\n                /* \"#utility.yul\":801:821   */\n              calldataload\n                /* \"#utility.yul\":839:918   */\n              tag_137\n                /* \"#utility.yul\":914:917   */\n              dup5\n                /* \"#utility.yul\":906:912   */\n              dup3\n                /* \"#utility.yul\":899:903   */\n              0x20\n                /* \"#utility.yul\":891:897   */\n              dup7\n                /* \"#utility.yul\":887:904   */\n              add\n                /* \"#utility.yul\":839:918   */\n              tag_117\n              jump\t// in\n            tag_137:\n                /* \"#utility.yul\":830:918   */\n              swap2\n              pop\n                /* \"#utility.yul\":646:924   */\n              pop\n              swap3\n              swap2\n              pop\n              pop\n              jump\t// out\n                /* \"#utility.yul\":930:1069   */\n            tag_138:\n                /* \"#utility.yul\":976:981   */\n              0x00\n                /* \"#utility.yul\":1014:1020   */\n              dup2\n                /* \"#utility.yul\":1001:1021   */\n              calldataload\n                /* \"#utility.yul\":992:1021   */\n              swap1\n              pop\n                /* \"#utility.yul\":1030:1063   */\n              tag_140\n                /* \"#utility.yul\":1057:1062   */\n              dup2\n                /* \"#utility.yul\":1030:1063   */\n              tag_141\n              jump\t// in\n            tag_140:\n                /* \"#utility.yul\":982:1069   */\n              swap3\n              swap2\n              pop\n              pop\n              jump\t// out\n                /* \"#utility.yul\":1075:1404   */\n            tag_22:\n                /* \"#utility.yul\":1134:1140   */\n              0x00\n                /* \"#utility.yul\":1183:1185   */\n              0x20\n                /* \"#utility.yul\":1171:1180   */\n              dup3\n                /* \"#utility.yul\":1162:1169   */\n              dup5\n                /* \"#utility.yul\":1158:1181   */\n              sub\n                /* \"#utility.yul\":1154:1186   */\n              slt\n                /* \"#utility.yul\":1151:1153   */\n              iszero\n              tag_143\n              jumpi\n                /* \"#utility.yul\":1189:1268   */\n              tag_144\n              tag_145\n              jump\t// in\n            tag_144:\n                /* \"#utility.yul\":1151:1153   */\n            tag_143:\n                /* \"#utility.yul\":1309:1310   */\n              0x00\n                /* \"#utility.yul\":1334:1387   */\n              tag_146\n                /* \"#utility.yul\":1379:1386   */\n              dup5\n                /* \"#utility.yul\":1370:1376   */\n              dup3\n                /* \"#utility.yul\":1359:1368   */\n              dup6\n                /* \"#utility.yul\":1355:1377   */\n              add\n                /* \"#utility.yul\":1334:1387   */\n              tag_128\n              jump\t// in\n            tag_146:\n                /* \"#utility.yul\":1324:1387   */\n              swap2\n              pop\n                /* \"#utility.yul\":1280:1397   */\n              pop\n                /* \"#utility.yul\":1141:1404   */\n              swap3\n              swap2\n              pop\n              pop\n              jump\t// out\n                /* \"#utility.yul\":1410:2209   */\n            tag_54:\n                /* \"#utility.yul\":1497:1503   */\n              0x00\n                /* \"#utility.yul\":1505:1511   */\n              dup1\n                /* \"#utility.yul\":1513:1519   */\n              0x00\n                /* \"#utility.yul\":1562:1564   */\n              0x60\n                /* \"#utility.yul\":1550:1559   */\n              dup5\n                /* \"#utility.yul\":1541:1548   */\n              dup7\n                /* \"#utility.yul\":1537:1560   */\n              sub\n                /* \"#utility.yul\":1533:1565   */\n              slt\n                /* \"#utility.yul\":1530:1532   */\n              iszero\n              tag_148\n              jumpi\n                /* \"#utility.yul\":1568:1647   */\n              tag_149\n              tag_145\n              jump\t// in\n            tag_149:\n                /* \"#utility.yul\":1530:1532   */\n            tag_148:\n                /* \"#utility.yul\":1716:1717   */\n              0x00\n                /* \"#utility.yul\":1705:1714   */\n              dup5\n                /* \"#utility.yul\":1701:1718   */\n              add\n                /* \"#utility.yul\":1688:1719   */\n              calldataload\n                /* \"#utility.yul\":1746:1764   */\n              0xffffffffffffffff\n                /* \"#utility.yul\":1738:1744   */\n              dup2\n                /* \"#utility.yul\":1735:1765   */\n              gt\n                /* \"#utility.yul\":1732:1734   */\n              iszero\n              tag_150\n              jumpi\n                /* \"#utility.yul\":1768:1847   */\n              tag_151\n              tag_152\n              jump\t// in\n            tag_151:\n                /* \"#utility.yul\":1732:1734   */\n            tag_150:\n                /* \"#utility.yul\":1873:1936   */\n              tag_153\n                /* \"#utility.yul\":1928:1935   */\n              dup7\n                /* \"#utility.yul\":1919:1925   */\n              dup3\n                /* \"#utility.yul\":1908:1917   */\n              dup8\n                /* \"#utility.yul\":1904:1926   */\n              add\n                /* \"#utility.yul\":1873:1936   */\n              tag_132\n              jump\t// in\n            tag_153:\n                /* \"#utility.yul\":1863:1936   */\n              swap4\n              pop\n                /* \"#utility.yul\":1659:1946   */\n              pop\n                /* \"#utility.yul\":1985:1987   */\n              0x20\n                /* \"#utility.yul\":2011:2064   */\n              tag_154\n                /* \"#utility.yul\":2056:2063   */\n              dup7\n                /* \"#utility.yul\":2047:2053   */\n              dup3\n                /* \"#utility.yul\":2036:2045   */\n              dup8\n                /* \"#utility.yul\":2032:2054   */\n              add\n                /* \"#utility.yul\":2011:2064   */\n              tag_138\n              jump\t// in\n            tag_154:\n                /* \"#utility.yul\":2001:2064   */\n              swap3\n              pop\n                /* \"#utility.yul\":1956:2074   */\n              pop\n                /* \"#utility.yul\":2113:2115   */\n              0x40\n                /* \"#utility.yul\":2139:2192   */\n              tag_155\n                /* \"#utility.yul\":2184:2191   */\n              dup7\n                /* \"#utility.yul\":2175:2181   */\n              dup3\n                /* \"#utility.yul\":2164:2173   */\n              dup8\n                /* \"#utility.yul\":2160:2182   */\n              add\n                /* \"#utility.yul\":2139:2192   */\n              tag_128\n              jump\t// in\n            tag_155:\n                /* \"#utility.yul\":2129:2192   */\n              swap2\n              pop\n                /* \"#utility.yul\":2084:2202   */\n              pop\n                /* \"#utility.yul\":1520:2209   */\n              swap3\n              pop\n              swap3\n              pop\n              swap3\n              jump\t// out\n                /* \"#utility.yul\":2215:2544   */\n            tag_17:\n                /* \"#utility.yul\":2274:2280   */\n              0x00\n                /* \"#utility.yul\":2323:2325   */\n              0x20\n                /* \"#utility.yul\":2311:2320   */\n              dup3\n                /* \"#utility.yul\":2302:2309   */\n              dup5\n                /* \"#utility.yul\":2298:2321   */\n              sub\n                /* \"#utility.yul\":2294:2326   */\n              slt\n                /* \"#utility.yul\":2291:2293   */\n              iszero\n              tag_157\n              jumpi\n                /* \"#utility.yul\":2329:2408   */\n              tag_158\n              tag_145\n              jump\t// in\n            tag_158:\n                /* \"#utility.yul\":2291:2293   */\n            tag_157:\n                /* \"#utility.yul\":2449:2450   */\n              0x00\n                /* \"#utility.yul\":2474:2527   */\n              tag_159\n                /* \"#utility.yul\":2519:2526   */\n              dup5\n                /* \"#utility.yul\":2510:2516   */\n              dup3\n                /* \"#utility.yul\":2499:2508   */\n              dup6\n                /* \"#utility.yul\":2495:2517   */\n              add\n                /* \"#utility.yul\":2474:2527   */\n              tag_138\n              jump\t// in\n            tag_159:\n                /* \"#utility.yul\":2464:2527   */\n              swap2\n              pop\n                /* \"#utility.yul\":2420:2537   */\n              pop\n                /* \"#utility.yul\":2281:2544   */\n              swap3\n              swap2\n              pop\n              pop\n              jump\t// out\n                /* \"#utility.yul\":2550:2668   */\n            tag_160:\n                /* \"#utility.yul\":2637:2661   */\n              tag_162\n                /* \"#utility.yul\":2655:2660   */\n              dup2\n                /* \"#utility.yul\":2637:2661   */\n              tag_163\n              jump\t// in\n            tag_162:\n                /* \"#utility.yul\":2632:2635   */\n              dup3\n                /* \"#utility.yul\":2625:2662   */\n              mstore\n                /* \"#utility.yul\":2615:2668   */\n              pop\n              pop\n              jump\t// out\n                /* \"#utility.yul\":2674:2783   */\n            tag_164:\n                /* \"#utility.yul\":2755:2776   */\n              tag_166\n                /* \"#utility.yul\":2770:2775   */\n              dup2\n                /* \"#utility.yul\":2755:2776   */\n              tag_167\n              jump\t// in\n            tag_166:\n                /* \"#utility.yul\":2750:2753   */\n              dup3\n                /* \"#utility.yul\":2743:2777   */\n              mstore\n                /* \"#utility.yul\":2733:2783   */\n              pop\n              pop\n              jump\t// out\n                /* \"#utility.yul\":2789:3153   */\n            tag_168:\n                /* \"#utility.yul\":2877:2880   */\n              0x00\n                /* \"#utility.yul\":2905:2944   */\n              tag_170\n                /* \"#utility.yul\":2938:2943   */\n              dup3\n                /* \"#utility.yul\":2905:2944   */\n              tag_171\n              jump\t// in\n            tag_170:\n                /* \"#utility.yul\":2960:3031   */\n              tag_172\n                /* \"#utility.yul\":3024:3030   */\n              dup2\n                /* \"#utility.yul\":3019:3022   */\n              dup6\n                /* \"#utility.yul\":2960:3031   */\n              tag_173\n              jump\t// in\n            tag_172:\n                /* \"#utility.yul\":2953:3031   */\n              swap4\n              pop\n                /* \"#utility.yul\":3040:3092   */\n              tag_174\n                /* \"#utility.yul\":3085:3091   */\n              dup2\n                /* \"#utility.yul\":3080:3083   */\n              dup6\n                /* \"#utility.yul\":3073:3077   */\n              0x20\n                /* \"#utility.yul\":3066:3071   */\n              dup7\n                /* \"#utility.yul\":3062:3078   */\n              add\n                /* \"#utility.yul\":3040:3092   */\n              tag_175\n              jump\t// in\n            tag_174:\n                /* \"#utility.yul\":3117:3146   */\n              tag_176\n                /* \"#utility.yul\":3139:3145   */\n              dup2\n                /* \"#utility.yul\":3117:3146   */\n              tag_177\n              jump\t// in\n            tag_176:\n                /* \"#utility.yul\":3112:3115   */\n              dup5\n                /* \"#utility.yul\":3108:3147   */\n              add\n                /* \"#utility.yul\":3101:3147   */\n              swap2\n              pop\n                /* \"#utility.yul\":2881:3153   */\n              pop\n              swap3\n              swap2\n              pop\n              pop\n              jump\t// out\n                /* \"#utility.yul\":3159:3277   */\n            tag_178:\n                /* \"#utility.yul\":3246:3270   */\n              tag_180\n                /* \"#utility.yul\":3264:3269   */\n              dup2\n                /* \"#utility.yul\":3246:3270   */\n              tag_181\n              jump\t// in\n            tag_180:\n                /* \"#utility.yul\":3241:3244   */\n              dup3\n                /* \"#utility.yul\":3234:3271   */\n              mstore\n                /* \"#utility.yul\":3224:3277   */\n              pop\n              pop\n              jump\t// out\n                /* \"#utility.yul\":3283:3505   */\n            tag_40:\n                /* \"#utility.yul\":3376:3380   */\n              0x00\n                /* \"#utility.yul\":3414:3416   */\n              0x20\n                /* \"#utility.yul\":3403:3412   */\n              dup3\n                /* \"#utility.yul\":3399:3417   */\n              add\n                /* \"#utility.yul\":3391:3417   */\n              swap1\n              pop\n                /* \"#utility.yul\":3427:3498   */\n              tag_183\n                /* \"#utility.yul\":3495:3496   */\n              0x00\n                /* \"#utility.yul\":3484:3493   */\n              dup4\n                /* \"#utility.yul\":3480:3497   */\n              add\n                /* \"#utility.yul\":3471:3477   */\n              dup5\n                /* \"#utility.yul\":3427:3498   */\n              tag_160\n              jump\t// in\n            tag_183:\n                /* \"#utility.yul\":3381:3505   */\n              swap3\n              swap2\n              pop\n              pop\n              jump\t// out\n                /* \"#utility.yul\":3511:3721   */\n            tag_25:\n                /* \"#utility.yul\":3598:3602   */\n              0x00\n                /* \"#utility.yul\":3636:3638   */\n              0x20\n                /* \"#utility.yul\":3625:3634   */\n              dup3\n                /* \"#utility.yul\":3621:3639   */\n              add\n                /* \"#utility.yul\":3613:3639   */\n              swap1\n              pop\n                /* \"#utility.yul\":3649:3714   */\n              tag_185\n                /* \"#utility.yul\":3711:3712   */\n              0x00\n                /* \"#utility.yul\":3700:3709   */\n              dup4\n                /* \"#utility.yul\":3696:3713   */\n              add\n                /* \"#utility.yul\":3687:3693   */\n              dup5\n                /* \"#utility.yul\":3649:3714   */\n              tag_164\n              jump\t// in\n            tag_185:\n                /* \"#utility.yul\":3603:3721   */\n              swap3\n              swap2\n              pop\n              pop\n              jump\t// out\n                /* \"#utility.yul\":3727:4470   */\n            tag_50:\n                /* \"#utility.yul\":3946:3950   */\n              0x00\n                /* \"#utility.yul\":3984:3987   */\n              0xa0\n                /* \"#utility.yul\":3973:3982   */\n              dup3\n                /* \"#utility.yul\":3969:3988   */\n              add\n                /* \"#utility.yul\":3961:3988   */\n              swap1\n              pop\n                /* \"#utility.yul\":4034:4043   */\n              dup2\n                /* \"#utility.yul\":4028:4032   */\n              dup2\n                /* \"#utility.yul\":4024:4044   */\n              sub\n                /* \"#utility.yul\":4020:4021   */\n              0x00\n                /* \"#utility.yul\":4009:4018   */\n              dup4\n                /* \"#utility.yul\":4005:4022   */\n              add\n                /* \"#utility.yul\":3998:4045   */\n              mstore\n                /* \"#utility.yul\":4062:4140   */\n              tag_187\n                /* \"#utility.yul\":4135:4139   */\n              dup2\n                /* \"#utility.yul\":4126:4132   */\n              dup9\n                /* \"#utility.yul\":4062:4140   */\n              tag_168\n              jump\t// in\n            tag_187:\n                /* \"#utility.yul\":4054:4140   */\n              swap1\n              pop\n                /* \"#utility.yul\":4150:4222   */\n              tag_188\n                /* \"#utility.yul\":4218:4220   */\n              0x20\n                /* \"#utility.yul\":4207:4216   */\n              dup4\n                /* \"#utility.yul\":4203:4221   */\n              add\n                /* \"#utility.yul\":4194:4200   */\n              dup8\n                /* \"#utility.yul\":4150:4222   */\n              tag_178\n              jump\t// in\n            tag_188:\n                /* \"#utility.yul\":4232:4304   */\n              tag_189\n                /* \"#utility.yul\":4300:4302   */\n              0x40\n                /* \"#utility.yul\":4289:4298   */\n              dup4\n                /* \"#utility.yul\":4285:4303   */\n              add\n                /* \"#utility.yul\":4276:4282   */\n              dup7\n                /* \"#utility.yul\":4232:4304   */\n              tag_160\n              jump\t// in\n            tag_189:\n                /* \"#utility.yul\":4314:4380   */\n              tag_190\n                /* \"#utility.yul\":4376:4378   */\n              0x60\n                /* \"#utility.yul\":4365:4374   */\n              dup4\n                /* \"#utility.yul\":4361:4379   */\n              add\n                /* \"#utility.yul\":4352:4358   */\n              dup6\n                /* \"#utility.yul\":4314:4380   */\n              tag_164\n              jump\t// in\n            tag_190:\n                /* \"#utility.yul\":4390:4463   */\n              tag_191\n                /* \"#utility.yul\":4458:4461   */\n              0x80\n                /* \"#utility.yul\":4447:4456   */\n              dup4\n                /* \"#utility.yul\":4443:4462   */\n              add\n                /* \"#utility.yul\":4434:4440   */\n              dup5\n                /* \"#utility.yul\":4390:4463   */\n              tag_178\n              jump\t// in\n            tag_191:\n                /* \"#utility.yul\":3951:4470   */\n              swap7\n              swap6\n              pop\n              pop\n              pop\n              pop\n              pop\n              pop\n              jump\t// out\n                /* \"#utility.yul\":4476:4698   */\n            tag_30:\n                /* \"#utility.yul\":4569:4573   */\n              0x00\n                /* \"#utility.yul\":4607:4609   */\n              0x20\n                /* \"#utility.yul\":4596:4605   */\n              dup3\n                /* \"#utility.yul\":4592:4610   */\n              add\n                /* \"#utility.yul\":4584:4610   */\n              swap1\n              pop\n                /* \"#utility.yul\":4620:4691   */\n              tag_193\n                /* \"#utility.yul\":4688:4689   */\n              0x00\n                /* \"#utility.yul\":4677:4686   */\n              dup4\n                /* \"#utility.yul\":4673:4690   */\n              add\n                /* \"#utility.yul\":4664:4670   */\n              dup5\n                /* \"#utility.yul\":4620:4691   */\n              tag_178\n              jump\t// in\n            tag_193:\n                /* \"#utility.yul\":4574:4698   */\n              swap3\n              swap2\n              pop\n              pop\n              jump\t// out\n                /* \"#utility.yul\":4704:5368   */\n            tag_35:\n                /* \"#utility.yul\":4909:4913   */\n              0x00\n                /* \"#utility.yul\":4947:4950   */\n              0xa0\n                /* \"#utility.yul\":4936:4945   */\n              dup3\n                /* \"#utility.yul\":4932:4951   */\n              add\n                /* \"#utility.yul\":4924:4951   */\n              swap1\n              pop\n                /* \"#utility.yul\":4961:5032   */\n              tag_195\n                /* \"#utility.yul\":5029:5030   */\n              0x00\n                /* \"#utility.yul\":5018:5027   */\n              dup4\n                /* \"#utility.yul\":5014:5031   */\n              add\n                /* \"#utility.yul\":5005:5011   */\n              dup9\n                /* \"#utility.yul\":4961:5032   */\n              tag_178\n              jump\t// in\n            tag_195:\n                /* \"#utility.yul\":5042:5114   */\n              tag_196\n                /* \"#utility.yul\":5110:5112   */\n              0x20\n                /* \"#utility.yul\":5099:5108   */\n              dup4\n                /* \"#utility.yul\":5095:5113   */\n              add\n                /* \"#utility.yul\":5086:5092   */\n              dup8\n                /* \"#utility.yul\":5042:5114   */\n              tag_178\n              jump\t// in\n            tag_196:\n                /* \"#utility.yul\":5124:5196   */\n              tag_197\n                /* \"#utility.yul\":5192:5194   */\n              0x40\n                /* \"#utility.yul\":5181:5190   */\n              dup4\n                /* \"#utility.yul\":5177:5195   */\n              add\n                /* \"#utility.yul\":5168:5174   */\n              dup7\n                /* \"#utility.yul\":5124:5196   */\n              tag_178\n              jump\t// in\n            tag_197:\n                /* \"#utility.yul\":5206:5278   */\n              tag_198\n                /* \"#utility.yul\":5274:5276   */\n              0x60\n                /* \"#utility.yul\":5263:5272   */\n              dup4\n                /* \"#utility.yul\":5259:5277   */\n              add\n                /* \"#utility.yul\":5250:5256   */\n              dup6\n                /* \"#utility.yul\":5206:5278   */\n              tag_178\n              jump\t// in\n            tag_198:\n                /* \"#utility.yul\":5288:5361   */\n              tag_199\n                /* \"#utility.yul\":5356:5359   */\n              0x80\n                /* \"#utility.yul\":5345:5354   */\n              dup4\n                /* \"#utility.yul\":5341:5360   */\n              add\n                /* \"#utility.yul\":5332:5338   */\n              dup5\n                /* \"#utility.yul\":5288:5361   */\n              tag_160\n              jump\t// in\n            tag_199:\n                /* \"#utility.yul\":4914:5368   */\n              swap7\n              swap6\n              pop\n              pop\n              pop\n              pop\n              pop\n              pop\n              jump\t// out\n                /* \"#utility.yul\":5374:5503   */\n            tag_122:\n                /* \"#utility.yul\":5408:5414   */\n              0x00\n                /* \"#utility.yul\":5435:5455   */\n              tag_201\n              tag_202\n              jump\t// in\n            tag_201:\n                /* \"#utility.yul\":5425:5455   */\n              swap1\n              pop\n                /* \"#utility.yul\":5464:5497   */\n              tag_203\n                /* \"#utility.yul\":5492:5496   */\n              dup3\n                /* \"#utility.yul\":5484:5490   */\n              dup3\n                /* \"#utility.yul\":5464:5497   */\n              tag_204\n              jump\t// in\n            tag_203:\n                /* \"#utility.yul\":5415:5503   */\n              swap2\n              swap1\n              pop\n              jump\t// out\n                /* \"#utility.yul\":5509:5584   */\n            tag_202:\n                /* \"#utility.yul\":5542:5548   */\n              0x00\n                /* \"#utility.yul\":5575:5577   */\n              0x40\n                /* \"#utility.yul\":5569:5578   */\n              mload\n                /* \"#utility.yul\":5559:5578   */\n              swap1\n              pop\n                /* \"#utility.yul\":5549:5584   */\n              swap1\n              jump\t// out\n                /* \"#utility.yul\":5590:5898   */\n            tag_121:\n                /* \"#utility.yul\":5652:5656   */\n              0x00\n                /* \"#utility.yul\":5742:5760   */\n              0xffffffffffffffff\n                /* \"#utility.yul\":5734:5740   */\n              dup3\n                /* \"#utility.yul\":5731:5761   */\n              gt\n                /* \"#utility.yul\":5728:5730   */\n              iszero\n              tag_207\n              jumpi\n                /* \"#utility.yul\":5764:5782   */\n              tag_208\n              tag_209\n              jump\t// in\n            tag_208:\n                /* \"#utility.yul\":5728:5730   */\n            tag_207:\n                /* \"#utility.yul\":5802:5831   */\n              tag_210\n                /* \"#utility.yul\":5824:5830   */\n              dup3\n                /* \"#utility.yul\":5802:5831   */\n              tag_177\n              jump\t// in\n            tag_210:\n                /* \"#utility.yul\":5794:5831   */\n              swap1\n              pop\n                /* \"#utility.yul\":5886:5890   */\n              0x20\n                /* \"#utility.yul\":5880:5884   */\n              dup2\n                /* \"#utility.yul\":5876:5891   */\n              add\n                /* \"#utility.yul\":5868:5891   */\n              swap1\n              pop\n                /* \"#utility.yul\":5657:5898   */\n              swap2\n              swap1\n              pop\n              jump\t// out\n                /* \"#utility.yul\":5904:6003   */\n            tag_171:\n                /* \"#utility.yul\":5956:5962   */\n              0x00\n                /* \"#utility.yul\":5990:5995   */\n              dup2\n                /* \"#utility.yul\":5984:5996   */\n              mload\n                /* \"#utility.yul\":5974:5996   */\n              swap1\n              pop\n                /* \"#utility.yul\":5963:6003   */\n              swap2\n              swap1\n              pop\n              jump\t// out\n                /* \"#utility.yul\":6009:6178   */\n            tag_173:\n                /* \"#utility.yul\":6093:6104   */\n              0x00\n                /* \"#utility.yul\":6127:6133   */\n              dup3\n                /* \"#utility.yul\":6122:6125   */\n              dup3\n                /* \"#utility.yul\":6115:6134   */\n              mstore\n                /* \"#utility.yul\":6167:6171   */\n              0x20\n                /* \"#utility.yul\":6162:6165   */\n              dup3\n                /* \"#utility.yul\":6158:6172   */\n              add\n                /* \"#utility.yul\":6143:6172   */\n              swap1\n              pop\n                /* \"#utility.yul\":6105:6178   */\n              swap3\n              swap2\n              pop\n              pop\n              jump\t// out\n                /* \"#utility.yul\":6184:6369   */\n            tag_75:\n                /* \"#utility.yul\":6224:6225   */\n              0x00\n                /* \"#utility.yul\":6241:6261   */\n              tag_214\n                /* \"#utility.yul\":6259:6260   */\n              dup3\n                /* \"#utility.yul\":6241:6261   */\n              tag_181\n              jump\t// in\n            tag_214:\n                /* \"#utility.yul\":6236:6261   */\n              swap2\n              pop\n                /* \"#utility.yul\":6275:6295   */\n              tag_215\n                /* \"#utility.yul\":6293:6294   */\n              dup4\n                /* \"#utility.yul\":6275:6295   */\n              tag_181\n              jump\t// in\n            tag_215:\n                /* \"#utility.yul\":6270:6295   */\n              swap3\n              pop\n                /* \"#utility.yul\":6314:6315   */\n              dup3\n                /* \"#utility.yul\":6304:6306   */\n              tag_216\n              jumpi\n                /* \"#utility.yul\":6319:6337   */\n              tag_217\n              tag_218\n              jump\t// in\n            tag_217:\n                /* \"#utility.yul\":6304:6306   */\n            tag_216:\n                /* \"#utility.yul\":6361:6362   */\n              dup3\n                /* \"#utility.yul\":6358:6359   */\n              dup3\n                /* \"#utility.yul\":6354:6363   */\n              div\n                /* \"#utility.yul\":6349:6363   */\n              swap1\n              pop\n                /* \"#utility.yul\":6226:6369   */\n              swap3\n              swap2\n              pop\n              pop\n              jump\t// out\n                /* \"#utility.yul\":6375:6471   */\n            tag_163:\n                /* \"#utility.yul\":6412:6419   */\n              0x00\n                /* \"#utility.yul\":6441:6465   */\n              tag_220\n                /* \"#utility.yul\":6459:6464   */\n              dup3\n                /* \"#utility.yul\":6441:6465   */\n              tag_221\n              jump\t// in\n            tag_220:\n                /* \"#utility.yul\":6430:6465   */\n              swap1\n              pop\n                /* \"#utility.yul\":6420:6471   */\n              swap2\n              swap1\n              pop\n              jump\t// out\n                /* \"#utility.yul\":6477:6567   */\n            tag_167:\n                /* \"#utility.yul\":6511:6518   */\n              0x00\n                /* \"#utility.yul\":6554:6559   */\n              dup2\n                /* \"#utility.yul\":6547:6560   */\n              iszero\n                /* \"#utility.yul\":6540:6561   */\n              iszero\n                /* \"#utility.yul\":6529:6561   */\n              swap1\n              pop\n                /* \"#utility.yul\":6519:6567   */\n              swap2\n              swap1\n              pop\n              jump\t// out\n                /* \"#utility.yul\":6573:6699   */\n            tag_221:\n                /* \"#utility.yul\":6610:6617   */\n              0x00\n                /* \"#utility.yul\":6650:6692   */\n              0xffffffffffffffffffffffffffffffffffffffff\n                /* \"#utility.yul\":6643:6648   */\n              dup3\n                /* \"#utility.yul\":6639:6693   */\n              and\n                /* \"#utility.yul\":6628:6693   */\n              swap1\n              pop\n                /* \"#utility.yul\":6618:6699   */\n              swap2\n              swap1\n              pop\n              jump\t// out\n                /* \"#utility.yul\":6705:6782   */\n            tag_181:\n                /* \"#utility.yul\":6742:6749   */\n              0x00\n                /* \"#utility.yul\":6771:6776   */\n              dup2\n                /* \"#utility.yul\":6760:6776   */\n              swap1\n              pop\n                /* \"#utility.yul\":6750:6782   */\n              swap2\n              swap1\n              pop\n              jump\t// out\n                /* \"#utility.yul\":6788:6942   */\n            tag_127:\n                /* \"#utility.yul\":6872:6878   */\n              dup3\n                /* \"#utility.yul\":6867:6870   */\n              dup2\n                /* \"#utility.yul\":6862:6865   */\n              dup4\n                /* \"#utility.yul\":6849:6879   */\n              calldatacopy\n                /* \"#utility.yul\":6934:6935   */\n              0x00\n                /* \"#utility.yul\":6925:6931   */\n              dup4\n                /* \"#utility.yul\":6920:6923   */\n              dup4\n                /* \"#utility.yul\":6916:6932   */\n              add\n                /* \"#utility.yul\":6909:6936   */\n              mstore\n                /* \"#utility.yul\":6839:6942   */\n              pop\n              pop\n              pop\n              jump\t// out\n                /* \"#utility.yul\":6948:7255   */\n            tag_175:\n                /* \"#utility.yul\":7016:7017   */\n              0x00\n                /* \"#utility.yul\":7026:7139   */\n            tag_227:\n                /* \"#utility.yul\":7040:7046   */\n              dup4\n                /* \"#utility.yul\":7037:7038   */\n              dup2\n                /* \"#utility.yul\":7034:7047   */\n              lt\n                /* \"#utility.yul\":7026:7139   */\n              iszero\n              tag_229\n              jumpi\n                /* \"#utility.yul\":7125:7126   */\n              dup1\n                /* \"#utility.yul\":7120:7123   */\n              dup3\n                /* \"#utility.yul\":7116:7127   */\n              add\n                /* \"#utility.yul\":7110:7128   */\n              mload\n                /* \"#utility.yul\":7106:7107   */\n              dup2\n                /* \"#utility.yul\":7101:7104   */\n              dup5\n                /* \"#utility.yul\":7097:7108   */\n              add\n                /* \"#utility.yul\":7090:7129   */\n              mstore\n                /* \"#utility.yul\":7062:7064   */\n              0x20\n                /* \"#utility.yul\":7059:7060   */\n              dup2\n                /* \"#utility.yul\":7055:7065   */\n              add\n                /* \"#utility.yul\":7050:7065   */\n              swap1\n              pop\n                /* \"#utility.yul\":7026:7139   */\n              jump(tag_227)\n            tag_229:\n                /* \"#utility.yul\":7157:7163   */\n              dup4\n                /* \"#utility.yul\":7154:7155   */\n              dup2\n                /* \"#utility.yul\":7151:7164   */\n              gt\n                /* \"#utility.yul\":7148:7150   */\n              iszero\n              tag_230\n              jumpi\n                /* \"#utility.yul\":7237:7238   */\n              0x00\n                /* \"#utility.yul\":7228:7234   */\n              dup5\n                /* \"#utility.yul\":7223:7226   */\n              dup5\n                /* \"#utility.yul\":7219:7235   */\n              add\n                /* \"#utility.yul\":7212:7239   */\n              mstore\n                /* \"#utility.yul\":7148:7150   */\n            tag_230:\n                /* \"#utility.yul\":6997:7255   */\n              pop\n              pop\n              pop\n              pop\n              jump\t// out\n                /* \"#utility.yul\":7261:7581   */\n            tag_84:\n                /* \"#utility.yul\":7305:7311   */\n              0x00\n                /* \"#utility.yul\":7342:7343   */\n              0x02\n                /* \"#utility.yul\":7336:7340   */\n              dup3\n                /* \"#utility.yul\":7332:7344   */\n              div\n                /* \"#utility.yul\":7322:7344   */\n              swap1\n              pop\n                /* \"#utility.yul\":7389:7390   */\n              0x01\n                /* \"#utility.yul\":7383:7387   */\n              dup3\n                /* \"#utility.yul\":7379:7391   */\n              and\n                /* \"#utility.yul\":7410:7428   */\n              dup1\n                /* \"#utility.yul\":7400:7402   */\n              tag_232\n              jumpi\n                /* \"#utility.yul\":7466:7470   */\n              0x7f\n                /* \"#utility.yul\":7458:7464   */\n              dup3\n                /* \"#utility.yul\":7454:7471   */\n              and\n                /* \"#utility.yul\":7444:7471   */\n              swap2\n              pop\n                /* \"#utility.yul\":7400:7402   */\n            tag_232:\n                /* \"#utility.yul\":7528:7530   */\n              0x20\n                /* \"#utility.yul\":7520:7526   */\n              dup3\n                /* \"#utility.yul\":7517:7531   */\n              lt\n                /* \"#utility.yul\":7497:7515   */\n              dup2\n                /* \"#utility.yul\":7494:7532   */\n              eq\n                /* \"#utility.yul\":7491:7493   */\n              iszero\n              tag_233\n              jumpi\n                /* \"#utility.yul\":7547:7565   */\n              tag_234\n              tag_235\n              jump\t// in\n            tag_234:\n                /* \"#utility.yul\":7491:7493   */\n            tag_233:\n                /* \"#utility.yul\":7312:7581   */\n              pop\n              swap2\n              swap1\n              pop\n              jump\t// out\n                /* \"#utility.yul\":7587:7868   */\n            tag_204:\n                /* \"#utility.yul\":7670:7697   */\n              tag_237\n                /* \"#utility.yul\":7692:7696   */\n              dup3\n                /* \"#utility.yul\":7670:7697   */\n              tag_177\n              jump\t// in\n            tag_237:\n                /* \"#utility.yul\":7662:7668   */\n              dup2\n                /* \"#utility.yul\":7658:7698   */\n              add\n                /* \"#utility.yul\":7800:7806   */\n              dup2\n                /* \"#utility.yul\":7788:7798   */\n              dup2\n                /* \"#utility.yul\":7785:7807   */\n              lt\n                /* \"#utility.yul\":7764:7782   */\n              0xffffffffffffffff\n                /* \"#utility.yul\":7752:7762   */\n              dup3\n                /* \"#utility.yul\":7749:7783   */\n              gt\n                /* \"#utility.yul\":7746:7808   */\n              or\n                /* \"#utility.yul\":7743:7745   */\n              iszero\n              tag_238\n              jumpi\n                /* \"#utility.yul\":7811:7829   */\n              tag_239\n              tag_209\n              jump\t// in\n            tag_239:\n                /* \"#utility.yul\":7743:7745   */\n            tag_238:\n                /* \"#utility.yul\":7851:7861   */\n              dup1\n                /* \"#utility.yul\":7847:7849   */\n              0x40\n                /* \"#utility.yul\":7840:7862   */\n              mstore\n                /* \"#utility.yul\":7630:7868   */\n              pop\n              pop\n              pop\n              jump\t// out\n                /* \"#utility.yul\":7874:8107   */\n            tag_98:\n                /* \"#utility.yul\":7913:7916   */\n              0x00\n                /* \"#utility.yul\":7936:7960   */\n              tag_241\n                /* \"#utility.yul\":7954:7959   */\n              dup3\n                /* \"#utility.yul\":7936:7960   */\n              tag_181\n              jump\t// in\n            tag_241:\n                /* \"#utility.yul\":7927:7960   */\n              swap2\n              pop\n                /* \"#utility.yul\":7982:8048   */\n              0xffffffffffffffffffffffffffffffffffffffffffffffffffffffffffffffff\n                /* \"#utility.yul\":7975:7980   */\n              dup3\n                /* \"#utility.yul\":7972:8049   */\n              eq\n                /* \"#utility.yul\":7969:7971   */\n              iszero\n              tag_242\n              jumpi\n                /* \"#utility.yul\":8052:8070   */\n              tag_243\n              tag_244\n              jump\t// in\n            tag_243:\n                /* \"#utility.yul\":7969:7971   */\n            tag_242:\n                /* \"#utility.yul\":8099:8100   */\n              0x01\n                /* \"#utility.yul\":8092:8097   */\n              dup3\n                /* \"#utility.yul\":8088:8101   */\n              add\n                /* \"#utility.yul\":8081:8101   */\n              swap1\n              pop\n                /* \"#utility.yul\":7917:8107   */\n              swap2\n              swap1\n              pop\n              jump\t// out\n                /* \"#utility.yul\":8113:8293   */\n            tag_244:\n                /* \"#utility.yul\":8161:8238   */\n              0x4e487b7100000000000000000000000000000000000000000000000000000000\n                /* \"#utility.yul\":8158:8159   */\n              0x00\n                /* \"#utility.yul\":8151:8239   */\n              mstore\n                /* \"#utility.yul\":8258:8262   */\n              0x11\n                /* \"#utility.yul\":8255:8256   */\n              0x04\n                /* \"#utility.yul\":8248:8263   */\n              mstore\n                /* \"#utility.yul\":8282:8286   */\n              0x24\n                /* \"#utility.yul\":8279:8280   */\n              0x00\n                /* \"#utility.yul\":8272:8287   */\n              revert\n                /* \"#utility.yul\":8299:8479   */\n            tag_218:\n                /* \"#utility.yul\":8347:8424   */\n              0x4e487b7100000000000000000000000000000000000000000000000000000000\n                /* \"#utility.yul\":8344:8345   */\n              0x00\n                /* \"#utility.yul\":8337:8425   */\n              mstore\n                /* \"#utility.yul\":8444:8448   */\n              0x12\n                /* \"#utility.yul\":8441:8442   */\n              0x04\n                /* \"#utility.yul\":8434:8449   */\n              mstore\n                /* \"#utility.yul\":8468:8472   */\n              0x24\n                /* \"#utility.yul\":8465:8466   */\n              0x00\n                /* \"#utility.yul\":8458:8473   */\n              revert\n                /* \"#utility.yul\":8485:8665   */\n            tag_235:\n                /* \"#utility.yul\":8533:8610   */\n              0x4e487b7100000000000000000000000000000000000000000000000000000000\n                /* \"#utility.yul\":8530:8531   */\n              0x00\n                /* \"#utility.yul\":8523:8611   */\n              mstore\n                /* \"#utility.yul\":8630:8634   */\n              0x22\n                /* \"#utility.yul\":8627:8628   */\n              0x04\n                /* \"#utility.yul\":8620:8635   */\n              mstore\n                /* \"#utility.yul\":8654:8658   */\n              0x24\n                /* \"#utility.yul\":8651:8652   */\n              0x00\n                /* \"#utility.yul\":8644:8659   */\n              revert\n                /* \"#utility.yul\":8671:8851   */\n            tag_71:\n                /* \"#utility.yul\":8719:8796   */\n              0x4e487b7100000000000000000000000000000000000000000000000000000000\n                /* \"#utility.yul\":8716:8717   */\n              0x00\n                /* \"#utility.yul\":8709:8797   */\n              mstore\n                /* \"#utility.yul\":8816:8820   */\n              0x32\n                /* \"#utility.yul\":8813:8814   */\n              0x04\n                /* \"#utility.yul\":8806:8821   */\n              mstore\n                /* \"#utility.yul\":8840:8844   */\n              0x24\n                /* \"#utility.yul\":8837:8838   */\n              0x00\n                /* \"#utility.yul\":8830:8845   */\n              revert\n                /* \"#utility.yul\":8857:9037   */\n            tag_209:\n                /* \"#utility.yul\":8905:8982   */\n              0x4e487b7100000000000000000000000000000000000000000000000000000000\n                /* \"#utility.yul\":8902:8903   */\n              0x00\n                /* \"#utility.yul\":8895:8983   */\n              mstore\n                /* \"#utility.yul\":9002:9006   */\n              0x41\n                /* \"#utility.yul\":8999:9000   */\n              0x04\n                /* \"#utility.yul\":8992:9007   */\n              mstore\n                /* \"#utility.yul\":9026:9030   */\n              0x24\n                /* \"#utility.yul\":9023:9024   */\n              0x00\n                /* \"#utility.yul\":9016:9031   */\n              revert\n                /* \"#utility.yul\":9043:9160   */\n            tag_136:\n                /* \"#utility.yul\":9152:9153   */\n              0x00\n                /* \"#utility.yul\":9149:9150   */\n              dup1\n                /* \"#utility.yul\":9142:9154   */\n              revert\n                /* \"#utility.yul\":9166:9283   */\n            tag_125:\n                /* \"#utility.yul\":9275:9276   */\n              0x00\n                /* \"#utility.yul\":9272:9273   */\n              dup1\n                /* \"#utility.yul\":9265:9277   */\n              revert\n                /* \"#utility.yul\":9289:9406   */\n            tag_152:\n                /* \"#utility.yul\":9398:9399   */\n              0x00\n                /* \"#utility.yul\":9395:9396   */\n              dup1\n                /* \"#utility.yul\":9388:9400   */\n              revert\n                /* \"#utility.yul\":9412:9529   */\n            tag_145:\n                /* \"#utility.yul\":9521:9522   */\n              0x00\n                /* \"#utility.yul\":9518:9519   */\n              dup1\n                /* \"#utility.yul\":9511:9523   */\n              revert\n                /* \"#utility.yul\":9535:9637   */\n            tag_177:\n                /* \"#utility.yul\":9576:9582   */\n              0x00\n                /* \"#utility.yul\":9627:9629   */\n              0x1f\n                /* \"#utility.yul\":9623:9630   */\n              not\n                /* \"#utility.yul\":9618:9620   */\n              0x1f\n                /* \"#utility.yul\":9611:9616   */\n              dup4\n                /* \"#utility.yul\":9607:9621   */\n              add\n                /* \"#utility.yul\":9603:9631   */\n              and\n                /* \"#utility.yul\":9593:9631   */\n              swap1\n              pop\n                /* \"#utility.yul\":9583:9637   */\n              swap2\n              swap1\n              pop\n              jump\t// out\n                /* \"#utility.yul\":9643:9765   */\n            tag_131:\n                /* \"#utility.yul\":9716:9740   */\n              tag_256\n                /* \"#utility.yul\":9734:9739   */\n              dup2\n                /* \"#utility.yul\":9716:9740   */\n              tag_163\n              jump\t// in\n            tag_256:\n                /* \"#utility.yul\":9709:9714   */\n              dup2\n                /* \"#utility.yul\":9706:9741   */\n              eq\n                /* \"#utility.yul\":9696:9698   */\n              tag_257\n              jumpi\n                /* \"#utility.yul\":9755:9756   */\n              0x00\n                /* \"#utility.yul\":9752:9753   */\n              dup1\n                /* \"#utility.yul\":9745:9757   */\n              revert\n                /* \"#utility.yul\":9696:9698   */\n            tag_257:\n                /* \"#utility.yul\":9686:9765   */\n              pop\n              jump\t// out\n                /* \"#utility.yul\":9771:9893   */\n            tag_141:\n                /* \"#utility.yul\":9844:9868   */\n              tag_259\n                /* \"#utility.yul\":9862:9867   */\n              dup2\n                /* \"#utility.yul\":9844:9868   */\n              tag_181\n              jump\t// in\n            tag_259:\n                /* \"#utility.yul\":9837:9842   */\n              dup2\n                /* \"#utility.yul\":9834:9869   */\n              eq\n                /* \"#utility.yul\":9824:9826   */\n              tag_260\n              jumpi\n                /* \"#utility.yul\":9883:9884   */\n              0x00\n                /* \"#utility.yul\":9880:9881   */\n              dup1\n                /* \"#utility.yul\":9873:9885   */\n              revert\n                /* \"#utility.yul\":9824:9826   */\n            tag_260:\n                /* \"#utility.yul\":9814:9893   */\n              pop\n              jump\t// out\n\n            auxdata: 0xa26469706673582212200d76a078a937e3869be8a53832226dbcc810b55de62d370fe37babbea7d8067a64736f6c63430008060033\n        }\n    }\n\n    auxdata: 0xa26469706673582212206ccf69789dfb76f7929a97068c2a83bf531484d9ecab5a9c62f491311848303e64736f6c63430008060033\n}\n","bytecode":{"linkReferences":{},"object":"608060405234801561001057600080fd5b50611422806100206000396000f3fe608060405234801561001057600080fd5b50600436106100365760003560e01c80637fa062401461003b5780639cb48dec14610057575b600080fd5b610055600480360381019061005091906101c6565b610075565b005b61005f610116565b60405161006c9190610296565b60405180910390f35b60008133604051610085906101a4565b6100909291906102b8565b604051809103906000f0801580156100ac573d6000803e3d6000fd5b5090506000819080600181540180825580915050600190039060005260206000200160009091909190916101000a81548173ffffffffffffffffffffffffffffffffffffffff021916908373ffffffffffffffffffffffffffffffffffffffff1602179055505050565b6060600080548060200260200160405190810160405280929190818152602001828054801561019a57602002820191906000526020600020905b8160009054906101000a900473ffffffffffffffffffffffffffffffffffffffff1673ffffffffffffffffffffffffffffffffffffffff1681526020019060010190808311610150575b5050505050905090565b61107a8061037383390190565b6000813590506101c08161035b565b92915050565b6000602082840312156101dc576101db610356565b5b60006101ea848285016101b1565b91505092915050565b60006101ff838361020b565b60208301905092915050565b6102148161031a565b82525050565b6102238161031a565b82525050565b6000610234826102f1565b61023e8185610309565b9350610249836102e1565b8060005b8381101561027a57815161026188826101f3565b975061026c836102fc565b92505060018101905061024d565b5085935050505092915050565b6102908161034c565b82525050565b600060208201905081810360008301526102b08184610229565b905092915050565b60006040820190506102cd6000830185610287565b6102da602083018461021a565b9392505050565b6000819050602082019050919050565b600081519050919050565b6000602082019050919050565b600082825260208201905092915050565b60006103258261032c565b9050919050565b600073ffffffffffffffffffffffffffffffffffffffff82169050919050565b6000819050919050565b600080fd5b6103648161034c565b811461036f57600080fd5b5056fe60806040523480156200001157600080fd5b506040516200107a3803806200107a8339818101604052810190620000379190620000b4565b806000806101000a81548173ffffffffffffffffffffffffffffffffffffffff021916908373ffffffffffffffffffffffffffffffffffffffff16021790555081600181905550505062000172565b60008151905062000097816200013e565b92915050565b600081519050620000ae8162000158565b92915050565b60008060408385031215620000ce57620000cd62000139565b5b6000620000de858286016200009d565b9250506020620000f18582860162000086565b9150509250929050565b600062000108826200010f565b9050919050565b600073ffffffffffffffffffffffffffffffffffffffff82169050919050565b6000819050919050565b600080fd5b6200014981620000fb565b81146200015557600080fd5b50565b62000163816200012f565b81146200016f57600080fd5b50565b610ef880620001826000396000f3fe60806040526004361061009c5760003560e01c80637569b3d7116100645780637569b3d71461018c57806381d12c58146101b75780638a9cfd55146101f8578063937e09b114610221578063d7bb99ba1461024c578063d7d1bbdb146102565761009c565b806303441006146100a15780631f6d4942146100ca5780633410452a146101075780634051ddac14610132578063481c6a7514610161575b600080fd5b3480156100ad57600080fd5b506100c860048036038101906100c39190610a1a565b61027f565b005b3480156100d657600080fd5b506100f160048036038101906100ec919061097e565b6103c7565b6040516100fe9190610ac8565b60405180910390f35b34801561011357600080fd5b5061011c6103e7565b6040516101299190610b3d565b60405180910390f35b34801561013e57600080fd5b506101476103f4565b604051610158959493929190610b58565b60405180910390f35b34801561016d57600080fd5b5061017661043b565b6040516101839190610aad565b60405180910390f35b34801561019857600080fd5b506101a161045f565b6040516101ae9190610b3d565b60405180910390f35b3480156101c357600080fd5b506101de60048036038101906101d99190610a1a565b610465565b6040516101ef959493929190610ae3565b60405180910390f35b34801561020457600080fd5b5061021f600480360381019061021a91906109ab565b610560565b005b34801561022d57600080fd5b5061023661066e565b6040516102439190610b3d565b60405180910390f35b610254610674565b005b34801561026257600080fd5b5061027d60048036038101906102789190610a1a565b6106f4565b005b60008054906101000a900473ffffffffffffffffffffffffffffffffffffffff1673ffffffffffffffffffffffffffffffffffffffff163373ffffffffffffffffffffffffffffffffffffffff16146102d757600080fd5b6000600482815481106102ed576102ec610e11565b5b906000526020600020906005020190508060020160149054906101000a900460ff161561031957600080fd5b60026003546103289190610c1d565b81600401541161033757600080fd5b8060020160009054906101000a900473ffffffffffffffffffffffffffffffffffffffff1673ffffffffffffffffffffffffffffffffffffffff166108fc82600101549081150290604051600060405180830381858888f193505050501580156103a5573d6000803e3d6000fd5b5060018160020160146101000a81548160ff0219169083151502179055505050565b60026020528060005260406000206000915054906101000a900460ff1681565b6000600480549050905090565b60008060008060006001544760048054905060035460008054906101000a900473ffffffffffffffffffffffffffffffffffffffff16945094509450945094509091929394565b60008054906101000a900473ffffffffffffffffffffffffffffffffffffffff1681565b60035481565b6004818154811061047557600080fd5b906000526020600020906005020160009150905080600001805461049890610cd8565b80601f01602080910402602001604051908101604052809291908181526020018280546104c490610cd8565b80156105115780601f106104e657610100808354040283529160200191610511565b820191906000526020600020905b8154815290600101906020018083116104f457829003601f168201915b5050505050908060010154908060020160009054906101000a900473ffffffffffffffffffffffffffffffffffffffff16908060020160149054906101000a900460ff16908060040154905085565b60008054906101000a900473ffffffffffffffffffffffffffffffffffffffff1673ffffffffffffffffffffffffffffffffffffffff163373ffffffffffffffffffffffffffffffffffffffff16146105b857600080fd5b600060046001816001815401808255809150500390600052602060002090600502019050838160000190805190602001906105f4929190610841565b50828160010181905550818160020160006101000a81548173ffffffffffffffffffffffffffffffffffffffff021916908373ffffffffffffffffffffffffffffffffffffffff16021790555060008160020160146101000a81548160ff0219169083151502179055506000816004018190555050505050565b60015481565b600154341161068257600080fd5b6001600260003373ffffffffffffffffffffffffffffffffffffffff1673ffffffffffffffffffffffffffffffffffffffff16815260200190815260200160002060006101000a81548160ff021916908315150217905550600360008154809291906106ed90610d3b565b9190505550565b60006004828154811061070a57610709610e11565b5b90600052602060002090600502019050600260003373ffffffffffffffffffffffffffffffffffffffff1673ffffffffffffffffffffffffffffffffffffffff16815260200190815260200160002060009054906101000a900460ff1661077057600080fd5b8060030160003373ffffffffffffffffffffffffffffffffffffffff1673ffffffffffffffffffffffffffffffffffffffff16815260200190815260200160002060009054906101000a900460ff16156107c957600080fd5b60018160030160003373ffffffffffffffffffffffffffffffffffffffff1673ffffffffffffffffffffffffffffffffffffffff16815260200190815260200160002060006101000a81548160ff02191690831515021790555080600401600081548092919061083890610d3b565b91905055505050565b82805461084d90610cd8565b90600052602060002090601f01602090048101928261086f57600085556108b6565b82601f1061088857805160ff19168380011785556108b6565b828001600101855582156108b6579182015b828111156108b557825182559160200191906001019061089a565b5b5090506108c391906108c7565b5090565b5b808211156108e05760008160009055506001016108c8565b5090565b60006108f76108f284610bd0565b610bab565b90508281526020810184848401111561091357610912610e74565b5b61091e848285610c96565b509392505050565b60008135905061093581610e94565b92915050565b600082601f8301126109505761094f610e6f565b5b81356109608482602086016108e4565b91505092915050565b60008135905061097881610eab565b92915050565b60006020828403121561099457610993610e7e565b5b60006109a284828501610926565b91505092915050565b6000806000606084860312156109c4576109c3610e7e565b5b600084013567ffffffffffffffff8111156109e2576109e1610e79565b5b6109ee8682870161093b565b93505060206109ff86828701610969565b9250506040610a1086828701610926565b9150509250925092565b600060208284031215610a3057610a2f610e7e565b5b6000610a3e84828501610969565b91505092915050565b610a5081610c4e565b82525050565b610a5f81610c60565b82525050565b6000610a7082610c01565b610a7a8185610c0c565b9350610a8a818560208601610ca5565b610a9381610e83565b840191505092915050565b610aa781610c8c565b82525050565b6000602082019050610ac26000830184610a47565b92915050565b6000602082019050610add6000830184610a56565b92915050565b600060a0820190508181036000830152610afd8188610a65565b9050610b0c6020830187610a9e565b610b196040830186610a47565b610b266060830185610a56565b610b336080830184610a9e565b9695505050505050565b6000602082019050610b526000830184610a9e565b92915050565b600060a082019050610b6d6000830188610a9e565b610b7a6020830187610a9e565b610b876040830186610a9e565b610b946060830185610a9e565b610ba16080830184610a47565b9695505050505050565b6000610bb5610bc6565b9050610bc18282610d0a565b919050565b6000604051905090565b600067ffffffffffffffff821115610beb57610bea610e40565b5b610bf482610e83565b9050602081019050919050565b600081519050919050565b600082825260208201905092915050565b6000610c2882610c8c565b9150610c3383610c8c565b925082610c4357610c42610db3565b5b828204905092915050565b6000610c5982610c6c565b9050919050565b60008115159050919050565b600073ffffffffffffffffffffffffffffffffffffffff82169050919050565b6000819050919050565b82818337600083830152505050565b60005b83811015610cc3578082015181840152602081019050610ca8565b83811115610cd2576000848401525b50505050565b60006002820490506001821680610cf057607f821691505b60208210811415610d0457610d03610de2565b5b50919050565b610d1382610e83565b810181811067ffffffffffffffff82111715610d3257610d31610e40565b5b80604052505050565b6000610d4682610c8c565b91507fffffffffffffffffffffffffffffffffffffffffffffffffffffffffffffffff821415610d7957610d78610d84565b5b600182019050919050565b7f4e487b7100000000000000000000000000000000000000000000000000000000600052601160045260246000fd5b7f4e487b7100000000000000000000000000000000000000000000000000000000600052601260045260246000fd5b7f4e487b7100000000000000000000000000000000000000000000000000000000600052602260045260246000fd5b7f4e487b7100000000000000000000000000000000000000000000000000000000600052603260045260246000fd5b7f4e487b7100000000000000000000000000000000000000000000000000000000600052604160045260246000fd5b600080fd5b600080fd5b600080fd5b600080fd5b6000601f19601f8301169050919050565b610e9d81610c4e565b8114610ea857600080fd5b50565b610eb481610c8c565b8114610ebf57600080fd5b5056fea26469706673582212200d76a078a937e3869be8a53832226dbcc810b55de62d370fe37babbea7d8067a64736f6c63430008060033a26469706673582212206ccf69789dfb76f7929a97068c2a83bf531484d9ecab5a9c62f491311848303e64736f6c63430008060033","opcodes":"PUSH1 0x80 PUSH1 0x40 MSTORE CALLVALUE DUP1 ISZERO PUSH2 0x10 JUMPI PUSH1 0x0 DUP1 REVERT JUMPDEST POP PUSH2 0x1422 DUP1 PUSH2 0x20 PUSH1 0x0 CODECOPY PUSH1 0x0 RETURN INVALID PUSH1 0x80 PUSH1 0x40 MSTORE CALLVALUE DUP1 ISZERO PUSH2 0x10 JUMPI PUSH1 0x0 DUP1 REVERT JUMPDEST POP PUSH1 0x4 CALLDATASIZE LT PUSH2 0x36 JUMPI PUSH1 0x0 CALLDATALOAD PUSH1 0xE0 SHR DUP1 PUSH4 0x7FA06240 EQ PUSH2 0x3B JUMPI DUP1 PUSH4 0x9CB48DEC EQ PUSH2 0x57 JUMPI JUMPDEST PUSH1 0x0 DUP1 REVERT JUMPDEST PUSH2 0x55 PUSH1 0x4 DUP1 CALLDATASIZE SUB DUP2 ADD SWAP1 PUSH2 0x50 SWAP2 SWAP1 PUSH2 0x1C6 JUMP JUMPDEST PUSH2 0x75 JUMP JUMPDEST STOP JUMPDEST PUSH2 0x5F PUSH2 0x116 JUMP JUMPDEST PUSH1 0x40 MLOAD PUSH2 0x6C SWAP2 SWAP1 PUSH2 0x296 JUMP JUMPDEST PUSH1 0x40 MLOAD DUP1 SWAP2 SUB SWAP1 RETURN JUMPDEST PUSH1 0x0 DUP2 CALLER PUSH1 0x40 MLOAD PUSH2 0x85 SWAP1 PUSH2 0x1A4 JUMP JUMPDEST PUSH2 0x90 SWAP3 SWAP2 SWAP1 PUSH2 0x2B8 JUMP JUMPDEST PUSH1 0x40 MLOAD DUP1 SWAP2 SUB SWAP1 PUSH1 0x0 CREATE DUP1 ISZERO DUP1 ISZERO PUSH2 0xAC JUMPI RETURNDATASIZE PUSH1 0x0 DUP1 RETURNDATACOPY RETURNDATASIZE PUSH1 0x0 REVERT JUMPDEST POP SWAP1 POP PUSH1 0x0 DUP2 SWAP1 DUP1 PUSH1 0x1 DUP2 SLOAD ADD DUP1 DUP3 SSTORE DUP1 SWAP2 POP POP PUSH1 0x1 SWAP1 SUB SWAP1 PUSH1 0x0 MSTORE PUSH1 0x20 PUSH1 0x0 KECCAK256 ADD PUSH1 0x0 SWAP1 SWAP2 SWAP1 SWAP2 SWAP1 SWAP2 PUSH2 0x100 EXP DUP2 SLOAD DUP2 PUSH20 0xFFFFFFFFFFFFFFFFFFFFFFFFFFFFFFFFFFFFFFFF MUL NOT AND SWAP1 DUP4 PUSH20 0xFFFFFFFFFFFFFFFFFFFFFFFFFFFFFFFFFFFFFFFF AND MUL OR SWAP1 SSTORE POP POP POP JUMP JUMPDEST PUSH1 0x60 PUSH1 0x0 DUP1 SLOAD DUP1 PUSH1 0x20 MUL PUSH1 0x20 ADD PUSH1 0x40 MLOAD SWAP1 DUP2 ADD PUSH1 0x40 MSTORE DUP1 SWAP3 SWAP2 SWAP1 DUP2 DUP2 MSTORE PUSH1 0x20 ADD DUP3 DUP1 SLOAD DUP1 ISZERO PUSH2 0x19A JUMPI PUSH1 0x20 MUL DUP3 ADD SWAP2 SWAP1 PUSH1 0x0 MSTORE PUSH1 0x20 PUSH1 0x0 KECCAK256 SWAP1 JUMPDEST DUP2 PUSH1 0x0 SWAP1 SLOAD SWAP1 PUSH2 0x100 EXP SWAP1 DIV PUSH20 0xFFFFFFFFFFFFFFFFFFFFFFFFFFFFFFFFFFFFFFFF AND PUSH20 0xFFFFFFFFFFFFFFFFFFFFFFFFFFFFFFFFFFFFFFFF AND DUP2 MSTORE PUSH1 0x20 ADD SWAP1 PUSH1 0x1 ADD SWAP1 DUP1 DUP4 GT PUSH2 0x150 JUMPI JUMPDEST POP POP POP POP POP SWAP1 POP SWAP1 JUMP JUMPDEST PUSH2 0x107A DUP1 PUSH2 0x373 DUP4 CODECOPY ADD SWAP1 JUMP JUMPDEST PUSH1 0x0 DUP2 CALLDATALOAD SWAP1 POP PUSH2 0x1C0 DUP2 PUSH2 0x35B JUMP JUMPDEST SWAP3 SWAP2 POP POP JUMP JUMPDEST PUSH1 0x0 PUSH1 0x20 DUP3 DUP5 SUB SLT ISZERO PUSH2 0x1DC JUMPI PUSH2 0x1DB PUSH2 0x356 JUMP JUMPDEST JUMPDEST PUSH1 0x0 PUSH2 0x1EA DUP5 DUP3 DUP6 ADD PUSH2 0x1B1 JUMP JUMPDEST SWAP2 POP POP SWAP3 SWAP2 POP POP JUMP JUMPDEST PUSH1 0x0 PUSH2 0x1FF DUP4 DUP4 PUSH2 0x20B JUMP JUMPDEST PUSH1 0x20 DUP4 ADD SWAP1 POP SWAP3 SWAP2 POP POP JUMP JUMPDEST PUSH2 0x214 DUP2 PUSH2 0x31A JUMP JUMPDEST DUP3 MSTORE POP POP JUMP JUMPDEST PUSH2 0x223 DUP2 PUSH2 0x31A JUMP JUMPDEST DUP3 MSTORE POP POP JUMP JUMPDEST PUSH1 0x0 PUSH2 0x234 DUP3 PUSH2 0x2F1 JUMP JUMPDEST PUSH2 0x23E DUP2 DUP6 PUSH2 0x309 JUMP JUMPDEST SWAP4 POP PUSH2 0x249 DUP4 PUSH2 0x2E1 JUMP JUMPDEST DUP1 PUSH1 0x0 JUMPDEST DUP4 DUP2 LT ISZERO PUSH2 0x27A JUMPI DUP2 MLOAD PUSH2 0x261 DUP9 DUP3 PUSH2 0x1F3 JUMP JUMPDEST SWAP8 POP PUSH2 0x26C DUP4 PUSH2 0x2FC JUMP JUMPDEST SWAP3 POP POP PUSH1 0x1 DUP2 ADD SWAP1 POP PUSH2 0x24D JUMP JUMPDEST POP DUP6 SWAP4 POP POP POP POP SWAP3 SWAP2 POP POP JUMP JUMPDEST PUSH2 0x290 DUP2 PUSH2 0x34C JUMP JUMPDEST DUP3 MSTORE POP POP JUMP JUMPDEST PUSH1 0x0 PUSH1 0x20 DUP3 ADD SWAP1 POP DUP2 DUP2 SUB PUSH1 0x0 DUP4 ADD MSTORE PUSH2 0x2B0 DUP2 DUP5 PUSH2 0x229 JUMP JUMPDEST SWAP1 POP SWAP3 SWAP2 POP POP JUMP JUMPDEST PUSH1 0x0 PUSH1 0x40 DUP3 ADD SWAP1 POP PUSH2 0x2CD PUSH1 0x0 DUP4 ADD DUP6 PUSH2 0x287 JUMP JUMPDEST PUSH2 0x2DA PUSH1 0x20 DUP4 ADD DUP5 PUSH2 0x21A JUMP JUMPDEST SWAP4 SWAP3 POP POP POP JUMP JUMPDEST PUSH1 0x0 DUP2 SWAP1 POP PUSH1 0x20 DUP3 ADD SWAP1 POP SWAP2 SWAP1 POP JUMP JUMPDEST PUSH1 0x0 DUP2 MLOAD SWAP1 POP SWAP2 SWAP1 POP JUMP JUMPDEST PUSH1 0x0 PUSH1 0x20 DUP3 ADD SWAP1 POP SWAP2 SWAP1 POP JUMP JUMPDEST PUSH1 0x0 DUP3 DUP3 MSTORE PUSH1 0x20 DUP3 ADD SWAP1 POP SWAP3 SWAP2 POP POP JUMP JUMPDEST PUSH1 0x0 PUSH2 0x325 DUP3 PUSH2 0x32C JUMP JUMPDEST SWAP1 POP SWAP2 SWAP1 POP JUMP JUMPDEST PUSH1 0x0 PUSH20 0xFFFFFFFFFFFFFFFFFFFFFFFFFFFFFFFFFFFFFFFF DUP3 AND SWAP1 POP SWAP2 SWAP1 POP JUMP JUMPDEST PUSH1 0x0 DUP2 SWAP1 POP SWAP2 SWAP1 POP JUMP JUMPDEST PUSH1 0x0 DUP1 REVERT JUMPDEST PUSH2 0x364 DUP2 PUSH2 0x34C JUMP JUMPDEST DUP2 EQ PUSH2 0x36F JUMPI PUSH1 0x0 DUP1 REVERT JUMPDEST POP JUMP INVALID PUSH1 0x80 PUSH1 0x40 MSTORE CALLVALUE DUP1 ISZERO PUSH3 0x11 JUMPI PUSH1 0x0 DUP1 REVERT JUMPDEST POP PUSH1 0x40 MLOAD PUSH3 0x107A CODESIZE SUB DUP1 PUSH3 0x107A DUP4 CODECOPY DUP2 DUP2 ADD PUSH1 0x40 MSTORE DUP2 ADD SWAP1 PUSH3 0x37 SWAP2 SWAP1 PUSH3 0xB4 JUMP JUMPDEST DUP1 PUSH1 0x0 DUP1 PUSH2 0x100 EXP DUP2 SLOAD DUP2 PUSH20 0xFFFFFFFFFFFFFFFFFFFFFFFFFFFFFFFFFFFFFFFF MUL NOT AND SWAP1 DUP4 PUSH20 0xFFFFFFFFFFFFFFFFFFFFFFFFFFFFFFFFFFFFFFFF AND MUL OR SWAP1 SSTORE POP DUP2 PUSH1 0x1 DUP2 SWAP1 SSTORE POP POP POP PUSH3 0x172 JUMP JUMPDEST PUSH1 0x0 DUP2 MLOAD SWAP1 POP PUSH3 0x97 DUP2 PUSH3 0x13E JUMP JUMPDEST SWAP3 SWAP2 POP POP JUMP JUMPDEST PUSH1 0x0 DUP2 MLOAD SWAP1 POP PUSH3 0xAE DUP2 PUSH3 0x158 JUMP JUMPDEST SWAP3 SWAP2 POP POP JUMP JUMPDEST PUSH1 0x0 DUP1 PUSH1 0x40 DUP4 DUP6 SUB SLT ISZERO PUSH3 0xCE JUMPI PUSH3 0xCD PUSH3 0x139 JUMP JUMPDEST JUMPDEST PUSH1 0x0 PUSH3 0xDE DUP6 DUP3 DUP7 ADD PUSH3 0x9D JUMP JUMPDEST SWAP3 POP POP PUSH1 0x20 PUSH3 0xF1 DUP6 DUP3 DUP7 ADD PUSH3 0x86 JUMP JUMPDEST SWAP2 POP POP SWAP3 POP SWAP3 SWAP1 POP JUMP JUMPDEST PUSH1 0x0 PUSH3 0x108 DUP3 PUSH3 0x10F JUMP JUMPDEST SWAP1 POP SWAP2 SWAP1 POP JUMP JUMPDEST PUSH1 0x0 PUSH20 0xFFFFFFFFFFFFFFFFFFFFFFFFFFFFFFFFFFFFFFFF DUP3 AND SWAP1 POP SWAP2 SWAP1 POP JUMP JUMPDEST PUSH1 0x0 DUP2 SWAP1 POP SWAP2 SWAP1 POP JUMP JUMPDEST PUSH1 0x0 DUP1 REVERT JUMPDEST PUSH3 0x149 DUP2 PUSH3 0xFB JUMP JUMPDEST DUP2 EQ PUSH3 0x155 JUMPI PUSH1 0x0 DUP1 REVERT JUMPDEST POP JUMP JUMPDEST PUSH3 0x163 DUP2 PUSH3 0x12F JUMP JUMPDEST DUP2 EQ PUSH3 0x16F JUMPI PUSH1 0x0 DUP1 REVERT JUMPDEST POP JUMP JUMPDEST PUSH2 0xEF8 DUP1 PUSH3 0x182 PUSH1 0x0 CODECOPY PUSH1 0x0 RETURN INVALID PUSH1 0x80 PUSH1 0x40 MSTORE PUSH1 0x4 CALLDATASIZE LT PUSH2 0x9C JUMPI PUSH1 0x0 CALLDATALOAD PUSH1 0xE0 SHR DUP1 PUSH4 0x7569B3D7 GT PUSH2 0x64 JUMPI DUP1 PUSH4 0x7569B3D7 EQ PUSH2 0x18C JUMPI DUP1 PUSH4 0x81D12C58 EQ PUSH2 0x1B7 JUMPI DUP1 PUSH4 0x8A9CFD55 EQ PUSH2 0x1F8 JUMPI DUP1 PUSH4 0x937E09B1 EQ PUSH2 0x221 JUMPI DUP1 PUSH4 0xD7BB99BA EQ PUSH2 0x24C JUMPI DUP1 PUSH4 0xD7D1BBDB EQ PUSH2 0x256 JUMPI PUSH2 0x9C JUMP JUMPDEST DUP1 PUSH4 0x3441006 EQ PUSH2 0xA1 JUMPI DUP1 PUSH4 0x1F6D4942 EQ PUSH2 0xCA JUMPI DUP1 PUSH4 0x3410452A EQ PUSH2 0x107 JUMPI DUP1 PUSH4 0x4051DDAC EQ PUSH2 0x132 JUMPI DUP1 PUSH4 0x481C6A75 EQ PUSH2 0x161 JUMPI JUMPDEST PUSH1 0x0 DUP1 REVERT JUMPDEST CALLVALUE DUP1 ISZERO PUSH2 0xAD JUMPI PUSH1 0x0 DUP1 REVERT JUMPDEST POP PUSH2 0xC8 PUSH1 0x4 DUP1 CALLDATASIZE SUB DUP2 ADD SWAP1 PUSH2 0xC3 SWAP2 SWAP1 PUSH2 0xA1A JUMP JUMPDEST PUSH2 0x27F JUMP JUMPDEST STOP JUMPDEST CALLVALUE DUP1 ISZERO PUSH2 0xD6 JUMPI PUSH1 0x0 DUP1 REVERT JUMPDEST POP PUSH2 0xF1 PUSH1 0x4 DUP1 CALLDATASIZE SUB DUP2 ADD SWAP1 PUSH2 0xEC SWAP2 SWAP1 PUSH2 0x97E JUMP JUMPDEST PUSH2 0x3C7 JUMP JUMPDEST PUSH1 0x40 MLOAD PUSH2 0xFE SWAP2 SWAP1 PUSH2 0xAC8 JUMP JUMPDEST PUSH1 0x40 MLOAD DUP1 SWAP2 SUB SWAP1 RETURN JUMPDEST CALLVALUE DUP1 ISZERO PUSH2 0x113 JUMPI PUSH1 0x0 DUP1 REVERT JUMPDEST POP PUSH2 0x11C PUSH2 0x3E7 JUMP JUMPDEST PUSH1 0x40 MLOAD PUSH2 0x129 SWAP2 SWAP1 PUSH2 0xB3D JUMP JUMPDEST PUSH1 0x40 MLOAD DUP1 SWAP2 SUB SWAP1 RETURN JUMPDEST CALLVALUE DUP1 ISZERO PUSH2 0x13E JUMPI PUSH1 0x0 DUP1 REVERT JUMPDEST POP PUSH2 0x147 PUSH2 0x3F4 JUMP JUMPDEST PUSH1 0x40 MLOAD PUSH2 0x158 SWAP6 SWAP5 SWAP4 SWAP3 SWAP2 SWAP1 PUSH2 0xB58 JUMP JUMPDEST PUSH1 0x40 MLOAD DUP1 SWAP2 SUB SWAP1 RETURN JUMPDEST CALLVALUE DUP1 ISZERO PUSH2 0x16D JUMPI PUSH1 0x0 DUP1 REVERT JUMPDEST POP PUSH2 0x176 PUSH2 0x43B JUMP JUMPDEST PUSH1 0x40 MLOAD PUSH2 0x183 SWAP2 SWAP1 PUSH2 0xAAD JUMP JUMPDEST PUSH1 0x40 MLOAD DUP1 SWAP2 SUB SWAP1 RETURN JUMPDEST CALLVALUE DUP1 ISZERO PUSH2 0x198 JUMPI PUSH1 0x0 DUP1 REVERT JUMPDEST POP PUSH2 0x1A1 PUSH2 0x45F JUMP JUMPDEST PUSH1 0x40 MLOAD PUSH2 0x1AE SWAP2 SWAP1 PUSH2 0xB3D JUMP JUMPDEST PUSH1 0x40 MLOAD DUP1 SWAP2 SUB SWAP1 RETURN JUMPDEST CALLVALUE DUP1 ISZERO PUSH2 0x1C3 JUMPI PUSH1 0x0 DUP1 REVERT JUMPDEST POP PUSH2 0x1DE PUSH1 0x4 DUP1 CALLDATASIZE SUB DUP2 ADD SWAP1 PUSH2 0x1D9 SWAP2 SWAP1 PUSH2 0xA1A JUMP JUMPDEST PUSH2 0x465 JUMP JUMPDEST PUSH1 0x40 MLOAD PUSH2 0x1EF SWAP6 SWAP5 SWAP4 SWAP3 SWAP2 SWAP1 PUSH2 0xAE3 JUMP JUMPDEST PUSH1 0x40 MLOAD DUP1 SWAP2 SUB SWAP1 RETURN JUMPDEST CALLVALUE DUP1 ISZERO PUSH2 0x204 JUMPI PUSH1 0x0 DUP1 REVERT JUMPDEST POP PUSH2 0x21F PUSH1 0x4 DUP1 CALLDATASIZE SUB DUP2 ADD SWAP1 PUSH2 0x21A SWAP2 SWAP1 PUSH2 0x9AB JUMP JUMPDEST PUSH2 0x560 JUMP JUMPDEST STOP JUMPDEST CALLVALUE DUP1 ISZERO PUSH2 0x22D JUMPI PUSH1 0x0 DUP1 REVERT JUMPDEST POP PUSH2 0x236 PUSH2 0x66E JUMP JUMPDEST PUSH1 0x40 MLOAD PUSH2 0x243 SWAP2 SWAP1 PUSH2 0xB3D JUMP JUMPDEST PUSH1 0x40 MLOAD DUP1 SWAP2 SUB SWAP1 RETURN JUMPDEST PUSH2 0x254 PUSH2 0x674 JUMP JUMPDEST STOP JUMPDEST CALLVALUE DUP1 ISZERO PUSH2 0x262 JUMPI PUSH1 0x0 DUP1 REVERT JUMPDEST POP PUSH2 0x27D PUSH1 0x4 DUP1 CALLDATASIZE SUB DUP2 ADD SWAP1 PUSH2 0x278 SWAP2 SWAP1 PUSH2 0xA1A JUMP JUMPDEST PUSH2 0x6F4 JUMP JUMPDEST STOP JUMPDEST PUSH1 0x0 DUP1 SLOAD SWAP1 PUSH2 0x100 EXP SWAP1 DIV PUSH20 0xFFFFFFFFFFFFFFFFFFFFFFFFFFFFFFFFFFFFFFFF AND PUSH20 0xFFFFFFFFFFFFFFFFFFFFFFFFFFFFFFFFFFFFFFFF AND CALLER PUSH20 0xFFFFFFFFFFFFFFFFFFFFFFFFFFFFFFFFFFFFFFFF AND EQ PUSH2 0x2D7 JUMPI PUSH1 0x0 DUP1 REVERT JUMPDEST PUSH1 0x0 PUSH1 0x4 DUP3 DUP2 SLOAD DUP2 LT PUSH2 0x2ED JUMPI PUSH2 0x2EC PUSH2 0xE11 JUMP JUMPDEST JUMPDEST SWAP1 PUSH1 0x0 MSTORE PUSH1 0x20 PUSH1 0x0 KECCAK256 SWAP1 PUSH1 0x5 MUL ADD SWAP1 POP DUP1 PUSH1 0x2 ADD PUSH1 0x14 SWAP1 SLOAD SWAP1 PUSH2 0x100 EXP SWAP1 DIV PUSH1 0xFF AND ISZERO PUSH2 0x319 JUMPI PUSH1 0x0 DUP1 REVERT JUMPDEST PUSH1 0x2 PUSH1 0x3 SLOAD PUSH2 0x328 SWAP2 SWAP1 PUSH2 0xC1D JUMP JUMPDEST DUP2 PUSH1 0x4 ADD SLOAD GT PUSH2 0x337 JUMPI PUSH1 0x0 DUP1 REVERT JUMPDEST DUP1 PUSH1 0x2 ADD PUSH1 0x0 SWAP1 SLOAD SWAP1 PUSH2 0x100 EXP SWAP1 DIV PUSH20 0xFFFFFFFFFFFFFFFFFFFFFFFFFFFFFFFFFFFFFFFF AND PUSH20 0xFFFFFFFFFFFFFFFFFFFFFFFFFFFFFFFFFFFFFFFF AND PUSH2 0x8FC DUP3 PUSH1 0x1 ADD SLOAD SWAP1 DUP2 ISZERO MUL SWAP1 PUSH1 0x40 MLOAD PUSH1 0x0 PUSH1 0x40 MLOAD DUP1 DUP4 SUB DUP2 DUP6 DUP9 DUP9 CALL SWAP4 POP POP POP POP ISZERO DUP1 ISZERO PUSH2 0x3A5 JUMPI RETURNDATASIZE PUSH1 0x0 DUP1 RETURNDATACOPY RETURNDATASIZE PUSH1 0x0 REVERT JUMPDEST POP PUSH1 0x1 DUP2 PUSH1 0x2 ADD PUSH1 0x14 PUSH2 0x100 EXP DUP2 SLOAD DUP2 PUSH1 0xFF MUL NOT AND SWAP1 DUP4 ISZERO ISZERO MUL OR SWAP1 SSTORE POP POP POP JUMP JUMPDEST PUSH1 0x2 PUSH1 0x20 MSTORE DUP1 PUSH1 0x0 MSTORE PUSH1 0x40 PUSH1 0x0 KECCAK256 PUSH1 0x0 SWAP2 POP SLOAD SWAP1 PUSH2 0x100 EXP SWAP1 DIV PUSH1 0xFF AND DUP2 JUMP JUMPDEST PUSH1 0x0 PUSH1 0x4 DUP1 SLOAD SWAP1 POP SWAP1 POP SWAP1 JUMP JUMPDEST PUSH1 0x0 DUP1 PUSH1 0x0 DUP1 PUSH1 0x0 PUSH1 0x1 SLOAD SELFBALANCE PUSH1 0x4 DUP1 SLOAD SWAP1 POP PUSH1 0x3 SLOAD PUSH1 0x0 DUP1 SLOAD SWAP1 PUSH2 0x100 EXP SWAP1 DIV PUSH20 0xFFFFFFFFFFFFFFFFFFFFFFFFFFFFFFFFFFFFFFFF AND SWAP5 POP SWAP5 POP SWAP5 POP SWAP5 POP SWAP5 POP SWAP1 SWAP2 SWAP3 SWAP4 SWAP5 JUMP JUMPDEST PUSH1 0x0 DUP1 SLOAD SWAP1 PUSH2 0x100 EXP SWAP1 DIV PUSH20 0xFFFFFFFFFFFFFFFFFFFFFFFFFFFFFFFFFFFFFFFF AND DUP2 JUMP JUMPDEST PUSH1 0x3 SLOAD DUP2 JUMP JUMPDEST PUSH1 0x4 DUP2 DUP2 SLOAD DUP2 LT PUSH2 0x475 JUMPI PUSH1 0x0 DUP1 REVERT JUMPDEST SWAP1 PUSH1 0x0 MSTORE PUSH1 0x20 PUSH1 0x0 KECCAK256 SWAP1 PUSH1 0x5 MUL ADD PUSH1 0x0 SWAP2 POP SWAP1 POP DUP1 PUSH1 0x0 ADD DUP1 SLOAD PUSH2 0x498 SWAP1 PUSH2 0xCD8 JUMP JUMPDEST DUP1 PUSH1 0x1F ADD PUSH1 0x20 DUP1 SWAP2 DIV MUL PUSH1 0x20 ADD PUSH1 0x40 MLOAD SWAP1 DUP2 ADD PUSH1 0x40 MSTORE DUP1 SWAP3 SWAP2 SWAP1 DUP2 DUP2 MSTORE PUSH1 0x20 ADD DUP3 DUP1 SLOAD PUSH2 0x4C4 SWAP1 PUSH2 0xCD8 JUMP JUMPDEST DUP1 ISZERO PUSH2 0x511 JUMPI DUP1 PUSH1 0x1F LT PUSH2 0x4E6 JUMPI PUSH2 0x100 DUP1 DUP4 SLOAD DIV MUL DUP4 MSTORE SWAP2 PUSH1 0x20 ADD SWAP2 PUSH2 0x511 JUMP JUMPDEST DUP3 ADD SWAP2 SWAP1 PUSH1 0x0 MSTORE PUSH1 0x20 PUSH1 0x0 KECCAK256 SWAP1 JUMPDEST DUP2 SLOAD DUP2 MSTORE SWAP1 PUSH1 0x1 ADD SWAP1 PUSH1 0x20 ADD DUP1 DUP4 GT PUSH2 0x4F4 JUMPI DUP3 SWAP1 SUB PUSH1 0x1F AND DUP3 ADD SWAP2 JUMPDEST POP POP POP POP POP SWAP1 DUP1 PUSH1 0x1 ADD SLOAD SWAP1 DUP1 PUSH1 0x2 ADD PUSH1 0x0 SWAP1 SLOAD SWAP1 PUSH2 0x100 EXP SWAP1 DIV PUSH20 0xFFFFFFFFFFFFFFFFFFFFFFFFFFFFFFFFFFFFFFFF AND SWAP1 DUP1 PUSH1 0x2 ADD PUSH1 0x14 SWAP1 SLOAD SWAP1 PUSH2 0x100 EXP SWAP1 DIV PUSH1 0xFF AND SWAP1 DUP1 PUSH1 0x4 ADD SLOAD SWAP1 POP DUP6 JUMP JUMPDEST PUSH1 0x0 DUP1 SLOAD SWAP1 PUSH2 0x100 EXP SWAP1 DIV PUSH20 0xFFFFFFFFFFFFFFFFFFFFFFFFFFFFFFFFFFFFFFFF AND PUSH20 0xFFFFFFFFFFFFFFFFFFFFFFFFFFFFFFFFFFFFFFFF AND CALLER PUSH20 0xFFFFFFFFFFFFFFFFFFFFFFFFFFFFFFFFFFFFFFFF AND EQ PUSH2 0x5B8 JUMPI PUSH1 0x0 DUP1 REVERT JUMPDEST PUSH1 0x0 PUSH1 0x4 PUSH1 0x1 DUP2 PUSH1 0x1 DUP2 SLOAD ADD DUP1 DUP3 SSTORE DUP1 SWAP2 POP POP SUB SWAP1 PUSH1 0x0 MSTORE PUSH1 0x20 PUSH1 0x0 KECCAK256 SWAP1 PUSH1 0x5 MUL ADD SWAP1 POP DUP4 DUP2 PUSH1 0x0 ADD SWAP1 DUP1 MLOAD SWAP1 PUSH1 0x20 ADD SWAP1 PUSH2 0x5F4 SWAP3 SWAP2 SWAP1 PUSH2 0x841 JUMP JUMPDEST POP DUP3 DUP2 PUSH1 0x1 ADD DUP2 SWAP1 SSTORE POP DUP2 DUP2 PUSH1 0x2 ADD PUSH1 0x0 PUSH2 0x100 EXP DUP2 SLOAD DUP2 PUSH20 0xFFFFFFFFFFFFFFFFFFFFFFFFFFFFFFFFFFFFFFFF MUL NOT AND SWAP1 DUP4 PUSH20 0xFFFFFFFFFFFFFFFFFFFFFFFFFFFFFFFFFFFFFFFF AND MUL OR SWAP1 SSTORE POP PUSH1 0x0 DUP2 PUSH1 0x2 ADD PUSH1 0x14 PUSH2 0x100 EXP DUP2 SLOAD DUP2 PUSH1 0xFF MUL NOT AND SWAP1 DUP4 ISZERO ISZERO MUL OR SWAP1 SSTORE POP PUSH1 0x0 DUP2 PUSH1 0x4 ADD DUP2 SWAP1 SSTORE POP POP POP POP POP JUMP JUMPDEST PUSH1 0x1 SLOAD DUP2 JUMP JUMPDEST PUSH1 0x1 SLOAD CALLVALUE GT PUSH2 0x682 JUMPI PUSH1 0x0 DUP1 REVERT JUMPDEST PUSH1 0x1 PUSH1 0x2 PUSH1 0x0 CALLER PUSH20 0xFFFFFFFFFFFFFFFFFFFFFFFFFFFFFFFFFFFFFFFF AND PUSH20 0xFFFFFFFFFFFFFFFFFFFFFFFFFFFFFFFFFFFFFFFF AND DUP2 MSTORE PUSH1 0x20 ADD SWAP1 DUP2 MSTORE PUSH1 0x20 ADD PUSH1 0x0 KECCAK256 PUSH1 0x0 PUSH2 0x100 EXP DUP2 SLOAD DUP2 PUSH1 0xFF MUL NOT AND SWAP1 DUP4 ISZERO ISZERO MUL OR SWAP1 SSTORE POP PUSH1 0x3 PUSH1 0x0 DUP2 SLOAD DUP1 SWAP3 SWAP2 SWAP1 PUSH2 0x6ED SWAP1 PUSH2 0xD3B JUMP JUMPDEST SWAP2 SWAP1 POP SSTORE POP JUMP JUMPDEST PUSH1 0x0 PUSH1 0x4 DUP3 DUP2 SLOAD DUP2 LT PUSH2 0x70A JUMPI PUSH2 0x709 PUSH2 0xE11 JUMP JUMPDEST JUMPDEST SWAP1 PUSH1 0x0 MSTORE PUSH1 0x20 PUSH1 0x0 KECCAK256 SWAP1 PUSH1 0x5 MUL ADD SWAP1 POP PUSH1 0x2 PUSH1 0x0 CALLER PUSH20 0xFFFFFFFFFFFFFFFFFFFFFFFFFFFFFFFFFFFFFFFF AND PUSH20 0xFFFFFFFFFFFFFFFFFFFFFFFFFFFFFFFFFFFFFFFF AND DUP2 MSTORE PUSH1 0x20 ADD SWAP1 DUP2 MSTORE PUSH1 0x20 ADD PUSH1 0x0 KECCAK256 PUSH1 0x0 SWAP1 SLOAD SWAP1 PUSH2 0x100 EXP SWAP1 DIV PUSH1 0xFF AND PUSH2 0x770 JUMPI PUSH1 0x0 DUP1 REVERT JUMPDEST DUP1 PUSH1 0x3 ADD PUSH1 0x0 CALLER PUSH20 0xFFFFFFFFFFFFFFFFFFFFFFFFFFFFFFFFFFFFFFFF AND PUSH20 0xFFFFFFFFFFFFFFFFFFFFFFFFFFFFFFFFFFFFFFFF AND DUP2 MSTORE PUSH1 0x20 ADD SWAP1 DUP2 MSTORE PUSH1 0x20 ADD PUSH1 0x0 KECCAK256 PUSH1 0x0 SWAP1 SLOAD SWAP1 PUSH2 0x100 EXP SWAP1 DIV PUSH1 0xFF AND ISZERO PUSH2 0x7C9 JUMPI PUSH1 0x0 DUP1 REVERT JUMPDEST PUSH1 0x1 DUP2 PUSH1 0x3 ADD PUSH1 0x0 CALLER PUSH20 0xFFFFFFFFFFFFFFFFFFFFFFFFFFFFFFFFFFFFFFFF AND PUSH20 0xFFFFFFFFFFFFFFFFFFFFFFFFFFFFFFFFFFFFFFFF AND DUP2 MSTORE PUSH1 0x20 ADD SWAP1 DUP2 MSTORE PUSH1 0x20 ADD PUSH1 0x0 KECCAK256 PUSH1 0x0 PUSH2 0x100 EXP DUP2 SLOAD DUP2 PUSH1 0xFF MUL NOT AND SWAP1 DUP4 ISZERO ISZERO MUL OR SWAP1 SSTORE POP DUP1 PUSH1 0x4 ADD PUSH1 0x0 DUP2 SLOAD DUP1 SWAP3 SWAP2 SWAP1 PUSH2 0x838 SWAP1 PUSH2 0xD3B JUMP JUMPDEST SWAP2 SWAP1 POP SSTORE POP POP POP JUMP JUMPDEST DUP3 DUP1 SLOAD PUSH2 0x84D SWAP1 PUSH2 0xCD8 JUMP JUMPDEST SWAP1 PUSH1 0x0 MSTORE PUSH1 0x20 PUSH1 0x0 KECCAK256 SWAP1 PUSH1 0x1F ADD PUSH1 0x20 SWAP1 DIV DUP2 ADD SWAP3 DUP3 PUSH2 0x86F JUMPI PUSH1 0x0 DUP6 SSTORE PUSH2 0x8B6 JUMP JUMPDEST DUP3 PUSH1 0x1F LT PUSH2 0x888 JUMPI DUP1 MLOAD PUSH1 0xFF NOT AND DUP4 DUP1 ADD OR DUP6 SSTORE PUSH2 0x8B6 JUMP JUMPDEST DUP3 DUP1 ADD PUSH1 0x1 ADD DUP6 SSTORE DUP3 ISZERO PUSH2 0x8B6 JUMPI SWAP2 DUP3 ADD JUMPDEST DUP3 DUP2 GT ISZERO PUSH2 0x8B5 JUMPI DUP3 MLOAD DUP3 SSTORE SWAP2 PUSH1 0x20 ADD SWAP2 SWAP1 PUSH1 0x1 ADD SWAP1 PUSH2 0x89A JUMP JUMPDEST JUMPDEST POP SWAP1 POP PUSH2 0x8C3 SWAP2 SWAP1 PUSH2 0x8C7 JUMP JUMPDEST POP SWAP1 JUMP JUMPDEST JUMPDEST DUP1 DUP3 GT ISZERO PUSH2 0x8E0 JUMPI PUSH1 0x0 DUP2 PUSH1 0x0 SWAP1 SSTORE POP PUSH1 0x1 ADD PUSH2 0x8C8 JUMP JUMPDEST POP SWAP1 JUMP JUMPDEST PUSH1 0x0 PUSH2 0x8F7 PUSH2 0x8F2 DUP5 PUSH2 0xBD0 JUMP JUMPDEST PUSH2 0xBAB JUMP JUMPDEST SWAP1 POP DUP3 DUP2 MSTORE PUSH1 0x20 DUP2 ADD DUP5 DUP5 DUP5 ADD GT ISZERO PUSH2 0x913 JUMPI PUSH2 0x912 PUSH2 0xE74 JUMP JUMPDEST JUMPDEST PUSH2 0x91E DUP5 DUP3 DUP6 PUSH2 0xC96 JUMP JUMPDEST POP SWAP4 SWAP3 POP POP POP JUMP JUMPDEST PUSH1 0x0 DUP2 CALLDATALOAD SWAP1 POP PUSH2 0x935 DUP2 PUSH2 0xE94 JUMP JUMPDEST SWAP3 SWAP2 POP POP JUMP JUMPDEST PUSH1 0x0 DUP3 PUSH1 0x1F DUP4 ADD SLT PUSH2 0x950 JUMPI PUSH2 0x94F PUSH2 0xE6F JUMP JUMPDEST JUMPDEST DUP2 CALLDATALOAD PUSH2 0x960 DUP5 DUP3 PUSH1 0x20 DUP7 ADD PUSH2 0x8E4 JUMP JUMPDEST SWAP2 POP POP SWAP3 SWAP2 POP POP JUMP JUMPDEST PUSH1 0x0 DUP2 CALLDATALOAD SWAP1 POP PUSH2 0x978 DUP2 PUSH2 0xEAB JUMP JUMPDEST SWAP3 SWAP2 POP POP JUMP JUMPDEST PUSH1 0x0 PUSH1 0x20 DUP3 DUP5 SUB SLT ISZERO PUSH2 0x994 JUMPI PUSH2 0x993 PUSH2 0xE7E JUMP JUMPDEST JUMPDEST PUSH1 0x0 PUSH2 0x9A2 DUP5 DUP3 DUP6 ADD PUSH2 0x926 JUMP JUMPDEST SWAP2 POP POP SWAP3 SWAP2 POP POP JUMP JUMPDEST PUSH1 0x0 DUP1 PUSH1 0x0 PUSH1 0x60 DUP5 DUP7 SUB SLT ISZERO PUSH2 0x9C4 JUMPI PUSH2 0x9C3 PUSH2 0xE7E JUMP JUMPDEST JUMPDEST PUSH1 0x0 DUP5 ADD CALLDATALOAD PUSH8 0xFFFFFFFFFFFFFFFF DUP2 GT ISZERO PUSH2 0x9E2 JUMPI PUSH2 0x9E1 PUSH2 0xE79 JUMP JUMPDEST JUMPDEST PUSH2 0x9EE DUP7 DUP3 DUP8 ADD PUSH2 0x93B JUMP JUMPDEST SWAP4 POP POP PUSH1 0x20 PUSH2 0x9FF DUP7 DUP3 DUP8 ADD PUSH2 0x969 JUMP JUMPDEST SWAP3 POP POP PUSH1 0x40 PUSH2 0xA10 DUP7 DUP3 DUP8 ADD PUSH2 0x926 JUMP JUMPDEST SWAP2 POP POP SWAP3 POP SWAP3 POP SWAP3 JUMP JUMPDEST PUSH1 0x0 PUSH1 0x20 DUP3 DUP5 SUB SLT ISZERO PUSH2 0xA30 JUMPI PUSH2 0xA2F PUSH2 0xE7E JUMP JUMPDEST JUMPDEST PUSH1 0x0 PUSH2 0xA3E DUP5 DUP3 DUP6 ADD PUSH2 0x969 JUMP JUMPDEST SWAP2 POP POP SWAP3 SWAP2 POP POP JUMP JUMPDEST PUSH2 0xA50 DUP2 PUSH2 0xC4E JUMP JUMPDEST DUP3 MSTORE POP POP JUMP JUMPDEST PUSH2 0xA5F DUP2 PUSH2 0xC60 JUMP JUMPDEST DUP3 MSTORE POP POP JUMP JUMPDEST PUSH1 0x0 PUSH2 0xA70 DUP3 PUSH2 0xC01 JUMP JUMPDEST PUSH2 0xA7A DUP2 DUP6 PUSH2 0xC0C JUMP JUMPDEST SWAP4 POP PUSH2 0xA8A DUP2 DUP6 PUSH1 0x20 DUP7 ADD PUSH2 0xCA5 JUMP JUMPDEST PUSH2 0xA93 DUP2 PUSH2 0xE83 JUMP JUMPDEST DUP5 ADD SWAP2 POP POP SWAP3 SWAP2 POP POP JUMP JUMPDEST PUSH2 0xAA7 DUP2 PUSH2 0xC8C JUMP JUMPDEST DUP3 MSTORE POP POP JUMP JUMPDEST PUSH1 0x0 PUSH1 0x20 DUP3 ADD SWAP1 POP PUSH2 0xAC2 PUSH1 0x0 DUP4 ADD DUP5 PUSH2 0xA47 JUMP JUMPDEST SWAP3 SWAP2 POP POP JUMP JUMPDEST PUSH1 0x0 PUSH1 0x20 DUP3 ADD SWAP1 POP PUSH2 0xADD PUSH1 0x0 DUP4 ADD DUP5 PUSH2 0xA56 JUMP JUMPDEST SWAP3 SWAP2 POP POP JUMP JUMPDEST PUSH1 0x0 PUSH1 0xA0 DUP3 ADD SWAP1 POP DUP2 DUP2 SUB PUSH1 0x0 DUP4 ADD MSTORE PUSH2 0xAFD DUP2 DUP9 PUSH2 0xA65 JUMP JUMPDEST SWAP1 POP PUSH2 0xB0C PUSH1 0x20 DUP4 ADD DUP8 PUSH2 0xA9E JUMP JUMPDEST PUSH2 0xB19 PUSH1 0x40 DUP4 ADD DUP7 PUSH2 0xA47 JUMP JUMPDEST PUSH2 0xB26 PUSH1 0x60 DUP4 ADD DUP6 PUSH2 0xA56 JUMP JUMPDEST PUSH2 0xB33 PUSH1 0x80 DUP4 ADD DUP5 PUSH2 0xA9E JUMP JUMPDEST SWAP7 SWAP6 POP POP POP POP POP POP JUMP JUMPDEST PUSH1 0x0 PUSH1 0x20 DUP3 ADD SWAP1 POP PUSH2 0xB52 PUSH1 0x0 DUP4 ADD DUP5 PUSH2 0xA9E JUMP JUMPDEST SWAP3 SWAP2 POP POP JUMP JUMPDEST PUSH1 0x0 PUSH1 0xA0 DUP3 ADD SWAP1 POP PUSH2 0xB6D PUSH1 0x0 DUP4 ADD DUP9 PUSH2 0xA9E JUMP JUMPDEST PUSH2 0xB7A PUSH1 0x20 DUP4 ADD DUP8 PUSH2 0xA9E JUMP JUMPDEST PUSH2 0xB87 PUSH1 0x40 DUP4 ADD DUP7 PUSH2 0xA9E JUMP JUMPDEST PUSH2 0xB94 PUSH1 0x60 DUP4 ADD DUP6 PUSH2 0xA9E JUMP JUMPDEST PUSH2 0xBA1 PUSH1 0x80 DUP4 ADD DUP5 PUSH2 0xA47 JUMP JUMPDEST SWAP7 SWAP6 POP POP POP POP POP POP JUMP JUMPDEST PUSH1 0x0 PUSH2 0xBB5 PUSH2 0xBC6 JUMP JUMPDEST SWAP1 POP PUSH2 0xBC1 DUP3 DUP3 PUSH2 0xD0A JUMP JUMPDEST SWAP2 SWAP1 POP JUMP JUMPDEST PUSH1 0x0 PUSH1 0x40 MLOAD SWAP1 POP SWAP1 JUMP JUMPDEST PUSH1 0x0 PUSH8 0xFFFFFFFFFFFFFFFF DUP3 GT ISZERO PUSH2 0xBEB JUMPI PUSH2 0xBEA PUSH2 0xE40 JUMP JUMPDEST JUMPDEST PUSH2 0xBF4 DUP3 PUSH2 0xE83 JUMP JUMPDEST SWAP1 POP PUSH1 0x20 DUP2 ADD SWAP1 POP SWAP2 SWAP1 POP JUMP JUMPDEST PUSH1 0x0 DUP2 MLOAD SWAP1 POP SWAP2 SWAP1 POP JUMP JUMPDEST PUSH1 0x0 DUP3 DUP3 MSTORE PUSH1 0x20 DUP3 ADD SWAP1 POP SWAP3 SWAP2 POP POP JUMP JUMPDEST PUSH1 0x0 PUSH2 0xC28 DUP3 PUSH2 0xC8C JUMP JUMPDEST SWAP2 POP PUSH2 0xC33 DUP4 PUSH2 0xC8C JUMP JUMPDEST SWAP3 POP DUP3 PUSH2 0xC43 JUMPI PUSH2 0xC42 PUSH2 0xDB3 JUMP JUMPDEST JUMPDEST DUP3 DUP3 DIV SWAP1 POP SWAP3 SWAP2 POP POP JUMP JUMPDEST PUSH1 0x0 PUSH2 0xC59 DUP3 PUSH2 0xC6C JUMP JUMPDEST SWAP1 POP SWAP2 SWAP1 POP JUMP JUMPDEST PUSH1 0x0 DUP2 ISZERO ISZERO SWAP1 POP SWAP2 SWAP1 POP JUMP JUMPDEST PUSH1 0x0 PUSH20 0xFFFFFFFFFFFFFFFFFFFFFFFFFFFFFFFFFFFFFFFF DUP3 AND SWAP1 POP SWAP2 SWAP1 POP JUMP JUMPDEST PUSH1 0x0 DUP2 SWAP1 POP SWAP2 SWAP1 POP JUMP JUMPDEST DUP3 DUP2 DUP4 CALLDATACOPY PUSH1 0x0 DUP4 DUP4 ADD MSTORE POP POP POP JUMP JUMPDEST PUSH1 0x0 JUMPDEST DUP4 DUP2 LT ISZERO PUSH2 0xCC3 JUMPI DUP1 DUP3 ADD MLOAD DUP2 DUP5 ADD MSTORE PUSH1 0x20 DUP2 ADD SWAP1 POP PUSH2 0xCA8 JUMP JUMPDEST DUP4 DUP2 GT ISZERO PUSH2 0xCD2 JUMPI PUSH1 0x0 DUP5 DUP5 ADD MSTORE JUMPDEST POP POP POP POP JUMP JUMPDEST PUSH1 0x0 PUSH1 0x2 DUP3 DIV SWAP1 POP PUSH1 0x1 DUP3 AND DUP1 PUSH2 0xCF0 JUMPI PUSH1 0x7F DUP3 AND SWAP2 POP JUMPDEST PUSH1 0x20 DUP3 LT DUP2 EQ ISZERO PUSH2 0xD04 JUMPI PUSH2 0xD03 PUSH2 0xDE2 JUMP JUMPDEST JUMPDEST POP SWAP2 SWAP1 POP JUMP JUMPDEST PUSH2 0xD13 DUP3 PUSH2 0xE83 JUMP JUMPDEST DUP2 ADD DUP2 DUP2 LT PUSH8 0xFFFFFFFFFFFFFFFF DUP3 GT OR ISZERO PUSH2 0xD32 JUMPI PUSH2 0xD31 PUSH2 0xE40 JUMP JUMPDEST JUMPDEST DUP1 PUSH1 0x40 MSTORE POP POP POP JUMP JUMPDEST PUSH1 0x0 PUSH2 0xD46 DUP3 PUSH2 0xC8C JUMP JUMPDEST SWAP2 POP PUSH32 0xFFFFFFFFFFFFFFFFFFFFFFFFFFFFFFFFFFFFFFFFFFFFFFFFFFFFFFFFFFFFFFFF DUP3 EQ ISZERO PUSH2 0xD79 JUMPI PUSH2 0xD78 PUSH2 0xD84 JUMP JUMPDEST JUMPDEST PUSH1 0x1 DUP3 ADD SWAP1 POP SWAP2 SWAP1 POP JUMP JUMPDEST PUSH32 0x4E487B7100000000000000000000000000000000000000000000000000000000 PUSH1 0x0 MSTORE PUSH1 0x11 PUSH1 0x4 MSTORE PUSH1 0x24 PUSH1 0x0 REVERT JUMPDEST PUSH32 0x4E487B7100000000000000000000000000000000000000000000000000000000 PUSH1 0x0 MSTORE PUSH1 0x12 PUSH1 0x4 MSTORE PUSH1 0x24 PUSH1 0x0 REVERT JUMPDEST PUSH32 0x4E487B7100000000000000000000000000000000000000000000000000000000 PUSH1 0x0 MSTORE PUSH1 0x22 PUSH1 0x4 MSTORE PUSH1 0x24 PUSH1 0x0 REVERT JUMPDEST PUSH32 0x4E487B7100000000000000000000000000000000000000000000000000000000 PUSH1 0x0 MSTORE PUSH1 0x32 PUSH1 0x4 MSTORE PUSH1 0x24 PUSH1 0x0 REVERT JUMPDEST PUSH32 0x4E487B7100000000000000000000000000000000000000000000000000000000 PUSH1 0x0 MSTORE PUSH1 0x41 PUSH1 0x4 MSTORE PUSH1 0x24 PUSH1 0x0 REVERT JUMPDEST PUSH1 0x0 DUP1 REVERT JUMPDEST PUSH1 0x0 DUP1 REVERT JUMPDEST PUSH1 0x0 DUP1 REVERT JUMPDEST PUSH1 0x0 DUP1 REVERT JUMPDEST PUSH1 0x0 PUSH1 0x1F NOT PUSH1 0x1F DUP4 ADD AND SWAP1 POP SWAP2 SWAP1 POP JUMP JUMPDEST PUSH2 0xE9D DUP2 PUSH2 0xC4E JUMP JUMPDEST DUP2 EQ PUSH2 0xEA8 JUMPI PUSH1 0x0 DUP1 REVERT JUMPDEST POP JUMP JUMPDEST PUSH2 0xEB4 DUP2 PUSH2 0xC8C JUMP JUMPDEST DUP2 EQ PUSH2 0xEBF JUMPI PUSH1 0x0 DUP1 REVERT JUMPDEST POP JUMP INVALID LOG2 PUSH5 0x6970667358 0x22 SLT KECCAK256 0xD PUSH23 0xA078A937E3869BE8A53832226DBCC810B55DE62D370FE3 PUSH28 0xABBEA7D8067A64736F6C63430008060033A26469706673582212206C 0xCF PUSH10 0x789DFB76F7929A97068C 0x2A DUP4 0xBF MSTORE8 EQ DUP5 0xD9 0xEC 0xAB GAS SWAP13 PUSH3 0xF49131 XOR 0x48 ADDRESS RETURNDATACOPY PUSH5 0x736F6C6343 STOP ADDMOD MOD STOP CALLER "},"gasEstimates":{"creation":{"codeDepositCost":"1030800","executionCost":"1074","totalCost":"1031874"},"external":{"createKickstarter(uint256)":"infinite","getDeployedAdresses()":"infinite"}},"methodIdentifiers":{"createKickstarter(uint256)":"7fa06240","getDeployedAdresses()":"9cb48dec"}},"storageLayout":{"storage":[{"astId":4,"contract":"kickstarter.sol:FactoryKickstarter","label":"deployedAddresses","offset":0,"slot":"0","type":"t_array(t_address)dyn_storage"}],"types":{"t_address":{"encoding":"inplace","label":"address","numberOfBytes":"20"},"t_array(t_address)dyn_storage":{"base":"t_address","encoding":"dynamic_array","label":"address[]","numberOfBytes":"32"}}},"userdoc":{"kind":"user","methods":{},"version":1}}