{
  "contractName": "GameShop",
  "abi": [
    {
      "inputs": [],
      "stateMutability": "nonpayable",
      "type": "constructor"
    },
    {
      "anonymous": false,
      "inputs": [
        {
          "indexed": true,
          "internalType": "address",
          "name": "account",
          "type": "address"
        },
        {
          "indexed": true,
          "internalType": "address",
          "name": "operator",
          "type": "address"
        },
        {
          "indexed": false,
          "internalType": "bool",
          "name": "approved",
          "type": "bool"
        }
      ],
      "name": "ApprovalForAll",
      "type": "event"
    },
    {
      "anonymous": false,
      "inputs": [
        {
          "indexed": true,
          "internalType": "address",
          "name": "previousOwner",
          "type": "address"
        },
        {
          "indexed": true,
          "internalType": "address",
          "name": "newOwner",
          "type": "address"
        }
      ],
      "name": "OwnershipTransferred",
      "type": "event"
    },
    {
      "anonymous": false,
      "inputs": [
        {
          "indexed": true,
          "internalType": "address",
          "name": "operator",
          "type": "address"
        },
        {
          "indexed": true,
          "internalType": "address",
          "name": "from",
          "type": "address"
        },
        {
          "indexed": true,
          "internalType": "address",
          "name": "to",
          "type": "address"
        },
        {
          "indexed": false,
          "internalType": "uint256[]",
          "name": "ids",
          "type": "uint256[]"
        },
        {
          "indexed": false,
          "internalType": "uint256[]",
          "name": "values",
          "type": "uint256[]"
        }
      ],
      "name": "TransferBatch",
      "type": "event"
    },
    {
      "anonymous": false,
      "inputs": [
        {
          "indexed": true,
          "internalType": "address",
          "name": "operator",
          "type": "address"
        },
        {
          "indexed": true,
          "internalType": "address",
          "name": "from",
          "type": "address"
        },
        {
          "indexed": true,
          "internalType": "address",
          "name": "to",
          "type": "address"
        },
        {
          "indexed": false,
          "internalType": "uint256",
          "name": "id",
          "type": "uint256"
        },
        {
          "indexed": false,
          "internalType": "uint256",
          "name": "value",
          "type": "uint256"
        }
      ],
      "name": "TransferSingle",
      "type": "event"
    },
    {
      "anonymous": false,
      "inputs": [
        {
          "indexed": false,
          "internalType": "string",
          "name": "value",
          "type": "string"
        },
        {
          "indexed": true,
          "internalType": "uint256",
          "name": "id",
          "type": "uint256"
        }
      ],
      "name": "URI",
      "type": "event"
    },
    {
      "inputs": [
        {
          "internalType": "address",
          "name": "account",
          "type": "address"
        },
        {
          "internalType": "uint256",
          "name": "id",
          "type": "uint256"
        }
      ],
      "name": "balanceOf",
      "outputs": [
        {
          "internalType": "uint256",
          "name": "",
          "type": "uint256"
        }
      ],
      "stateMutability": "view",
      "type": "function",
      "constant": true
    },
    {
      "inputs": [
        {
          "internalType": "address[]",
          "name": "accounts",
          "type": "address[]"
        },
        {
          "internalType": "uint256[]",
          "name": "ids",
          "type": "uint256[]"
        }
      ],
      "name": "balanceOfBatch",
      "outputs": [
        {
          "internalType": "uint256[]",
          "name": "",
          "type": "uint256[]"
        }
      ],
      "stateMutability": "view",
      "type": "function",
      "constant": true
    },
    {
      "inputs": [],
      "name": "id_CAR_SKIN",
      "outputs": [
        {
          "internalType": "uint256",
          "name": "",
          "type": "uint256"
        }
      ],
      "stateMutability": "view",
      "type": "function",
      "constant": true
    },
    {
      "inputs": [],
      "name": "id_DRESS_SKIN",
      "outputs": [
        {
          "internalType": "uint256",
          "name": "",
          "type": "uint256"
        }
      ],
      "stateMutability": "view",
      "type": "function",
      "constant": true
    },
    {
      "inputs": [],
      "name": "id_GOLD_COINS",
      "outputs": [
        {
          "internalType": "uint256",
          "name": "",
          "type": "uint256"
        }
      ],
      "stateMutability": "view",
      "type": "function",
      "constant": true
    },
    {
      "inputs": [],
      "name": "id_GUN_SKIN",
      "outputs": [
        {
          "internalType": "uint256",
          "name": "",
          "type": "uint256"
        }
      ],
      "stateMutability": "view",
      "type": "function",
      "constant": true
    },
    {
      "inputs": [],
      "name": "id_SILVER_COINS",
      "outputs": [
        {
          "internalType": "uint256",
          "name": "",
          "type": "uint256"
        }
      ],
      "stateMutability": "view",
      "type": "function",
      "constant": true
    },
    {
      "inputs": [
        {
          "internalType": "address",
          "name": "account",
          "type": "address"
        },
        {
          "internalType": "address",
          "name": "operator",
          "type": "address"
        }
      ],
      "name": "isApprovedForAll",
      "outputs": [
        {
          "internalType": "bool",
          "name": "",
          "type": "bool"
        }
      ],
      "stateMutability": "view",
      "type": "function",
      "constant": true
    },
    {
      "inputs": [],
      "name": "owner",
      "outputs": [
        {
          "internalType": "address",
          "name": "",
          "type": "address"
        }
      ],
      "stateMutability": "view",
      "type": "function",
      "constant": true
    },
    {
      "inputs": [],
      "name": "renounceOwnership",
      "outputs": [],
      "stateMutability": "nonpayable",
      "type": "function"
    },
    {
      "inputs": [
        {
          "internalType": "address",
          "name": "from",
          "type": "address"
        },
        {
          "internalType": "address",
          "name": "to",
          "type": "address"
        },
        {
          "internalType": "uint256[]",
          "name": "ids",
          "type": "uint256[]"
        },
        {
          "internalType": "uint256[]",
          "name": "amounts",
          "type": "uint256[]"
        },
        {
          "internalType": "bytes",
          "name": "data",
          "type": "bytes"
        }
      ],
      "name": "safeBatchTransferFrom",
      "outputs": [],
      "stateMutability": "nonpayable",
      "type": "function"
    },
    {
      "inputs": [
        {
          "internalType": "address",
          "name": "from",
          "type": "address"
        },
        {
          "internalType": "address",
          "name": "to",
          "type": "address"
        },
        {
          "internalType": "uint256",
          "name": "id",
          "type": "uint256"
        },
        {
          "internalType": "uint256",
          "name": "amount",
          "type": "uint256"
        },
        {
          "internalType": "bytes",
          "name": "data",
          "type": "bytes"
        }
      ],
      "name": "safeTransferFrom",
      "outputs": [],
      "stateMutability": "nonpayable",
      "type": "function"
    },
    {
      "inputs": [
        {
          "internalType": "address",
          "name": "operator",
          "type": "address"
        },
        {
          "internalType": "bool",
          "name": "approved",
          "type": "bool"
        }
      ],
      "name": "setApprovalForAll",
      "outputs": [],
      "stateMutability": "nonpayable",
      "type": "function"
    },
    {
      "inputs": [
        {
          "internalType": "bytes4",
          "name": "interfaceId",
          "type": "bytes4"
        }
      ],
      "name": "supportsInterface",
      "outputs": [
        {
          "internalType": "bool",
          "name": "",
          "type": "bool"
        }
      ],
      "stateMutability": "view",
      "type": "function",
      "constant": true
    },
    {
      "inputs": [
        {
          "internalType": "address",
          "name": "newOwner",
          "type": "address"
        }
      ],
      "name": "transferOwnership",
      "outputs": [],
      "stateMutability": "nonpayable",
      "type": "function"
    },
    {
      "inputs": [
        {
          "internalType": "uint256",
          "name": "",
          "type": "uint256"
        }
      ],
      "name": "uri",
      "outputs": [
        {
          "internalType": "string",
          "name": "",
          "type": "string"
        }
      ],
      "stateMutability": "view",
      "type": "function",
      "constant": true
    },
    {
      "inputs": [
        {
          "internalType": "string",
          "name": "newuri",
          "type": "string"
        }
      ],
      "name": "setURI",
      "outputs": [],
      "stateMutability": "nonpayable",
      "type": "function"
    },
    {
      "inputs": [
        {
          "internalType": "uint256",
          "name": "_id",
          "type": "uint256"
        }
      ],
      "name": "getMaxMintAmount",
      "outputs": [
        {
          "internalType": "uint256",
          "name": "",
          "type": "uint256"
        }
      ],
      "stateMutability": "view",
      "type": "function",
      "constant": true
    },
    {
      "inputs": [
        {
          "internalType": "address",
          "name": "account",
          "type": "address"
        },
        {
          "internalType": "uint256",
          "name": "id",
          "type": "uint256"
        },
        {
          "internalType": "uint256",
          "name": "_amount",
          "type": "uint256"
        }
      ],
      "name": "mint",
      "outputs": [],
      "stateMutability": "nonpayable",
      "type": "function"
    },
    {
      "inputs": [
        {
          "internalType": "address",
          "name": "to",
          "type": "address"
        },
        {
          "internalType": "uint256[]",
          "name": "_ids",
          "type": "uint256[]"
        },
        {
          "internalType": "uint256[]",
          "name": "_amounts",
          "type": "uint256[]"
        }
      ],
      "name": "mintBatch",
      "outputs": [],
      "stateMutability": "nonpayable",
      "type": "function"
    }
  ],
  "bytecode": "0x60806040523480156200001157600080fd5b506040518060400160405280601381526020017f6578616d706c652d6e66742d67616d652e696f0000000000000000000000000081525062000059816200010260201b60201c565b506200007a6200006e6200011e60201b60201c565b6200012660201b60201c565b60016004600080815260200190815260200160002081905550600160046000600181526020019081526020016000208190555060016004600060028152602001908152602001600020819055506103e8600460006003815260200190815260200160002081905550606460046000600481526020019081526020016000208190555062000301565b80600290805190602001906200011a929190620001ec565b5050565b600033905090565b6000600360009054906101000a900473ffffffffffffffffffffffffffffffffffffffff16905081600360006101000a81548173ffffffffffffffffffffffffffffffffffffffff021916908373ffffffffffffffffffffffffffffffffffffffff1602179055508173ffffffffffffffffffffffffffffffffffffffff168173ffffffffffffffffffffffffffffffffffffffff167f8be0079c531659141344cd1fd0a4f28419497f9722a3daafe3b4186f6b6457e060405160405180910390a35050565b828054620001fa906200029c565b90600052602060002090601f0160209004810192826200021e57600085556200026a565b82601f106200023957805160ff19168380011785556200026a565b828001600101855582156200026a579182015b82811115620002695782518255916020019190600101906200024c565b5b5090506200027991906200027d565b5090565b5b80821115620002985760008160009055506001016200027e565b5090565b60006002820490506001821680620002b557607f821691505b60208210811415620002cc57620002cb620002d2565b5b50919050565b7f4e487b7100000000000000000000000000000000000000000000000000000000600052602260045260246000fd5b6134b380620003116000396000f3fe608060405234801561001057600080fd5b506004361061012b5760003560e01c80637d87e99d116100ad578063d81d0a1511610071578063d81d0a151461031e578063ddbc360d1461033a578063e985e9c51461036a578063f242432a1461039a578063f2fde38b146103b65761012b565b80637d87e99d1461028a5780638da5cb5b146102a8578063a22cb465146102c6578063aaccf1ca146102e2578063b19d2f74146103005761012b565b80631b141102116100f45780631b141102146101f85780632eb2c2d614610216578063320fd57e146102325780634e1273f414610250578063715018a6146102805761012b565b8062fdd58e1461013057806301ffc9a71461016057806302fe5305146101905780630e89341c146101ac578063156e29f6146101dc575b600080fd5b61014a600480360381019061014591906122e2565b6103d2565b6040516101579190612afe565b60405180910390f35b61017a600480360381019061017591906123ed565b61049b565b6040516101879190612901565b60405180910390f35b6101aa60048036038101906101a59190612447565b61057d565b005b6101c660048036038101906101c19190612490565b610605565b6040516101d3919061291c565b60405180910390f35b6101f660048036038101906101f19190612322565b610699565b005b61020061070f565b60405161020d9190612afe565b60405180910390f35b610230600480360381019061022b91906120b1565b610714565b005b61023a6107b5565b6040516102479190612afe565b60405180910390f35b61026a60048036038101906102659190612375565b6107ba565b60405161027791906128a8565b60405180910390f35b6102886108d3565b005b61029261095b565b60405161029f9190612afe565b60405180910390f35b6102b0610960565b6040516102bd91906127cb565b60405180910390f35b6102e060048036038101906102db91906122a2565b61098a565b005b6102ea610b0b565b6040516102f79190612afe565b60405180910390f35b610308610b10565b6040516103159190612afe565b60405180910390f35b61033860048036038101906103339190612217565b610b15565b005b610354600480360381019061034f9190612490565b610b3f565b6040516103619190612afe565b60405180910390f35b610384600480360381019061037f9190612071565b610b5c565b6040516103919190612901565b60405180910390f35b6103b460048036038101906103af9190612180565b610bf0565b005b6103d060048036038101906103cb9190612044565b610c91565b005b60008073ffffffffffffffffffffffffffffffffffffffff168373ffffffffffffffffffffffffffffffffffffffff161415610443576040517f08c379a000000000000000000000000000000000000000000000000000000000815260040161043a9061297e565b60405180910390fd5b60008083815260200190815260200160002060008473ffffffffffffffffffffffffffffffffffffffff1673ffffffffffffffffffffffffffffffffffffffff16815260200190815260200160002054905092915050565b60007fd9b67a26000000000000000000000000000000000000000000000000000000007bffffffffffffffffffffffffffffffffffffffffffffffffffffffff1916827bffffffffffffffffffffffffffffffffffffffffffffffffffffffff1916148061056657507f0e89341c000000000000000000000000000000000000000000000000000000007bffffffffffffffffffffffffffffffffffffffffffffffffffffffff1916827bffffffffffffffffffffffffffffffffffffffffffffffffffffffff1916145b80610576575061057582610d89565b5b9050919050565b610585610df3565b73ffffffffffffffffffffffffffffffffffffffff166105a3610960565b73ffffffffffffffffffffffffffffffffffffffff16146105f9576040517f08c379a00000000000000000000000000000000000000000000000000000000081526004016105f090612a3e565b60405180910390fd5b61060281610dfb565b50565b60606002805461061490612d9e565b80601f016020809104026020016040519081016040528092919081815260200182805461064090612d9e565b801561068d5780601f106106625761010080835404028352916020019161068d565b820191906000526020600020905b81548152906001019060200180831161067057829003601f168201915b50505050509050919050565b60046000838152602001908152602001600020548111156106ef576040517f08c379a00000000000000000000000000000000000000000000000000000000081526004016106e690612a5e565b60405180910390fd5b61070a83838360405180602001604052806000815250610e15565b505050565b600381565b61071c610df3565b73ffffffffffffffffffffffffffffffffffffffff168573ffffffffffffffffffffffffffffffffffffffff16148061076257506107618561075c610df3565b610b5c565b5b6107a1576040517f08c379a0000000000000000000000000000000000000000000000000000000008152600401610798906129fe565b60405180910390fd5b6107ae8585858585610fab565b5050505050565b600181565b60608151835114610800576040517f08c379a00000000000000000000000000000000000000000000000000000000081526004016107f790612a9e565b60405180910390fd5b6000835167ffffffffffffffff81111561081d5761081c612ed7565b5b60405190808252806020026020018201604052801561084b5781602001602082028036833780820191505090505b50905060005b84518110156108c8576108988582815181106108705761086f612ea8565b5b602002602001015185838151811061088b5761088a612ea8565b5b60200260200101516103d2565b8282815181106108ab576108aa612ea8565b5b602002602001018181525050806108c190612e01565b9050610851565b508091505092915050565b6108db610df3565b73ffffffffffffffffffffffffffffffffffffffff166108f9610960565b73ffffffffffffffffffffffffffffffffffffffff161461094f576040517f08c379a000000000000000000000000000000000000000000000000000000000815260040161094690612a3e565b60405180910390fd5b61095960006112bf565b565b600481565b6000600360009054906101000a900473ffffffffffffffffffffffffffffffffffffffff16905090565b8173ffffffffffffffffffffffffffffffffffffffff166109a9610df3565b73ffffffffffffffffffffffffffffffffffffffff161415610a00576040517f08c379a00000000000000000000000000000000000000000000000000000000081526004016109f790612a7e565b60405180910390fd5b8060016000610a0d610df3565b73ffffffffffffffffffffffffffffffffffffffff1673ffffffffffffffffffffffffffffffffffffffff16815260200190815260200160002060008473ffffffffffffffffffffffffffffffffffffffff1673ffffffffffffffffffffffffffffffffffffffff16815260200190815260200160002060006101000a81548160ff0219169083151502179055508173ffffffffffffffffffffffffffffffffffffffff16610aba610df3565b73ffffffffffffffffffffffffffffffffffffffff167f17307eab39ab6107e8899845ad3d59bd9653f200f220920489ca2b5937696c3183604051610aff9190612901565b60405180910390a35050565b600281565b600081565b610b1f8282611385565b610b3a83838360405180602001604052806000815250611419565b505050565b600060046000838152602001908152602001600020549050919050565b6000600160008473ffffffffffffffffffffffffffffffffffffffff1673ffffffffffffffffffffffffffffffffffffffff16815260200190815260200160002060008373ffffffffffffffffffffffffffffffffffffffff1673ffffffffffffffffffffffffffffffffffffffff16815260200190815260200160002060009054906101000a900460ff16905092915050565b610bf8610df3565b73ffffffffffffffffffffffffffffffffffffffff168573ffffffffffffffffffffffffffffffffffffffff161480610c3e5750610c3d85610c38610df3565b610b5c565b5b610c7d576040517f08c379a0000000000000000000000000000000000000000000000000000000008152600401610c74906129be565b60405180910390fd5b610c8a8585858585611637565b5050505050565b610c99610df3565b73ffffffffffffffffffffffffffffffffffffffff16610cb7610960565b73ffffffffffffffffffffffffffffffffffffffff1614610d0d576040517f08c379a0000000000000000000000000000000000000000000000000000000008152600401610d0490612a3e565b60405180910390fd5b600073ffffffffffffffffffffffffffffffffffffffff168173ffffffffffffffffffffffffffffffffffffffff161415610d7d576040517f08c379a0000000000000000000000000000000000000000000000000000000008152600401610d749061299e565b60405180910390fd5b610d86816112bf565b50565b60007f01ffc9a7000000000000000000000000000000000000000000000000000000007bffffffffffffffffffffffffffffffffffffffffffffffffffffffff1916827bffffffffffffffffffffffffffffffffffffffffffffffffffffffff1916149050919050565b600033905090565b8060029080519060200190610e11929190611d1c565b5050565b600073ffffffffffffffffffffffffffffffffffffffff168473ffffffffffffffffffffffffffffffffffffffff161415610e85576040517f08c379a0000000000000000000000000000000000000000000000000000000008152600401610e7c90612ade565b60405180910390fd5b6000610e8f610df3565b9050610eb081600087610ea1886118b9565b610eaa886118b9565b87611933565b8260008086815260200190815260200160002060008773ffffffffffffffffffffffffffffffffffffffff1673ffffffffffffffffffffffffffffffffffffffff1681526020019081526020016000206000828254610f0f9190612c92565b925050819055508473ffffffffffffffffffffffffffffffffffffffff16600073ffffffffffffffffffffffffffffffffffffffff168273ffffffffffffffffffffffffffffffffffffffff167fc3d58168c5ae7397731d063d5bbf3d657854427343f4c083240f7aacaa2d0f628787604051610f8d929190612b19565b60405180910390a4610fa48160008787878761193b565b5050505050565b8151835114610fef576040517f08c379a0000000000000000000000000000000000000000000000000000000008152600401610fe690612abe565b60405180910390fd5b600073ffffffffffffffffffffffffffffffffffffffff168473ffffffffffffffffffffffffffffffffffffffff16141561105f576040517f08c379a0000000000000000000000000000000000000000000000000000000008152600401611056906129de565b60405180910390fd5b6000611069610df3565b9050611079818787878787611933565b60005b845181101561122a57600085828151811061109a57611099612ea8565b5b6020026020010151905060008583815181106110b9576110b8612ea8565b5b60200260200101519050600080600084815260200190815260200160002060008b73ffffffffffffffffffffffffffffffffffffffff1673ffffffffffffffffffffffffffffffffffffffff1681526020019081526020016000205490508181101561115a576040517f08c379a000000000000000000000000000000000000000000000000000000000815260040161115190612a1e565b60405180910390fd5b81810360008085815260200190815260200160002060008c73ffffffffffffffffffffffffffffffffffffffff1673ffffffffffffffffffffffffffffffffffffffff168152602001908152602001600020819055508160008085815260200190815260200160002060008b73ffffffffffffffffffffffffffffffffffffffff1673ffffffffffffffffffffffffffffffffffffffff168152602001908152602001600020600082825461120f9190612c92565b925050819055505050508061122390612e01565b905061107c565b508473ffffffffffffffffffffffffffffffffffffffff168673ffffffffffffffffffffffffffffffffffffffff168273ffffffffffffffffffffffffffffffffffffffff167f4a39dc06d4c0dbc64b70af90fd698a233a518aa5d07e595d983b8c0526c8f7fb87876040516112a19291906128ca565b60405180910390a46112b7818787878787611b22565b505050505050565b6000600360009054906101000a900473ffffffffffffffffffffffffffffffffffffffff16905081600360006101000a81548173ffffffffffffffffffffffffffffffffffffffff021916908373ffffffffffffffffffffffffffffffffffffffff1602179055508173ffffffffffffffffffffffffffffffffffffffff168173ffffffffffffffffffffffffffffffffffffffff167f8be0079c531659141344cd1fd0a4f28419497f9722a3daafe3b4186f6b6457e060405160405180910390a35050565b60005b82518110156114145760046000828152602001908152602001600020548282815181106113b8576113b7612ea8565b5b60200260200101511115611401576040517f08c379a00000000000000000000000000000000000000000000000000000000081526004016113f890612a5e565b60405180910390fd5b808061140c90612e01565b915050611388565b505050565b600073ffffffffffffffffffffffffffffffffffffffff168473ffffffffffffffffffffffffffffffffffffffff161415611489576040517f08c379a000000000000000000000000000000000000000000000000000000000815260040161148090612ade565b60405180910390fd5b81518351146114cd576040517f08c379a00000000000000000000000000000000000000000000000000000000081526004016114c490612abe565b60405180910390fd5b60006114d7610df3565b90506114e881600087878787611933565b60005b84518110156115a15783818151811061150757611506612ea8565b5b602002602001015160008087848151811061152557611524612ea8565b5b6020026020010151815260200190815260200160002060008873ffffffffffffffffffffffffffffffffffffffff1673ffffffffffffffffffffffffffffffffffffffff16815260200190815260200160002060008282546115879190612c92565b92505081905550808061159990612e01565b9150506114eb565b508473ffffffffffffffffffffffffffffffffffffffff16600073ffffffffffffffffffffffffffffffffffffffff168273ffffffffffffffffffffffffffffffffffffffff167f4a39dc06d4c0dbc64b70af90fd698a233a518aa5d07e595d983b8c0526c8f7fb87876040516116199291906128ca565b60405180910390a461163081600087878787611b22565b5050505050565b600073ffffffffffffffffffffffffffffffffffffffff168473ffffffffffffffffffffffffffffffffffffffff1614156116a7576040517f08c379a000000000000000000000000000000000000000000000000000000000815260040161169e906129de565b60405180910390fd5b60006116b1610df3565b90506116d18187876116c2886118b9565b6116cb886118b9565b87611933565b600080600086815260200190815260200160002060008873ffffffffffffffffffffffffffffffffffffffff1673ffffffffffffffffffffffffffffffffffffffff16815260200190815260200160002054905083811015611768576040517f08c379a000000000000000000000000000000000000000000000000000000000815260040161175f90612a1e565b60405180910390fd5b83810360008087815260200190815260200160002060008973ffffffffffffffffffffffffffffffffffffffff1673ffffffffffffffffffffffffffffffffffffffff168152602001908152602001600020819055508360008087815260200190815260200160002060008873ffffffffffffffffffffffffffffffffffffffff1673ffffffffffffffffffffffffffffffffffffffff168152602001908152602001600020600082825461181d9190612c92565b925050819055508573ffffffffffffffffffffffffffffffffffffffff168773ffffffffffffffffffffffffffffffffffffffff168373ffffffffffffffffffffffffffffffffffffffff167fc3d58168c5ae7397731d063d5bbf3d657854427343f4c083240f7aacaa2d0f62888860405161189a929190612b19565b60405180910390a46118b082888888888861193b565b50505050505050565b60606000600167ffffffffffffffff8111156118d8576118d7612ed7565b5b6040519080825280602002602001820160405280156119065781602001602082028036833780820191505090505b509050828160008151811061191e5761191d612ea8565b5b60200260200101818152505080915050919050565b505050505050565b61195a8473ffffffffffffffffffffffffffffffffffffffff16611d09565b15611b1a578373ffffffffffffffffffffffffffffffffffffffff1663f23a6e6187878686866040518663ffffffff1660e01b81526004016119a095949392919061284e565b602060405180830381600087803b1580156119ba57600080fd5b505af19250505080156119eb57506040513d601f19601f820116820180604052508101906119e8919061241a565b60015b611a91576119f7612f06565b806308c379a01415611a545750611a0c61338b565b80611a175750611a56565b806040517f08c379a0000000000000000000000000000000000000000000000000000000008152600401611a4b919061291c565b60405180910390fd5b505b6040517f08c379a0000000000000000000000000000000000000000000000000000000008152600401611a889061293e565b60405180910390fd5b63f23a6e6160e01b7bffffffffffffffffffffffffffffffffffffffffffffffffffffffff1916817bffffffffffffffffffffffffffffffffffffffffffffffffffffffff191614611b18576040517f08c379a0000000000000000000000000000000000000000000000000000000008152600401611b0f9061295e565b60405180910390fd5b505b505050505050565b611b418473ffffffffffffffffffffffffffffffffffffffff16611d09565b15611d01578373ffffffffffffffffffffffffffffffffffffffff1663bc197c8187878686866040518663ffffffff1660e01b8152600401611b879594939291906127e6565b602060405180830381600087803b158015611ba157600080fd5b505af1925050508015611bd257506040513d601f19601f82011682018060405250810190611bcf919061241a565b60015b611c7857611bde612f06565b806308c379a01415611c3b5750611bf361338b565b80611bfe5750611c3d565b806040517f08c379a0000000000000000000000000000000000000000000000000000000008152600401611c32919061291c565b60405180910390fd5b505b6040517f08c379a0000000000000000000000000000000000000000000000000000000008152600401611c6f9061293e565b60405180910390fd5b63bc197c8160e01b7bffffffffffffffffffffffffffffffffffffffffffffffffffffffff1916817bffffffffffffffffffffffffffffffffffffffffffffffffffffffff191614611cff576040517f08c379a0000000000000000000000000000000000000000000000000000000008152600401611cf69061295e565b60405180910390fd5b505b505050505050565b600080823b905060008111915050919050565b828054611d2890612d9e565b90600052602060002090601f016020900481019282611d4a5760008555611d91565b82601f10611d6357805160ff1916838001178555611d91565b82800160010185558215611d91579182015b82811115611d90578251825591602001919060010190611d75565b5b509050611d9e9190611da2565b5090565b5b80821115611dbb576000816000905550600101611da3565b5090565b6000611dd2611dcd84612b67565b612b42565b90508083825260208201905082856020860282011115611df557611df4612f2d565b5b60005b85811015611e255781611e0b8882611f23565b845260208401935060208301925050600181019050611df8565b5050509392505050565b6000611e42611e3d84612b93565b612b42565b90508083825260208201905082856020860282011115611e6557611e64612f2d565b5b60005b85811015611e955781611e7b888261202f565b845260208401935060208301925050600181019050611e68565b5050509392505050565b6000611eb2611ead84612bbf565b612b42565b905082815260208101848484011115611ece57611ecd612f32565b5b611ed9848285612d5c565b509392505050565b6000611ef4611eef84612bf0565b612b42565b905082815260208101848484011115611f1057611f0f612f32565b5b611f1b848285612d5c565b509392505050565b600081359050611f3281613421565b92915050565b600082601f830112611f4d57611f4c612f28565b5b8135611f5d848260208601611dbf565b91505092915050565b600082601f830112611f7b57611f7a612f28565b5b8135611f8b848260208601611e2f565b91505092915050565b600081359050611fa381613438565b92915050565b600081359050611fb88161344f565b92915050565b600081519050611fcd8161344f565b92915050565b600082601f830112611fe857611fe7612f28565b5b8135611ff8848260208601611e9f565b91505092915050565b600082601f83011261201657612015612f28565b5b8135612026848260208601611ee1565b91505092915050565b60008135905061203e81613466565b92915050565b60006020828403121561205a57612059612f3c565b5b600061206884828501611f23565b91505092915050565b6000806040838503121561208857612087612f3c565b5b600061209685828601611f23565b92505060206120a785828601611f23565b9150509250929050565b600080600080600060a086880312156120cd576120cc612f3c565b5b60006120db88828901611f23565b95505060206120ec88828901611f23565b945050604086013567ffffffffffffffff81111561210d5761210c612f37565b5b61211988828901611f66565b935050606086013567ffffffffffffffff81111561213a57612139612f37565b5b61214688828901611f66565b925050608086013567ffffffffffffffff81111561216757612166612f37565b5b61217388828901611fd3565b9150509295509295909350565b600080600080600060a0868803121561219c5761219b612f3c565b5b60006121aa88828901611f23565b95505060206121bb88828901611f23565b94505060406121cc8882890161202f565b93505060606121dd8882890161202f565b925050608086013567ffffffffffffffff8111156121fe576121fd612f37565b5b61220a88828901611fd3565b9150509295509295909350565b6000806000606084860312156122305761222f612f3c565b5b600061223e86828701611f23565b935050602084013567ffffffffffffffff81111561225f5761225e612f37565b5b61226b86828701611f66565b925050604084013567ffffffffffffffff81111561228c5761228b612f37565b5b61229886828701611f66565b9150509250925092565b600080604083850312156122b9576122b8612f3c565b5b60006122c785828601611f23565b92505060206122d885828601611f94565b9150509250929050565b600080604083850312156122f9576122f8612f3c565b5b600061230785828601611f23565b92505060206123188582860161202f565b9150509250929050565b60008060006060848603121561233b5761233a612f3c565b5b600061234986828701611f23565b935050602061235a8682870161202f565b925050604061236b8682870161202f565b9150509250925092565b6000806040838503121561238c5761238b612f3c565b5b600083013567ffffffffffffffff8111156123aa576123a9612f37565b5b6123b685828601611f38565b925050602083013567ffffffffffffffff8111156123d7576123d6612f37565b5b6123e385828601611f66565b9150509250929050565b60006020828403121561240357612402612f3c565b5b600061241184828501611fa9565b91505092915050565b6000602082840312156124305761242f612f3c565b5b600061243e84828501611fbe565b91505092915050565b60006020828403121561245d5761245c612f3c565b5b600082013567ffffffffffffffff81111561247b5761247a612f37565b5b61248784828501612001565b91505092915050565b6000602082840312156124a6576124a5612f3c565b5b60006124b48482850161202f565b91505092915050565b60006124c983836127ad565b60208301905092915050565b6124de81612ce8565b82525050565b60006124ef82612c31565b6124f98185612c5f565b935061250483612c21565b8060005b8381101561253557815161251c88826124bd565b975061252783612c52565b925050600181019050612508565b5085935050505092915050565b61254b81612cfa565b82525050565b600061255c82612c3c565b6125668185612c70565b9350612576818560208601612d6b565b61257f81612f41565b840191505092915050565b600061259582612c47565b61259f8185612c81565b93506125af818560208601612d6b565b6125b881612f41565b840191505092915050565b60006125d0603483612c81565b91506125db82612f5f565b604082019050919050565b60006125f3602883612c81565b91506125fe82612fae565b604082019050919050565b6000612616602b83612c81565b915061262182612ffd565b604082019050919050565b6000612639602683612c81565b91506126448261304c565b604082019050919050565b600061265c602983612c81565b91506126678261309b565b604082019050919050565b600061267f602583612c81565b915061268a826130ea565b604082019050919050565b60006126a2603283612c81565b91506126ad82613139565b604082019050919050565b60006126c5602a83612c81565b91506126d082613188565b604082019050919050565b60006126e8602083612c81565b91506126f3826131d7565b602082019050919050565b600061270b603483612c81565b915061271682613200565b604082019050919050565b600061272e602983612c81565b91506127398261324f565b604082019050919050565b6000612751602983612c81565b915061275c8261329e565b604082019050919050565b6000612774602883612c81565b915061277f826132ed565b604082019050919050565b6000612797602183612c81565b91506127a28261333c565b604082019050919050565b6127b681612d52565b82525050565b6127c581612d52565b82525050565b60006020820190506127e060008301846124d5565b92915050565b600060a0820190506127fb60008301886124d5565b61280860208301876124d5565b818103604083015261281a81866124e4565b9050818103606083015261282e81856124e4565b905081810360808301526128428184612551565b90509695505050505050565b600060a08201905061286360008301886124d5565b61287060208301876124d5565b61287d60408301866127bc565b61288a60608301856127bc565b818103608083015261289c8184612551565b90509695505050505050565b600060208201905081810360008301526128c281846124e4565b905092915050565b600060408201905081810360008301526128e481856124e4565b905081810360208301526128f881846124e4565b90509392505050565b60006020820190506129166000830184612542565b92915050565b60006020820190508181036000830152612936818461258a565b905092915050565b60006020820190508181036000830152612957816125c3565b9050919050565b60006020820190508181036000830152612977816125e6565b9050919050565b6000602082019050818103600083015261299781612609565b9050919050565b600060208201905081810360008301526129b78161262c565b9050919050565b600060208201905081810360008301526129d78161264f565b9050919050565b600060208201905081810360008301526129f781612672565b9050919050565b60006020820190508181036000830152612a1781612695565b9050919050565b60006020820190508181036000830152612a37816126b8565b9050919050565b60006020820190508181036000830152612a57816126db565b9050919050565b60006020820190508181036000830152612a77816126fe565b9050919050565b60006020820190508181036000830152612a9781612721565b9050919050565b60006020820190508181036000830152612ab781612744565b9050919050565b60006020820190508181036000830152612ad781612767565b9050919050565b60006020820190508181036000830152612af78161278a565b9050919050565b6000602082019050612b1360008301846127bc565b92915050565b6000604082019050612b2e60008301856127bc565b612b3b60208301846127bc565b9392505050565b6000612b4c612b5d565b9050612b588282612dd0565b919050565b6000604051905090565b600067ffffffffffffffff821115612b8257612b81612ed7565b5b602082029050602081019050919050565b600067ffffffffffffffff821115612bae57612bad612ed7565b5b602082029050602081019050919050565b600067ffffffffffffffff821115612bda57612bd9612ed7565b5b612be382612f41565b9050602081019050919050565b600067ffffffffffffffff821115612c0b57612c0a612ed7565b5b612c1482612f41565b9050602081019050919050565b6000819050602082019050919050565b600081519050919050565b600081519050919050565b600081519050919050565b6000602082019050919050565b600082825260208201905092915050565b600082825260208201905092915050565b600082825260208201905092915050565b6000612c9d82612d52565b9150612ca883612d52565b9250827fffffffffffffffffffffffffffffffffffffffffffffffffffffffffffffffff03821115612cdd57612cdc612e4a565b5b828201905092915050565b6000612cf382612d32565b9050919050565b60008115159050919050565b60007fffffffff0000000000000000000000000000000000000000000000000000000082169050919050565b600073ffffffffffffffffffffffffffffffffffffffff82169050919050565b6000819050919050565b82818337600083830152505050565b60005b83811015612d89578082015181840152602081019050612d6e565b83811115612d98576000848401525b50505050565b60006002820490506001821680612db657607f821691505b60208210811415612dca57612dc9612e79565b5b50919050565b612dd982612f41565b810181811067ffffffffffffffff82111715612df857612df7612ed7565b5b80604052505050565b6000612e0c82612d52565b91507fffffffffffffffffffffffffffffffffffffffffffffffffffffffffffffffff821415612e3f57612e3e612e4a565b5b600182019050919050565b7f4e487b7100000000000000000000000000000000000000000000000000000000600052601160045260246000fd5b7f4e487b7100000000000000000000000000000000000000000000000000000000600052602260045260246000fd5b7f4e487b7100000000000000000000000000000000000000000000000000000000600052603260045260246000fd5b7f4e487b7100000000000000000000000000000000000000000000000000000000600052604160045260246000fd5b600060033d1115612f255760046000803e612f22600051612f52565b90505b90565b600080fd5b600080fd5b600080fd5b600080fd5b600080fd5b6000601f19601f8301169050919050565b60008160e01c9050919050565b7f455243313135353a207472616e7366657220746f206e6f6e204552433131353560008201527f526563656976657220696d706c656d656e746572000000000000000000000000602082015250565b7f455243313135353a204552433131353552656365697665722072656a6563746560008201527f6420746f6b656e73000000000000000000000000000000000000000000000000602082015250565b7f455243313135353a2062616c616e636520717565727920666f7220746865207a60008201527f65726f2061646472657373000000000000000000000000000000000000000000602082015250565b7f4f776e61626c653a206e6577206f776e657220697320746865207a65726f206160008201527f6464726573730000000000000000000000000000000000000000000000000000602082015250565b7f455243313135353a2063616c6c6572206973206e6f74206f776e6572206e6f7260008201527f20617070726f7665640000000000000000000000000000000000000000000000602082015250565b7f455243313135353a207472616e7366657220746f20746865207a65726f20616460008201527f6472657373000000000000000000000000000000000000000000000000000000602082015250565b7f455243313135353a207472616e736665722063616c6c6572206973206e6f742060008201527f6f776e6572206e6f7220617070726f7665640000000000000000000000000000602082015250565b7f455243313135353a20696e73756666696369656e742062616c616e636520666f60008201527f72207472616e7366657200000000000000000000000000000000000000000000602082015250565b7f4f776e61626c653a2063616c6c6572206973206e6f7420746865206f776e6572600082015250565b7f63616e6e6f74206d696e74206d6f7265207468616e207468652061737369676e60008201527f65642076616c7565206f6620746865206974656d000000000000000000000000602082015250565b7f455243313135353a2073657474696e6720617070726f76616c2073746174757360008201527f20666f722073656c660000000000000000000000000000000000000000000000602082015250565b7f455243313135353a206163636f756e747320616e6420696473206c656e67746860008201527f206d69736d617463680000000000000000000000000000000000000000000000602082015250565b7f455243313135353a2069647320616e6420616d6f756e7473206c656e6774682060008201527f6d69736d61746368000000000000000000000000000000000000000000000000602082015250565b7f455243313135353a206d696e7420746f20746865207a65726f2061646472657360008201527f7300000000000000000000000000000000000000000000000000000000000000602082015250565b600060443d101561339b5761341e565b6133a3612b5d565b60043d036004823e80513d602482011167ffffffffffffffff821117156133cb57505061341e565b808201805167ffffffffffffffff8111156133e9575050505061341e565b80602083010160043d03850181111561340657505050505061341e565b61341582602001850186612dd0565b82955050505050505b90565b61342a81612ce8565b811461343557600080fd5b50565b61344181612cfa565b811461344c57600080fd5b50565b61345881612d06565b811461346357600080fd5b50565b61346f81612d52565b811461347a57600080fd5b5056fea2646970667358221220815be318fad68dc35261c5b9659706dcd5e837ae4d3ec8fcbdb402ac2d4ce1b664736f6c63430008060033",
  "immutableReferences": {},
  "source": "// SPDX-License-Identifier: MIT\r\npragma solidity >=0.8.2;\r\n\r\nimport \"@openzeppelin/contracts/token/ERC1155/ERC1155.sol\";\r\nimport \"@openzeppelin/contracts/access/Ownable.sol\";\r\n\r\ncontract GameShop is ERC1155, Ownable {\r\n    \r\n    mapping(uint256 => uint256) private amounts;\r\n    \r\n    uint256 public constant id_DRESS_SKIN = 0;\r\n    uint256 public constant id_CAR_SKIN = 1;\r\n    uint256 public constant id_GUN_SKIN = 2;\r\n    uint256 public constant id_SILVER_COINS = 3;\r\n    uint256 public constant id_GOLD_COINS = 4;\r\n    \r\n    constructor() ERC1155(\"example-nft-game.io\")\r\n    {\r\n        amounts[0] = 1;\r\n        amounts[1] = 1;\r\n        amounts[2] = 1;\r\n        amounts[3] = 1000;\r\n        amounts[4] = 100;\r\n    }\r\n\r\n    function setURI(string memory newuri)\r\n    public\r\n    onlyOwner\r\n    {\r\n        _setURI(newuri);\r\n    }\r\n    \r\n    function getMaxMintAmount(uint _id)\r\n    public\r\n    view\r\n    returns(uint)\r\n    {\r\n        return amounts[_id];\r\n    }\r\n\r\n    function mint(address account, uint256 id, uint256 _amount)\r\n    public\r\n    {\r\n        require(_amount <= amounts[id], \"cannot mint more than the assigned value of the item\");\r\n        _mint(account, id, _amount, \"\");\r\n    }\r\n\r\n    function mintBatch(address to, uint256[] memory _ids, uint256[] memory _amounts)\r\n    public\r\n    {\r\n        preValidateMinting(_ids,_amounts);\r\n        _mintBatch(to, _ids, _amounts, \"\");\r\n    }\r\n    \r\n    function preValidateMinting(uint[] memory _ids, uint256[] memory _amounts)\r\n    internal\r\n    view\r\n    {\r\n        for(uint i=0; i < _ids.length; i++){\r\n            require(_amounts[i] <= amounts[i], \"cannot mint more than the assigned value of the item\");\r\n        }\r\n    }\r\n}",
  "sourcePath": "D:\\ERC1155\\contracts\\GameShop.sol",
  "compiler": {
    "name": "solc",
    "version": "0.8.6+commit.11564f7e.Emscripten.clang"
  },
  "schemaVersion": "3.4.2",
  "updatedAt": "2021-09-14T16:42:05.964Z",
  "networkType": "ethereum",
  "devdoc": {
    "kind": "dev",
    "methods": {
      "balanceOf(address,uint256)": {
        "details": "See {IERC1155-balanceOf}. Requirements: - `account` cannot be the zero address."
      },
      "balanceOfBatch(address[],uint256[])": {
        "details": "See {IERC1155-balanceOfBatch}. Requirements: - `accounts` and `ids` must have the same length."
      },
      "isApprovedForAll(address,address)": {
        "details": "See {IERC1155-isApprovedForAll}."
      },
      "owner()": {
        "details": "Returns the address of the current owner."
      },
      "renounceOwnership()": {
        "details": "Leaves the contract without owner. It will not be possible to call `onlyOwner` functions anymore. Can only be called by the current owner. NOTE: Renouncing ownership will leave the contract without an owner, thereby removing any functionality that is only available to the owner."
      },
      "safeBatchTransferFrom(address,address,uint256[],uint256[],bytes)": {
        "details": "See {IERC1155-safeBatchTransferFrom}."
      },
      "safeTransferFrom(address,address,uint256,uint256,bytes)": {
        "details": "See {IERC1155-safeTransferFrom}."
      },
      "setApprovalForAll(address,bool)": {
        "details": "See {IERC1155-setApprovalForAll}."
      },
      "supportsInterface(bytes4)": {
        "details": "See {IERC165-supportsInterface}."
      },
      "transferOwnership(address)": {
        "details": "Transfers ownership of the contract to a new account (`newOwner`). Can only be called by the current owner."
      },
      "uri(uint256)": {
        "details": "See {IERC1155MetadataURI-uri}. This implementation returns the same URI for *all* token types. It relies on the token type ID substitution mechanism https://eips.ethereum.org/EIPS/eip-1155#metadata[defined in the EIP]. Clients calling this function must replace the `\\{id\\}` substring with the actual token type ID."
      }
    },
    "version": 1
  },
  "userdoc": {
    "kind": "user",
    "methods": {},
    "version": 1
  }
}