{
  "contractName": "NFT",
  "abi": [
    {
      "inputs": [],
      "stateMutability": "nonpayable",
      "type": "constructor"
    },
    {
      "anonymous": false,
      "inputs": [
        {
          "indexed": true,
          "internalType": "address",
          "name": "owner",
          "type": "address"
        },
        {
          "indexed": true,
          "internalType": "address",
          "name": "approved",
          "type": "address"
        },
        {
          "indexed": true,
          "internalType": "uint256",
          "name": "tokenId",
          "type": "uint256"
        }
      ],
      "name": "Approval",
      "type": "event"
    },
    {
      "anonymous": false,
      "inputs": [
        {
          "indexed": true,
          "internalType": "address",
          "name": "owner",
          "type": "address"
        },
        {
          "indexed": true,
          "internalType": "address",
          "name": "operator",
          "type": "address"
        },
        {
          "indexed": false,
          "internalType": "bool",
          "name": "approved",
          "type": "bool"
        }
      ],
      "name": "ApprovalForAll",
      "type": "event"
    },
    {
      "anonymous": false,
      "inputs": [
        {
          "indexed": false,
          "internalType": "string",
          "name": "tokenURI",
          "type": "string"
        }
      ],
      "name": "Minted",
      "type": "event"
    },
    {
      "anonymous": false,
      "inputs": [
        {
          "indexed": false,
          "internalType": "uint256",
          "name": "tokenId",
          "type": "uint256"
        }
      ],
      "name": "TokenSold",
      "type": "event"
    },
    {
      "anonymous": false,
      "inputs": [
        {
          "indexed": true,
          "internalType": "address",
          "name": "from",
          "type": "address"
        },
        {
          "indexed": true,
          "internalType": "address",
          "name": "to",
          "type": "address"
        },
        {
          "indexed": true,
          "internalType": "uint256",
          "name": "tokenId",
          "type": "uint256"
        }
      ],
      "name": "Transfer",
      "type": "event"
    },
    {
      "inputs": [
        {
          "internalType": "address",
          "name": "to",
          "type": "address"
        },
        {
          "internalType": "uint256",
          "name": "tokenId",
          "type": "uint256"
        }
      ],
      "name": "approve",
      "outputs": [],
      "stateMutability": "nonpayable",
      "type": "function"
    },
    {
      "inputs": [
        {
          "internalType": "address",
          "name": "owner",
          "type": "address"
        }
      ],
      "name": "balanceOf",
      "outputs": [
        {
          "internalType": "uint256",
          "name": "",
          "type": "uint256"
        }
      ],
      "stateMutability": "view",
      "type": "function",
      "constant": true
    },
    {
      "inputs": [
        {
          "internalType": "uint256",
          "name": "tokenId",
          "type": "uint256"
        }
      ],
      "name": "getApproved",
      "outputs": [
        {
          "internalType": "address",
          "name": "",
          "type": "address"
        }
      ],
      "stateMutability": "view",
      "type": "function",
      "constant": true
    },
    {
      "inputs": [
        {
          "internalType": "address",
          "name": "owner",
          "type": "address"
        },
        {
          "internalType": "address",
          "name": "operator",
          "type": "address"
        }
      ],
      "name": "isApprovedForAll",
      "outputs": [
        {
          "internalType": "bool",
          "name": "",
          "type": "bool"
        }
      ],
      "stateMutability": "view",
      "type": "function",
      "constant": true
    },
    {
      "inputs": [],
      "name": "name",
      "outputs": [
        {
          "internalType": "string",
          "name": "",
          "type": "string"
        }
      ],
      "stateMutability": "view",
      "type": "function",
      "constant": true
    },
    {
      "inputs": [
        {
          "internalType": "uint256",
          "name": "tokenId",
          "type": "uint256"
        }
      ],
      "name": "ownerOf",
      "outputs": [
        {
          "internalType": "address",
          "name": "",
          "type": "address"
        }
      ],
      "stateMutability": "view",
      "type": "function",
      "constant": true
    },
    {
      "inputs": [
        {
          "internalType": "address",
          "name": "from",
          "type": "address"
        },
        {
          "internalType": "address",
          "name": "to",
          "type": "address"
        },
        {
          "internalType": "uint256",
          "name": "tokenId",
          "type": "uint256"
        }
      ],
      "name": "safeTransferFrom",
      "outputs": [],
      "stateMutability": "nonpayable",
      "type": "function"
    },
    {
      "inputs": [
        {
          "internalType": "address",
          "name": "from",
          "type": "address"
        },
        {
          "internalType": "address",
          "name": "to",
          "type": "address"
        },
        {
          "internalType": "uint256",
          "name": "tokenId",
          "type": "uint256"
        },
        {
          "internalType": "bytes",
          "name": "_data",
          "type": "bytes"
        }
      ],
      "name": "safeTransferFrom",
      "outputs": [],
      "stateMutability": "nonpayable",
      "type": "function"
    },
    {
      "inputs": [
        {
          "internalType": "address",
          "name": "operator",
          "type": "address"
        },
        {
          "internalType": "bool",
          "name": "approved",
          "type": "bool"
        }
      ],
      "name": "setApprovalForAll",
      "outputs": [],
      "stateMutability": "nonpayable",
      "type": "function"
    },
    {
      "inputs": [
        {
          "internalType": "bytes4",
          "name": "interfaceId",
          "type": "bytes4"
        }
      ],
      "name": "supportsInterface",
      "outputs": [
        {
          "internalType": "bool",
          "name": "",
          "type": "bool"
        }
      ],
      "stateMutability": "view",
      "type": "function",
      "constant": true
    },
    {
      "inputs": [],
      "name": "symbol",
      "outputs": [
        {
          "internalType": "string",
          "name": "",
          "type": "string"
        }
      ],
      "stateMutability": "view",
      "type": "function",
      "constant": true
    },
    {
      "inputs": [
        {
          "internalType": "address",
          "name": "from",
          "type": "address"
        },
        {
          "internalType": "address",
          "name": "to",
          "type": "address"
        },
        {
          "internalType": "uint256",
          "name": "tokenId",
          "type": "uint256"
        }
      ],
      "name": "transferFrom",
      "outputs": [],
      "stateMutability": "nonpayable",
      "type": "function"
    },
    {
      "inputs": [
        {
          "internalType": "address",
          "name": "_recipient",
          "type": "address"
        },
        {
          "internalType": "string",
          "name": "_uri",
          "type": "string"
        }
      ],
      "name": "mint",
      "outputs": [
        {
          "internalType": "uint256",
          "name": "",
          "type": "uint256"
        }
      ],
      "stateMutability": "nonpayable",
      "type": "function"
    },
    {
      "inputs": [
        {
          "internalType": "uint256",
          "name": "_id",
          "type": "uint256"
        },
        {
          "internalType": "uint256",
          "name": "_price",
          "type": "uint256"
        }
      ],
      "name": "listItemForSale",
      "outputs": [],
      "stateMutability": "nonpayable",
      "type": "function"
    },
    {
      "inputs": [
        {
          "internalType": "uint256",
          "name": "_tokenId",
          "type": "uint256"
        }
      ],
      "name": "getListItemPrice",
      "outputs": [
        {
          "internalType": "uint256",
          "name": "",
          "type": "uint256"
        }
      ],
      "stateMutability": "view",
      "type": "function",
      "constant": true
    },
    {
      "inputs": [
        {
          "internalType": "uint256",
          "name": "_tokenId",
          "type": "uint256"
        }
      ],
      "name": "buyListedItem",
      "outputs": [],
      "stateMutability": "payable",
      "type": "function",
      "payable": true
    },
    {
      "inputs": [
        {
          "internalType": "uint256",
          "name": "_tokenId",
          "type": "uint256"
        },
        {
          "internalType": "uint256",
          "name": "_price",
          "type": "uint256"
        }
      ],
      "name": "sellItem",
      "outputs": [],
      "stateMutability": "nonpayable",
      "type": "function"
    },
    {
      "inputs": [
        {
          "internalType": "uint256",
          "name": "_tokenId",
          "type": "uint256"
        }
      ],
      "name": "getItemPrice",
      "outputs": [
        {
          "internalType": "uint256",
          "name": "",
          "type": "uint256"
        }
      ],
      "stateMutability": "view",
      "type": "function",
      "constant": true
    },
    {
      "inputs": [
        {
          "internalType": "uint256",
          "name": "_tokenId",
          "type": "uint256"
        }
      ],
      "name": "buyItem",
      "outputs": [],
      "stateMutability": "payable",
      "type": "function",
      "payable": true
    },
    {
      "inputs": [
        {
          "internalType": "uint256",
          "name": "tokenId",
          "type": "uint256"
        }
      ],
      "name": "tokenURI",
      "outputs": [
        {
          "internalType": "string",
          "name": "",
          "type": "string"
        }
      ],
      "stateMutability": "view",
      "type": "function",
      "constant": true
    }
  ],
  "bytecode": "0x60806040523480156200001157600080fd5b506040518060400160405280601281526020017f4e6f6e2d66756e6769626c6520546f6b656e00000000000000000000000000008152506040518060400160405280600381526020017f4e46540000000000000000000000000000000000000000000000000000000000815250816000908051906020019062000096929190620000b8565b508060019080519060200190620000af929190620000b8565b505050620001cd565b828054620000c69062000168565b90600052602060002090601f016020900481019282620000ea576000855562000136565b82601f106200010557805160ff191683800117855562000136565b8280016001018555821562000136579182015b828111156200013557825182559160200191906001019062000118565b5b50905062000145919062000149565b5090565b5b80821115620001645760008160009055506001016200014a565b5090565b600060028204905060018216806200018157607f821691505b602082108114156200019857620001976200019e565b5b50919050565b7f4e487b7100000000000000000000000000000000000000000000000000000000600052602260045260246000fd5b613c7d80620001dd6000396000f3fe60806040526004361061011f5760003560e01c806370a08231116100a0578063c4100ded11610064578063c4100ded146103fa578063c87b56dd14610423578063d0def52114610460578063e7fb74c71461049d578063e985e9c5146104b95761011f565b806370a082311461030357806395d89b4114610340578063a22cb4651461036b578063ac9edf8f14610394578063b88d4fde146103d15761011f565b80632d923561116100e75780632d9235611461021b578063352b55621461024457806342842e0e146102605780634c4df870146102895780636352211e146102c65761011f565b806301ffc9a71461012457806306fdde0314610161578063081812fc1461018c578063095ea7b3146101c957806323b872dd146101f2575b600080fd5b34801561013057600080fd5b5061014b6004803603810190610146919061287d565b6104f6565b6040516101589190612de7565b60405180910390f35b34801561016d57600080fd5b506101766105d8565b6040516101839190612e02565b60405180910390f35b34801561019857600080fd5b506101b360048036038101906101ae91906128d7565b61066a565b6040516101c09190612d80565b60405180910390f35b3480156101d557600080fd5b506101f060048036038101906101eb919061283d565b6106ef565b005b3480156101fe57600080fd5b50610219600480360381019061021491906126cb565b610807565b005b34801561022757600080fd5b50610242600480360381019061023d9190612904565b610867565b005b61025e600480360381019061025991906128d7565b6109a8565b005b34801561026c57600080fd5b50610287600480360381019061028291906126cb565b610c99565b005b34801561029557600080fd5b506102b060048036038101906102ab91906128d7565b610cb9565b6040516102bd9190613124565b60405180910390f35b3480156102d257600080fd5b506102ed60048036038101906102e891906128d7565b610d8b565b6040516102fa9190612d80565b60405180910390f35b34801561030f57600080fd5b5061032a6004803603810190610325919061265e565b610e3d565b6040516103379190613124565b60405180910390f35b34801561034c57600080fd5b50610355610ef5565b6040516103629190612e02565b60405180910390f35b34801561037757600080fd5b50610392600480360381019061038d91906127a1565b610f87565b005b3480156103a057600080fd5b506103bb60048036038101906103b691906128d7565b611108565b6040516103c89190613124565b60405180910390f35b3480156103dd57600080fd5b506103f860048036038101906103f3919061271e565b6111da565b005b34801561040657600080fd5b50610421600480360381019061041c9190612904565b61123c565b005b34801561042f57600080fd5b5061044a600480360381019061044591906128d7565b6113d4565b6040516104579190612e02565b60405180910390f35b34801561046c57600080fd5b50610487600480360381019061048291906127e1565b6113e6565b6040516104949190613124565b60405180910390f35b6104b760048036038101906104b291906128d7565b6114d2565b005b3480156104c557600080fd5b506104e060048036038101906104db919061268b565b6116b2565b6040516104ed9190612de7565b60405180910390f35b60007f80ac58cd000000000000000000000000000000000000000000000000000000007bffffffffffffffffffffffffffffffffffffffffffffffffffffffff1916827bffffffffffffffffffffffffffffffffffffffffffffffffffffffff191614806105c157507f5b5e139f000000000000000000000000000000000000000000000000000000007bffffffffffffffffffffffffffffffffffffffffffffffffffffffff1916827bffffffffffffffffffffffffffffffffffffffffffffffffffffffff1916145b806105d157506105d082611746565b5b9050919050565b6060600080546105e79061337a565b80601f01602080910402602001604051908101604052809291908181526020018280546106139061337a565b80156106605780601f1061063557610100808354040283529160200191610660565b820191906000526020600020905b81548152906001019060200180831161064357829003601f168201915b5050505050905090565b6000610675826117b0565b6106b4576040517f08c379a00000000000000000000000000000000000000000000000000000000081526004016106ab90613064565b60405180910390fd5b6004600083815260200190815260200160002060009054906101000a900473ffffffffffffffffffffffffffffffffffffffff169050919050565b60006106fa82610d8b565b90508073ffffffffffffffffffffffffffffffffffffffff168373ffffffffffffffffffffffffffffffffffffffff16141561076b576040517f08c379a0000000000000000000000000000000000000000000000000000000008152600401610762906130c4565b60405180910390fd5b8073ffffffffffffffffffffffffffffffffffffffff1661078a61181c565b73ffffffffffffffffffffffffffffffffffffffff1614806107b957506107b8816107b361181c565b6116b2565b5b6107f8576040517f08c379a00000000000000000000000000000000000000000000000000000000081526004016107ef90612f64565b60405180910390fd5b6108028383611824565b505050565b61081861081261181c565b826118dd565b610857576040517f08c379a000000000000000000000000000000000000000000000000000000000815260040161084e906130e4565b60405180910390fd5b6108628383836119bb565b505050565b60011515600b600084815260200190815260200160002060009054906101000a900460ff161515146108ce576040517f08c379a00000000000000000000000000000000000000000000000000000000081526004016108c590612fe4565b60405180910390fd5b6108d7826117b0565b610916576040517f08c379a000000000000000000000000000000000000000000000000000000000815260040161090d90612e24565b60405180910390fd5b3373ffffffffffffffffffffffffffffffffffffffff1661093683610d8b565b73ffffffffffffffffffffffffffffffffffffffff161461098c576040517f08c379a000000000000000000000000000000000000000000000000000000000815260040161098390612e44565b60405180910390fd5b80600c6000848152602001908152602001600020819055505050565b6109b181610d8b565b73ffffffffffffffffffffffffffffffffffffffff163373ffffffffffffffffffffffffffffffffffffffff161415610a1f576040517f08c379a0000000000000000000000000000000000000000000000000000000008152600401610a1690612f44565b60405180910390fd5b610a28816117b0565b610a67576040517f08c379a0000000000000000000000000000000000000000000000000000000008152600401610a5e90612e24565b60405180910390fd5b60011515600a600083815260200190815260200160002060009054906101000a900460ff16151514610ace576040517f08c379a0000000000000000000000000000000000000000000000000000000008152600401610ac590613104565b60405180910390fd5b60086000828152602001908152602001600020543414610b23576040517f08c379a0000000000000000000000000000000000000000000000000000000008152600401610b1a90612f24565b60405180910390fd5b6009600082815260200190815260200160002060009054906101000a900473ffffffffffffffffffffffffffffffffffffffff1673ffffffffffffffffffffffffffffffffffffffff166108fc349081150290604051600060405180830381858888f19350505050158015610b9c573d6000803e3d6000fd5b50610bdb6009600083815260200190815260200160002060009054906101000a900473ffffffffffffffffffffffffffffffffffffffff1633836119bb565b6000600a600083815260200190815260200160002060006101000a81548160ff0219169083151502179055506000600d600083815260200190815260200160002060006101000a81548160ff0219169083151502179055506001600b600083815260200190815260200160002060006101000a81548160ff0219169083151502179055507f8fff6bda564affa5b24c7dbf928a4522d3612e78b10df7f83ce3c1e8662bfe1181604051610c8e9190613124565b60405180910390a150565b610cb4838383604051806020016040528060008152506111da565b505050565b6000610cc4826117b0565b610d03576040517f08c379a0000000000000000000000000000000000000000000000000000000008152600401610cfa90612e24565b60405180910390fd5b60011515600b600084815260200190815260200160002060009054906101000a900460ff16151514610d6a576040517f08c379a0000000000000000000000000000000000000000000000000000000008152600401610d6190612fe4565b60405180910390fd5b6000600c600084815260200190815260200160002054905080915050919050565b6000806002600084815260200190815260200160002060009054906101000a900473ffffffffffffffffffffffffffffffffffffffff169050600073ffffffffffffffffffffffffffffffffffffffff168173ffffffffffffffffffffffffffffffffffffffff161415610e34576040517f08c379a0000000000000000000000000000000000000000000000000000000008152600401610e2b90612fa4565b60405180910390fd5b80915050919050565b60008073ffffffffffffffffffffffffffffffffffffffff168273ffffffffffffffffffffffffffffffffffffffff161415610eae576040517f08c379a0000000000000000000000000000000000000000000000000000000008152600401610ea590612f84565b60405180910390fd5b600360008373ffffffffffffffffffffffffffffffffffffffff1673ffffffffffffffffffffffffffffffffffffffff168152602001908152602001600020549050919050565b606060018054610f049061337a565b80601f0160208091040260200160405190810160405280929190818152602001828054610f309061337a565b8015610f7d5780601f10610f5257610100808354040283529160200191610f7d565b820191906000526020600020905b815481529060010190602001808311610f6057829003601f168201915b5050505050905090565b610f8f61181c565b73ffffffffffffffffffffffffffffffffffffffff168273ffffffffffffffffffffffffffffffffffffffff161415610ffd576040517f08c379a0000000000000000000000000000000000000000000000000000000008152600401610ff490612ec4565b60405180910390fd5b806005600061100a61181c565b73ffffffffffffffffffffffffffffffffffffffff1673ffffffffffffffffffffffffffffffffffffffff16815260200190815260200160002060008473ffffffffffffffffffffffffffffffffffffffff1673ffffffffffffffffffffffffffffffffffffffff16815260200190815260200160002060006101000a81548160ff0219169083151502179055508173ffffffffffffffffffffffffffffffffffffffff166110b761181c565b73ffffffffffffffffffffffffffffffffffffffff167f17307eab39ab6107e8899845ad3d59bd9653f200f220920489ca2b5937696c31836040516110fc9190612de7565b60405180910390a35050565b6000611113826117b0565b611152576040517f08c379a000000000000000000000000000000000000000000000000000000000815260040161114990612e24565b60405180910390fd5b60011515600a600084815260200190815260200160002060009054906101000a900460ff161515146111b9576040517f08c379a00000000000000000000000000000000000000000000000000000000081526004016111b090613104565b60405180910390fd5b60006008600084815260200190815260200160002054905080915050919050565b6111eb6111e561181c565b836118dd565b61122a576040517f08c379a0000000000000000000000000000000000000000000000000000000008152600401611221906130e4565b60405180910390fd5b61123684848484611c17565b50505050565b3373ffffffffffffffffffffffffffffffffffffffff166009600084815260200190815260200160002060009054906101000a900473ffffffffffffffffffffffffffffffffffffffff1673ffffffffffffffffffffffffffffffffffffffff16146112dd576040517f08c379a00000000000000000000000000000000000000000000000000000000081526004016112d490613004565b60405180910390fd5b6112e6826117b0565b611325576040517f08c379a000000000000000000000000000000000000000000000000000000000815260040161131c90612e24565b60405180910390fd5b60011515600d600084815260200190815260200160002060009054906101000a900460ff1615151461138c576040517f08c379a000000000000000000000000000000000000000000000000000000000815260040161138390612ee4565b60405180910390fd5b8060086000848152602001908152602001600020819055506001600a600084815260200190815260200160002060006101000a81548160ff0219169083151502179055505050565b60606113df82611c73565b9050919050565b6000806113f36007611dc5565b90506113ff8482611dd3565b6114098184611df1565b336009600083815260200190815260200160002060006101000a81548173ffffffffffffffffffffffffffffffffffffffff021916908373ffffffffffffffffffffffffffffffffffffffff1602179055506001600d600083815260200190815260200160002060006101000a81548160ff0219169083151502179055506114916007611e65565b7f845020906442ad0651b44a75d9767153912bfa586416784cf8ead41b37b1dbf5836040516114c09190612e02565b60405180910390a18091505092915050565b6114db81610d8b565b73ffffffffffffffffffffffffffffffffffffffff163373ffffffffffffffffffffffffffffffffffffffff161415611549576040517f08c379a000000000000000000000000000000000000000000000000000000000815260040161154090612f44565b60405180910390fd5b611552816117b0565b611591576040517f08c379a000000000000000000000000000000000000000000000000000000000815260040161158890612e24565b60405180910390fd5b60011515600b600083815260200190815260200160002060009054906101000a900460ff161515146115f8576040517f08c379a00000000000000000000000000000000000000000000000000000000081526004016115ef90612fe4565b60405180910390fd5b34600c6000838152602001908152602001600020541461164d576040517f08c379a000000000000000000000000000000000000000000000000000000000815260040161164490612f24565b60405180910390fd5b61165681610d8b565b73ffffffffffffffffffffffffffffffffffffffff166108fc349081150290604051600060405180830381858888f1935050505015801561169b573d6000803e3d6000fd5b506116af6116a882610d8b565b33836119bb565b50565b6000600560008473ffffffffffffffffffffffffffffffffffffffff1673ffffffffffffffffffffffffffffffffffffffff16815260200190815260200160002060008373ffffffffffffffffffffffffffffffffffffffff1673ffffffffffffffffffffffffffffffffffffffff16815260200190815260200160002060009054906101000a900460ff16905092915050565b60007f01ffc9a7000000000000000000000000000000000000000000000000000000007bffffffffffffffffffffffffffffffffffffffffffffffffffffffff1916827bffffffffffffffffffffffffffffffffffffffffffffffffffffffff1916149050919050565b60008073ffffffffffffffffffffffffffffffffffffffff166002600084815260200190815260200160002060009054906101000a900473ffffffffffffffffffffffffffffffffffffffff1673ffffffffffffffffffffffffffffffffffffffff1614159050919050565b600033905090565b816004600083815260200190815260200160002060006101000a81548173ffffffffffffffffffffffffffffffffffffffff021916908373ffffffffffffffffffffffffffffffffffffffff160217905550808273ffffffffffffffffffffffffffffffffffffffff1661189783610d8b565b73ffffffffffffffffffffffffffffffffffffffff167f8c5be1e5ebec7d5bd14f71427d1e84f3dd0314c0f7b2291e5b200ac8c7c3b92560405160405180910390a45050565b60006118e8826117b0565b611927576040517f08c379a000000000000000000000000000000000000000000000000000000000815260040161191e90612f04565b60405180910390fd5b600061193283610d8b565b90508073ffffffffffffffffffffffffffffffffffffffff168473ffffffffffffffffffffffffffffffffffffffff1614806119a157508373ffffffffffffffffffffffffffffffffffffffff166119898461066a565b73ffffffffffffffffffffffffffffffffffffffff16145b806119b257506119b181856116b2565b5b91505092915050565b8273ffffffffffffffffffffffffffffffffffffffff166119db82610d8b565b73ffffffffffffffffffffffffffffffffffffffff1614611a31576040517f08c379a0000000000000000000000000000000000000000000000000000000008152600401611a2890613084565b60405180910390fd5b600073ffffffffffffffffffffffffffffffffffffffff168273ffffffffffffffffffffffffffffffffffffffff161415611aa1576040517f08c379a0000000000000000000000000000000000000000000000000000000008152600401611a9890612ea4565b60405180910390fd5b611aac838383611e7b565b611ab7600082611824565b6001600360008573ffffffffffffffffffffffffffffffffffffffff1673ffffffffffffffffffffffffffffffffffffffff1681526020019081526020016000206000828254611b079190613290565b925050819055506001600360008473ffffffffffffffffffffffffffffffffffffffff1673ffffffffffffffffffffffffffffffffffffffff1681526020019081526020016000206000828254611b5e9190613209565b92505081905550816002600083815260200190815260200160002060006101000a81548173ffffffffffffffffffffffffffffffffffffffff021916908373ffffffffffffffffffffffffffffffffffffffff160217905550808273ffffffffffffffffffffffffffffffffffffffff168473ffffffffffffffffffffffffffffffffffffffff167fddf252ad1be2c89b69c2b068fc378daa952ba7f163c4a11628f55a4df523b3ef60405160405180910390a4505050565b611c228484846119bb565b611c2e84848484611e80565b611c6d576040517f08c379a0000000000000000000000000000000000000000000000000000000008152600401611c6490612e64565b60405180910390fd5b50505050565b6060611c7e826117b0565b611cbd576040517f08c379a0000000000000000000000000000000000000000000000000000000008152600401611cb490613044565b60405180910390fd5b6000600660008481526020019081526020016000208054611cdd9061337a565b80601f0160208091040260200160405190810160405280929190818152602001828054611d099061337a565b8015611d565780601f10611d2b57610100808354040283529160200191611d56565b820191906000526020600020905b815481529060010190602001808311611d3957829003601f168201915b505050505090506000611d67612017565b9050600081511415611d7d578192505050611dc0565b600082511115611db2578082604051602001611d9a929190612d5c565b60405160208183030381529060405292505050611dc0565b611dbb8461202e565b925050505b919050565b600081600001549050919050565b611ded8282604051806020016040528060008152506120d5565b5050565b611dfa826117b0565b611e39576040517f08c379a0000000000000000000000000000000000000000000000000000000008152600401611e3090612fc4565b60405180910390fd5b80600660008481526020019081526020016000209080519060200190611e60929190612472565b505050565b6001816000016000828254019250508190555050565b505050565b6000611ea18473ffffffffffffffffffffffffffffffffffffffff16612130565b1561200a578373ffffffffffffffffffffffffffffffffffffffff1663150b7a02611eca61181c565b8786866040518563ffffffff1660e01b8152600401611eec9493929190612d9b565b602060405180830381600087803b158015611f0657600080fd5b505af1925050508015611f3757506040513d601f19601f82011682018060405250810190611f3491906128aa565b60015b611fba573d8060008114611f67576040519150601f19603f3d011682016040523d82523d6000602084013e611f6c565b606091505b50600081511415611fb2576040517f08c379a0000000000000000000000000000000000000000000000000000000008152600401611fa990612e64565b60405180910390fd5b805181602001fd5b63150b7a0260e01b7bffffffffffffffffffffffffffffffffffffffffffffffffffffffff1916817bffffffffffffffffffffffffffffffffffffffffffffffffffffffff19161491505061200f565b600190505b949350505050565b606060405180602001604052806000815250905090565b6060612039826117b0565b612078576040517f08c379a000000000000000000000000000000000000000000000000000000000815260040161206f906130a4565b60405180910390fd5b6000612082612017565b905060008151116120a257604051806020016040528060008152506120cd565b806120ac84612143565b6040516020016120bd929190612d5c565b6040516020818303038152906040525b915050919050565b6120df83836122a4565b6120ec6000848484611e80565b61212b576040517f08c379a000000000000000000000000000000000000000000000000000000000815260040161212290612e64565b60405180910390fd5b505050565b600080823b905060008111915050919050565b6060600082141561218b576040518060400160405280600181526020017f3000000000000000000000000000000000000000000000000000000000000000815250905061229f565b600082905060005b600082146121bd5780806121a6906133dd565b915050600a826121b6919061325f565b9150612193565b60008167ffffffffffffffff8111156121d9576121d8613513565b5b6040519080825280601f01601f19166020018201604052801561220b5781602001600182028036833780820191505090505b5090505b60008514612298576001826122249190613290565b9150600a856122339190613426565b603061223f9190613209565b60f81b818381518110612255576122546134e4565b5b60200101907effffffffffffffffffffffffffffffffffffffffffffffffffffffffffffff1916908160001a905350600a85612291919061325f565b945061220f565b8093505050505b919050565b600073ffffffffffffffffffffffffffffffffffffffff168273ffffffffffffffffffffffffffffffffffffffff161415612314576040517f08c379a000000000000000000000000000000000000000000000000000000000815260040161230b90613024565b60405180910390fd5b61231d816117b0565b1561235d576040517f08c379a000000000000000000000000000000000000000000000000000000000815260040161235490612e84565b60405180910390fd5b61236960008383611e7b565b6001600360008473ffffffffffffffffffffffffffffffffffffffff1673ffffffffffffffffffffffffffffffffffffffff16815260200190815260200160002060008282546123b99190613209565b92505081905550816002600083815260200190815260200160002060006101000a81548173ffffffffffffffffffffffffffffffffffffffff021916908373ffffffffffffffffffffffffffffffffffffffff160217905550808273ffffffffffffffffffffffffffffffffffffffff16600073ffffffffffffffffffffffffffffffffffffffff167fddf252ad1be2c89b69c2b068fc378daa952ba7f163c4a11628f55a4df523b3ef60405160405180910390a45050565b82805461247e9061337a565b90600052602060002090601f0160209004810192826124a057600085556124e7565b82601f106124b957805160ff19168380011785556124e7565b828001600101855582156124e7579182015b828111156124e65782518255916020019190600101906124cb565b5b5090506124f491906124f8565b5090565b5b808211156125115760008160009055506001016124f9565b5090565b600061252861252384613164565b61313f565b90508281526020810184848401111561254457612543613547565b5b61254f848285613338565b509392505050565b600061256a61256584613195565b61313f565b90508281526020810184848401111561258657612585613547565b5b612591848285613338565b509392505050565b6000813590506125a881613beb565b92915050565b6000813590506125bd81613c02565b92915050565b6000813590506125d281613c19565b92915050565b6000815190506125e781613c19565b92915050565b600082601f83011261260257612601613542565b5b8135612612848260208601612515565b91505092915050565b600082601f8301126126305761262f613542565b5b8135612640848260208601612557565b91505092915050565b60008135905061265881613c30565b92915050565b60006020828403121561267457612673613551565b5b600061268284828501612599565b91505092915050565b600080604083850312156126a2576126a1613551565b5b60006126b085828601612599565b92505060206126c185828601612599565b9150509250929050565b6000806000606084860312156126e4576126e3613551565b5b60006126f286828701612599565b935050602061270386828701612599565b925050604061271486828701612649565b9150509250925092565b6000806000806080858703121561273857612737613551565b5b600061274687828801612599565b945050602061275787828801612599565b935050604061276887828801612649565b925050606085013567ffffffffffffffff8111156127895761278861354c565b5b612795878288016125ed565b91505092959194509250565b600080604083850312156127b8576127b7613551565b5b60006127c685828601612599565b92505060206127d7858286016125ae565b9150509250929050565b600080604083850312156127f8576127f7613551565b5b600061280685828601612599565b925050602083013567ffffffffffffffff8111156128275761282661354c565b5b6128338582860161261b565b9150509250929050565b6000806040838503121561285457612853613551565b5b600061286285828601612599565b925050602061287385828601612649565b9150509250929050565b60006020828403121561289357612892613551565b5b60006128a1848285016125c3565b91505092915050565b6000602082840312156128c0576128bf613551565b5b60006128ce848285016125d8565b91505092915050565b6000602082840312156128ed576128ec613551565b5b60006128fb84828501612649565b91505092915050565b6000806040838503121561291b5761291a613551565b5b600061292985828601612649565b925050602061293a85828601612649565b9150509250929050565b61294d816132c4565b82525050565b61295c816132d6565b82525050565b600061296d826131c6565b61297781856131dc565b9350612987818560208601613347565b61299081613556565b840191505092915050565b60006129a6826131d1565b6129b081856131ed565b93506129c0818560208601613347565b6129c981613556565b840191505092915050565b60006129df826131d1565b6129e981856131fe565b93506129f9818560208601613347565b80840191505092915050565b6000612a126023836131ed565b9150612a1d82613567565b604082019050919050565b6000612a356023836131ed565b9150612a40826135b6565b604082019050919050565b6000612a586032836131ed565b9150612a6382613605565b604082019050919050565b6000612a7b601c836131ed565b9150612a8682613654565b602082019050919050565b6000612a9e6024836131ed565b9150612aa98261367d565b604082019050919050565b6000612ac16019836131ed565b9150612acc826136cc565b602082019050919050565b6000612ae46030836131ed565b9150612aef826136f5565b604082019050919050565b6000612b07602c836131ed565b9150612b1282613744565b604082019050919050565b6000612b2a6029836131ed565b9150612b3582613793565b604082019050919050565b6000612b4d601e836131ed565b9150612b58826137e2565b602082019050919050565b6000612b706038836131ed565b9150612b7b8261380b565b604082019050919050565b6000612b93602a836131ed565b9150612b9e8261385a565b604082019050919050565b6000612bb66029836131ed565b9150612bc1826138a9565b604082019050919050565b6000612bd9602e836131ed565b9150612be4826138f8565b604082019050919050565b6000612bfc6012836131ed565b9150612c0782613947565b602082019050919050565b6000612c1f6025836131ed565b9150612c2a82613970565b604082019050919050565b6000612c426020836131ed565b9150612c4d826139bf565b602082019050919050565b6000612c656031836131ed565b9150612c70826139e8565b604082019050919050565b6000612c88602c836131ed565b9150612c9382613a37565b604082019050919050565b6000612cab6029836131ed565b9150612cb682613a86565b604082019050919050565b6000612cce602f836131ed565b9150612cd982613ad5565b604082019050919050565b6000612cf16021836131ed565b9150612cfc82613b24565b604082019050919050565b6000612d146031836131ed565b9150612d1f82613b73565b604082019050919050565b6000612d376018836131ed565b9150612d4282613bc2565b602082019050919050565b612d568161332e565b82525050565b6000612d6882856129d4565b9150612d7482846129d4565b91508190509392505050565b6000602082019050612d956000830184612944565b92915050565b6000608082019050612db06000830187612944565b612dbd6020830186612944565b612dca6040830185612d4d565b8181036060830152612ddc8184612962565b905095945050505050565b6000602082019050612dfc6000830184612953565b92915050565b60006020820190508181036000830152612e1c818461299b565b905092915050565b60006020820190508181036000830152612e3d81612a05565b9050919050565b60006020820190508181036000830152612e5d81612a28565b9050919050565b60006020820190508181036000830152612e7d81612a4b565b9050919050565b60006020820190508181036000830152612e9d81612a6e565b9050919050565b60006020820190508181036000830152612ebd81612a91565b9050919050565b60006020820190508181036000830152612edd81612ab4565b9050919050565b60006020820190508181036000830152612efd81612ad7565b9050919050565b60006020820190508181036000830152612f1d81612afa565b9050919050565b60006020820190508181036000830152612f3d81612b1d565b9050919050565b60006020820190508181036000830152612f5d81612b40565b9050919050565b60006020820190508181036000830152612f7d81612b63565b9050919050565b60006020820190508181036000830152612f9d81612b86565b9050919050565b60006020820190508181036000830152612fbd81612ba9565b9050919050565b60006020820190508181036000830152612fdd81612bcc565b9050919050565b60006020820190508181036000830152612ffd81612bef565b9050919050565b6000602082019050818103600083015261301d81612c12565b9050919050565b6000602082019050818103600083015261303d81612c35565b9050919050565b6000602082019050818103600083015261305d81612c58565b9050919050565b6000602082019050818103600083015261307d81612c7b565b9050919050565b6000602082019050818103600083015261309d81612c9e565b9050919050565b600060208201905081810360008301526130bd81612cc1565b9050919050565b600060208201905081810360008301526130dd81612ce4565b9050919050565b600060208201905081810360008301526130fd81612d07565b9050919050565b6000602082019050818103600083015261311d81612d2a565b9050919050565b60006020820190506131396000830184612d4d565b92915050565b600061314961315a565b905061315582826133ac565b919050565b6000604051905090565b600067ffffffffffffffff82111561317f5761317e613513565b5b61318882613556565b9050602081019050919050565b600067ffffffffffffffff8211156131b0576131af613513565b5b6131b982613556565b9050602081019050919050565b600081519050919050565b600081519050919050565b600082825260208201905092915050565b600082825260208201905092915050565b600081905092915050565b60006132148261332e565b915061321f8361332e565b9250827fffffffffffffffffffffffffffffffffffffffffffffffffffffffffffffffff0382111561325457613253613457565b5b828201905092915050565b600061326a8261332e565b91506132758361332e565b92508261328557613284613486565b5b828204905092915050565b600061329b8261332e565b91506132a68361332e565b9250828210156132b9576132b8613457565b5b828203905092915050565b60006132cf8261330e565b9050919050565b60008115159050919050565b60007fffffffff0000000000000000000000000000000000000000000000000000000082169050919050565b600073ffffffffffffffffffffffffffffffffffffffff82169050919050565b6000819050919050565b82818337600083830152505050565b60005b8381101561336557808201518184015260208101905061334a565b83811115613374576000848401525b50505050565b6000600282049050600182168061339257607f821691505b602082108114156133a6576133a56134b5565b5b50919050565b6133b582613556565b810181811067ffffffffffffffff821117156133d4576133d3613513565b5b80604052505050565b60006133e88261332e565b91507fffffffffffffffffffffffffffffffffffffffffffffffffffffffffffffffff82141561341b5761341a613457565b5b600182019050919050565b60006134318261332e565b915061343c8361332e565b92508261344c5761344b613486565b5b828206905092915050565b7f4e487b7100000000000000000000000000000000000000000000000000000000600052601160045260246000fd5b7f4e487b7100000000000000000000000000000000000000000000000000000000600052601260045260246000fd5b7f4e487b7100000000000000000000000000000000000000000000000000000000600052602260045260246000fd5b7f4e487b7100000000000000000000000000000000000000000000000000000000600052603260045260246000fd5b7f4e487b7100000000000000000000000000000000000000000000000000000000600052604160045260246000fd5b600080fd5b600080fd5b600080fd5b600080fd5b6000601f19601f8301169050919050565b7f5468697320617373657420686173206e6f74206265656e206d696e746564207960008201527f65742e0000000000000000000000000000000000000000000000000000000000602082015250565b7f596f7520617265206e6f7420746865206f776e6572206f66207468697320617360008201527f7365740000000000000000000000000000000000000000000000000000000000602082015250565b7f4552433732313a207472616e7366657220746f206e6f6e20455243373231526560008201527f63656976657220696d706c656d656e7465720000000000000000000000000000602082015250565b7f4552433732313a20746f6b656e20616c7265616479206d696e74656400000000600082015250565b7f4552433732313a207472616e7366657220746f20746865207a65726f2061646460008201527f7265737300000000000000000000000000000000000000000000000000000000602082015250565b7f4552433732313a20617070726f766520746f2063616c6c657200000000000000600082015250565b7f54686520617373657420686173206265656e206c697374656420666f7220736160008201527f6c65206f6e636520616c72656164792e00000000000000000000000000000000602082015250565b7f4552433732313a206f70657261746f7220717565727920666f72206e6f6e657860008201527f697374656e7420746f6b656e0000000000000000000000000000000000000000602082015250565b7f5472616e7366657220746865207265717569726564207072696365206f66207460008201527f68652061737365742e0000000000000000000000000000000000000000000000602082015250565b7f596f752063616e6e6f742062757920796f7572206f776e2061737365742e0000600082015250565b7f4552433732313a20617070726f76652063616c6c6572206973206e6f74206f7760008201527f6e6572206e6f7220617070726f76656420666f7220616c6c0000000000000000602082015250565b7f4552433732313a2062616c616e636520717565727920666f7220746865207a6560008201527f726f206164647265737300000000000000000000000000000000000000000000602082015250565b7f4552433732313a206f776e657220717565727920666f72206e6f6e657869737460008201527f656e7420746f6b656e0000000000000000000000000000000000000000000000602082015250565b7f45524337323155524953746f726167653a2055524920736574206f66206e6f6e60008201527f6578697374656e7420746f6b656e000000000000000000000000000000000000602082015250565b7f4e6f7420666f72207472616465207965742e0000000000000000000000000000600082015250565b7f596f7520617265206e6f7420746865206d696e746572206f662074686973206160008201527f737365742e000000000000000000000000000000000000000000000000000000602082015250565b7f4552433732313a206d696e7420746f20746865207a65726f2061646472657373600082015250565b7f45524337323155524953746f726167653a2055524920717565727920666f722060008201527f6e6f6e6578697374656e7420746f6b656e000000000000000000000000000000602082015250565b7f4552433732313a20617070726f76656420717565727920666f72206e6f6e657860008201527f697374656e7420746f6b656e0000000000000000000000000000000000000000602082015250565b7f4552433732313a207472616e73666572206f6620746f6b656e2074686174206960008201527f73206e6f74206f776e0000000000000000000000000000000000000000000000602082015250565b7f4552433732314d657461646174613a2055524920717565727920666f72206e6f60008201527f6e6578697374656e7420746f6b656e0000000000000000000000000000000000602082015250565b7f4552433732313a20617070726f76616c20746f2063757272656e74206f776e6560008201527f7200000000000000000000000000000000000000000000000000000000000000602082015250565b7f4552433732313a207472616e736665722063616c6c6572206973206e6f74206f60008201527f776e6572206e6f7220617070726f766564000000000000000000000000000000602082015250565b7f4e6f74206c697374656420666f722073616c65207965742e0000000000000000600082015250565b613bf4816132c4565b8114613bff57600080fd5b50565b613c0b816132d6565b8114613c1657600080fd5b50565b613c22816132e2565b8114613c2d57600080fd5b50565b613c398161332e565b8114613c4457600080fd5b5056fea2646970667358221220ce0f73eec27b0be5b7af319d84fecd7fbf8b7041b5c46de322f4f72ae2516ec764736f6c63430008060033",
  "immutableReferences": {},
  "source": "// SPDX-License-Identifier: MIT\r\n\r\npragma solidity >=0.8.4;\r\n\r\nimport \"@openzeppelin/contracts/token/ERC721/ERC721.sol\";\r\nimport \"@openzeppelin/contracts/token/ERC721/extensions/ERC721URIStorage.sol\";\r\nimport \"@openzeppelin/contracts/utils/Counters.sol\";\r\n\r\ncontract NFT is ERC721, ERC721URIStorage  {\r\n    using Counters for Counters.Counter;\r\n    \r\n    event TokenSold(uint256 tokenId);\r\n    event Minted(string tokenURI);\r\n    \r\n    Counters.Counter private _tokenIds;\r\n    \r\n    mapping(uint256 => uint256) internal tokenListPrices;\r\n    mapping(uint256 => address) internal tokenMinters;\r\n    mapping(uint256 => bool) internal listed;\r\n    mapping(uint256 => bool) internal forTrade;\r\n    mapping(uint256 => uint256) internal tokenTradePrices;\r\n    mapping(uint256 => bool) internal canBeListed;\r\n\r\n    constructor() ERC721(\"Non-fungible Token\", \"NFT\") {}\r\n    \r\n    function mint(address _recipient, string memory _uri)\r\n        public\r\n        returns (uint256)\r\n    {\r\n        uint256 newId = _tokenIds.current();\r\n        _safeMint(_recipient, newId);\r\n        _setTokenURI(newId, _uri);\r\n        tokenMinters[newId] = msg.sender;\r\n        canBeListed[newId] = true;\r\n        _tokenIds.increment();\r\n        \r\n        emit Minted(_uri);\r\n        return newId;\r\n    }\r\n    \r\n    function listItemForSale(uint _id, uint _price) // can be called only by the minter\r\n        public\r\n    {\r\n        require(tokenMinters[_id] == msg.sender, \"You are not the minter of this asset.\");\r\n        require(_exists(_id), \"This asset has not been minted yet.\");\r\n        require(canBeListed[_id] == true, \"The asset has been listed for sale once already.\");\r\n        tokenListPrices[_id] = _price;\r\n        listed[_id] = true;\r\n    }\r\n    \r\n    function getListItemPrice(uint _tokenId)\r\n        public\r\n        view\r\n        returns (uint)\r\n    {\r\n        require(_exists(_tokenId), \"This asset has not been minted yet.\");\r\n        require(listed[_tokenId] == true, \"Not listed for sale yet.\");\r\n        uint price = tokenListPrices[_tokenId];\r\n        return price;\r\n    }\r\n\r\n    function buyListedItem(uint256 _tokenId)\r\n        public\r\n        payable\r\n    {\r\n        require(msg.sender != ownerOf(_tokenId), \"You cannot buy your own asset.\");\r\n        require(_exists(_tokenId), \"This asset has not been minted yet.\");\r\n        require(listed[_tokenId] == true, \"Not listed for sale yet.\");\r\n        require(msg.value == tokenListPrices[_tokenId], \"Transfer the required price of the asset.\");\r\n        payable(tokenMinters[_tokenId]).transfer(msg.value);\r\n        _transfer(tokenMinters[_tokenId], msg.sender, _tokenId);\r\n        listed[_tokenId] = false;\r\n        canBeListed[_tokenId] = false;\r\n        forTrade[_tokenId] = true;\r\n        \r\n        emit TokenSold(_tokenId);\r\n    }\r\n    \r\n    //TRADING FUNCTIONS\r\n    \r\n    function sellItem(uint _tokenId, uint _price)\r\n        public\r\n    {\r\n        require(forTrade[_tokenId] == true, \"Not for trade yet.\");\r\n        require(_exists(_tokenId), \"This asset has not been minted yet.\");\r\n        require(ownerOf(_tokenId) == msg.sender, \"You are not the owner of this asset\");\r\n        tokenTradePrices[_tokenId] = _price;\r\n    }\r\n    \r\n    function getItemPrice(uint _tokenId)\r\n        public\r\n        view\r\n        returns (uint)\r\n    {\r\n        require(_exists(_tokenId), \"This asset has not been minted yet.\");\r\n        require(forTrade[_tokenId] == true, \"Not for trade yet.\");\r\n        uint price = tokenTradePrices[_tokenId];\r\n        return price;\r\n    }\r\n    \r\n    function buyItem(uint _tokenId)\r\n        public\r\n        payable\r\n    {\r\n        require(msg.sender != ownerOf(_tokenId), \"You cannot buy your own asset.\");\r\n        require(_exists(_tokenId), \"This asset has not been minted yet.\");\r\n        require(forTrade[_tokenId] == true, \"Not for trade yet.\");\r\n        require(tokenTradePrices[_tokenId] == msg.value, \"Transfer the required price of the asset.\");\r\n        payable(ownerOf(_tokenId)).transfer(msg.value);\r\n        _transfer(ownerOf(_tokenId), msg.sender, _tokenId);\r\n    }\r\n    \r\n    // The following functions are overrides required by Solidity.\r\n    \r\n    function tokenURI(uint256 tokenId)\r\n        public\r\n        view\r\n        override(ERC721, ERC721URIStorage)\r\n        returns (string memory)\r\n    {\r\n        return super.tokenURI(tokenId);\r\n    }\r\n    \r\n    function _burn(uint256 tokenId)\r\n        internal\r\n        override(ERC721, ERC721URIStorage)\r\n    {\r\n        super._burn(tokenId);\r\n    }\r\n\r\n}",
  "sourcePath": "D:\\Smart_Contracts_practice\\NFT_2\\contracts\\NFT.sol",
  "compiler": {
    "name": "solc",
    "version": "0.8.6+commit.11564f7e.Emscripten.clang"
  },
  "schemaVersion": "3.4.2",
  "updatedAt": "2021-09-09T09:35:43.849Z",
  "networkType": "ethereum",
  "devdoc": {
    "kind": "dev",
    "methods": {
      "approve(address,uint256)": {
        "details": "See {IERC721-approve}."
      },
      "balanceOf(address)": {
        "details": "See {IERC721-balanceOf}."
      },
      "getApproved(uint256)": {
        "details": "See {IERC721-getApproved}."
      },
      "isApprovedForAll(address,address)": {
        "details": "See {IERC721-isApprovedForAll}."
      },
      "name()": {
        "details": "See {IERC721Metadata-name}."
      },
      "ownerOf(uint256)": {
        "details": "See {IERC721-ownerOf}."
      },
      "safeTransferFrom(address,address,uint256)": {
        "details": "See {IERC721-safeTransferFrom}."
      },
      "safeTransferFrom(address,address,uint256,bytes)": {
        "details": "See {IERC721-safeTransferFrom}."
      },
      "setApprovalForAll(address,bool)": {
        "details": "See {IERC721-setApprovalForAll}."
      },
      "supportsInterface(bytes4)": {
        "details": "See {IERC165-supportsInterface}."
      },
      "symbol()": {
        "details": "See {IERC721Metadata-symbol}."
      },
      "transferFrom(address,address,uint256)": {
        "details": "See {IERC721-transferFrom}."
      }
    },
    "version": 1
  },
  "userdoc": {
    "kind": "user",
    "methods": {},
    "version": 1
  }
}