{
  "contractName": "MyContract",
  "abi": [
    {
      "inputs": [],
      "stateMutability": "nonpayable",
      "type": "constructor"
    },
    {
      "anonymous": false,
      "inputs": [
        {
          "indexed": true,
          "internalType": "address",
          "name": "owner",
          "type": "address"
        },
        {
          "indexed": true,
          "internalType": "address",
          "name": "approved",
          "type": "address"
        },
        {
          "indexed": true,
          "internalType": "uint256",
          "name": "tokenId",
          "type": "uint256"
        }
      ],
      "name": "Approval",
      "type": "event"
    },
    {
      "anonymous": false,
      "inputs": [
        {
          "indexed": true,
          "internalType": "address",
          "name": "owner",
          "type": "address"
        },
        {
          "indexed": true,
          "internalType": "address",
          "name": "operator",
          "type": "address"
        },
        {
          "indexed": false,
          "internalType": "bool",
          "name": "approved",
          "type": "bool"
        }
      ],
      "name": "ApprovalForAll",
      "type": "event"
    },
    {
      "anonymous": false,
      "inputs": [
        {
          "indexed": true,
          "internalType": "address",
          "name": "from",
          "type": "address"
        },
        {
          "indexed": true,
          "internalType": "address",
          "name": "to",
          "type": "address"
        },
        {
          "indexed": true,
          "internalType": "uint256",
          "name": "tokenId",
          "type": "uint256"
        }
      ],
      "name": "Transfer",
      "type": "event"
    },
    {
      "inputs": [
        {
          "internalType": "address",
          "name": "to",
          "type": "address"
        },
        {
          "internalType": "uint256",
          "name": "tokenId",
          "type": "uint256"
        }
      ],
      "name": "approve",
      "outputs": [],
      "stateMutability": "nonpayable",
      "type": "function"
    },
    {
      "inputs": [
        {
          "internalType": "uint256",
          "name": "",
          "type": "uint256"
        }
      ],
      "name": "auctions",
      "outputs": [
        {
          "internalType": "address",
          "name": "owner",
          "type": "address"
        },
        {
          "internalType": "uint256",
          "name": "auctionId",
          "type": "uint256"
        },
        {
          "internalType": "uint256",
          "name": "tokenId",
          "type": "uint256"
        },
        {
          "internalType": "uint256",
          "name": "deadline",
          "type": "uint256"
        },
        {
          "internalType": "uint256",
          "name": "startingPrice",
          "type": "uint256"
        },
        {
          "internalType": "bool",
          "name": "cancelled",
          "type": "bool"
        },
        {
          "internalType": "bool",
          "name": "ended",
          "type": "bool"
        }
      ],
      "stateMutability": "view",
      "type": "function",
      "constant": true
    },
    {
      "inputs": [
        {
          "internalType": "address",
          "name": "owner",
          "type": "address"
        }
      ],
      "name": "balanceOf",
      "outputs": [
        {
          "internalType": "uint256",
          "name": "",
          "type": "uint256"
        }
      ],
      "stateMutability": "view",
      "type": "function",
      "constant": true
    },
    {
      "inputs": [
        {
          "internalType": "uint256",
          "name": "",
          "type": "uint256"
        }
      ],
      "name": "bids",
      "outputs": [
        {
          "internalType": "address",
          "name": "bidder",
          "type": "address"
        },
        {
          "internalType": "uint256",
          "name": "amount",
          "type": "uint256"
        }
      ],
      "stateMutability": "view",
      "type": "function",
      "constant": true
    },
    {
      "inputs": [
        {
          "internalType": "uint256",
          "name": "tokenId",
          "type": "uint256"
        }
      ],
      "name": "getApproved",
      "outputs": [
        {
          "internalType": "address",
          "name": "",
          "type": "address"
        }
      ],
      "stateMutability": "view",
      "type": "function",
      "constant": true
    },
    {
      "inputs": [
        {
          "internalType": "address",
          "name": "owner",
          "type": "address"
        },
        {
          "internalType": "address",
          "name": "operator",
          "type": "address"
        }
      ],
      "name": "isApprovedForAll",
      "outputs": [
        {
          "internalType": "bool",
          "name": "",
          "type": "bool"
        }
      ],
      "stateMutability": "view",
      "type": "function",
      "constant": true
    },
    {
      "inputs": [],
      "name": "name",
      "outputs": [
        {
          "internalType": "string",
          "name": "",
          "type": "string"
        }
      ],
      "stateMutability": "view",
      "type": "function",
      "constant": true
    },
    {
      "inputs": [
        {
          "internalType": "uint256",
          "name": "tokenId",
          "type": "uint256"
        }
      ],
      "name": "ownerOf",
      "outputs": [
        {
          "internalType": "address",
          "name": "",
          "type": "address"
        }
      ],
      "stateMutability": "view",
      "type": "function",
      "constant": true
    },
    {
      "inputs": [
        {
          "internalType": "address",
          "name": "from",
          "type": "address"
        },
        {
          "internalType": "address",
          "name": "to",
          "type": "address"
        },
        {
          "internalType": "uint256",
          "name": "tokenId",
          "type": "uint256"
        }
      ],
      "name": "safeTransferFrom",
      "outputs": [],
      "stateMutability": "nonpayable",
      "type": "function"
    },
    {
      "inputs": [
        {
          "internalType": "address",
          "name": "from",
          "type": "address"
        },
        {
          "internalType": "address",
          "name": "to",
          "type": "address"
        },
        {
          "internalType": "uint256",
          "name": "tokenId",
          "type": "uint256"
        },
        {
          "internalType": "bytes",
          "name": "_data",
          "type": "bytes"
        }
      ],
      "name": "safeTransferFrom",
      "outputs": [],
      "stateMutability": "nonpayable",
      "type": "function"
    },
    {
      "inputs": [
        {
          "internalType": "address",
          "name": "operator",
          "type": "address"
        },
        {
          "internalType": "bool",
          "name": "approved",
          "type": "bool"
        }
      ],
      "name": "setApprovalForAll",
      "outputs": [],
      "stateMutability": "nonpayable",
      "type": "function"
    },
    {
      "inputs": [
        {
          "internalType": "bytes4",
          "name": "interfaceId",
          "type": "bytes4"
        }
      ],
      "name": "supportsInterface",
      "outputs": [
        {
          "internalType": "bool",
          "name": "",
          "type": "bool"
        }
      ],
      "stateMutability": "view",
      "type": "function",
      "constant": true
    },
    {
      "inputs": [],
      "name": "symbol",
      "outputs": [
        {
          "internalType": "string",
          "name": "",
          "type": "string"
        }
      ],
      "stateMutability": "view",
      "type": "function",
      "constant": true
    },
    {
      "inputs": [
        {
          "internalType": "address",
          "name": "from",
          "type": "address"
        },
        {
          "internalType": "address",
          "name": "to",
          "type": "address"
        },
        {
          "internalType": "uint256",
          "name": "tokenId",
          "type": "uint256"
        }
      ],
      "name": "transferFrom",
      "outputs": [],
      "stateMutability": "nonpayable",
      "type": "function"
    },
    {
      "inputs": [
        {
          "internalType": "address",
          "name": "to",
          "type": "address"
        },
        {
          "internalType": "string",
          "name": "uri",
          "type": "string"
        }
      ],
      "name": "safeMint",
      "outputs": [],
      "stateMutability": "nonpayable",
      "type": "function"
    },
    {
      "inputs": [
        {
          "internalType": "uint256",
          "name": "_auctionId",
          "type": "uint256"
        },
        {
          "internalType": "uint256",
          "name": "_tokenId",
          "type": "uint256"
        },
        {
          "internalType": "uint256",
          "name": "_deadline",
          "type": "uint256"
        },
        {
          "internalType": "uint256",
          "name": "_startingPrice",
          "type": "uint256"
        }
      ],
      "name": "createAuction",
      "outputs": [],
      "stateMutability": "nonpayable",
      "type": "function"
    },
    {
      "inputs": [
        {
          "internalType": "uint256",
          "name": "_auctionId",
          "type": "uint256"
        }
      ],
      "name": "bidAuction",
      "outputs": [],
      "stateMutability": "payable",
      "type": "function",
      "payable": true
    },
    {
      "inputs": [
        {
          "internalType": "uint256",
          "name": "_auctionId",
          "type": "uint256"
        }
      ],
      "name": "finalizeAuction",
      "outputs": [],
      "stateMutability": "nonpayable",
      "type": "function"
    },
    {
      "inputs": [
        {
          "internalType": "uint256",
          "name": "_auctionId",
          "type": "uint256"
        }
      ],
      "name": "cancelAuction",
      "outputs": [],
      "stateMutability": "nonpayable",
      "type": "function"
    },
    {
      "inputs": [
        {
          "internalType": "uint256",
          "name": "tokenId",
          "type": "uint256"
        }
      ],
      "name": "tokenURI",
      "outputs": [
        {
          "internalType": "string",
          "name": "",
          "type": "string"
        }
      ],
      "stateMutability": "view",
      "type": "function",
      "constant": true
    }
  ],
  "bytecode": "0x60806040523480156200001157600080fd5b50604080518082018252600981526827232a102a37b5b2b760b91b60208083019182528351808501909452600384526213919560ea1b9084015281519192916200005e916000916200007d565b508051620000749060019060208401906200007d565b50505062000160565b8280546200008b9062000123565b90600052602060002090601f016020900481019282620000af5760008555620000fa565b82601f10620000ca57805160ff1916838001178555620000fa565b82800160010185558215620000fa579182015b82811115620000fa578251825591602001919060010190620000dd565b50620001089291506200010c565b5090565b5b808211156200010857600081556001016200010d565b600181811c908216806200013857607f821691505b602082108114156200015a57634e487b7160e01b600052602260045260246000fd5b50919050565b611fdc80620001706000396000f3fe60806040526004361061011f5760003560e01c806364a7d7c7116100a0578063b88d4fde11610064578063b88d4fde146103d3578063c87b56dd146103f3578063d204c45e14610413578063e808386314610433578063e985e9c51461045357600080fd5b806364a7d7c71461033d57806370a082311461035057806395d89b411461037e57806396b5a75514610393578063a22cb465146103b357600080fd5b806342842e0e116100e757806342842e0e146101f5578063431f21da146102155780634423c5f114610235578063571a26a0146102745780636352211e1461031d57600080fd5b806301ffc9a71461012457806306fdde0314610159578063081812fc1461017b578063095ea7b3146101b357806323b872dd146101d5575b600080fd5b34801561013057600080fd5b5061014461013f366004611c73565b61049c565b60405190151581526020015b60405180910390f35b34801561016557600080fd5b5061016e6104ee565b6040516101509190611d90565b34801561018757600080fd5b5061019b610196366004611cad565b610580565b6040516001600160a01b039091168152602001610150565b3480156101bf57600080fd5b506101d36101ce366004611c49565b61060d565b005b3480156101e157600080fd5b506101d36101f0366004611af3565b610723565b34801561020157600080fd5b506101d3610210366004611af3565b610754565b34801561022157600080fd5b506101d3610230366004611cc6565b61076f565b34801561024157600080fd5b50610255610250366004611cad565b610896565b604080516001600160a01b039093168352602083019190915201610150565b34801561028057600080fd5b506102da61028f366004611cad565b6009602052600090815260409020805460018201546002830154600384015460048501546005909501546001600160a01b039094169492939192909160ff8082169161010090041687565b604080516001600160a01b03909816885260208801969096529486019390935260608501919091526080840152151560a0830152151560c082015260e001610150565b34801561032957600080fd5b5061019b610338366004611cad565b6108ce565b6101d361034b366004611cad565b610945565b34801561035c57600080fd5b5061037061036b366004611aa5565b610b53565b604051908152602001610150565b34801561038a57600080fd5b5061016e610bda565b34801561039f57600080fd5b506101d36103ae366004611cad565b610be9565b3480156103bf57600080fd5b506101d36103ce366004611bab565b610d39565b3480156103df57600080fd5b506101d36103ee366004611b2f565b610dfe565b3480156103ff57600080fd5b5061016e61040e366004611cad565b610e36565b34801561041f57600080fd5b506101d361042e366004611be7565b610e41565b34801561043f57600080fd5b506101d361044e366004611cad565b610e70565b34801561045f57600080fd5b5061014461046e366004611ac0565b6001600160a01b03918216600090815260056020908152604080832093909416825291909152205460ff1690565b60006001600160e01b031982166380ac58cd60e01b14806104cd57506001600160e01b03198216635b5e139f60e01b145b806104e857506301ffc9a760e01b6001600160e01b03198316145b92915050565b6060600080546104fd90611eb5565b80601f016020809104026020016040519081016040528092919081815260200182805461052990611eb5565b80156105765780601f1061054b57610100808354040283529160200191610576565b820191906000526020600020905b81548152906001019060200180831161055957829003601f168201915b5050505050905090565b600061058b82610f93565b6105f15760405162461bcd60e51b815260206004820152602c60248201527f4552433732313a20617070726f76656420717565727920666f72206e6f6e657860448201526b34b9ba32b73a103a37b5b2b760a11b60648201526084015b60405180910390fd5b506000908152600460205260409020546001600160a01b031690565b6000610618826108ce565b9050806001600160a01b0316836001600160a01b031614156106865760405162461bcd60e51b815260206004820152602160248201527f4552433732313a20617070726f76616c20746f2063757272656e74206f776e656044820152603960f91b60648201526084016105e8565b336001600160a01b03821614806106a257506106a2813361046e565b6107145760405162461bcd60e51b815260206004820152603860248201527f4552433732313a20617070726f76652063616c6c6572206973206e6f74206f7760448201527f6e6572206e6f7220617070726f76656420666f7220616c6c000000000000000060648201526084016105e8565b61071e8383610fb0565b505050565b61072d338261101e565b6107495760405162461bcd60e51b81526004016105e890611df5565b61071e838383611108565b61071e83838360405180602001604052806000815250610dfe565b61077883610f93565b61078157600080fd5b3361078b846108ce565b6001600160a01b03161461079e57600080fd5b4282116107aa57600080fd5b6107f76040518060e0016040528060006001600160a01b03168152602001600081526020016000815260200160008152602001600081526020016000151581526020016000151581525090565b33815260408082019485526060820193845260808201928352600060a0830181815260c084018281529782526009602090815292909120835181546001600160a01b03919091166001600160a01b03199091161781559190920151600182015593516002850155915160038401555160048301555160059091018054925115156101000261ff00199215159290921661ffff1990931692909217179055565b600881815481106108a657600080fd5b6000918252602090912060029091020180546001909101546001600160a01b03909116915082565b6000818152600260205260408120546001600160a01b0316806104e85760405162461bcd60e51b815260206004820152602960248201527f4552433732313a206f776e657220717565727920666f72206e6f6e657869737460448201526832b73a103a37b5b2b760b91b60648201526084016105e8565b600081815260096020908152604091829020825160e08101845281546001600160a01b031680825260018301549382019390935260028201549381019390935260038101546060840152600481015460808401526005015460ff808216151560a085015261010090910416151560c08301523314156109c357600080fd5b80608001513410156109d457600080fd5b806060015142106109e457600080fd5b8060a00151806109f557508060c001515b156109ff57600080fd5b6040805180820190915260008082526020820152600854600111610a735760088054610a2d90600190611e72565b81548110610a3d57610a3d611f61565b60009182526020918290206040805180820190915260029092020180546001600160a01b03168252600101549181019190915290505b80602001513411610a8357600080fd5b805160208201516040516001600160a01b039092169181156108fc0291906000818181858888f19350505050610abb57610abb611f1f565b50506040805180820190915233815234602082019081526008805460018101825560009190915291517ff3f7a9fe364faab93b216da50a3214154f22a0a2b415b23a84c8169e8b636ee3600290930292830180546001600160a01b0319166001600160a01b03909216919091179055517ff3f7a9fe364faab93b216da50a3214154f22a0a2b415b23a84c8169e8b636ee49091015550565b60006001600160a01b038216610bbe5760405162461bcd60e51b815260206004820152602a60248201527f4552433732313a2062616c616e636520717565727920666f7220746865207a65604482015269726f206164647265737360b01b60648201526084016105e8565b506001600160a01b031660009081526003602052604090205490565b6060600180546104fd90611eb5565b600081815260096020908152604091829020825160e08101845281546001600160a01b031680825260018301549382019390935260028201549381019390935260038101546060840152600481015460808401526005015460ff808216151560a085015261010090910416151560c08301523314610c6657600080fd5b8060a0015180610c7757508060c001515b15610c8157600080fd5b6040805180820190915260008082526020820152600854600111610cf55760088054610caf90600190611e72565b81548110610cbf57610cbf611f61565b60009182526020918290206040805180820190915260029092020180546001600160a01b03168252600101549181019190915290505b805160208201516040516001600160a01b039092169181156108fc0291906000818181858888f19350505050610d2d57610d2d611f1f565b50600160a09091015250565b6001600160a01b038216331415610d925760405162461bcd60e51b815260206004820152601960248201527f4552433732313a20617070726f766520746f2063616c6c65720000000000000060448201526064016105e8565b3360008181526005602090815260408083206001600160a01b03871680855290835292819020805460ff191686151590811790915590519081529192917f17307eab39ab6107e8899845ad3d59bd9653f200f220920489ca2b5937696c31910160405180910390a35050565b610e08338361101e565b610e245760405162461bcd60e51b81526004016105e890611df5565b610e30848484846112a8565b50505050565b60606104e8826112db565b6000610e4c60075490565b9050610e5c600780546001019055565b610e668382611469565b61071e8183611487565b600081815260096020908152604091829020825160e08101845281546001600160a01b031680825260018301549382019390935260028201549381019390935260038101546060840152600481015460808401526005015460ff808216151560a085015261010090910416151560c08301523314610eed57600080fd5b8060a0015115610efc57600080fd5b8060c0015115610f0b57600080fd5b604080518082019091526000808252602082015260088054610f2f90600190611e72565b81548110610f3f57610f3f611f61565b6000918252602091829020604080518082018252600290930290910180546001600160a01b031680845260019091015493830193909352840151909250610f87913391611108565b50600160c09091015250565b6000908152600260205260409020546001600160a01b0316151590565b600081815260046020526040902080546001600160a01b0319166001600160a01b0384169081179091558190610fe5826108ce565b6001600160a01b03167f8c5be1e5ebec7d5bd14f71427d1e84f3dd0314c0f7b2291e5b200ac8c7c3b92560405160405180910390a45050565b600061102982610f93565b61108a5760405162461bcd60e51b815260206004820152602c60248201527f4552433732313a206f70657261746f7220717565727920666f72206e6f6e657860448201526b34b9ba32b73a103a37b5b2b760a11b60648201526084016105e8565b6000611095836108ce565b9050806001600160a01b0316846001600160a01b031614806110d05750836001600160a01b03166110c584610580565b6001600160a01b0316145b8061110057506001600160a01b0380821660009081526005602090815260408083209388168352929052205460ff165b949350505050565b826001600160a01b031661111b826108ce565b6001600160a01b0316146111835760405162461bcd60e51b815260206004820152602960248201527f4552433732313a207472616e73666572206f6620746f6b656e2074686174206960448201526839903737ba1037bbb760b91b60648201526084016105e8565b6001600160a01b0382166111e55760405162461bcd60e51b8152602060048201526024808201527f4552433732313a207472616e7366657220746f20746865207a65726f206164646044820152637265737360e01b60648201526084016105e8565b6111f0600082610fb0565b6001600160a01b0383166000908152600360205260408120805460019290611219908490611e72565b90915550506001600160a01b0382166000908152600360205260408120805460019290611247908490611e46565b909155505060008181526002602052604080822080546001600160a01b0319166001600160a01b0386811691821790925591518493918716917fddf252ad1be2c89b69c2b068fc378daa952ba7f163c4a11628f55a4df523b3ef91a4505050565b6112b3848484611108565b6112bf84848484611512565b610e305760405162461bcd60e51b81526004016105e890611da3565b60606112e682610f93565b61134c5760405162461bcd60e51b815260206004820152603160248201527f45524337323155524953746f726167653a2055524920717565727920666f72206044820152703737b732bc34b9ba32b73a103a37b5b2b760791b60648201526084016105e8565b6000828152600660205260408120805461136590611eb5565b80601f016020809104026020016040519081016040528092919081815260200182805461139190611eb5565b80156113de5780601f106113b3576101008083540402835291602001916113de565b820191906000526020600020905b8154815290600101906020018083116113c157829003601f168201915b50505050509050600061141b60408051808201909152601781527668747470733a2f2f7777772e676f6f676c652e636f6d2f60481b602082015290565b905080516000141561142e575092915050565b815115611460578082604051602001611448929190611d24565b60405160208183030381529060405292505050919050565b6111008461161f565b611483828260405180602001604052806000815250611716565b5050565b61149082610f93565b6114f35760405162461bcd60e51b815260206004820152602e60248201527f45524337323155524953746f726167653a2055524920736574206f66206e6f6e60448201526d32bc34b9ba32b73a103a37b5b2b760911b60648201526084016105e8565b6000828152600660209081526040909120825161071e9284019061197a565b60006001600160a01b0384163b1561161457604051630a85bd0160e11b81526001600160a01b0385169063150b7a0290611556903390899088908890600401611d53565b602060405180830381600087803b15801561157057600080fd5b505af19250505080156115a0575060408051601f3d908101601f1916820190925261159d91810190611c90565b60015b6115fa573d8080156115ce576040519150601f19603f3d011682016040523d82523d6000602084013e6115d3565b606091505b5080516115f25760405162461bcd60e51b81526004016105e890611da3565b805181602001fd5b6001600160e01b031916630a85bd0160e11b149050611100565b506001949350505050565b606061162a82610f93565b61168e5760405162461bcd60e51b815260206004820152602f60248201527f4552433732314d657461646174613a2055524920717565727920666f72206e6f60448201526e3732bc34b9ba32b73a103a37b5b2b760891b60648201526084016105e8565b60006116c460408051808201909152601781527668747470733a2f2f7777772e676f6f676c652e636f6d2f60481b602082015290565b905060008151116116e4576040518060200160405280600081525061170f565b806116ee84611749565b6040516020016116ff929190611d24565b6040516020818303038152906040525b9392505050565b6117208383611847565b61172d6000848484611512565b61071e5760405162461bcd60e51b81526004016105e890611da3565b60608161176d5750506040805180820190915260018152600360fc1b602082015290565b8160005b8115611797578061178181611ef0565b91506117909050600a83611e5e565b9150611771565b60008167ffffffffffffffff8111156117b2576117b2611f77565b6040519080825280601f01601f1916602001820160405280156117dc576020820181803683370190505b5090505b8415611100576117f1600183611e72565b91506117fe600a86611f0b565b611809906030611e46565b60f81b81838151811061181e5761181e611f61565b60200101906001600160f81b031916908160001a905350611840600a86611e5e565b94506117e0565b6001600160a01b03821661189d5760405162461bcd60e51b815260206004820181905260248201527f4552433732313a206d696e7420746f20746865207a65726f206164647265737360448201526064016105e8565b6118a681610f93565b156118f35760405162461bcd60e51b815260206004820152601c60248201527f4552433732313a20746f6b656e20616c7265616479206d696e7465640000000060448201526064016105e8565b6001600160a01b038216600090815260036020526040812080546001929061191c908490611e46565b909155505060008181526002602052604080822080546001600160a01b0319166001600160a01b03861690811790915590518392907fddf252ad1be2c89b69c2b068fc378daa952ba7f163c4a11628f55a4df523b3ef908290a45050565b82805461198690611eb5565b90600052602060002090601f0160209004810192826119a857600085556119ee565b82601f106119c157805160ff19168380011785556119ee565b828001600101855582156119ee579182015b828111156119ee5782518255916020019190600101906119d3565b506119fa9291506119fe565b5090565b5b808211156119fa57600081556001016119ff565b600067ffffffffffffffff80841115611a2e57611a2e611f77565b604051601f8501601f19908116603f01168101908282118183101715611a5657611a56611f77565b81604052809350858152868686011115611a6f57600080fd5b858560208301376000602087830101525050509392505050565b80356001600160a01b0381168114611aa057600080fd5b919050565b600060208284031215611ab757600080fd5b61170f82611a89565b60008060408385031215611ad357600080fd5b611adc83611a89565b9150611aea60208401611a89565b90509250929050565b600080600060608486031215611b0857600080fd5b611b1184611a89565b9250611b1f60208501611a89565b9150604084013590509250925092565b60008060008060808587031215611b4557600080fd5b611b4e85611a89565b9350611b5c60208601611a89565b925060408501359150606085013567ffffffffffffffff811115611b7f57600080fd5b8501601f81018713611b9057600080fd5b611b9f87823560208401611a13565b91505092959194509250565b60008060408385031215611bbe57600080fd5b611bc783611a89565b915060208301358015158114611bdc57600080fd5b809150509250929050565b60008060408385031215611bfa57600080fd5b611c0383611a89565b9150602083013567ffffffffffffffff811115611c1f57600080fd5b8301601f81018513611c3057600080fd5b611c3f85823560208401611a13565b9150509250929050565b60008060408385031215611c5c57600080fd5b611c6583611a89565b946020939093013593505050565b600060208284031215611c8557600080fd5b813561170f81611f8d565b600060208284031215611ca257600080fd5b815161170f81611f8d565b600060208284031215611cbf57600080fd5b5035919050565b60008060008060808587031215611cdc57600080fd5b5050823594602084013594506040840135936060013592509050565b60008151808452611d10816020860160208601611e89565b601f01601f19169290920160200192915050565b60008351611d36818460208801611e89565b835190830190611d4a818360208801611e89565b01949350505050565b6001600160a01b0385811682528416602082015260408101839052608060608201819052600090611d8690830184611cf8565b9695505050505050565b60208152600061170f6020830184611cf8565b60208082526032908201527f4552433732313a207472616e7366657220746f206e6f6e20455243373231526560408201527131b2b4bb32b91034b6b83632b6b2b73a32b960711b606082015260800190565b60208082526031908201527f4552433732313a207472616e736665722063616c6c6572206973206e6f74206f6040820152701ddb995c881b9bdc88185c1c1c9bdd9959607a1b606082015260800190565b60008219821115611e5957611e59611f35565b500190565b600082611e6d57611e6d611f4b565b500490565b600082821015611e8457611e84611f35565b500390565b60005b83811015611ea4578181015183820152602001611e8c565b83811115610e305750506000910152565b600181811c90821680611ec957607f821691505b60208210811415611eea57634e487b7160e01b600052602260045260246000fd5b50919050565b6000600019821415611f0457611f04611f35565b5060010190565b600082611f1a57611f1a611f4b565b500690565b634e487b7160e01b600052600160045260246000fd5b634e487b7160e01b600052601160045260246000fd5b634e487b7160e01b600052601260045260246000fd5b634e487b7160e01b600052603260045260246000fd5b634e487b7160e01b600052604160045260246000fd5b6001600160e01b031981168114611fa357600080fd5b5056fea264697066735822122077cf0afa4707e49e48dc3c3c8f3d83e0efeef4c181a2fb6417557e0c5c0573f264736f6c63430008060033",
  "immutableReferences": {},
  "source": "// SPDX-License-Identifier: MIT\r\npragma solidity ^0.8.2;\r\n\r\nimport \"@openzeppelin/contracts/token/ERC721/ERC721.sol\";\r\nimport \"@openzeppelin/contracts/token/ERC721/extensions/ERC721URIStorage.sol\";\r\nimport \"@openzeppelin/contracts/utils/Counters.sol\";\r\n\r\ncontract MyContract is ERC721, ERC721URIStorage {\r\n    \r\n    using Counters for Counters.Counter;\r\n    Counters.Counter private _tokenIdCounter;\r\n    \r\n    struct Auction {\r\n        address owner;\r\n        uint auctionId;\r\n        uint tokenId;\r\n        uint deadline;\r\n        uint startingPrice;\r\n        bool cancelled;\r\n        bool ended;\r\n    }\r\n    \r\n    struct Bid {\r\n        address bidder;\r\n        uint amount;\r\n    }\r\n    \r\n    Bid[] public bids;\r\n    mapping(uint => Auction) public auctions;\r\n\r\n    constructor() ERC721(\"NFT Token\", \"NFT\") {}\r\n\r\n    function _baseURI() internal pure override returns (string memory) {\r\n        return \"https://www.google.com/\";\r\n    }\r\n\r\n    function safeMint(address to, string memory uri) public {\r\n        uint256 tokenId = _tokenIdCounter.current();\r\n        _tokenIdCounter.increment();\r\n        _safeMint(to, tokenId);\r\n        _setTokenURI(tokenId, uri);\r\n    }\r\n    \r\n    function createAuction(uint _auctionId, uint _tokenId, uint _deadline, uint _startingPrice) public {\r\n        require(_exists(_tokenId));\r\n        require(ownerOf(_tokenId) == msg.sender);\r\n        require(_deadline > block.timestamp);\r\n        require(_startingPrice >= 0);\r\n        \r\n        Auction memory newAuction;\r\n        newAuction.owner = msg.sender;\r\n        newAuction.tokenId = _tokenId;\r\n        newAuction.deadline = _deadline;\r\n        newAuction.startingPrice = _startingPrice;\r\n        newAuction.cancelled = false;\r\n        newAuction.ended = false;\r\n\r\n        auctions[_auctionId] = newAuction;\r\n    }\r\n    \r\n    function bidAuction(uint _auctionId) public payable {\r\n        Auction memory auction = auctions[_auctionId];\r\n        \r\n        require(auction.owner != msg.sender);\r\n        require(msg.value >= auction.startingPrice);\r\n        require(block.timestamp < auction.deadline);\r\n        require(!(auction.cancelled || auction.ended));\r\n        \r\n        Bid memory lastBid;\r\n        if (bids.length >= 1) {\r\n            lastBid = bids[bids.length - 1];\r\n        }\r\n        require(msg.value > lastBid.amount);\r\n        assert(payable(lastBid.bidder).send(lastBid.amount));\r\n        \r\n        Bid memory newBid;\r\n        newBid.bidder = msg.sender;\r\n        newBid.amount = msg.value;\r\n        \r\n        bids.push(newBid);\r\n    }\r\n    \r\n    function finalizeAuction(uint _auctionId) public {\r\n        Auction memory auction = auctions[_auctionId];\r\n        \r\n        require(auction.owner == msg.sender);\r\n        require(!auction.cancelled);\r\n        require(!auction.ended);\r\n        \r\n        Bid memory lastBid;\r\n        lastBid = bids[bids.length - 1];\r\n        _transfer(msg.sender, lastBid.bidder, auction.tokenId);\r\n        \r\n        auction.ended = true;\r\n    }\r\n    \r\n    function cancelAuction(uint _auctionId) public {\r\n        Auction memory auction = auctions[_auctionId];\r\n        \r\n        require(msg.sender == auction.owner);\r\n        require(!(auction.cancelled || auction.ended));\r\n        \r\n        Bid memory lastBid;\r\n        if (bids.length >= 1) {\r\n            lastBid = bids[bids.length - 1];\r\n        }\r\n        assert(payable(lastBid.bidder).send(lastBid.amount));\r\n        \r\n        auction.cancelled = true;\r\n    }\r\n\r\n    // The following functions are overrides required by Solidity.\r\n\r\n    function _burn(uint256 tokenId) internal override(ERC721, ERC721URIStorage) {\r\n        super._burn(tokenId);\r\n    }\r\n\r\n    function tokenURI(uint256 tokenId)\r\n        public\r\n        view\r\n        override(ERC721, ERC721URIStorage)\r\n        returns (string memory)\r\n    {\r\n        return super.tokenURI(tokenId);\r\n    }\r\n}",
  "sourcePath": "D:\\RapidInnovation\\New folder\\NFT_Auction\\contracts\\Main.sol",
  "compiler": {
    "name": "solc",
    "version": "0.8.6+commit.11564f7e.Emscripten.clang"
  },
  "schemaVersion": "3.4.2",
  "updatedAt": "2021-11-09T12:01:44.617Z",
  "networkType": "ethereum",
  "devdoc": {
    "kind": "dev",
    "methods": {
      "approve(address,uint256)": {
        "details": "See {IERC721-approve}."
      },
      "balanceOf(address)": {
        "details": "See {IERC721-balanceOf}."
      },
      "getApproved(uint256)": {
        "details": "See {IERC721-getApproved}."
      },
      "isApprovedForAll(address,address)": {
        "details": "See {IERC721-isApprovedForAll}."
      },
      "name()": {
        "details": "See {IERC721Metadata-name}."
      },
      "ownerOf(uint256)": {
        "details": "See {IERC721-ownerOf}."
      },
      "safeTransferFrom(address,address,uint256)": {
        "details": "See {IERC721-safeTransferFrom}."
      },
      "safeTransferFrom(address,address,uint256,bytes)": {
        "details": "See {IERC721-safeTransferFrom}."
      },
      "setApprovalForAll(address,bool)": {
        "details": "See {IERC721-setApprovalForAll}."
      },
      "supportsInterface(bytes4)": {
        "details": "See {IERC165-supportsInterface}."
      },
      "symbol()": {
        "details": "See {IERC721Metadata-symbol}."
      },
      "transferFrom(address,address,uint256)": {
        "details": "See {IERC721-transferFrom}."
      }
    },
    "version": 1
  },
  "userdoc": {
    "kind": "user",
    "methods": {},
    "version": 1
  }
}